:100000000C9469000C9486000C9486000C94860075
:100010000C9486000C9486000C9486000C94860048
:100020000C9486000C9486000C9486000C94640159
:100030000C9486000C9486000C9415010C94860098
:100040000C9486000C9486000C941C030C9486007F
:100050000C9486000C9486000C9486000C94860008
:100060000C9486000C9486000C9486000C948600F8
:100070000C9486000C9486000C9486000C948600E8
:100080000C9486000C9486000C9486000C948600D8
:100090000C9486000C9486000C9486000C948600C8
:1000A0000C9486000C9486000C9486000C948600B8
:1000B0000C948600FD05FB05FD05FF05FF05050603
:1000C000FF0505060506050605060506FF050506E6
:1000D000050611241FBECFEFD8E0DEBFCDBF12E072
:1000E000A0E0B1E0E6E6F1E102C005900D92A23594
:1000F000B107D9F723E0A2E5B2E001C01D92A13B10
:10010000B207E1F70E9451030C94B1080C9400006F
:10011000EAE7F0E0808184608083ECE7F0E08081B2
:1001200080648083808186608083EEE7F0E0808158
:100130008064808308958DE08093810082E08093C5
:100140006F00089590938900809388002091840027
:10015000309185008217930728F4019790938500CA
:100160008093840008951F93CF93DF93162F90916F
:1001700060019923E1F380935202C82FD0E0FE0181
:10018000EE0FFF1FEC0FFD1FEE0FFF1FE050FF4FA4
:10019000A0819A2F991F9927991FA181A770AA0F53
:1001A000A92BB0E0A25ABD4F9C918281892B8C93E0
:1001B00083818F3F09F184E10E943002AEE5B2E015
:1001C00013962C911397AE01440F551FFA01EC0FB3
:1001D000FD1FEE0FFF1FEC5FFE4F90819170919518
:1001E0009227C40FD51FCC0FDD1FC050DF4F8B816E
:1001F0009823292713962C93113428F0EEE5F2E08A
:100200008085816080875D9A0E94EF035D98EEE6AD
:10021000F0E080818260808385B5836085BD109227
:100220006001DF91CF911F9108951F920F920FB639
:100230000F9211242F933F934F935F936F937F936C
:100240008F939F93AF93BF93CF93DF93EF93FF93DE
:1002500015BCEEE6F0E080818D7F808380915202B4
:1002600090E0DC01AA0FBB1FED01C80FD91FCC0F16
:10027000DD1FC050DF4FE8812E2F221F2227221FB3
:10028000E981E770EE0FE22BF0E0E25AFD4F8A8140
:1002900080959081892380830E94EF0381E0809381
:1002A0006001FF91EF91DF91CF91BF91AF919F914D
:1002B0008F917F916F915F914F913F912F910F900F
:1002C0000FBE0F901F9018951F920F920FB60F92AE
:1002D00011242F933F934F935F936F937F938F934B
:1002E0009F93AF93BF93EF93FF9380916C0381FF34
:1002F0000CC0E9E6F2E0808186959181981335C0C3
:10030000EEE5F2E01182108230C080916B028370C2
:10031000823009F04FC080916902869509F44AC085
:10032000EEE5F2E01182108245C0EBE6F2E090814A
:1003300081E0890F83709C7F892B808310926A02F1
:10034000EEEAF3E0808121E0280F2F70807F822B7E
:10035000808381E090E002C0880F991F2A95E2F720
:10036000EEE5F2E0818390832DC0E9E6F2E0818141
:100370008F5F81839081891325C0D7CFEBE6F2E0B0
:10038000908181E0890F83709C7F892B80831092FC
:100390006A02EEEAF3E0908181E0890F8F70907F2E
:1003A000892B8083EEE5F2E01182108280E00E94CA
:1003B000F30108C0E9E6F2E081818F5F81839081DB
:1003C0008917E1F2FF91EF91BF91AF919F918F91CA
:1003D0007F916F915F914F913F912F910F900FBE41
:1003E0000F901F901895CF93DF9390E09C01220F00
:1003F000331F820F931FDC01AE59BE4F2C91E22FA9
:10040000EF70F0E0E25AFD4FEC01CF59DE4F308142
:100410008881832B8083822F80618C93DF91CF91A1
:100420000895CF93DF9390E09C01220F331F820F3A
:10043000931FDC01AE59BE4F2C91E22FEF70F0E01C
:10044000E25AFD4FEC01CF59DE4F888180959081B3
:1004500089238083822F8F7E8C93DF91CF910895A3
:10046000282F30E0F901EE0FFF1F2E0F3F1FF9017B
:10047000EE59FE4F908194FF03C00E94110208952F
:100480000E94F3010895EEE5F2E082818F7082838D
:1004900087818072878383818F70838386818F7C3D
:1004A0008683089508950895403120F4622F842FA3
:1004B0000E94B3000895CF93DF93C0E0D0E0FE0127
:1004C000EE0FFF1FE45FFD4F808186FF0BC08C2F76
:1004D0000E943002FE01EE0FFF1FE45FFD4F80819E
:1004E0008F7B80832196C031D10549F7DF91CF9171
:1004F000089580912E0286FF08C0EEE2F2E08F7B25
:10050000808360E080E00E94B3008091300286FF2B
:1005100008C0E0E3F2E08F7B808360E081E00E942E
:10052000B3008091320286FF08C0E2E3F2E08F7BE5
:10053000808360E082E00E94B3008091340286FFF5
:1005400008C0E4E3F2E08F7B808360E083E00E94F8
:10055000B3008091360286FF08C0E6E3F2E08F7BAD
:10056000808360E084E00E94B3008091380286FFBF
:1005700008C0E8E3F2E08F7B808360E085E00E94C2
:10058000B30080913A0286FF08C0EAE3F2E08F7B75
:10059000808360E086E00E94B30080913C0286FF89
:1005A00008C0ECE3F2E08F7B808360E087E00E948C
:1005B000B30080913E0286FF08C0EEE3F2E08F7B3D
:1005C000808360E088E00E94B3008091400286FF53
:1005D00008C0E0E4F2E08F7B808360E089E00E9465
:1005E000B3008091420286FF08C0E2E4F2E08F7B14
:1005F000808360E08AE00E94B30008950E941304A3
:100600000E9483040E945C0480916B03833011F488
:100610000E9479020E94AC030E945B020E94A00427
:100620000E94EF0308958FE18093C4001092C500EB
:1006300088E98093C10008951F920F920FB60F9220
:1006400011242F933F934F935F936F937F938F93D7
:100650009F93AF93BF93EF93FF93CF93DF931F923B
:10066000CDB7DEB78091C6008983AE014F5F5F4F83
:1006700061E08EE792E00E9444060F90DF91CF91F7
:10068000FF91EF91BF91AF919F918F917F916F916A
:100690005F914F913F912F910F900FBE0F901F9040
:1006A0001895559A8DB18C608DB987B18E6087B9D8
:1006B000209A739888B1817F88B92898439A80E5F9
:1006C0008093AC00EDEAF0E080818160808380E07F
:1006D0000E94F3018DE10E94F30182E20E94F30186
:1006E0000E94EF0384B5826084BD81EE87BD8EE7F2
:1006F00092E00E94130664E572E08EE792E00E94A9
:10070000070662E572E08EE792E00E940B0663E561
:1007100072E08EE792E00E940F060E9413030E948F
:100720009B00E9E6F2E086E0808381E0818384EF4C
:1007300091E0948383830E94A2000E948800ECE6EB
:10074000F3E080818D7F808378948EE792E00E9431
:100750003D080E94FE02F9CF80914C0286FF34C012
:10076000ECE4F2E08F7B808380916C0380FF0CC00F
:1007700080915302882321F08150809353020EC050
:1007800085E0809353020AC0809153028F5F8630C8
:1007900019F08093530202C0109253022091530229
:1007A000E22FF0E0EA5FFD4F808180936B03EEE57E
:1007B000F2E081E090E002C0880F991F2A95E2F7ED
:1007C0009481907C892B848308958093AE00EDEA18
:1007D000F0E080818823ECF78091AE000895CF93FC
:1007E000DF93CEE5D2E088810E94E50389810E94F3
:1007F000E5038A810E94E5038B810E94E5038C81D9
:100800000E94E5038D810E94E5038E810E94E5032D
:100810008F810E94E50388850E94E5034398439AEF
:10082000DF91CF910895CF93DF93429A80E00E94A9
:10083000E503C9E5D2E0888380E00E94E50389836F
:1008400080E00E94E5038A8380E00E94E5038B83B9
:1008500080E00E94E5038C8342989881392F369579
:10086000ECE6F3E0208130FB20F92083E4E5F2E0C0
:10087000208192272927208392239883218199819F
:100880009227292721839223998322819A81922773
:100890002927228392239A8323819B8192272927C8
:1008A000238392239B839481892798279483892388
:1008B0008C83DF91CF91089540E050E0DA01AA0FD8
:1008C000BB1FA45FBD4F8C91E82FE695E695E6959A
:1008D000E770F0E0E75AFD4F208130E0982F9770E5
:1008E00002C0359527959A95E2F7217086FB9927E6
:1008F00090F9292720FB86F98C934F5F5F4F433295
:100900005105E1F6089593B18091670298278927F0
:10091000809367028923809368028695ECE6F3E072
:10092000908191FB222720F9822780FB91F9908307
:1009300091FD05C0EEEAF3E08081807F8083089519
:100940003F924F925F926F927F928F929F92AF925F
:10095000BF92CF92DF92EF92FF920F931F93CF93AC
:10096000DF930F2EF5E0EF2EF1E0FF2EF02D0F2E8E
:10097000FBE38F2EF1E09F2EF02D02E110E0C1E1AC
:10098000D0E0C12CD12C0F2EF0EBAF2EF3E0BF2E18
:10099000F02D0F2EFFE54F2EF1E05F2EF02D0F2EE4
:1009A000FFE03F2EF02D0CC08FEFC81AD80A219619
:1009B0000F5F1F4FA6E0EA0EF11CB6E08B0E911CF4
:1009C000FE01EE0FFF1FE45FFD4F808186FF37C001
:1009D000FE01EE0FFF1FE45FFD4F8F7B80830E94BF
:1009E0004302F701D70112978C918F3FA9F0D501EF
:1009F0008C9190E0C816D90649F4F40180810E94D8
:100A0000F30189E08C0DD5018C9319C080810E947F
:100A1000F301F501C08213C0D5018C91863051F4E9
:100A2000C731D10539F4F20180810E94F301D5016B
:100A30003C92BACF80810E94F301F501C0820C3153
:100A400011050CF4B1CF80912C0286FF0CC0ECE2B2
:100A5000F2E08F7B80830E94430284E10E94F301D5
:100A600080E18093B003DF91CF911F910F91FF90B0
:100A7000EF90DF90CF90BF90AF909F908F907F903E
:100A80006F905F904F903F900895FC014283748374
:100A90006383118210820895FF920F931F93CF9367
:100AA000DF93EC01062F0E94C505182FF9804F2D0A
:100AB00050E0CA0101962A81622F70E00E947408FA
:100AC000288130E08217930729F4812F0E94C805FE
:100AD00080E012C0EB81FC81EF0DF11D00832981C4
:100AE00030E0C90101966A8170E00E947408898330
:100AF000812F0E94C80581E0DF91CF911F910F9156
:100B0000FF900895CF93DF93EC010E94C5053981D2
:100B10002881321718F0C32FC21B04C09A81C32F3B
:100B2000C90FC21B0E94C8058C2FDF91CF91089579
:100B3000FC01808170E09B01280F311DC901628199
:100B400070E00E9474080380F481E02DE80FF91F23
:100B5000808108951F93CF93DF93EC01162F0E949D
:100B6000C505482F8881212F30E0B901680F711D1C
:100B7000CB016A8170E00E9474088883842F0E94F0
:100B8000C805DF91CF911F9108958FB7F89408950C
:100B90008FBF0895881F8827881F089591E0883F98
:100BA00008F490E0892F0895982F907F903CB1F041
:100BB00058F4903941F118F4903819F524C0903A5E
:100BC00011F1903BF1F41FC0903EE9F018F4903D14
:100BD00029F017C0903F21F0933F99F482E00895E7
:100BE00090E0FC01E15FF109EF30F10540F4E65AD5
:100BF000FF4F0C94880883E0089582E0089580E018
:100C0000089580E0089583E0089581E00895FC014F
:100C1000758364830895FC01778366830895FC01DE
:100C2000778B668B0895CF93DF93EC011DA21FA2F3
:100C30001EA2BC01685D7F4F40EC88519F4F0E940F
:100C400045051B821A821D821C821F821E82198604
:100C500018861B861A861D861C861F861E86198A84
:100C6000188A1B8A1A8A1D8A1C8A1F8A1E8A198E54
:100C7000188E1B8E1A8E1D8E1C8E1F8E1E8E19A214
:100C800018A2DF91CF910895EF92FF920F931F93D7
:100C9000CF93DF93662399F0EA016150062F10E0AD
:100CA0000F5F1F4F040F151F7C0128EEE20EF11C91
:100CB0006991C7010E944C05C017D107C9F7DF91A0
:100CC000CF911F910F91FF90EF900895AF92BF9237
:100CD000CF92DF92EF92FF920F931F93CF93DF9308
:100CE00000D01F92CDB7DEB77C016B01142FB22E5E
:100CF000A02EDC0195968C919597843011F55A962B
:100D0000ED91FC915B97309709F4CCC09B01215089
:100D10003109ABEABAEA0E948E08969587959C0144
:100D2000220F331F820F931F4983BA820B834C2DEE
:100D3000481B9E012F5F3F4F682F792FC7010995F0
:100D4000BEC06230710509F455C06330710529F0E9
:100D50006130710509F0A1C088C0842F807F803A7E
:100D6000F1F028F48038A9F0803969F02FC0803E76
:100D7000E1F0803F01F1803B49F5D7011296ED91FA
:100D8000FC91139725C0D7011496ED91FC9115970E
:100D90001FC0D7011696ED91FC91179719C0D70186
:100DA0001896ED91FC91199713C0D7011A96ED9101
:100DB000FC911B970DC0423F09F074C0D7011C96EF
:100DC000ED91FC911D97309741F46CC0E0E0F0E0AC
:100DD000309709F467C0123F31F42A2D4B2D62EF92
:100DE000C70109956CC02A2D4B2D612F6F70C7016B
:100DF000099565C0842F807F803D51F0803F71F060
:100E0000803C01F5D7011E96ED91FC911F971CC007
:100E1000D7015096ED91FC91519716C0433F41F494
:100E2000D7015296ED91FC915397309799F43AC0BF
:100E3000413FC1F5D7015496ED91FC9155973097FC
:100E400049F430C0E0E0F0E0309761F1812F8D7F10
:100E5000813F29F44B2D612FC701099530C04B2DDF
:100E6000612F6F70C70109952AC0842F0E94CE059B
:100E7000882331F0D7015696ED91FC91579707C022
:100E8000163F81F4D7015896ED91FC915997309710
:100E900049F0612FC701099512C06430710510F047
:100EA000C12CD12CD7015C96ED91FC915D973097C8
:100EB00031F00A2D2B2D412FB601C7010995D7011D
:100EC0005E96ED91FC915F97309731F00A2D2B2DB6
:100ED000412FB601C70109950F900F900F90DF9138
:100EE000CF911F910F91FF90EF90DF90CF90BF9027
:100EF000AF900895FF920F931F93CF93DF93EC0170
:100F0000162F862F0E94CE05882369F0FDA081E070
:100F10008DA300E020E0412F61E070E0CE010E944F
:100F20006606FDA2A4C0812F0E94CA05882309F489
:100F30005DC08DA1843029F01AA381E090E09FA3C9
:100F40008EA3812F0E94D405813031F0B8F0823019
:100F500079F0833081F046C081E08DA300E020E08D
:100F6000412F61E070E0CE010E9466061DA27FC0A5
:100F700082E08DA37CC083E08DA379C0103F19F07F
:100F8000173F51F02BC084E08DA380EF8AA381E04E
:100F900090E09FA38EA36BC04EA15FA19A01ABEA24
:100FA000BAEA0E948E08969587959C01220F331FFE
:100FB000820F931FFA01E81BF90BEC0FFD1F87EF5F
:100FC00082A3BA016F5F7F4F7FA36EA30CA12BA1F9
:100FD0004AA1CE010E9466061DA249C01DA21FA201
:100FE0001EA245C01DA21FA21EA241C0EDA1EE235C
:100FF000F1F14EA15FA19A01ABEABAEA0E948E0814
:10100000969587959C01220F331F820F931F9A019B
:10101000281B390BDE01A20FB31F92961C93BA0155
:101020006F5F7F4F7FA36EA32130310589F022309F
:101030003105E9F40CA12BA14AA1CE010E9466065C
:101040008DA18430A1F081E090E09FA38EA30FC01A
:10105000E23069F400E02BA14AA1CE010E946606AD
:101060008DA1843021F081E090E09FA38EA3DF91D9
:10107000CF911F910F91FF900895CF92DF92EF9241
:10108000FF920F931F93CF93DF936C01DC01909637
:10109000ED91FC919197309709F0099586010851DF
:1010A0001F4FC8010E948205E82EF12CE114F104C3
:1010B00091F0C0E0D0E060E0C8010E949805682F80
:1010C000C6010E947A0761E0C8010E94AA05219624
:1010D000CE15DF0581F7DF91CF911F910F91FF9022
:1010E000EF90DF90CF90089597FB072E16F40094B1
:1010F00007D077FD09D00E949D0807FC05D03EF47B
:10110000909581959F4F0895709561957F4F0895B3
:10111000EE0FFF1F0590F491E02D0994A29FB001FE
:10112000B39FC001A39F700D811D1124911DB29F1B
:10113000700D811D1124911D0895AA1BBB1B51E147
:1011400007C0AA1FBB1FA617B70710F0A61BB70B37
:10115000881F991F5A95A9F780959095BC01CD01DC
:061160000895F894FFCF92
:10116600000402FF0015010404FF00160204080132
:1011760001170304100201300404200401310504A0
:1011860040080032060480FF0033070301FF0035E4
:10119600080302FF0036090304FF002C0A0308FFB8
:1011A600002D0B04080100180C04100200190D0490
:1011B6002004001A0E044008011B8F0320FF003490
:1011C60001010100020100040100080100100100F4
:1011D600200100400100800100010000020000041F
:1011E6000000080000100000200000400000800001
:1011F60000010200020200040200080200100200C0
:10120600200200400200800200100300200300407C
:101216000300800300010400020400040400080423
:1012260000100400200400400400800400010500B2
:101236000205000405000805001005002005004011
:101246000500800500100600200600400600800606
:101256000001070002070004070008070010070046
:10126600400700800700000102030405200021005A
:10127600220023002400250026002700180019005C
:101286001A001B001C001D001E001F001500160082
:101296001700080009000A000B000C000D000E00E4
:1012A6000F000000010002001000110012001300E0
:0212B600140022
:00000001FF
