S017000054522D3830382D6669726D776172652E7372656310
S11300000C9469000C9486000C9486000C94860071
S11300100C9486000C9486000C9486000C94860044
S11300200C9486000C9486000C9486000C94860034
S11300300C9486000C9486000C9486000C94860024
S11300400C9486000C9486000C9430010C94860069
S11300500C9486000C9486000C9486000C94860004
S11300600C9486000C9486000C9486000C948600F4
S11300700C9486000C9486000C9486000C948600E4
S11300800C9486000C9486000C9486000C948600D4
S11300900C9486000C9486000C9486000C948600C4
S11300A00C9486000C9486000C9486000C948600B4
S11300B00C948600630261026302650265026B02AE
S11300C065026B026B026B026B026B0265026B02D0
S11300D06B0211241FBECFEFD8E0DEBFCDBF11E00D
S11300E0A0E0B1E0E2E3FAE002C005900D92A0388E
S11300F0B107D9F722E0A0E8B1E001C01D92AD3705
S1130100B207E1F70E9465010C9417050C940000F6
S1130110089508958093AE00EDEAF0E0808188238D
S1130120ECF78091AE0008950F931F93CF93DF9364
S1130130403108F087C0042F10E0F801EE0FFF1FD4
S1130140EE0FFF1FEE0FFF1FE050FF4FA281B0E044
S1130150A058BE4F9C918381892B8C93A681B0E0DB
S1130160A058BE4F9C918781892B8C9394819F3F8B
S1130170B1F0A0E8B1E011962C911197F801EE0FBF
S1130180FF1FEE0FFF1FEE0FFF1FEB5FFE4F80817F
S11301908170819582278923822711968C935D9A99
S11301A0C0E8D1E088810E948A0089810E948A0087
S11301B08A810E948A008B810E948A008C810E941D
S11301C08A008D810E948A008E810E948A00439851
S11301D0439A5D988FE09EE00197F1F700C000001C
S11301E0F801EE0FFF1FEE0FFF1FEE0FFF1FE05091
S11301F0FF4FA281B0E0A058BE4F838180959C91AF
S113020089238C93A681B0E0A058BE4F8781809546
S11302109C9189238C9388810E948A0089810E9401
S11302208A008A810E948A008B810E948A008C81C4
S11302300E948A008D810E948A008E810E948A0019
S11302404398439ADF91CF911F910F9108958FE1C5
S11302508093C4001092C50088E98093C10008957A
S11302601F920F920FB60F9211242F933F934F9327
S11302705F936F937F938F939F93AF93BF93EF930A
S1130280FF93CF93DF931F92CDB7DEB78091C60063
S11302908983AE014F5F5F4F61E080E991E00E9486
S11302A0AA020F90DF91CF91FF91EF91BF91AF918F
S11302B09F918F917F916F915F914F913F912F917A
S11302C00F900FBE0F901F901895559A8DB18C60AA
S11302D08DB987B18E6087B9209A739888B1817F70
S11302E088B92898439A80E58093AC0080E10E9405
S11302F08A0080E00E948A0080E00E948A0080E0F8
S11303000E948A0080E00E948A0080E00E948A00A5
S113031080E00E948A004398439A80E991E00E9419
S1130320790264E970E080E991E00E946D0268E876
S113033070E080E991E00E94710269E870E080E970
S113034091E00E9475020E942701789480E991E06F
S11303500E94A304FBCFFC01428374836383118254
S113036010820895FF920F931F93CF93DF93EC01B4
S1130370062F0E942B02182FF9804F2D50E0CA013E
S113038001962A81622F70E00E94DA04288130E00D
S11303908217930729F4812F0E942E0280E012C055
S11303A0EB81FC81EF0DF11D0083298130E0C9014F
S11303B001966A8170E00E94DA048983812F0E9489
S11303C02E0281E0DF91CF911F910F91FF9008954C
S11303D0CF93DF93EC010E942B02398128813217DD
S11303E018F0C32FC21B04C09A81C32FC90FC21BAC
S11303F00E942E028C2FDF91CF910895FC01808101
S113040070E09B01280F311DC901628170E00E94D8
S1130410DA040380F481E02DE80FF91F8081089548
S11304201F93CF93DF93EC01162F0E942B02482FCA
S11304308881212F30E0B901680F711DCB016A81D9
S113044070E00E94DA048883842F0E942E02DF91D8
S1130450CF911F9108958FB7F89408958FBF089591
S1130460881F8827881F089591E0883F08F490E04A
S1130470892F0895982F907F903CB1F058F49039CB
S113048041F118F4903819F524C0903A11F1903BD9
S1130490F1F41FC0903EE9F018F4903D29F017C024
S11304A0903F21F0933F99F482E0089590E0FC019D
S11304B0E15FF109EF30F10540F4E65AFF4F0C9487
S11304C0EE0483E0089582E0089580E0089580E0DA
S11304D0089583E0089581E00895FC0175836483A1
S11304E00895FC01778366830895FC01778B668BFE
S11304F00895CF93DF93EC011DA21FA21EA2BC019D
S1130500685D7F4F40EC88519F4F0E94AB011B8276
S11305101A821D821C821F821E82198618861B86DF
S11305201A861D861C861F861E86198A188A1B8AAF
S11305301A8A1D8A1C8A1F8A1E8A198E188E1B8E7F
S11305401A8E1D8E1C8E1F8E1E8E19A218A2DF916C
S1130550CF910895EF92FF920F931F93CF93DF9360
S1130560662399F0EA016150062F10E00F5F1F4FD8
S1130570040F151F7C0128EEE20EF11C6991C701DE
S11305800E94B201C017D107C9F7DF91CF911F9123
S11305900F91FF90EF900895AF92BF92CF92DF92A8
S11305A0EF92FF920F931F93CF93DF9300D01F928C
S11305B0CDB7DEB77C016B01142FB22EA02EDC0167
S11305C095968C919597843011F55A96ED91FC91FE
S11305D05B97309709F4CCC09B0121503109ABEAF9
S11305E0BAEA0E94F404969587959C01220F331F62
S11305F0820F931F4983BA820B834C2D481B9E01A3
S11306002F5F3F4F682F792FC7010995BEC0623015
S1130610710509F455C06330710529F06130710525
S113062009F0A1C088C0842F807F803AF1F028F4BB
S11306308038A9F0803969F02FC0803EE1F0803F16
S113064001F1803B49F5D7011296ED91FC91139786
S113065025C0D7011496ED91FC9115971FC0D701C1
S11306601696ED91FC91179719C0D7011896ED9144
S1130670FC91199713C0D7011A96ED91FC911B9721
S11306800DC0423F09F074C0D7011C96ED91FC9156
S11306901D97309741F46CC0E0E0F0E0309709F426
S11306A067C0123F31F42A2D4B2D62EFC701099523
S11306B06CC02A2D4B2D612F6F70C701099565C041
S11306C0842F807F803D51F0803F71F0803C01F5A4
S11306D0D7011E96ED91FC911F971CC0D70150962F
S11306E0ED91FC91519716C0433F41F4D7015296C6
S11306F0ED91FC915397309799F43AC0413FC1F57D
S1130700D7015496ED91FC915597309749F430C038
S1130710E0E0F0E0309761F1812F8D7F813F29F493
S11307204B2D612FC701099530C04B2D612F6F7080
S1130730C70109952AC0842F0E943402882331F00E
S1130740D7015696ED91FC91579707C0163F81F457
S1130750D7015896ED91FC915997309749F0612F44
S1130760C701099512C06430710510F0C12CD12C59
S1130770D7015C96ED91FC915D97309731F00A2D8D
S11307802B2D412FB601C7010995D7015E96ED9136
S1130790FC915F97309731F00A2D2B2D412FB60134
S11307A0C70109950F900F900F90DF91CF911F9182
S11307B00F91FF90EF90DF90CF90BF90AF9008958E
S11307C0FF920F931F93CF93DF93EC01162F862F85
S11307D00E943402882369F0FDA081E08DA300E02B
S11307E020E0412F61E070E0CE010E94CC02FDA226
S11307F0A4C0812F0E943002882309F45DC08DA11A
S1130800843029F01AA381E090E09FA38EA3812F66
S11308100E943A02813031F0B8F0823079F08330AE
S113082081F046C081E08DA300E020E0412F61E02B
S113083070E0CE010E94CC021DA27FC082E08DA395
S11308407CC083E08DA379C0103F19F0173F51F0AD
S11308502BC084E08DA380EF8AA381E090E09FA366
S11308608EA36BC04EA15FA19A01ABEABAEA0E94C3
S1130870F404969587959C01220F331F820F931FD2
S1130880FA01E81BF90BEC0FFD1F87EF82A3BA01F5
S11308906F5F7F4F7FA36EA30CA12BA14AA1CE0152
S11308A00E94CC021DA249C01DA21FA21EA245C0C7
S11308B01DA21FA21EA241C0EDA1EE23F1F14EA183
S11308C05FA19A01ABEABAEA0E94F404969587956F
S11308D09C01220F331F820F931F9A01281B390B8F
S11308E0DE01A20FB31F92961C93BA016F5F7F4F74
S11308F07FA36EA32130310589F022303105E9F45C
S11309000CA12BA14AA1CE010E94CC028DA184305E
S1130910A1F081E090E09FA38EA30FC0E23069F4C0
S113092000E02BA14AA1CE010E94CC028DA184300B
S113093021F081E090E09FA38EA3DF91CF911F91DE
S11309400F91FF900895CF92DF92EF92FF920F9351
S11309501F93CF93DF936C01DC019096ED91FC9192
S11309609197309709F00995860108511F4FC801E6
S11309700E94E801E82EF12CE114F10491F0C0E0AA
S1130980D0E060E0C8010E94FE01682FC6010E9409
S1130990E00361E0C8010E9410022196CE15DF0534
S11309A081F7DF91CF911F910F91FF90EF90DF902E
S11309B0CF90089597FB072E16F4009407D077FD87
S11309C009D00E94030507FC05D03EF4909581955B
S11309D09F4F0895709561957F4F0895EE0FFF1F07
S11309E00590F491E02D0994A29FB001B39FC0013A
S11309F0A39F700D811D1124911DB29F700D811D47
S1130A001124911D0895AA1BBB1B51E107C0AA1F05
S1130A10BB1FA617B70710F0A61BB70B881F991F9B
S1130A205A95A9F780959095BC01CD010895F89445
S1050A30FFCFF2
S1130A3200000602FF00002001000604FF0000403F
S1130A4202000608010100800300061002010501EC
S1130A5204000620040105020500064008000504FE
S1130A6206000680FF00050807000401FF00054098
S1130A7208000402FF00058009000404FF000410BA
S1130A820A000408FF0004200B00060801000110FC
S1130A920C000610020001200D0006200400014093
S1130AA20E000640080101800F000520FF0005101A
S9030000FC
