:100000000C9469000C9486000C9486000C94860075
:100010000C9486000C9486000C9486000C94860048
:100020000C9486000C9486000C9486000C94650257
:100030000C9486000C9486000C944A020C94860062
:100040000C9486000C9486000C94E7050C948600B2
:100050000C9486000C9486000C9486000C94860008
:100060000C9486000C9486000C9486000C948600F8
:100070000C9486000C9486000C9486000C948600E8
:100080000C9486000C9486000C9486000C948600D8
:100090000C9486000C9486000C9486000C948600C8
:1000A0000C9486000C9486000C9486000C948600B8
:1000B0000C9486005D095B095D095F095F096509AC
:1000C0005F09650965096509650965095F096509CC
:1000D000650911241FBECFEFD8E0DEBFCDBF12E00F
:1000E000A0E0B1E0E6E2F8E102C005900D92A8358B
:1000F000B107D9F724E0A8E5B2E001C01D92AB3406
:10010000B207E1F70E941C060C94110C0C9400003D
:10011000EAE7F0E0808184608083ECE7F0E08081B2
:1001200080648083808186608083EEE7F0E0808158
:100130008064808308951092AC006A98EAE7F0E04A
:10014000808180688083808180648083808186FD57
:10015000FDCF6A9AEAE7F0E080818F77808381E5BE
:100160008093AC00809178009091790008958DE0A3
:100170008093810082E080936F00089590938900BE
:100180008093880020918400309185008217930726
:1001900028F40197909385008093840008951F931D
:1001A000CF93DF93162F80935802C82FD0E0FE0123
:1001B000EE0FFF1FEC0FFD1FEE0FFF1FE050FF4F74
:1001C000A0819A2F991F9927991FA181A770AA0F23
:1001D000A92BB0E0A859BD4F9C918281892B8C93AB
:1001E00083818F3F09F184E10E941004A8E6B2E008
:1001F00013962C911397AE01440F551FFA01EC0F83
:10020000FD1FEE0FFF1FEC5FFE4F908191709195E7
:100210009227C40FD51FCC0FDD1FC050DF4F8B813D
:100220009823292713962C93113428F0E8E6F2E05E
:100230008085816080875D9A0E94F3065D98EEE676
:10024000F0E080818260808385B5836085BD1092F7
:100250006601DF91CF911F910895E8E6F2E01086E4
:100260008681807F868387818F7D878308959F9293
:10027000AF92BF92CF92DF92EF92FF920F931F93B4
:10028000CF93DF930E942D0105E011E0C0E0D0E0A4
:100290000F2EF6E4AF2EF4E0BF2EF02D0F2EF5E476
:1002A000EF2EF4E0FF2EF02D0F2EF7E69F2EF02D0F
:1002B0000F2EF8E6CF2EF2E0DF2EF02DD501EC91D7
:1002C000E695EF71F0E0D7018C91EE0FFF1F817082
:1002D000989EE00DF11D1124EB58FC4F8281938113
:1002E0000C2E02C0969587950A94E2F780FF3AC0DB
:1002F000F80180810E94D303DE01AA0FBB1FAC0F5F
:10030000BD1FAA0FBB1FA050BF4FEC918E2F881F9F
:100310008827881F1196EC91E770EE0FE82BF0E02C
:10032000E859FD4FD80113979C918081892B8083D8
:10033000F801329780818F3FA9F0D60113962C9156
:100340001397FE01EE0FFF1FEC0FFD1FEE0FFF1FB7
:10035000EC5FFE4F908191709195922789238227BF
:1003600013968C9321960A5F1F4FC031D10509F077
:10037000A5CFDF91CF911F910F91FF90EF90DF906C
:10038000CF90BF90AF909F9008958091340286FFE8
:1003900008C0E4E3F2E08F7B808360E080E00E94AD
:1003A000CF008091360286FF08C0E6E3F2E08F7B43
:1003B000808360E081E00E94CF008091380286FF58
:1003C00008C0E8E3F2E08F7B808360E082E00E9477
:1003D000CF0080913A0286FF08C0EAE3F2E08F7B0B
:1003E000808360E083E00E94CF0080913C0286FF22
:1003F00008C0ECE3F2E08F7B808360E084E00E9441
:10040000CF0080913E0286FF08C0EEE3F2E08F7BD2
:10041000808360E085E00E94CF008091400286FFEB
:1004200008C0E0E4F2E08F7B808360E086E00E9419
:10043000CF008091420286FF08C0E2E4F2E08F7BA9
:10044000808360E087E00E94CF008091440286FFB5
:1004500008C0E4E4F2E08F7B808360E088E00E94E3
:10046000CF008091460286FF08C0E6E4F2E08F7B71
:10047000808360E089E00E94CF008091480286FF7F
:1004800008C0E8E4F2E08F7B808360E08AE00E94AD
:10049000CF0008951F920F920FB60F9211248F93E1
:1004A000EF93FF9315BCEEE6F0E080818D7F8083B3
:1004B000E5E4F4E0828181608283FF91EF918F9186
:1004C0000F900FBE0F901F9018951F920F920FB6AE
:1004D0000F9211240F931F932F933F934F935F938A
:1004E0006F937F938F939F93AF93BF93CF93DF933C
:1004F000EF93FF93E3E7F2E091819F5F9183808127
:1005000098134DC0E5E4F4E091819064A5E7B2E072
:100510002C9131E0320F33702C7F232B2C931092CF
:100520007402392F36953F7121E0230F2F71220F6E
:10053000917C922B9183208122952F7091709295BE
:10054000907F922B39132BC09181917C9183908164
:1005500093FF1AC0292F277F20832695237030E030
:100560002130310559F02230310511F0232BB9F437
:10057000E5E4F4E090819E7F908311C0E5E4F4E02F
:100580009081916090830BC09670943041F4E5E4C3
:10059000F4E09081292F209520FB90F99083869597
:1005A000909174029813EAC03091D3012091D60142
:1005B000E8E6F2E0822F832B80959581892385835D
:1005C0008091760381FFAAC0C9E4D4E0E881F0E01D
:1005D000B29605E414E0D8018C91EE0FFF1F8170F4
:1005E000B7E68B9FE00DF11D1124EB58FC4F928173
:1005F0008381E8E6F2E0918380830E94230488816E
:1006000090E0FC01EE0FFF1FE80FF91FEE0FFF1F38
:10061000E050FF4F85810E94D303F80180818695C9
:10062000837090E08130910551F082309105A9F0FE
:10063000009701F52091D30120934A041BC020911B
:10064000450423FF05C02091D30120934A0412C022
:100650002091D60120934A040DC02091450420FD2D
:1006600005C02091D30120934A0404C02091D601F3
:1006700020934A0420917502237030E02230310526
:100680000CF075C02091450423FF32C081309105E4
:1006900069F08230910591F0892B51F5EAE4F4E09C
:1006A0009091D6018081892B808322C0EAE4F4E016
:1006B0009091D6018081892B80831AC020FD0CC0C7
:1006C000EAE4F4E09091D6018081892B8083267042
:1006D000243009F04CC012C0EAE4F4E09091D30158
:1006E0008081892B80832670243009F040C00EC0A1
:1006F000822F86708430D9F520FD08C0EAE4F4E04A
:100700009091D6018081892B808331C0EAE4F4E0A6
:100710009091D3018081892B808329C0E8E6F2E0A3
:1007200011821082809145048695837090E081301B
:10073000910541F08230910511F0892B29F4309315
:100740004A0402C020934A0480917502837090E0AD
:1007500002976CF4809145048670843029F4EAE4B1
:10076000F4E08081282B208380E00E94D303E8E618
:10077000F2E090914A048581892B8583FF91EF9166
:10078000DF91CF91BF91AF919F918F917F916F91A9
:100790005F914F913F912F911F910F910F900FBE3D
:1007A0000F901F901895CF93DF9390E09C01220F3C
:1007B000331F820F931FDC01A859BE4F2C91E22FEB
:1007C000EF70F0E0E859FD4FEC01C959DE4F308180
:1007D0008881832B8083822F80618C93DF91CF91DE
:1007E0000895CF93DF9390E09C01220F331F820F77
:1007F000931FDC01A859BE4F2C91E22FEF70F0E05F
:10080000E859FD4FEC01C959DE4F888180959081F0
:1008100089238083822F8F7E8C93DF91CF910895DF
:10082000282F30E0F901EE0FFF1F2E0F3F1FF901B7
:10083000E859FE4F908194FF03C00E94F103089590
:100840000E94D3030895E8E6F2E082818F708283EC
:1008500087818072878383818F70838386818F7C79
:100860008683089508950895403120F4622F842FDF
:100870000E94CF0008954F925F926F927F929F9255
:10088000AF92BF92CF92DF92EF92FF920F931F939E
:10089000CF93DF938091760381FFCEC08091750363
:1008A0008150823008F0C8C080914904803109F03D
:1008B00060C0C0E0D0E00F2EF5E4AF2EF4E0BF2E14
:1008C000F02DCC24C394D12C0F2EF7E69F2EF02DC3
:1008D00009E414E0FE01EE0FFF1FEE5EFD4F808184
:1008E00086FF41C08C2F0E941004FE01EE0FFF1FF7
:1008F000EE5EFD4F80818F7B8083D5018C9180FBE4
:10090000EE24E0F8F12C9E9CC0019F9C900D1124D8
:10091000FC01E954FC4F96010C2E02C0220F331F3C
:100920000A94E2F72901032E000C6608770840813B
:100930005181628173814425552566257725408341
:10094000518362837383D801EC91F0E0B296EE0F8D
:10095000FF1FE80FF91FEB58FC4F82819381282776
:100960003927338322832196C031D10509F0B2CFD4
:1009700063C0C0E0D0E00F2EF5E4CF2EF4E0DF2E10
:10098000F02D0F2EF9E4EF2EF4E0FF2EF02D0F2EB8
:10099000F7E69F2EF02DAA24A394B12CFE01EE0FB2
:1009A000FF1FEE5EFD4F808186FF41C08C2F0E94AD
:1009B0001004FE01EE0FFF1FDF01AE5EBD4F8C91F4
:1009C0008F7B8C93D6018C91082F017010E0D7019A
:1009D0004C91242F30E0909EC001919E900D1124E7
:1009E000E80FF91FEB58FC4FB50102C0660F771FE7
:1009F0004A95E2F7AB0162817381462757275383FB
:100A00004283F901B296EE0FFF1F8E0F9F1FFC016C
:100A1000EB58FC4F8281938195010C2E02C0220F6E
:100A2000331F0A94E2F782279327938382832196C8
:100A3000C031D10509F0B2CFDF91CF911F910F9155
:100A4000FF90EF90DF90CF90BF90AF909F907F90FE
:100A50006F905F904F900895DF92EF92FF920F9307
:100A60001F93CF93DF930E94BB060E9417070E943B
:100A700087070E94600780917503833011F40E94FC
:100A8000C5010E9482060E9470080E94CB070E9446
:100A90003B048091760381FF7DC08091460486FFF0
:100AA00082C0E5E4F4E081818F7B818380914704FB
:100AB00081708823F1F35D9A06E414E0D8018C91EB
:100AC00086958F7121E030E002C0220F331F8A9596
:100AD000E2F7E0914904F0E0B2960F2EF5E4EF2E34
:100AE000F4E0FF2EF02DD7018C91EE0FFF1F0F2E9B
:100AF000F7E6DF2EF02D8170D89EE00DF11D112458
:100B0000EB58FC4F92818381E8E6F2E0492F4223C3
:100B10004095922B94239183982F93239095832B28
:100B2000892380830E943701F70180818170C82F5B
:100B3000F0E0DF2FDC9EF001DD9EF00D1124E95482
:100B4000FC4FD8018C9186958F71408151816281D3
:100B500073818A019B0104C03695279517950795E7
:100B60008A95D2F700FF08C0E8E6F2E08085816050
:100B7000808784E10E94D303EEE6F0E0808182600A
:100B8000808385B5836085BDE5E4F4E082818E7F56
:100B9000828309C08091460486FF05C0E5E4F4E045
:100BA00081818F7B81830E94F3065D98DF91CF91D5
:100BB0001F910F91FF90EF90DF9008958FE1809348
:100BC000C4001092C50088E98093C10008951F9267
:100BD0000F920FB60F9211242F933F934F935F9371
:100BE0006F937F938F939F93AF93BF93EF93FF93F5
:100BF000CF93DF931F92CDB7DEB78091C600898374
:100C0000AE014F5F5F4F61E088E892E00E94A40967
:100C10000F90DF91CF91FF91EF91BF91AF919F9195
:100C20008F917F916F915F914F913F912F910F9095
:100C30000FBE0F901F901895559A8DB18C608DB98D
:100C400087B18E6087B9209A739888B1817F88B9FF
:100C50002898439A80E58093AC00EDEAF0E080812B
:100C60008160808380E00E94D3038DE10E94D303E2
:100C700082E20E94D3030E94F30684B5826084BDA1
:100C800081EE87BD88E892E00E94730964E374E016
:100C900088E892E00E94670962E374E088E892E0E5
:100CA0000E946B0963E374E088E892E00E946F0998
:100CB0000E94DE050E94B700E3E7F2E086E0808351
:100CC000C1E0C1830E948800E5E4F4E08281816094
:100CD0008283A6E7B3E08C918D7F8C938081897F9E
:100CE000806F808381818E7F818384E20E94D30321
:100CF000C0937503789488E892E00E949D0B0E944F
:100D00002C05F9CF8091520286FF34C0E2E5F2E073
:100D10008F7B80838091760380FF0CC08091590285
:100D2000882321F08150809359020EC085E0809382
:100D300059020AC0809159028F5F863019F0809362
:100D4000590202C01092590220915902E22FF0E09C
:100D5000E45FFD4F808180937503E8E6F2E081E077
:100D600090E002C0880F991F2A95E2F79481907C49
:100D7000892B848308950E949B0090935D02809349
:100D80005C0220915A0230915B02821B930B959575
:100D9000879595958795820F931F90935B0280931B
:100DA0005A0223E634E0A901481B590BCA01E3E7C4
:100DB000F2E054834383258136814217530711F0B3
:100DC0000E94BE00E3E7F2E08381948196838583ED
:100DD00008958093AE00EDEAF0E080818823ECF77F
:100DE0008091AE000895CF93DF93C8E6D2E088816A
:100DF0000E94E90689810E94E9068A810E94E9062B
:100E00008B810E94E9068C810E94E9068D810E94F7
:100E1000E9068E810E94E9068F810E94E906888595
:100E20000E94E9064398439ADF91CF910895CF93AA
:100E3000DF93429A80E00E94E906C3E6D2E088830D
:100E400080E00E94E906898380E00E94E9068A83A7
:100E500080E00E94E9068B8380E00E94E9068C8393
:100E600042989881392F3695E6E7F3E0208130FBF0
:100E700020F92083EEE5F2E02081922729272083C4
:100E80009223988321819981922729272183922374
:100E9000998322819A8192272927228392239A83F8
:100EA00023819B8192272927238392239B839481EB
:100EB00089279827948389238C83DF91CF91089584
:100EC00040E050E0DA01AA0FBB1FAE5EBD4F8C912F
:100ED000E82FE695E695E695E770F0E0ED59FD4FD1
:100EE000208130E0982F977002C0359527959A950C
:100EF000E2F7217086FB992790F9292720FB86F9D4
:100F00008C934F5F5F4F43325105E1F6089593B1E3
:100F10008091710298278927809371028923809399
:100F20007202E6E7F3E0908191FB222720F9869593
:100F3000822780FB91F9908391FF2AC021112AC05A
:100F4000E5E4F4E08181817C806481831092740205
:100F50008081877F808381FD03C08E7F8083089599
:100F6000E5E4F4E080818160808308950E94230499
:100F70008091490490E0FC01EE0FFF1FE80FF91F7C
:100F8000EE0FFF1FE050FF4F85810E94D3030895AD
:100F9000213061F308953F924F925F926F927F925A
:100FA0008F929F92AF92BF92CF92DF92EF92FF9279
:100FB0000F931F93CF93DF930F2EF5E0EF2EF1E009
:100FC000FF2EF02D0F2EFBE38F2EF1E09F2EF02D44
:100FD00002E110E0C1E1D0E0C12CD12C0F2EF9E4E8
:100FE000AF2EF4E0BF2EF02D0F2EFFE54F2EF1E0D7
:100FF0005F2EF02D0F2EFFE03F2EF02D0CC08FEF57
:10100000C81AD80A21960F5F1F4FA6E0EA0EF11CFE
:10101000B6E08B0E911CFE01EE0FFF1FEE5EFD4F42
:10102000808186FF37C0FE01EE0FFF1FEE5EFD4F91
:101030008F7B80830E942304F701D70112978C9144
:101040008F3FA9F0D5018C9190E0C816D90649F4DC
:10105000F40180810E94D30389E08C0DD5018C932B
:1010600019C080810E94D303F501C08213C0D5014D
:101070008C91863051F4C731D10539F4F201808169
:101080000E94D303D5013C92BACF80810E94D30342
:10109000F501C0820C3111050CF4B1CF8091320200
:1010A00086FF0CC0E2E3F2E08F7B80830E94230482
:1010B00084E10E94D30380E180934904DF91CF91C2
:1010C0001F910F91FF90EF90DF90CF90BF90AF9066
:1010D0009F908F907F906F905F904F903F9008957A
:1010E00080914E0286FF30C0EEE4F2E08F7B808379
:1010F0008091450486958F5F8370833041F0E5E4ED
:10110000F4E0880F9081997F892B808305C0E5E406
:10111000F4E08081897F80838091760381FF06C01F
:10112000E5E4F4E08081886080830895809145043F
:1011300081FD05C0E5E4F4E08E7F80830895E5E459
:10114000F4E08081816080830895FC014283748390
:101150006383118210820895FF920F931F93CF93A0
:10116000DF93EC01062F0E942509182FF9804F2DDF
:1011700050E0CA0101962A81622F70E00E94D40BD0
:10118000288130E08217930729F4812F0E942809D3
:1011900080E012C0EB81FC81EF0DF11D00832981FD
:1011A00030E0C90101966A8170E00E94D40B898306
:1011B000812F0E94280981E0DF91CF911F910F912B
:1011C000FF900895CF93DF93EC010E9425093981A8
:1011D0002881321718F0C32FC21B04C09A81C32F75
:1011E000C90FC21B0E9428098C2FDF91CF9108954F
:1011F000FC01808170E09B01280F311DC9016281D3
:1012000070E00E94D40B0380F481E02DE80FF91FF9
:10121000808108951F93CF93DF93EC01162F0E94D6
:101220002509482F8881212F30E0B901680F711DF1
:10123000CB016A8170E00E94D40B8883842F0E94C6
:101240002809DF91CF911F9108958FB7F8940895E1
:101250008FBF0895881F8827881F089591E0883FD1
:1012600008F490E0892F0895982F907F903CB1F07A
:1012700058F4903941F118F4903819F524C0903A97
:1012800011F1903BF1F41FC0903EE9F018F4903D4D
:1012900029F017C0903F21F0933F99F482E0089520
:1012A00090E0FC01E15FF109EF30F10540F4E65A0E
:1012B000FF4F0C94E80B83E0089582E0089580E0EE
:1012C000089580E0089583E0089581E00895FC0189
:1012D000758364830895FC01778366830895FC0118
:1012E000778B668B0895CF93DF93EC011DA21FA22D
:1012F0001EA2BC01685D7F4F40EC88519F4F0E9449
:10130000A5081B821A821D821C821F821E821986DA
:1013100018861B861A861D861C861F861E86198ABD
:10132000188A1B8A1A8A1D8A1C8A1F8A1E8A198E8D
:10133000188E1B8E1A8E1D8E1C8E1F8E1E8E19A24D
:1013400018A2DF91CF910895EF92FF920F931F9310
:10135000CF93DF93662399F0EA016150062F10E0E6
:101360000F5F1F4F040F151F7C0128EEE20EF11CCA
:101370006991C7010E94AC08C017D107C9F7DF9176
:10138000CF911F910F91FF90EF900895AF92BF9270
:10139000CF92DF92EF92FF920F931F93CF93DF9341
:1013A00000D01F92CDB7DEB77C016B01142FB22E97
:1013B000A02EDC0195968C919597843011F55A9664
:1013C000ED91FC915B97309709F4CCC09B012150C3
:1013D0003109ABEABAEA0E94EE0B969587959C011B
:1013E000220F331F820F931F4983BA820B834C2D28
:1013F000481B9E012F5F3F4F682F792FC70109952A
:10140000BEC06230710509F455C06330710529F022
:101410006130710509F0A1C088C0842F807F803AB7
:10142000F1F028F48038A9F0803969F02FC0803EAF
:10143000E1F0803F01F1803B49F5D7011296ED9133
:10144000FC91139725C0D7011496ED91FC91159747
:101450001FC0D7011696ED91FC91179719C0D701BF
:101460001896ED91FC91199713C0D7011A96ED913A
:10147000FC911B970DC0423F09F074C0D7011C9628
:10148000ED91FC911D97309741F46CC0E0E0F0E0E5
:10149000309709F467C0123F31F42A2D4B2D62EFCB
:1014A000C70109956CC02A2D4B2D612F6F70C701A4
:1014B000099565C0842F807F803D51F0803F71F099
:1014C000803C01F5D7011E96ED91FC911F971CC041
:1014D000D7015096ED91FC91519716C0433F41F4CE
:1014E000D7015296ED91FC915397309799F43AC0F9
:1014F000413FC1F5D7015496ED91FC915597309736
:1015000049F430C0E0E0F0E0309761F1812F8D7F49
:10151000813F29F44B2D612FC701099530C04B2D18
:10152000612F6F70C70109952AC0842F0E942E0970
:10153000882331F0D7015696ED91FC91579707C05B
:10154000163F81F4D7015896ED91FC915997309749
:1015500049F0612FC701099512C06430710510F080
:10156000C12CD12CD7015C96ED91FC915D97309701
:1015700031F00A2D2B2D412FB601C7010995D70156
:101580005E96ED91FC915F97309731F00A2D2B2DEF
:10159000412FB601C70109950F900F900F90DF9171
:1015A000CF911F910F91FF90EF90DF90CF90BF9060
:1015B000AF900895FF920F931F93CF93DF93EC01A9
:1015C000162F862F0E942E09882369F0FDA081E046
:1015D0008DA300E020E0412F61E070E0CE010E9489
:1015E000C609FDA2A4C0812F0E942A09882309F4FC
:1015F0005DC08DA1843029F01AA381E090E09FA303
:101600008EA3812F0E943409813031F0B8F08230EE
:1016100079F0833081F046C081E08DA300E020E0C6
:10162000412F61E070E0CE010E94C6091DA27FC07B
:1016300082E08DA37CC083E08DA379C0103F19F0B8
:10164000173F51F02BC084E08DA380EF8AA381E087
:1016500090E09FA38EA36BC04EA15FA19A01ABEA5D
:10166000BAEA0E94EE0B969587959C01220F331FD4
:10167000820F931FFA01E81BF90BEC0FFD1F87EF98
:1016800082A3BA016F5F7F4F7FA36EA30CA12BA132
:101690004AA1CE010E94C6091DA249C01DA21FA2D7
:1016A0001EA245C01DA21FA21EA241C0EDA1EE2395
:1016B000F1F14EA15FA19A01ABEABAEA0E94EE0BEA
:1016C000969587959C01220F331F820F931F9A01D5
:1016D000281B390BDE01A20FB31F92961C93BA018F
:1016E0006F5F7F4F7FA36EA32130310589F02230D9
:1016F0003105E9F40CA12BA14AA1CE010E94C60933
:101700008DA18430A1F081E090E09FA38EA30FC053
:10171000E23069F400E02BA14AA1CE010E94C60983
:101720008DA1843021F081E090E09FA38EA3DF9112
:10173000CF911F910F91FF900895CF92DF92EF927A
:10174000FF920F931F93CF93DF936C01DC01909670
:10175000ED91FC919197309709F009958601085118
:101760001F4FC8010E94E208E82EF12CE114F10499
:1017700091F0C0E0D0E060E0C8010E94F808682F56
:10178000C6010E94DA0A61E0C8010E940A09219696
:10179000CE15DF0581F7DF91CF911F910F91FF905B
:1017A000EF90DF90CF90089597FB072E16F40094EA
:1017B00007D077FD09D00E94FD0B07FC05D03EF451
:1017C000909581959F4F0895709561957F4F0895ED
:1017D000EE0FFF1F0590F491E02D0994A29FB00138
:1017E000B39FC001A39F700D811D1124911DB29F55
:1017F000700D811D1124911D0895AA1BBB1B51E181
:1018000007C0AA1FBB1FA617B70710F0A61BB70B70
:10181000881F991F5A95A9F780959095BC01CD0115
:061820000895F894FFCFCB
:10182600000402FF0015010404FF0016020408016B
:1018360001170304100201300404200401310504D9
:1018460040080032060480FF0033070301FF00351D
:10185600080302FF0036090304FF002C0A0308FFF1
:10186600002D0B04080100180C04100200190D04C9
:101876002004001A0E044008011B8F0320FF0034C9
:10188600100401FF0014010101000201000401001F
:101896000801001001002001004001008001000144
:1018A60000000200000400000800001000002000F4
:1018B6000040000080000001020002020004020055
:1018C6000802001002002002004002008002001000
:1018D600030020030040030080030001040002040B
:1018E6000004040008040010040020040040040062
:1018F600800400010500020500040500080500102B
:1019060005002005004005008005001006002006A1
:1019160000400600800600010700020700040700D9
:1019260008070010070040070080070000010203B7
:1019360004052000210022002300240025002600A3
:101946002700180019001A001B001C001D001E00AD
:101956001F00150016001700080009000A000B00FA
:101966000C000D000E000F00000001000200100028
:0819760011001200130014001F
:00000001FF
