:100000000C9469000C9486000C9486000C94860075
:100010000C9486000C9486000C9486000C94860048
:100020000C9486000C9486000C9486000C94F402C8
:100030000C9486000C9486000C948C020C94860020
:100040000C9486000C9486000C94F6050C948600A3
:100050000C942B060C9486000C9486000C9486005D
:100060000C9486000C9486000C9486000C948600F8
:100070000C9486000C9486000C9486000C948600E8
:100080000C9486000C94EA020C9486000C94860072
:100090000C9486000C9486000C9486000C948600C8
:1000A0000C9486000C9486000C9486000C948600B8
:1000B0000C948600750E730E750E770E770E7D0EFE
:1000C000770E7D0E7D0E7D0E7D0E7D0E770E7D0EE4
:1000D0007D0E11241FBECFEFD8E0DEBFCDBF12E0F2
:1000E000A0E0B1E0E6E5F2E202C005900D92A03793
:1000F000B107D9F724E0A0E7B2E001C01D92A6360F
:10010000B207E1F70E9435060C9429110C94000007
:10011000EAE7F0E0808184608083ECE7F0E08081B2
:1001200080648083808186608083EEE7F0E0808158
:100130008064808308951092AC006A98EAE7F0E04A
:10014000808180688083808180648083808186FD57
:10015000FDCF6A9AEAE7F0E080818F77808381E5BE
:100160008093AC00809178009091790008958DE0A3
:100170008093810082E080936F00089590938900BE
:100180008093880020918400309185008217930726
:1001900028F4019790938500809384000895FF923E
:1001A0000F931F93CF93DF93F62E909177019923AE
:1001B000E1F380937002082F10E097E0899FE0013F
:1001C0001124C050DF4FE8818E2F881F8827881F99
:1001D000E981E770EE0FE82BF0E0E158FD4F9081E8
:1001E0008A81892B80838D810E9447049B819F3F58
:1001F000C1F0AFE7B2E013962C911397F801EE0F20
:10020000FF1FEE0FFF1FEE0FFF1FE01BF10BEC5F58
:10021000FE4F8081817081958227892382271396E2
:100220008C9380E48F1540F4EFE7F2E080858160E5
:10023000808784E10E9447045D9AEEE6F0E08081C9
:100240008260808385B5836085BD10927701DF91E0
:10025000CF911F910F91FF900895EFE7F2E0108684
:100260008681807F868387818F7D878308953F92F3
:100270004F925F926F927F928F929F92AF92BF92B6
:10028000CF92DF92EF92FF920F931F93CF93DF9362
:100290005D9A0E942D0105E011E0C0E0D0E00F2E34
:1002A000F1E68F2EF4E09F2EF02D0F2EFCE5AF2E01
:1002B000F4E0BF2EF02D0F2EF0E6CF2EF4E0DF2E6F
:1002C000F02D0F2EF3E33F2EF02D0F2EFFE84F2ED3
:1002D000F3E05F2EF02D0F2EFFE76F2EF2E07F2E62
:1002E000F02DFE01EE0FFF1FEE0FFF1FEE0FFF1FA1
:1002F000EC1BFD0BEA5FFE4F808180FD6FC0F401B7
:10030000808181FBEE24E0F8F12CF5012081F601DB
:1003100090819295969597708170880F880F880FBD
:10032000892BF701E295F295F07FFE27E07FFE270B
:10033000922F9170399EE00DF11D1124E80FF11DEF
:10034000EE0FFF1FE357FC4F838194810C2E02C0F8
:10035000969587950A94E2F780FF40C0F20180816C
:1003600080FD04C0F80180810E944704DE01AA0FCD
:10037000BB1FAA0FBB1FAA0FBB1FAC1BBD0BA050FE
:10038000BF4FEC918E2F881F8827881F1196EC9104
:10039000E770EE0FE82BF0E0E158FD4FD80113971E
:1003A0009C918081892B8083F801329780818F3FD7
:1003B000A9F0F3012381FE01EE0FFF1FEE0FFF1FD7
:1003C000EE0FFF1FEC1BFD0BEC5FFE4F9081917059
:1003D0009195922789238227F30183832196095FD0
:1003E0001F4FC031D10509F07CCFDF91CF911F9114
:1003F0000F91FF90EF90DF90CF90BF90AF909F90C4
:100400008F907F906F905F904F903F900895809174
:100410004B0286FF08C0EBE4F2E08F7B808360E054
:1004200080E00E94CF0080914D0286FF08C0EDE47D
:10043000F2E08F7B808360E081E00E94CF008091BA
:100440004F0286FF08C0EFE4F2E08F7B808360E01C
:1004500082E00E94CF008091510286FF08C0E1E552
:10046000F2E08F7B808360E083E00E94CF00809188
:10047000530286FF08C0E3E5F2E08F7B808360E0F3
:1004800084E00E94CF008091550286FF08C0E5E518
:10049000F2E08F7B808360E085E00E94CF00809156
:1004A000570286FF08C0E7E5F2E08F7B808360E0BB
:1004B00086E00E94CF008091590286FF08C0E9E5DE
:1004C000F2E08F7B808360E087E00E94CF00809124
:1004D0005B0286FF08C0EBE5F2E08F7B808360E083
:1004E00088E00E94CF0080915D0286FF08C0EDE5A4
:1004F000F2E08F7B808360E089E00E94CF008091F2
:100500005F0286FF08C0EFE5F2E08F7B808360E04A
:100510008AE00E94CF0008951F920F920FB60F92AB
:1005200011242F933F934F935F936F937F938F93F8
:100530009F93AF93BF93CF93DF93EF93FF9315BC3C
:10054000EEE6F0E080818D7F8083A091700287E0ED
:10055000A89FD0011124A050BF4FEC918E2F881F6F
:100560008827881F1196EC911197E770EE0FE82B02
:10057000F0E0CFE7D2E0E158FD4F12968C918095E4
:1005800090818923808384E10E94650488858E7F21
:100590008887E091700287E0E89FF0011124E05025
:1005A000FF4F85810E94650481E080937701FF9170
:1005B000EF91DF91CF91BF91AF919F918F917F91FB
:1005C0006F915F914F913F912F910F900FBE0F90C0
:1005D0001F9018951F920F920FB60F9211240F9033
:1005E0000FBE0F901F9018951F920F920FB60F928B
:1005F00011242F933F934F935F936F937F938F9328
:100600009F93AF93BF93CF93DF93EF93FF93EAE86A
:10061000F2E081818F5F81839081891349C080914D
:100620009F02816080939F02ECE8F2E080818F5FFF
:10063000982F937080818C7F892B808310928B02FE
:10064000E0E6F4E09081892F82958695877040914D
:1006500061044170440F440F440F482B81E0840F24
:10066000582F5295550F507E9F71952B908383FB89
:10067000992790F981818E7F892B818350E081FBBE
:10068000222720F930E023573C4FF901EF52FF4F6A
:10069000808190E04817590709F0E6C080918F03E8
:1006A00081FFE2C080919F02806280939F02DCC044
:1006B000EAE8F2E09181808186959813D5C0809117
:1006C0009F02826080939F020E94970480918F0313
:1006D00080FD0BC0E091640487E0E89FF0011124E5
:1006E000E050FF4F85810E9447043091E401209142
:1006F000E701EFE7F2E0822F832B80959581892334
:10070000858380918F0381FF81C080915C0481701B
:10071000C82F80E0D82F8091640493E39C9FF00160
:100720009D9FF00D1124E80FF11DEE0FFF1FEF52FA
:10073000FC4F93818481EFE7F2E0918380834091C5
:100740005D04413039F018F0423071F016C030933A
:10075000650413C080919F0282FF03C0309365043B
:100760000CC02093650409C080915C0480FD03C027
:100770003093650402C02093650480918C028370DD
:1007800090E002970CF069C080919F0282FF2CC01C
:10079000413051F018F04230B9F026C0E5E6F4E0FF
:1007A0008081282B208359C080919F0282FF06C040
:1007B000E5E6F4E08081282B20834FC0E5E6F4E0F5
:1007C0008081382B308349C080915C0480FD06C055
:1007D000E5E6F4E08081822B808308C0E5E6F4E062
:1007E0008081832B808302C04230B9F580915C0404
:1007F00080FD06C0E5E6F4E08081282B20832DC033
:10080000E5E6F4E08081382B308327C0EFE7F2E0A3
:100810001182108240915D04413031F010F042307D
:1008200061F43093650409C02093650480918C02C3
:10083000837090E002978CF40DC080918C028370DD
:1008400090E0029754F4423029F4E5E6F4E0808128
:10085000282B208380E00E944704EFE7F2E090918C
:1008600065048581892B8583FF91EF91DF91CF917D
:10087000BF91AF919F918F917F916F915F914F91B8
:100880003F912F910F900FBE0F901F901895CF930F
:10089000DF9390E09C01220F331F820F931FDC0136
:1008A000A758BE4F2C91E22FEF70F0E0E158FD4FBA
:1008B000EC01C858DE4F30818881832B8083822FE2
:1008C00080618C93DF91CF910895CF93DF9390E077
:1008D0009C01220F331F820F931FDC01A758BE4FCC
:1008E0002C91E22FEF70F0E0E158FD4FEC01C85879
:1008F000DE4F88818095908189238083822F8F7E2F
:100900008C93DF91CF910895282F30E0F901EE0FFD
:10091000FF1F2E0F3F1FF901E758FE4F908194FFF4
:1009200003C00E94650408950E9447040895EFE7FC
:10093000F2E082818F7082838781807287838381D6
:100940008F70838386818F7C868308950F931F9396
:10095000CF93DF9380918F0380FF22C005E011E0E9
:10096000C0E0D0E0FE01EE0FFF1FEE0FFF1FEE0F05
:10097000FF1FEC1BFD0BEA5FFE4F808180FF05C06F
:10098000F80180810E94470404C0F80180810E9420
:1009900065042196095F1F4FC031D10519F70BC0BF
:1009A000E091640487E0E89FF0011124E050FF4FDC
:1009B00085810E944704DF91CF911F910F91089587
:1009C0002F923F924F925F926F927F928F929F925F
:1009D000AF92BF92CF92DF92EF92FF920F931F934D
:1009E000CF93DF9322E2E4EDF3E0DF01422F1D928B
:1009F0004A95E9F7EAE3F4E0DF011D922A95E9F769
:100A00002091610422FB882780F990E000E010E04B
:100A10006C01CC0CDD1CCC0CDD1CCC0CDD1CCC0C1E
:100A2000DD1CEE24E394F12C5C01B0E2AB0EB11CB2
:100A30009501220F331FF901E057FC4F5F010F2E84
:100A4000F4EF8F2EF3E09F2EF02D3C01F3E56F0EB7
:100A5000711C9301220F331FA90140575C4F3A01CB
:100A60000F2EFAE54F2EF4E05F2EF02D83579C4FAA
:100A70001C0151ED250E311C52C09E01082E02C0F2
:100A8000369527950A94E2F720FF06C02081318130
:100A9000242B352B318320839B01082E02C03695F1
:100AA00027950A94E2F720FF08C02D913C911197F9
:100AB000242B352B11963C932E9301961296329649
:100AC00080319105D1F6D5018D919C91002E02C007
:100AD000969587950A94E2F780FF07C0F40180811C
:100AE0009181842B952B91838083D3018D919C914F
:100AF000002E02C0969587950A94E2F780FF07C002
:100B0000F20180819181482B592B518340830F5FE3
:100B10001F4FD1018C9190E080179107FCF0C60126
:100B2000800F911FFC01EE0FFF1FE357FC4FC381A5
:100B3000D481A701002E02C0440F551F0A94E2F78A
:100B4000880F991FFC01ED50FC4F63817481AAE36B
:100B5000B4E0E4EDF3E080E090E08FCFDF91CF915F
:100B60001F910F91FF90EF90DF90CF90BF90AF90CB
:100B70009F908F907F906F905F904F903F902F90BD
:100B8000089508950895403120F4622F842F0E9423
:100B9000CF0008950E9418070E94B80A0E942D0BEA
:100BA0000E94060B80918D03833011F40E9407028E
:100BB0000E94BF060E94600D0E94320D0E94A30891
:100BC0000E949D0B0E94A6040E944B070E9496095A
:100BD0000E94940A5D9808958FE18093C40010925A
:100BE000C50088ED8093C100519A08951F920F921D
:100BF0000FB60F9211242F933F934F935F936F93F0
:100C00007F938F939F93AF93BF93EF93FF93CF9374
:100C1000DF931F92CDB7DEB78091C6008983AE0106
:100C20004F5F5F4F61E080EA92E00E94BC0E0F9040
:100C3000DF91CF91FF91EF91BF91AF919F918F91F4
:100C40007F916F915F914F913F912F910F900FBEC8
:100C50000F901F9018951F920F920FB60F921124AC
:100C60000F900FBE0F901F901895559A8DB18C6004
:100C70008DB987B18E6087B9209A739888B1817FCA
:100C800088B92898439A80E58093AC00EDEAF0E0BB
:100C900080818160808380E00E9447048DE10E9412
:100CA000470482E20E9447040E94940A84B582604D
:100CB00084BD81EE87BD80EA92E00E948B0E63ECDA
:100CC00075E080EA92E00E947F0E61EC75E080EAB8
:100CD00092E00E94830E62EC75E080EA92E00E944E
:100CE000870E0E94EC050E94B700EAE8F2E086E079
:100CF000808311E011830E94880010937701809116
:100D00009F028F7B80939F020F2EFFE8EF2EF3E070
:100D1000FF2EF02DF70180818D7F80830F2EFDE85F
:100D2000CF2EF3E0DF2EF02D8FE080935E0480E184
:100D300080935F04C0E6D4E08881807E8F608883E2
:100D400010925D0484E20E944704F6011083F701CB
:100D50008081877F8083F601118389818D7F8B7FDE
:100D600089838AE20E94470487E20E9447047894BC
:100D700080EA92E00E94B5100E94CA05F9CF8091E6
:100D8000690286FF54C0E9E6F2E08F7B80838091A0
:100D90008F0380FF0CC080912302882321F08150B3
:100DA000809323020EC085E0809323020AC08091C5
:100DB00023028F5F863019F08093230202C01092C5
:100DC000230230912302E32FF0E0E35EFD4F208108
:100DD00020938D03EFE7F2E081E090E002C0880FFE
:100DE000991F3A95E2F79481907C892B84838FEF49
:100DF000820F8230E0F4E1E0213009F4E0E0A0E687
:100E0000B4E011968C911197E0FB82F911968C93C6
:100E10001197F0E0E357FC4FEF52FF4F8081982F7E
:100E20009F718C91807E892B8C930E94E0040895A1
:100E30000E949B0090937402809373022091710230
:100E400030917202821B930B9595879595958795A6
:100E5000820F931F909372028093710223E634E015
:100E6000A901481B590BEAE8F2E05483438323812C
:100E70003481858196812817390731F080918D0260
:100E800090918E020E94BE00EAE8F2E08381948194
:100E90009683858308952F923F924F925F926F922F
:100EA0007F928F929F92AF92BF92CF92DF92EF92FA
:100EB000FF920F931F93CF93DF9390918F0391FF36
:100EC0002FC180918D038150823008F029C192FF9B
:100ED00026C08091290286FD0BC081E090E0FC01D4
:100EE000EE0FFF1FE75DFD4F208126FF13C002C0FC
:100EF00080E090E0FC01EE0FFF1FE75DFD4F908169
:100F00009F7B9083E0E6F4E08F719081907E892B47
:100F1000808306C101968031910509F701C1809156
:100F20006404803109F075C000E010E0C1E6D4E04F
:100F30000F2EFCE56F2EF4E07F2EF02DCC24C39411
:100F4000D12C0F2EF3E3BF2EF02D0F2EF4E64F2EF3
:100F5000F4E05F2EF02DF801EE0FFF1FE75DFD4F6F
:100F6000808186FF4FC0F801EE0FFF1FE75DFD4F48
:100F70008F7B8083888182FB882480F8912CF40108
:100F8000E357FC4FEF52FF4F808190E080179107AD
:100F9000CCF1802F0E948404D3018C9180FB222409
:100FA00020F8312C888182FBEE24E0F8F12CB29CF1
:100FB000F001B39CF00D1124DF01AE0DBF1DAA0F8F
:100FC000BB1FA353BC4F13962D913C911497C601A0
:100FD000002E02C0880F991F0A94E2F728273927AC
:100FE00014963C932E931397D2012C91E20FF11D8E
:100FF000EE0FFF1FEF52FC4F23813481822793278E
:10100000948383830F5F1F4F0031110509F0A3CF35
:1010100087C0C0E0D0E00F2EF1E6EF2EF4E0FF2E07
:10102000F02D0F2EFCE56F2EF4E07F2EF02D0F2E0D
:10103000F4E64F2EF4E05F2EF02D0F2EF3E33F2E5B
:10104000F02D88248394912CFE01EE0FFF1FE75DA5
:10105000FD4F808186FF5FC0FE01EE0FFF1FE75D41
:10106000FD4F8F7B8083F701808182FB002700F991
:1010700010E0F801E357FC4FEF52FF4F808190E002
:101080008C179D070CF447C08C2F0E948404D30159
:101090008C9180FBCC24C0F8D12CF701808182FB9D
:1010A000AA24A0F8B12CD2016C91C5018295929529
:1010B000907F9827807F98273C9C90013D9C300D25
:1010C0001124820F931F8C0F9D1F880F991FFC0105
:1010D000E357FC4FC401062E02C0880F991F0A94E3
:1010E000E2F7438154818427952794838383F90110
:1010F000E60FF11DEE0FFF1FEF52FC4F838194812D
:1011000094010C2E02C0220F331F0A94E2F78227AB
:101110009327948383832196C031D10509F094CF1E
:10112000DF91CF911F910F91FF90EF90DF90CF90C3
:10113000BF90AF909F908F907F906F905F904F90F7
:101140003F902F9008958091650286FF29C080917D
:101150008F0380FF25C0E5E6F2E080818F7B8083EE
:1011600080912802882321F081508093280203C0B7
:1011700083E08093280280919F02806480939F0285
:10118000EFE7F2E0209128022E5F81E090E002C0BC
:10119000880F991F2A95E2F79581937C892B858387
:1011A000089580919F0288230CF096C080919F0241
:1011B0008F7780939F0240916404403169F590914C
:1011C0005C048091610482FB662760F970E0917095
:1011D000FB0153E3959FE00DF11D1124EE0FFF1F5E
:1011E000E353FC4F909160049295969597708170AF
:1011F000880F880F880F892B61E070E0DB0102C047
:10120000AA0FBB1F8A95E2F7CD0163817481862BFB
:10121000972B9483838333C050915C048091610445
:1012200082FBEE27E0F9F0E09091600492959695AC
:1012300097708170880F880F880F892BE295F2953F
:10124000F07FFE27E07FFE27952F9170B3E39B9FF1
:10125000E00DF11D1124E80FF11DEE0FFF1FE35704
:10126000FC4F81E090E0042E02C0880F991F0A9481
:10127000E2F763817481862B972B9483838380911B
:101280005C04282F217030E083E3829FF001839F6C
:10129000F00D1124E40FF11DEE0FFF1FEF52FC4F74
:1012A00080916004982F9295969597708091610433
:1012B0008170880F880F880F892B21E030E0A90109
:1012C00002C0440F551F8A95E2F7CA012381348179
:1012D000822B932B94838383089580919F0282FFB6
:1012E00018C080919F028B7F80939F0280915D0444
:1012F000813049F010F08230C1F4ECE5F4E08081F7
:101300008E7F80830895ECE5F4E0808181608083A6
:10131000089580915D04823041F4ECE5F4E0808131
:10132000982F909590FB80F980830895EF92FF921B
:101330000F931F93CF93DF9380918F0381FFE1C0C1
:1013400080919F0280FFDFC080919F028E7F8093FB
:101350009F0280919F0285FF56C080919F028F7DE2
:1013600080939F02E0E6F4E080818F718083818129
:101370008E7F818380915F04803109F180916104C7
:1013800081FF09C08BE20E9465048AE20E94470443
:101390000E946D0906C08AE20E9465048BE20E94E9
:1013A00047048091610481FB992790F981E08927A6
:1013B000E0E6F4E0918180FB91F9918302C00E9404
:1013C0006D098091610482FB002700F910E003574A
:1013D0001C4FF801EF52FF4F809160048F718083A2
:1013E0000E94E00480919F0286FF0DC080919F02C1
:1013F0008F7B80939F02E0912802F0E0EC5DFD4F2F
:10140000808180938A02809177018823E1F30E9492
:10141000D1088091610482FB992790F986958170AB
:10142000981338C080916004982F92959695977084
:10143000809161048170880F880F880F892B21E0CB
:1014400030E002C0220F331F8A95E2F780915C04DE
:1014500080FBEE24E0F8F12C8091640493E39E9DE0
:10146000F0019F9DF00D1124E80FF11DEE0FFF1FFD
:10147000EF52FC4F93818481EFE7F2E0492F422342
:101480004095922B94239183982F93239095832BAF
:10149000892380830E94370190915C0480916104CC
:1014A00081FB222720F9C22F40E0D42F917053E313
:1014B000959FC00DD11D1124CC0FDD1FC353DC4FF0
:1014C000909160049295969597708170880F880F1F
:1014D000880F892B2B813C81A90102C05695479525
:1014E0008A95E2F740FF0FC0EFE7F2E08085816068
:1014F000808780918F0380FD06C084E10E944704AD
:1015000002C080919F02DF91CF911F910F91FF90B8
:10151000EF9008958093AE00EDEAF0E0808188239B
:10152000ECF78091AE000895CF93DF93CFE7D2E040
:1015300088810E948A0A89810E948A0A8A810E947F
:101540008A0A8B810E948A0A8C810E948A0A8D8174
:101550000E948A0A8E810E948A0A8F810E948A0ACA
:1015600088850E948A0A4398439ADF91CF91089513
:10157000CF93DF93429A80E00E948A0ACAE7D2E0C2
:10158000888380E00E948A0A898380E00E948A0A18
:101590008A8380E00E948A0A8B8380E00E948A0A04
:1015A0008C8342982881922F9695EFE8F3E0308162
:1015B00090FB30F99A81492F42954F7040FB32F9E8
:1015C0003083E5E7F2E0308123273227308323237D
:1015D00028833181298123273227318323232983BB
:1015E000228192272927228392239A8323819B8118
:1015F00092272927238392239B83948189279827E5
:10160000948389238C83DF91CF91089540E050E04B
:10161000DA01AA0FBB1FA75DBD4F8C91E82FE6959D
:10162000E695E695E770F0E0E658FD4F208130E062
:10163000982F977002C0359527959A95E2F72170FB
:1016400086FB992790F9292720FB86F98C934F5F19
:101650005F4F43325105E1F6089583B190918802BE
:1016600089279827909388028923809389029091F3
:101670008F0391FF0BC082FF09C024E08227809373
:10168000890280919F02806880939F0293FD54C0DD
:10169000EFE8F3E0808181FB222720F99091890215
:1016A0009695922790FB81F9808381FF43C0211199
:1016B00043C0E0E6F4E080818F71808381818E7F7A
:1016C000818380919F02816080939F0210928B02A0
:1016D00080919F028B7F80939F0280915D048D7F1C
:1016E00031F4ECE5F4E080818E7F80830895ECE5B1
:1016F000F4E080818160808308958091610481FF9E
:101700000BC0E0E6F4E081818D7F81838BE20E9453
:1017100065048AE20E9447040E949704E0916404F1
:1017200087E0E89FF0011124E050FF4F85810E947F
:1017300047040895213009F308952F923F924F9264
:101740005F926F927F928F929F92AF92BF92CF9251
:10175000DF92EF92FF920F931F93CF93DF9300D00E
:1017600000D0CDB7DEB78091490286FF11C0E9E411
:10177000F2E08F7B808380918F0380FD5CC10E94AB
:10178000970484E10E94470480E18093640453C17C
:101790000F2EF3E0AF2EF1E0BF2EF02D0F2EF9E06B
:1017A000CF2ED12CF02D0F2EF2E1EF2EF12CF02DBB
:1017B00041E150E05C834B8300E010E00F2EFFE836
:1017C0008F2EF3E09F2EF02D0F2EF4E64F2EF4E037
:1017D0005F2EF02D10C00F5F1F4F8B819C810196F3
:1017E0009C838B839FEFE91AF90AEFEFCE1ADE0A8A
:1017F000F7E0AF0EB11C2B803C80F101EE0FFF1F14
:10180000E75DFD4F808186FFE8C0F101EE0FFF1F0D
:10181000E75DFD4F8F7B8083F401808180FFBEC038
:10182000C801F50120812F3F31F4F7E12F16310473
:1018300009F0A0C0D8C09601F601EE0FFF1FEE0F11
:10184000FF1FEE0FFF1FEC19FD09EA5FFE4F4081FD
:1018500040FB662460F8712CA301440F551FF8016A
:10186000EE0FFF1FEE0FFF1FEE0FFF1FE01BF10B30
:10187000EA5FFE4F50815170452B413021F130F02D
:101880004230F1F1433009F458C0A7C0FC01EE0F1B
:10189000FF1FEE0FFF1FEE0FFF1FE81BF90BEA5FA4
:1018A000FE4F808181608083F901EE0FFF1FEE0FF4
:1018B000FF1FEE0FFF1FE21BF30BEA5FFE4F80815D
:1018C0008E7F80838AC0FC01EE0FFF1FEE0FFF1F8B
:1018D000EE0FFF1FE81BF90BEA5FFE4F80818E7F42
:1018E0008083F901EE0FFF1FEE0FFF1FEE0FFF1FAA
:1018F000E21BF30BEA5FFE4F8081816080836DC045
:10190000FC01EE0FFF1FEE0FFF1FEE0FFF1FE81B86
:10191000F90BEA5FFE4F808181608083F901EE0F51
:10192000FF1FEE0FFF1FEE0FFF1FE21BF30BEA5F1F
:10193000FE4F80818160808350C0FC01EE0FFF1F4D
:10194000EE0FFF1FEE0FFF1FE81BF90BEA5FFE4FC4
:1019500080818E7F8083F901EE0FFF1FEE0FFF1F46
:10196000EE0FFF1FE21BF30BEA5FFE4F80818E7FBD
:10197000808333C0F801EE0FFF1FEE0FFF1FEE0F45
:10198000FF1FE01BF10BEA5FFE4F8081982F9170E3
:1019900021E0922790FB80F980831FC00E9497046A
:1019A000F50180818F3F59F0F201808190E00817A6
:1019B000190711F4C08211C0F20100830EC0F201B8
:1019C0008081863041F4F7E12F16310421F42FE0B5
:1019D000F201208300CFF2010083FCE1EF16F10455
:1019E0000CF4F9CE28C0960147E04C9DF0014D9DC6
:1019F000F00D1124EA5FFE4F4081417049831A8245
:101A000049815A81440F551F67E0609FF001619F33
:101A1000F00D1124EA5FFE4F50815170452B41308B
:101A200009F451CF08F432CF423009F469CF433082
:101A300009F483CFD0CE0F900F900F900F90DF91CD
:101A4000CF911F910F91FF90EF90DF90CF90BF90BB
:101A5000AF909F908F907F906F905F904F903F904E
:101A60002F9008958091650286FF29C090918F0381
:101A700090FD25C0E5E6F2E08F7B8083EDE5F4E0A4
:101A800080818F5F8083833029F410925D0491FF01
:101A90000BC002C091FF06C080919F0284608093BA
:101AA0009F0208958D7F31F4ECE5F4E080818E7F14
:101AB00080830895ECE5F4E080818160808308955F
:101AC000EF92FF920F931F93CF93DF9380918F0339
:101AD0008670843009F043C080918D03811146C027
:101AE0008CE10E948404ECE5F4E0808180FBEE242C
:101AF000E0F8F12C26E62E9DD0012F9DB00D11248B
:101B0000A057BC4F80E4ED0119928A95E9F78081D6
:101B1000082F017010E0209FD001219FB00D1124EB
:101B2000AC52BC4F82E2ED0119928A95E9F78081AF
:101B30008170C82F80E0D82F2C9FC0012D9F900D61
:101B4000112483579C4FFC01ED5BFF4F11821082E3
:101B500032961182108280E180935F0407C08091E9
:101B60008D03811103C08CE10E944704DF91CF9166
:101B70001F910F91FF90EF900895FC0142837483B1
:101B80006383118210820895FF920F931F93CF9366
:101B9000DF93EC01062F0E943D0E182FF9804F2D88
:101BA00050E0CA0101962A81622F70E00E94EC1079
:101BB000288130E08217930729F4812F0E94400E7C
:101BC00080E012C0EB81FC81EF0DF11D00832981C3
:101BD00030E0C90101966A8170E00E94EC108983AF
:101BE000812F0E94400E81E0DF91CF911F910F91D4
:101BF000FF900895CF93DF93EC010E943D0E398151
:101C00002881321718F0C32FC21B04C09A81C32F3A
:101C1000C90FC21B0E94400E8C2FDF91CF910895F7
:101C2000FC01808170E09B01280F311DC901628198
:101C300070E00E94EC100380F481E02DE80FF91FA2
:101C4000808108951F93CF93DF93EC01162F0E949C
:101C50003D0E482F8881212F30E0B901680F711D9A
:101C6000CB016A8170E00E94EC108883842F0E946F
:101C7000400EDF91CF911F9108958FB7F89408958A
:101C80008FBF0895881F8827881F089591E0883F97
:101C900008F490E0892F0895982F907F903CB1F040
:101CA00058F4903941F118F4903819F524C0903A5D
:101CB00011F1903BF1F41FC0903EE9F018F4903D13
:101CC00029F017C0903F21F0933F99F482E00895E6
:101CD00090E0FC01E15FF109EF30F10540F4E65AD4
:101CE000FF4F0C94001183E0089582E0089580E096
:101CF000089580E0089583E0089581E00895FC014F
:101D0000758364830895FC01778366830895FC01DD
:101D1000778B668B0895CF93DF93EC011DA21FA2F2
:101D20001EA2BC01685D7F4F40EC88519F4F0E940E
:101D3000BD0D1B821A821D821C821F821E82198683
:101D400018861B861A861D861C861F861E86198A83
:101D5000188A1B8A1A8A1D8A1C8A1F8A1E8A198E53
:101D6000188E1B8E1A8E1D8E1C8E1F8E1E8E19A213
:101D700018A2DF91CF910895EF92FF920F931F93D6
:101D8000CF93DF93662399F0EA016150062F10E0AC
:101D90000F5F1F4F040F151F7C0128EEE20EF11C90
:101DA0006991C7010E94C40DC017D107C9F7DF911F
:101DB000CF911F910F91FF90EF900895AF92BF9236
:101DC000CF92DF92EF92FF920F931F93CF93DF9307
:101DD00000D01F92CDB7DEB77C016B01142FB22E5D
:101DE000A02EDC0195968C919597843011F55A962A
:101DF000ED91FC915B97309709F4CCC09B01215089
:101E00003109ABEABAEA0E940611969587959C01C2
:101E1000220F331F820F931F4983BA820B834C2DED
:101E2000481B9E012F5F3F4F682F792FC7010995EF
:101E3000BEC06230710509F455C06330710529F0E8
:101E40006130710509F0A1C088C0842F807F803A7D
:101E5000F1F028F48038A9F0803969F02FC0803E75
:101E6000E1F0803F01F1803B49F5D7011296ED91F9
:101E7000FC91139725C0D7011496ED91FC9115970D
:101E80001FC0D7011696ED91FC91179719C0D70185
:101E90001896ED91FC91199713C0D7011A96ED9100
:101EA000FC911B970DC0423F09F074C0D7011C96EE
:101EB000ED91FC911D97309741F46CC0E0E0F0E0AB
:101EC000309709F467C0123F31F42A2D4B2D62EF91
:101ED000C70109956CC02A2D4B2D612F6F70C7016A
:101EE000099565C0842F807F803D51F0803F71F05F
:101EF000803C01F5D7011E96ED91FC911F971CC007
:101F0000D7015096ED91FC91519716C0433F41F493
:101F1000D7015296ED91FC915397309799F43AC0BE
:101F2000413FC1F5D7015496ED91FC9155973097FB
:101F300049F430C0E0E0F0E0309761F1812F8D7F0F
:101F4000813F29F44B2D612FC701099530C04B2DDE
:101F5000612F6F70C70109952AC0842F0E94460E19
:101F6000882331F0D7015696ED91FC91579707C021
:101F7000163F81F4D7015896ED91FC91599730970F
:101F800049F0612FC701099512C06430710510F046
:101F9000C12CD12CD7015C96ED91FC915D973097C7
:101FA00031F00A2D2B2D412FB601C7010995D7011C
:101FB0005E96ED91FC915F97309731F00A2D2B2DB5
:101FC000412FB601C70109950F900F900F90DF9137
:101FD000CF911F910F91FF90EF90DF90CF90BF9026
:101FE000AF900895FF920F931F93CF93DF93EC016F
:101FF000162F862F0E94460E882369F0FDA081E0EF
:102000008DA300E020E0412F61E070E0CE010E944E
:10201000DE0EFDA2A4C0812F0E94420E882309F487
:102020005DC08DA1843029F01AA381E090E09FA3C8
:102030008EA3812F0E944C0E813031F0B8F0823097
:1020400079F0833081F046C081E08DA300E020E08C
:10205000412F61E070E0CE010E94DE0E1DA27FC024
:1020600082E08DA37CC083E08DA379C0103F19F07E
:10207000173F51F02BC084E08DA380EF8AA381E04D
:1020800090E09FA38EA36BC04EA15FA19A01ABEA23
:10209000BAEA0E940611969587959C01220F331F7C
:1020A000820F931FFA01E81BF90BEC0FFD1F87EF5E
:1020B00082A3BA016F5F7F4F7FA36EA30CA12BA1F8
:1020C0004AA1CE010E94DE0E1DA249C01DA21FA280
:1020D0001EA245C01DA21FA21EA241C0EDA1EE235B
:1020E000F1F14EA15FA19A01ABEABAEA0E94061192
:1020F000969587959C01220F331F820F931F9A019B
:10210000281B390BDE01A20FB31F92961C93BA0154
:102110006F5F7F4F7FA36EA32130310589F022309E
:102120003105E9F40CA12BA14AA1CE010E94DE0EDB
:102130008DA18430A1F081E090E09FA38EA30FC019
:10214000E23069F400E02BA14AA1CE010E94DE0E2C
:102150008DA1843021F081E090E09FA38EA3DF91D8
:10216000CF911F910F91FF900895CF92DF92EF9240
:10217000FF920F931F93CF93DF936C01DC01909636
:10218000ED91FC919197309709F0099586010851DE
:102190001F4FC8010E94FA0DE82EF12CE114F10442
:1021A00091F0C0E0D0E060E0C8010E94100E682FFE
:1021B000C6010E94F20F61E0C8010E94220E219622
:1021C000CE15DF0581F7DF91CF911F910F91FF9021
:1021D000EF90DF90CF90089597FB072E16F40094B0
:1021E00007D077FD09D00E94151107FC05D03EF4F9
:1021F000909581959F4F0895709561957F4F0895B3
:10220000EE0FFF1F0590F491E02D0994A29FB001FD
:10221000B39FC001A39F700D811D1124911DB29F1A
:10222000700D811D1124911D0895AA1BBB1B51E146
:1022300007C0AA1FBB1FA617B70710F0A61BB70B36
:10224000881F991F5A95A9F780959095BC01CD01DB
:062250000895F894FFCF91
:10225600000402FF001500010404FF00160002043A
:1022660008010117000304100201300004042004D1
:1022760001310005044008003200060480FF0033E7
:1022860000070301FF003500080302FF00360009BE
:102296000304FF002C000A0308FF002D000B0408AE
:1022A600010018000C0410020019000D042004009F
:1022B6001A000E044008011B008F0320FF003400A3
:1022C600100401FF001400010101000201000401D5
:1022D60000080100100100200100400100800100FB
:1022E60001000002000004000008000010000020A9
:1022F600000040000080000001020002020004020B
:1023060000080200100200200200400200800200C5
:1023160010030020030040030080030001040002B4
:102326000400040400080400100400200400400413
:1023360000800400010500020500040500080500F0
:10234600100500200500400500800500100600204D
:102356000600400600800600010700020700040789
:102366000008070010070040070080070000010270
:1023760003040501030604080120002100220023AE
:10238600002400250026002700180019001A001B4B
:10239600001C001D001E001F001500160017000877
:1023A6000009000A000B000C000D000E000F0000D3
:1023B60000010002001000110012001300140000BA
:00000001FF
