S017000054522D3830382D6669726D776172652E7372656310
S11300000C9469000C9486000C9486000C94860071
S11300100C9486000C9486000C9486000C94860044
S11300200C9486000C9486000C9486000C94780240
S11300300C9486000C9486000C945D020C9486004B
S11300400C9486000C9486000C945B050C9486003A
S11300500C9490050C9486000C9486000C948600F5
S11300600C9486000C9486000C9486000C948600F4
S11300700C9486000C9486000C9486000C948600E4
S11300800C9486000C9486000C9486000C948600D4
S11300900C9486000C9486000C9486000C948600C4
S11300A00C9486000C9486000C9486000C948600B4
S11300B00C9486002B0B290B2B0B2D0B2D0B330BC8
S11300C02D0B330B330B330B330B330B2D0B330B48
S11300D0330B11241FBECFEFD8E0DEBFCDBF12E03B
S11300E0A0E0B1E0E2ECFBE102C005900D92A8357E
S11300F0B107D9F724E0A8E5B2E001C01D92AE34FF
S1130100B207E1F70E949A050C94DF0D0C940000ED
S1130110EAE7F0E0808184608083ECE7F0E08081AE
S113012080648083808186608083EEE7F0E0808154
S11301308064808308951092AC006A98EAE7F0E046
S1130140808180688083808180648083808186FD53
S1130150FDCF6A9AEAE7F0E080818F77808381E5BA
S11301608093AC00809178009091790008958DE09F
S11301708093810082E080936F00089590938900BA
S11301808093880020918400309185008217930722
S113019028F40197909385008093840008951F9319
S11301A0CF93DF93162F80935802C82FD0E0FE011F
S11301B0EE0FFF1FEC0FFD1FEE0FFF1FE050FF4F70
S11301C0A0819A2F991F9927991FA181A770AA0F1F
S11301D0A92BB0E0A859BD4F9C918281892B8C93A7
S11301E083818F3F09F184E10E943804A8E6B2E0DC
S11301F013962C911397AE01440F551FFA01EC0F7F
S1130200FD1FEE0FFF1FEC5FFE4F908191709195E3
S11302109227C40FD51FCC0FDD1FC050DF4F8B8139
S11302209823292713962C93113428F0E8E6F2E05A
S11302308085816080875D9A0E9466085D98EEE6FD
S1130240F0E080818260808385B5836085BD1092F3
S11302506601DF91CF911F910895E8E6F2E01086E0
S11302608681807F868387818F7D878308957F92AF
S11302708F929F92AF92BF92CF92DF92EF92FF92B2
S11302800F931F93CF93DF930E942D0105E011E09C
S1130290C0E0D0E00F2EF8E48F2EF4E09F2EF02D76
S11302A00F2EF9E4CF2EF4E0DF2EF02D0F2EF5E41F
S11302B0EF2EF4E0FF2EF02D0F2EF7E67F2EF02D1B
S11302C00F2EF8E6AF2EF2E0BF2EF02DD401EC9104
S11302D08E2F829586958770D601EC91E370EE0F90
S11302E0EE0FEE0FE82BF0E0D7018C91EE0FFF1F1D
S11302F08170789EE00DF11D1124EB58FC4F828132
S113030093810C2E02C0969587950A94E2F780FF9C
S11303103AC0F80180810E94FB03DE01AA0FBB1FD3
S1130320AC0FBD1FAA0FBB1FA050BF4FEC918E2F67
S1130330881F8827881F1196EC91E770EE0FE82B31
S1130340F0E0E859FD4FD80113979C918081892BE7
S11303508083F801329780818F3FA9F0D5011396ED
S11303602C911397FE01EE0FFF1FEC0FFD1FEE0FF4
S1130370FF1FEC5FFE4F9081917091959227892326
S1130380822713968C9321960A5F1F4FC031D105A3
S113039009F09CCFDF91CF911F910F91FF90EF90C7
S11303A0DF90CF90BF90AF909F908F907F900895F3
S11303B08091340286FF08C0E4E3F2E08F7B8083FF
S11303C060E080E00E94CF008091360286FF08C082
S11303D0E6E3F2E08F7B808360E081E00E94CF005F
S11303E08091380286FF08C0E8E3F2E08F7B8083C7
S11303F060E082E00E94CF0080913A0286FF08C04C
S1130400EAE3F2E08F7B808360E083E00E94CF0028
S113041080913C0286FF08C0ECE3F2E08F7B80838E
S113042060E084E00E94CF0080913E0286FF08C015
S1130430EEE3F2E08F7B808360E085E00E94CF00F2
S11304408091400286FF08C0E0E4F2E08F7B808365
S113045060E086E00E94CF008091420286FF08C0DF
S1130460E2E4F2E08F7B808360E087E00E94CF00CB
S11304708091440286FF08C0E4E4F2E08F7B80832D
S113048060E088E00E94CF008091460286FF08C0A9
S1130490E6E4F2E08F7B808360E089E00E94CF0095
S11304A08091480286FF08C0E8E4F2E08F7B8083F5
S11304B060E08AE00E94CF0008951F920F920FB669
S11304C00F9211248F93EF93FF9315BCEEE6F0E0A7
S11304D080818D7F8083E7E4F4E082818061828380
S11304E0FF91EF918F910F900FBE0F901F90189571
S11304F01F920F920FB60F9211242F933F934F9395
S11305005F936F937F938F939F93AF93BF93CF9397
S1130510DF93EF93FF93E3E7F2E081818F5F8183C1
S11305209081891376C0E7E4F4E092819460A5E7B2
S1130530B2E08C9121E0280F23708C7F822B8C9366
S11305401092740220914804822F829586958770B8
S1130550292F2370220F220F220F282B81E0820FD4
S1130560382F3F718295880F807E41814F71842B93
S113057081833695369536959C7F932B9283908113
S1130580492F46954F7030E09295969597708170FB
S1130590880F880F880F892B90E0840F911D2817EE
S11305A03907B9F581818F71818392819C7F928310
S11305B08695282F220F9081917E922B9083481349
S11305C00E945A048091470480FF17C0E7E4F4E0D6
S11305D08E7F808380914604813049F010F0823010
S11305E0C1F4E5E4F4E080818E7F808312C0E5E409
S11305F0F4E08081816080830CC080914604823065
S113060041F4E5E4F4E08081982F909590FB80F923
S11306108083E3E7F2E08081869591819813D8C0C6
S11306204091D3013091D601E8E6F2E0832F842B88
S113063080959581892385838091760381FF9AC073
S1130640CCE4D4E0E881F0E0B29680914504EE0F6A
S1130650FF1F817097E6899FE00DF11D1124EB586F
S1130660FC4F92818381E8E6F2E0918380830E94CB
S11306704B04888190E0FC01EE0FFF1FE80FF91F87
S1130680EE0FFF1FE050FF4F85810E94FB03209176
S11306904604213049F018F02230A1F020C08091A6
S11306A0D30180934D041BC08091470480FF05C093
S11306B08091D30180934D0412C08091D601809320
S11306C04D040DC08091450480FD05C08091D30187
S11306D080934D0404C08091D60180934D04809191
S11306E07502837090E002970CF06BC08091470410
S11306F080FF2AC0213061F018F0223089F024C034
S1130700EDE4F4E09091D6018081892B808359C077
S1130710EDE4F4E09091D6018081892B808351C06F
S11307208091450480FD08C0EDE4F4E09091D60189
S11307308081892B80830AC0EDE4F4E09091D30199
S11307408081892B808302C02230D9F580914504B1
S113075080FD08C0EDE4F4E09091D6018081892BFE
S113076080832FC0EDE4F4E09091D3018081892B44
S1130770808327C0E8E6F2E01182108220914604CB
S1130780213031F010F0223061F440934D0409C05F
S113079030934D0480917502837090E002978CF43D
S11307A00DC080917502837090E0029754F422305A
S11307B029F4EDE4F4E08081382B308380E00E945A
S11307C0FB03E8E6F2E090914D048581892B858353
S11307D0FF91EF91DF91CF91BF91AF919F918F9155
S11307E07F916F915F914F913F912F910F900FBE29
S11307F00F901F901895CF93DF9390E09C01220FE8
S1130800331F820F931FDC01A859BE4F2C91E22F96
S1130810EF70F0E0E859FD4FEC01C959DE4F30812B
S11308208881832B8083822F80618C93DF91CF9189
S11308300895CF93DF9390E09C01220F331F820F22
S1130840931FDC01A859BE4F2C91E22FEF70F0E00A
S1130850E859FD4FEC01C959DE4F8881809590819C
S113086089238083822F8F7E8C93DF91CF9108958B
S1130870282F30E0F901EE0FFF1F2E0F3F1FF90163
S1130880E859FE4F908194FF03C00E941904089513
S11308900E94FB030895E8E6F2E082818F70828370
S11308A087818072878383818F70838386818F7C25
S11308B0868308952F923F924F925F926F927F9218
S11308C08F929F92AF92BF92CF92DF92EF92FF925C
S11308D00F931F93CF93DF9300D000D0CDB7DEB733
S11308E082E2EBEBF3E0DF01982F1D929A95E9F792
S11308F0E2E2F4E0DF011D928A95E9F78091470472
S113090086958F70682E712CC090B703D090B80371
S1130910E090B903F090BA0380901E0490901F04F5
S1130920A0902004B0902104E7E7F3E0FA83E98380
S11309300F2EFEED4F2EF3E05F2EF02D00E010E0C1
S113094022242394312C55C02B813C81082E02C0D3
S1130950369527950A94E2F720FF06C0208131815D
S1130960242B352B318320839B01082E02C036951E
S113097027950A94E2F720FF08C02D913C91119726
S1130980242B352B11963C932E9301961296329676
S113099080319105C9F6D701C601002E04C0B69571
S11309A0A795979587950A94D2F780FF09C0ABED78
S11309B0B3E08D919C911197842B952B8D939C93EF
S11309C0D501C401002E04C0B695A79597958795C7
S11309D00A94D2F780FF08C0E2E4F4E080819181B8
S11309E0482B592B518340830F5F1F4F60167106AC
S11309F0D4F0A981BA812D913D91BA83A983A10133
S1130A00002E02C0440F551F0A94E2F7F2016191CF
S1130A1071912F01A2E2B4E0EBEBF3E080E090E00F
S1130A203C832B8391CF0F900F900F900F90DF9109
S1130A30CF911F910F91FF90EF90DF90CF90BF90D7
S1130A40AF909F908F907F906F905F904F903F906A
S1130A502F90089508950895403120F4622F842F33
S1130A600E94CF0008950E9440060E948A080E94B6
S1130A70FF080E94D80880917503833011F40E9406
S1130A80D8010E9407060E941E0A0E94F0090E94D3
S1130A904B090E9428070E946E060E9466085D9812
S1130AA008958FE18093C4001092C50088ED80936F
S1130AB0C100519A08951F920F920FB60F921124FC
S1130AC02F933F934F935F936F937F938F939F9352
S1130AD0AF93BF93EF93FF93CF93DF931F92CDB761
S1130AE0DEB78091C6008983AE014F5F5F4F61E03E
S1130AF088E892E00E94720B0F90DF91CF91FF91F2
S1130B00EF91BF91AF919F918F917F916F915F9181
S1130B104F913F912F910F900FBE0F901F901895FA
S1130B201F920F920FB60F9211240F900FBE0F90C9
S1130B301F901895559A8DB18C608DB987B18E60D0
S1130B4087B9209A739888B1817F88B92898439A85
S1130B5080E58093AC00EDEAF0E0808181608083E1
S1130B6080E00E94FB038DE10E94FB0382E20E946D
S1130B70FB030E94660884B5826084BD81EE87BD54
S1130B8088E892E00E94410B6CE275E088E892E00C
S1130B900E94350B6AE275E088E892E00E94390B06
S1130BA06BE275E088E892E00E943D0B0E945105DB
S1130BB00E94B700E3E7F2E086E08083C1E0C183EE
S1130BC00E948800E7E4F4E0828180618283A6E7E2
S1130BD0B3E08C918D7F8C9380818E618083818141
S1130BE08E6181831092460484E20E94FB03C093C9
S1130BF075038AE20E94FB0387E20E94FB03789458
S1130C0088E892E00E946B0D0E943305F9CF809131
S1130C10520286FF34C0E2E5F2E08F7B808380914C
S1130C20760380FF0CC080915902882321F0815003
S1130C30809359020EC085E0809359020AC08091C6
S1130C4059028F5F863019F08093590202C01092C6
S1130C50590220915902E22FF0E0E45FFD4F8081B8
S1130C6080937503E8E6F2E081E090E002C0880F2B
S1130C70991F2A95E2F79481907C892B84830895A7
S1130C800E949B0090935D0280935C0220915A0223
S1130C9030915B02821B930B95958795959587956B
S1130CA0820F931F90935B0280935A0223E634E0F1
S1130CB0A901481B590BCA01E3E7F2E054834383BB
S1130CC0258136814217530711F00E94BE00E3E7E5
S1130CD0F2E083819481968385830895BF92CF92B5
S1130CE0DF92EF92FF920F931F93CF93DF93809144
S1130CF0760381FF9AC080917503813009F09EC00C
S1130D008091490482FF9AC0E7E4F4E082818B7FFA
S1130D10828380718823F1F35D9A0F2EF8E4EF2E1D
S1130D20F4E0FF2EF02DD7019C91892F82958695B2
S1130D30877009E414E0F80190819370990F990F7A
S1130D40990F982B21E030E0A90102C0440F551FF0
S1130D509A95E2F7CA01E0914C04F0E0B2960F2EA6
S1130D60F5E4CF2EF4E0DF2EF02DD6012C91EE0F1A
S1130D70FF1F0F2EF7E6BF2EF02D2170B29EE00D5F
S1130D80F11D1124EB58FC4F32812381E8E6F2E097
S1130D90432F48234095382B34233183822F8923D2
S1130DA08095292B282320830E943701F601808116
S1130DB08170C82FF0E0DF2FBC9EF001BD9EF00DC6
S1130DC01124E954FC4FD7018C91982F9295969554
S1130DD09770D8018C918370880F880F880F892BA6
S1130DE040815181628173818A019B0104C03695DF
S1130DF02795179507958A95D2F700FF08C0E8E66E
S1130E00F2E080858160808784E10E94FB03EEE646
S1130E10F0E080818260808385B5836085BDE7E4EE
S1130E20F4E082818F7E828309C08091490482FF2D
S1130E3005C0E7E4F4E082818B7F8283DF91CF9168
S1130E401F910F91FF90EF90DF90CF90BF90089586
S1130E503F924F925F926F927F928F929F92AF9246
S1130E60BF92CF92DF92EF92FF920F931F93CF9393
S1130E70DF938091760381FF0DC1909175039130CA
S1130E8009F008C182FF27C08091120286FD0BC0C1
S1130E9081E090E0FC01EE0FFF1FEE5EFD4F20812C
S1130EA026FF14C002C080E090E0FC01EE0FFF1F9B
S1130EB0EE5EFD4F90819F7B9083E7E4F4E08F70BA
S1130EC0880F9181917E892B8183E4C001968031C2
S1130ED0910501F7DFC080914C048031C1F0C0E07E
S1130EE0D0E00F2EF5E4CF2EF4E0DF2EF02D0F2E00
S1130EF0FCE48F2EF4E09F2EF02D0F2EF7E67F2ECC
S1130F00F02DAA24A394B12C07E414E06FC0C0E030
S1130F10D0E00F2EF5E4AF2EF4E0BF2EF02DCC245C
S1130F20C394D12C0F2EF7E63F2EF02D0F2EFCE4A8
S1130F30EF2EF4E0FF2EF02D0F2EF7E48F2EF4E0C9
S1130F409F2EF02DFE01EE0FFF1FEE5EFD4F808100
S1130F5086FF41C08C2F0E943804FE01EE0FFF1F54
S1130F60EE5EFD4F80818F7B8083D5018C91082FAD
S1130F70017010E0309EC001319E900D1124FC01DF
S1130F80E954FC4F96010C2E02C0220F331F0A9421
S1130F90E2F72901032E000C66087708408151818D
S1130FA062817381442555256625772540835183C5
S1130FB062837383D701EC91F0E0B296EE0FFF1FCA
S1130FC08E0F9F1FFC01EB58FC4F828193812827D1
S1130FD03927338322832196F401808186958F708B
S1130FE090E08C179D070CF0ADCF54C0FE01EE0FBE
S1130FF0FF1FEE5EFD4F808186FF42C08C2F0E9452
S11310003804FE01EE0FFF1FDF01AE5EBD4F8C9171
S11310108F7B8C93D6018C9180FBEE24E0F8F12C2D
S1131020D4014C91242F30E07E9CC0017F9C900D14
S11310301124E80FF91FEB58FC4FB50102C0660FED
S1131040771F4A95E2F7AB016281738146275727E0
S113105053834283F901B296EE0FFF1F8E0F9F1F39
S1131060FC01EB58FC4F8281938195010C2E02C048
S1131070220F331F0A94E2F78227932793838283F4
S11310802196D8018C9186958F7090E08C179D07DE
S11310900CF0ACCFDF91CF911F910F91FF90EF90A7
S11310A0DF90CF90BF90AF909F908F907F906F9084
S11310B05F904F903F9008958093AE00EDEAF0E08A
S11310C080818823ECF78091AE000895CF93DF935D
S11310D0C8E6D2E088810E945C0889810E945C088D
S11310E08A810E945C088B810E945C088C810E942A
S11310F05C088D810E945C088E810E945C088F814F
S11311000E945C0888850E945C084398439ADF919A
S1131110CF910895CF93DF93429A80E00E945C08B8
S1131120C3E6D2E0888380E00E945C08898380E083
S11311300E945C088A8380E00E945C088B8380E0C4
S11311400E945C088C8342982881922F9695E6E74A
S1131150F3E0308190FB30F99A81492F42954F702A
S113116040FB32F93083EEE5F2E030812327322769
S11311703083232328833181298123273227318314
S113118023232983228192272927228392239A8346
S113119023819B8192272927238392239B839481F4
S11311A089279827948389238C83DF91CF9108958D
S11311B040E050E0DA01AA0FBB1FAE5EBD4F8C9138
S11311C0E82FE695E695E695E770F0E0ED59FD4FDA
S11311D0208130E0982F977002C0359527959A9515
S11311E0E2F7217086FB992790F9292720FB86F9DD
S11311F08C934F5F5F4F43325105E1F6089593B1ED
S113120080917102982789278093710289238093A2
S11312107202E6E7F3E0908191FB222720F986959C
S1131220822780FB91F9908391FF32C0211132C053
S1131230E7E4F4E081818F71818382818C7F846013
S113124082831092740280818E7F80838091460411
S11312508D7F31F4E5E4F4E080818E7F808308950E
S1131260E5E4F4E080818160808308950E944B046A
S113127080914C0490E0FC01EE0FFF1FE80FF91F72
S1131280EE0FFF1FE050FF4F85810E94FB0308957E
S1131290213061F308953F924F925F926F927F9253
S11312A08F929F92AF92BF92CF92DF92EF92FF9272
S11312B00F931F93CF93DF930F2EF5E0EF2EF1E002
S11312C0FF2EF02D0F2EFBE38F2EF1E09F2EF02D3D
S11312D002E110E0C1E1D0E0C12CD12C0F2EFCE4DE
S11312E0AF2EF4E0BF2EF02D0F2EFFE54F2EF1E0D0
S11312F05F2EF02D0F2EFFE03F2EF02D0CC08FEF50
S1131300C81AD80A21960F5F1F4FA6E0EA0EF11CF7
S1131310B6E08B0E911CFE01EE0FFF1FEE5EFD4F3B
S1131320808186FF37C0FE01EE0FFF1FEE5EFD4F8A
S11313308F7B80830E944B04F701D70112978C9115
S11313408F3FA9F0D5018C9190E0C816D90649F4D5
S1131350F40180810E94FB0389E08C0DD5018C93FC
S113136019C080810E94FB03F501C08213C0D5011E
S11313708C91863051F4C731D10539F4F201808162
S11313800E94FB03D5013C92BACF80810E94FB03EB
S1131390F501C0820C3111050CF4B1CF80913202F9
S11313A086FF0CC0E2E3F2E08F7B80830E944B0453
S11313B084E10E94FB0380E180934C04DF91CF9190
S11313C01F910F91FF90EF90DF90CF90BF90AF905F
S11313D09F908F907F906F905F904F903F90089573
S11313E080914E0286FF29C0EEE4F2E08F7B808379
S11313F0E6E4F4E080818F5F8083833039F41092D7
S113140046048091760381FF0DC004C09091760359
S113141091FF06C0E7E4F4E0808181608083089551
S11314208D7F31F4E5E4F4E080818E7F808308953C
S1131430E5E4F4E08081816080830895EF92FF9277
S11314400F931F93CF93DF9380917603867084303C
S1131450E1F58091750381113FC08CE10E9438044D
S1131460E5E4F4E0808180FBEE24E0F8F12C87E6EB
S11314708E9DD0018F9DB00D1124A958BC4F90E4CE
S1131480ED0119929A95E9F79081092F017010E006
S1131490809FD001819FB00D1124A554BC4F92E2CE
S11314A0ED0119929A95E9F790819170C92F90E016
S11314B0D92F8C9FF0018D9FF00D1124E954FC4F1E
S11314C0108211821282138207C0809175038111E8
S11314D003C08CE10E94FB03DF91CF911F910F9118
S11314E0FF90EF900895FC0142837483638311821B
S11314F010820895FF920F931F93CF93DF93EC0113
S1131500062F0E94F30A182FF9804F2D50E0CA01CC
S113151001962A81622F70E00E94A20D288130E09A
S11315208217930729F4812F0E94F60A80E012C0E3
S1131530EB81FC81EF0DF11D0083298130E0C901AD
S113154001966A8170E00E94A20D8983812F0E9416
S1131550F60A81E0DF91CF911F910F91FF900895DA
S1131560CF93DF93EC010E94F30A3981288132176B
S113157018F0C32FC21B04C09A81C32FC90FC21B0A
S11315800E94F60A8C2FDF91CF910895FC0180818F
S113159070E09B01280F311DC901628170E00E9437
S11315A0A20D0380F481E02DE80FF91F80810895D6
S11315B01F93CF93DF93EC01162F0E94F30A482F59
S11315C08881212F30E0B901680F711DCB016A8138
S11315D070E00E94A20D8883842F0E94F60ADF9196
S11315E0CF911F9108958FB7F89408958FBF0895F0
S11315F0881F8827881F089591E0883F08F490E0A9
S1131600892F0895982F907F903CB1F058F4903929
S113161041F118F4903819F524C0903A11F1903B37
S1131620F1F41FC0903EE9F018F4903D29F017C082
S1131630903F21F0933F99F482E0089590E0FC01FB
S1131640E15FF109EF30F10540F4E65AFF4F0C94E5
S1131650B60D83E0089582E0089580E0089580E067
S1131660089583E0089581E00895FC0175836483FF
S11316700895FC01778366830895FC01778B668B5C
S11316800895CF93DF93EC011DA21FA21EA2BC01FB
S1131690685D7F4F40EC88519F4F0E94730A1B8204
S11316A01A821D821C821F821E82198618861B863E
S11316B01A861D861C861F861E86198A188A1B8A0E
S11316C01A8A1D8A1C8A1F8A1E8A198E188E1B8EDE
S11316D01A8E1D8E1C8E1F8E1E8E19A218A2DF91CB
S11316E0CF910895EF92FF920F931F93CF93DF93BF
S11316F0662399F0EA016150062F10E00F5F1F4F37
S1131700040F151F7C0128EEE20EF11C6991C7013C
S11317100E947A0AC017D107C9F7DF91CF911F91B0
S11317200F91FF90EF900895AF92BF92CF92DF9206
S1131730EF92FF920F931F93CF93DF9300D01F92EA
S1131740CDB7DEB77C016B01142FB22EA02EDC01C5
S113175095968C919597843011F55A96ED91FC915C
S11317605B97309709F4CCC09B0121503109ABEA57
S1131770BAEA0E94BC0D969587959C01220F331FEF
S1131780820F931F4983BA820B834C2D481B9E0101
S11317902F5F3F4F682F792FC7010995BEC0623074
S11317A0710509F455C06330710529F06130710584
S11317B009F0A1C088C0842F807F803AF1F028F41A
S11317C08038A9F0803969F02FC0803EE1F0803F75
S11317D001F1803B49F5D7011296ED91FC911397E5
S11317E025C0D7011496ED91FC9115971FC0D70120
S11317F01696ED91FC91179719C0D7011896ED91A3
S1131800FC91199713C0D7011A96ED91FC911B977F
S11318100DC0423F09F074C0D7011C96ED91FC91B4
S11318201D97309741F46CC0E0E0F0E0309709F484
S113183067C0123F31F42A2D4B2D62EFC701099581
S11318406CC02A2D4B2D612F6F70C701099565C09F
S1131850842F807F803D51F0803F71F0803C01F502
S1131860D7011E96ED91FC911F971CC0D70150968D
S1131870ED91FC91519716C0433F41F4D701529624
S1131880ED91FC915397309799F43AC0413FC1F5DB
S1131890D7015496ED91FC915597309749F430C097
S11318A0E0E0F0E0309761F1812F8D7F813F29F4F2
S11318B04B2D612FC701099530C04B2D612F6F70DF
S11318C0C70109952AC0842F0E94FC0A882331F09D
S11318D0D7015696ED91FC91579707C0163F81F4B6
S11318E0D7015896ED91FC915997309749F0612FA3
S11318F0C701099512C06430710510F0C12CD12CB8
S1131900D7015C96ED91FC915D97309731F00A2DEB
S11319102B2D412FB601C7010995D7015E96ED9194
S1131920FC915F97309731F00A2D2B2D412FB60192
S1131930C70109950F900F900F90DF91CF911F91E0
S11319400F91FF90EF90DF90CF90BF90AF900895EC
S1131950FF920F931F93CF93DF93EC01162F862FE3
S11319600E94FC0A882369F0FDA081E08DA300E0B9
S113197020E0412F61E070E0CE010E94940BFDA2B3
S1131980A4C0812F0E94F80A882309F45DC08DA1A8
S1131990843029F01AA381E090E09FA38EA3812FC5
S11319A00E94020B813031F0B8F0823079F083303C
S11319B081F046C081E08DA300E020E0412F61E08A
S11319C070E0CE010E94940B1DA27FC082E08DA323
S11319D07CC083E08DA379C0103F19F0173F51F00C
S11319E02BC084E08DA380EF8AA381E090E09FA3C5
S11319F08EA36BC04EA15FA19A01ABEABAEA0E9422
S1131A00BC0D969587959C01220F331F820F931F5F
S1131A10FA01E81BF90BEC0FFD1F87EF82A3BA0153
S1131A206F5F7F4F7FA36EA30CA12BA14AA1CE01B0
S1131A300E94940B1DA249C01DA21FA21EA245C054
S1131A401DA21FA21EA241C0EDA1EE23F1F14EA1E1
S1131A505FA19A01ABEABAEA0E94BC0D96958795FC
S1131A609C01220F331F820F931F9A01281B390BED
S1131A70DE01A20FB31F92961C93BA016F5F7F4FD2
S1131A807FA36EA32130310589F022303105E9F4BA
S1131A900CA12BA14AA1CE010E94940B8DA18430EC
S1131AA0A1F081E090E09FA38EA30FC0E23069F41F
S1131AB000E02BA14AA1CE010E94940B8DA1843099
S1131AC021F081E090E09FA38EA3DF91CF911F913D
S1131AD00F91FF900895CF92DF92EF92FF920F93B0
S1131AE01F93CF93DF936C01DC019096ED91FC91F1
S1131AF09197309709F00995860108511F4FC80145
S1131B000E94B00AE82EF12CE114F10491F0C0E037
S1131B10D0E060E0C8010E94C60A682FC6010E9496
S1131B20A80C61E0C8010E94D80A2196CE15DF05F1
S1131B3081F7DF91CF911F910F91FF90EF90DF908C
S1131B40CF90089597FB072E16F4009407D077FDE5
S1131B5009D00E94CB0D07FC05D03EF490958195E9
S1131B609F4F0895709561957F4F0895EE0FFF1F65
S1131B700590F491E02D0994A29FB001B39FC00198
S1131B80A39F700D811D1124911DB29F700D811DA5
S1131B901124911D0895AA1BBB1B51E107C0AA1F64
S1131BA0BB1FA617B70710F0A61BB70B881F991FFA
S1131BB05A95A9F780959095BC01CD010895F894A4
S1051BC0FFCF51
S1131BC2000402FF0015010404FF001602040801C8
S1131BD20117030410020130040420040131050436
S1131BE240080032060480FF0033070301FF00357A
S1131BF2080302FF0036090304FF002C0A0308FF4E
S1131C02002D0B04080100180C04100200190D0425
S1131C122004001A0E044008011B8F0320FF003425
S1131C22100401FF0014010101000201000401007B
S1131C3208010010010020010040010080010001A0
S1131C420000020000040000080000100000200050
S1131C5200400000800000010200020200040200B1
S1131C62080200100200200200400200800200105C
S1131C720300200300400300800300010400020467
S1131C8200040400080400100400200400400400BE
S1131C928004000105000205000405000805001087
S1131CA205002005004005008005001006002006FE
S1131CB20040060080060001070002070004070036
S1131CC20807001007004007008007000001020314
S1131CD20405200021002200230024002500260000
S1131CE22700180019001A001B001C001D001E000A
S1131CF21F00150016001700080009000A000B0057
S1131D020C000D000E000F00000001000200100084
S10B1D1211001200130014007B
S9030000FC
