S017000054522D3830382D6669726D776172652E7372656310
S11300000C942A010C942B060C94EE050C944701D5
S11300100C9447010C9458060C9447010C94F20676
S11300200C9447010C9447010C9447010C941B0752
S11300300C9447010C9447010C948B060C944701D3
S11300400C9447010C9447010C949E070C94D3071D
S11300500C9447010C9447010C9447010C944701FC
S11300600C9495220C9447010C9447010C9447017D
S11300700C9447010C9447010C9447010C944701DC
S11300800C9447010C9407070C9447010C94470106
S11300900C9447010C9447010C9447010C944701BC
S11300A00C9447010C9447010C9411070C944701DC
S11300B00C944701B922DA23DA23DA23DA23DA2388
S11300C0DA23DA23B922DA23DA23DA23DA23DA2366
S11300D0DA23DA23D822DA23DA23DA23DA23DA2337
S11300E0DA23DA23D123DA23DA23DA23DA23DA232D
S11300F0DA23DA23D822DA23DA23DA23DA23DA2317
S1130100DA23DA23D123DA23DA23DA23DA23DA230C
S1130110DA23DA23DA23DA23DA23DA23DA23DA23F3
S1130120DA23DA232F23DA23DA23DA23DA23DA238E
S1130130DA23DA23D123DA23DA23DA23DA23DA23DC
S1130140DA23DA231A23DA23DA23DA23DA23DA2383
S1130150DA23DA234323DA23DA23DA23DA23DA234A
S1130160DA23DA236B23DA23DA23DA23DA23DA2312
S1130170DA23DA236B23DA23DA23DA23DA23DA2302
S1130180DA23DA236B23DA23DA23DA23DA23DA23F2
S1130190DA23DA236B23DA23DA23DA23DA23DA23E2
S11301A0DA23DA237323DA23DA23DA23DA23DA23CA
S11301B0DA23DA23CD23DA23DA23DA23DA23DA2360
S11301C0DA23DA237323DA23DA23DA23DA23DA23AA
S11301D0DA23DA23CD23DA23DA23DA23DA23DA2340
S11301E0DA23DA239723DA23DA23DA23DA23DA2366
S11301F0DA23DA23A923DA23DA23DA23DA23DA2344
S1130200DA23DA23A923DA23DA23DA23DA23DA2333
S1130210DA23DA23AD23DA23DA23DA23DA23DA231F
S1130220DA23DA23CD23DA23DA23DA23DA23DA23EF
S1130230DA23DA23CD23AE24AC24AE24B024B024B4
S1130240B624B024B624B624B624B624B624B024E6
S1130250B624B62411241FBECFEFD8E0DEBFCDBF35
S113026012E0A0E0B1E0EAE9FFE402C005900D92DB
S1130270A433B107D9F725E0A4E3B2E001C01D928D
S1130280AE39B207E1F70E942E0A0C94CB270C94E6
S113029000000895CF92DF92EF92FF920F931F9385
S11302A00F2EF9E4CF2EF1E0DF2EF02D0F2EFDE816
S11302B0EF2EF12CF02D04E512E020E035E34CE0C4
S11302C050E060E074E284EF90E00E940B2210930F
S11302D0E3020093E2021093FA020093F9021093EE
S11302E0FE020093FD021093F2020093F1021093B8
S11302F0F6020093F5021F910F91FF90EF90DF90AB
S1130300CF900895CF93DF93EC019091F302911174
S1130310FCCF50E0542F44275295507F460F571F6F
S1130320E091E202F091E3025083E091E202F09165
S1130330E30241834BE850E062E070E080E50E9414
S11303405E229091F3029111FCCFE091FD02F091B5
S1130350FE028BE8DE0101900D928A95E1F7CE0151
S1130360DF91CF9108950F931F93CF93DF939C0157
S11303708A019091F3029111FCCFC62FD0E0DC2FBB
S1130380CC27D295D07FC20FD31FE091F902F09110
S1130390FA02D083E091F902F091FA02C18380E875
S11303A0F801A6E5B2E001900D928A95E1F762E8C2
S11303B070E080E50E943C22C058DF4F9091F30228
S11303C09111FCCFE091F902F091FA02D083E0910F
S11303D0F902F091FA02C183F801E058FF4F8BE073
S11303E0A6E5B2E001900D928A95E1F76DE070E028
S11303F080E50E943C228091F3028111FCCFDF91C1
S1130400CF911F910F910895CF93DF93EC019091B9
S1130410F3029111FCCF6E577E4F7695762F6627A7
S113042077956795E091E202F091E3027083E091A1
S1130430E202F091E302618341E450E062E070E0A3
S113044080E50E945E229091F3029111FCCFE0912D
S1130450F502F091F60281E4DE0101900D928A9595
S1130460E1F7CE01DF91CF9108959C019091F302C1
S11304709111FCCFC9018E579E4F9695982F8827CE
S113048097958795E091F902F091FA029083E091B3
S1130490F902F091FA02818381E4FB01A6E5B2E05E
S11304A001900D928A95E1F763E470E080E50E9483
S11304B03C228091F3028111FCCF0895EAE7F0E039
S11304C0808184608083ACE7B0E08C9180648C93FD
S11304D08C9183608C93AEE7B0E08C9188608C93B0
S11304E08081806880830895EAE7F0E080818064F9
S11304F08083808186FDFDCF809178009091790082
S113050008958CE08093810082E080936F0085E001
S11305108093910086E48093B4008093B300E2E07A
S1130520F3E08081887F808308959093890080938D
S1130530880020918400309185008217930728F465
S1130540019790938500809384000895CF93DF935F
S113055080919400909195009093080380930703F1
S11305608091E60284FF0AC0E6EEF2E080818F7E8D
S1130570808310928500109284000EC0CFEFD2E0E9
S1130580888599850E9495028C81882329F09C8115
S11305908A81891B8C5F8A83E6EEF2E080818F7DFD
S11305A080831092030310929500109294000E948D
S11305B0F30DE1E8F0E0808184608083DF91CF91E6
S11305C00895CF93DF938091940090919500EFEF7D
S11305D0F2E09187808720853185ABEABAEA0E94F0
S11305E0862796958795969587959695879591876D
S11305F080878091E60284FF0AC0E6EEF2E0808103
S11306008F7E808310928500109284000CC0CFEFFF
S1130610D2E0888599850E9495028C81882319F0FF
S1130620888181508A83E6EEF2E080818F7D808329
S11306301092030310929500109294000E94F30DFF
S1130640E1E8F0E0808184608083DF91CF910895B8
S1130650E5E4F2E010868681807F868387818F7D42
S1130660878385B1877E85B90895FF920F931F9381
S1130670CF93DF93C82FF62E0E942803E5EEF2E015
S1130680908193FFFDCFC09334020C2F10E087E0DC
S1130690C89FE0011124C050DF4FE8818E2F881FCE
S11306A08827881FE981E770EE0FE82BF0E0EB5B09
S11306B0FD4F90818A81892B80838D810E9412084D
S11306C09B819F3FC1F0A5E4B2E013962C91139750
S11306D0F801EE0FFF1FEE0FFF1FEE0FFF1FE01BD1
S11306E0F10BEC5FFE4F8081817081958227892315
S11306F0822713968C9380E48F1540F4E5E4F2E0AE
S113070080858160808784E10E9412085D9AEEE60C
S1130710F0E080818260808385B5856085BDE5EEEB
S1130720F2E08081877F8083DF91CF911F910F91C9
S1130730FF900895CF93DF93CDB7DEB72A970FB616
S1130740F894DEBF0FBECDBF8AE0E9E1F2E0DE013E
S1130750119601900D928A95E1F780919405982F56
S1130760929596959770809195058170880F880F62
S1130770880F892B21E030E002C0220F331F8A95B5
S1130780E2F7E09103058E2F829586958695837016
S1130790E0910405E170EE0FEE0FE82BF0E03197E5
S11307A0EE0FFF1F81E090E08C0F9D1FE80FF91FF3
S11307B08081918182239323892BD9F0A0919A057A
S11307C097E0A99FD0011124A050BF4FEC918E2F28
S11307D0881F8827881F1196EC911197E770EE0FF8
S11307E0E82BF0E0EB5BFD4F908112968C91892B06
S11307F080832A960FB6F894DEBF0FBECDBFDF917B
S1130800CF9108953F924F925F926F927F928F9211
S11308109F92AF92BF92CF92DF92EF92FF920F938B
S11308201F93CF93DF9300D000D0CDB7DEB7F82E5F
S11308305D9A0E942803EEE6F0E090819260908336
S113084095B5956095BD90910305292F2295269520
S113085026952370909104059170990F990F922B0E
S113086009F4F5C00E949A03F2C05A824982D40165
S11308708C91982F929596959770F501808181704F
S1130880880F880F880F892BD6019C9196959170BB
S1130890F701399EE00DF11D1124E80FF11DEE0F53
S11308A0FF1FE75FFA4F808191810B8002C096950C
S11308B087950A94E2F780FF77C0F30180818F71F6
S11308C090E02B813C818217930709F42B9AD30182
S11308D08C91982F929596959770EDE9F5E080812B
S11308E08370880F880F880F892B90E02B813C81BF
S11308F08217930709F42C9AEB81FC81EE0FFF1FFA
S1130900EE0FFF1FEE0FFF1F4B815C81E41BF50B05
S1130910EA5FFE4F808180FD47C0A1E0B5E08C9185
S113092084FD04C0F80180810E941208AB81BC815F
S1130930AA0FBB1FAA0FBB1FAA0FBB1F2B813C8191
S1130940A21BB30BA050BF4FEC918E2F881F88279A
S1130950881F1196EC91E770EE0FE82BF0E0EB5B4B
S1130960FD4FD80113979C918081892B8083F801D6
S1130970329780818F3FC1F020914802EB81FC8146
S1130980EE0FFF1FEE0FFF1FEE0FFF1F4B815C8169
S1130990E41BF50BEC5FFE4F9081917091959227CB
S11309A089238227809348028B819C8101969C83B2
S11309B08B83095F1F4F409709F057CF80919005B3
S11309C086958170E981FA8192E2899FE00DF11D9B
S11309D01124EE0FFF1FEB5FFA4F80919405982FBF
S11309E0929596959770809195058170880F880FE0
S11309F0880F892B20813181D90102C0B695A79532
S1130A008A95E2F7A0FF4FC0E5E4F2E080858160BB
S1130A10808780919C058F71803109F42B9A809195
S1130A209C05982F92959695977080919D0583705B
S1130A30880F880F880F892B803109F42C9A8091B4
S1130A40010584FD30C084E10E9412082CC005E039
S1130A5011E01C821B824F2C512C0F2EF4E98F2E97
S1130A60F5E09F2EF02D0F2EF5E9AF2EF5E0BF2E09
S1130A70F02D0F2EF0E9CF2EF5E0DF2EF02D7201D0
S1130A80EE0CFF1CEE0CFF1CEE0CFF1CEE0CFF1C0E
S1130A900F2EF2E23F2EF02D0F2EFCE96F2EF5E023
S1130AA07F2EF02DE2CE0F900F900F900F90DF91DC
S1130AB0CF911F910F91FF90EF90DF90CF90BF9057
S1130AC0AF909F908F907F906F905F904F903F90EA
S1130AD008958091070286FF08C0E7E0F2E08F7B6B
S1130AE0808360E080E00E9435038091080286FFE5
S1130AF008C0E8E0F2E08F7B808360E081E00E9440
S1130B0035038091090286FF08C0E9E0F2E08F7B9B
S1130B10808360E082E00E94350380910A0286FFB0
S1130B2008C0EAE0F2E08F7B808360E083E00E940B
S1130B30350380910B0286FF08C0EBE0F2E08F7B67
S1130B40808360E084E00E94350380910C0286FF7C
S1130B5008C0ECE0F2E08F7B808360E085E00E94D7
S1130B60350380910D0286FF08C0EDE0F2E08F7B33
S1130B70808360E086E00E94350380910E0286FF48
S1130B8008C0EEE0F2E08F7B808360E087E00E94A3
S1130B90350380910F0286FF08C0EFE0F2E08F7BFF
S1130BA0808360E088E00E9435038091100286FF14
S1130BB008C0E0E1F2E08F7B808360E089E00E947E
S1130BC035038091110286FF08C0E1E1F2E08F7BDA
S1130BD0808360E08AE00E94350308951F920F929B
S1130BE00FB60F9211242F933F934F935F936F93FC
S1130BF07F938F939F93AF93BF93EF93FF938091D2
S1130C00E60284FF15C0E2E0F3E0808186958695D4
S1130C1086958F5F8770282F220F220F220F9081D5
S1130C20977C922B9083813029F40E94A60202C003
S1130C300E94A602FF91EF91BF91AF919F918F9176
S1130C407F916F915F914F913F912F910F900FBEC4
S1130C500F901F9018951F920F920FB60F921124A8
S1130C602F933F934F935F936F937F938F939F93B0
S1130C70AF93BF93EF93FF930E94E102329AEAE0AD
S1130C80F3E080818095908180FB90F99083FF91BF
S1130C90EF91BF91AF919F918F917F916F915F91F0
S1130CA04F913F912F910F900FBE0F901F90189569
S1130CB01F920F920FB60F9211242F933F934F93CD
S1130CC05F936F937F938F939F93AF93BF93EF93B0
S1130CD0FF934C9B08C0E1E0F5E080818062808353
S1130CE00E94F00E07C0E1E0F5E080818F7D8083F3
S1130CF00E94AA10FF91EF91BF91AF919F918F91A4
S1130D007F916F915F914F913F912F910F900FBE03
S1130D100F901F9018951F920F920FB60F921124E7
S1130D202F933F934F935F936F937F938F939F93EF
S1130D30AF93BF93CF93DF93EF93FF9315BCEEE68E
S1130D40F0E080818D7F808385B1877E85B9E5EE73
S1130D50F2E08081886080838091000581112FC03A
S1130D60A091340287E0A89FD0011124A050BF4F66
S1130D70EC918E2F881F8827881F1196EC9111976C
S1130D80E770EE0FE82BF0E0C5E4D2E0EB5BFD4F3B
S1130D9012968C91809590818923808384E10E94AE
S1130DA02D0888858E7F8887E091340287E0E89F4C
S1130DB0F0011124E050FF4F85810E942D08FF911E
S1130DC0EF91DF91CF91BF91AF919F918F917F91DF
S1130DD06F915F914F913F912F910F900FBE0F90A4
S1130DE01F9018951F920F920FB60F9211248F9394
S1130DF0EF93FF93E7EEF2E0808181608083FF91BF
S1130E00EF918F910F900FBE0F901F9018951F9226
S1130E100F920FB60F9211240F900FBE0F901F90D8
S1130E2018951F920F920FB60F9211240F900FBEB8
S1130E300F901F9018951F920F920FB60F921124C6
S1130E402F933F934F935F936F937F938F939F93CE
S1130E50AF93BF93EF93FF938091E60284FD5DC04F
S1130E600E94F30DE2E0F3E02081277081E0820F1D
S1130E70982F97708081887F892B8083233009F095
S1130E804CC08081887F808380910005813051F43B
S1130E908CE093E00E94B8248091010585FF3DC059
S1130EA0329A3BC08330C9F5E0EBF0E080818F7E5D
S1130EB08083A1EBB0E08C9180648C93808180630B
S1130EC080831092B2008091010585FD329A809151
S1130ED0E70281FF22C0E2E0F3E0808186958695F7
S1130EE086958F5F8770282F220F220F220F908103
S1130EF0977C922B9083813081F4E7EEF2E080813D
S1130F008D7F80835C9A10920103E5EEF2E080818C
S1130F108160808380818D7F8083FF91EF91BF9179
S1130F20AF919F918F917F916F915F914F913F917D
S1130F302F910F900FBE0F901F9018951F920F9234
S1130F400FB60F9211242F933F934F935F936F9398
S1130F507F938F939F93AF93BF93EF93FF93CF931D
S1130F60DF931F92CDB7DEB78091C6008983AE01AF
S1130F704F5F5F4F61E08CE093E00E9419250F9072
S1130F80DF91CF91FF91EF91BF91AF919F918F919D
S1130F907F916F915F914F913F912F910F900FBE71
S1130FA00F901F9018951F920F920FB60F92112455
S1130FB02F933F934F935F936F937F938F939F935D
S1130FC0AF93BF93EF93FF9389EB94E00E94332494
S1130FD0882361F060E089EB94E00E9449248093C7
S1130FE0C60061E089EB94E00E945B2489EB94E005
S1130FF00E943324811105C0E1ECF0E080818F7DF3
S11310008083FF91EF91BF91AF919F918F917F91D9
S11310106F915F914F913F912F910F900FBE0F9061
S11310201F901895CF93DF9390E0880F991FDC01F0
S1131030AC57BE4F2C91E22FEF70F0E0EB5BFD4F0D
S1131040EC01CD57DE4F30818881832B8083822F42
S113105080618C93DF91CF910895CF93DF9390E0DB
S1131060880F991FDC01AC57BE4F2C91E22FEF7013
S1131070F0E0EB5BFD4FEC01CD57DE4F88818095AE
S1131080908189238083822F8F7E8C93DF91CF91EF
S11310900895E82FF0E0EE0FFF1FEC57FE4F90810C
S11310A094FF03C00E942D0808950E941208089519
S11310B0E5E4F2E082818F70828387818072878386
S11310C083818F70838386818F7C868308950F93B9
S11310D01F93CF93DF9305E011E0C0E0D0E0FE0161
S11310E0EE0FFF1FEE0FFF1FEE0FFF1FEC1BFD0B9C
S11310F0EA5FFE4F808180FF05C0F80180810E9475
S1131100120804C0F80180810E942D082196095F0D
S11311101F4FC031D10519F7DF91CF911F910F9166
S113112008958091FF04833009F449C038F0843075
S113113009F458C0853009F469C008958091010507
S113114084FF31C08091020580FF2AC00E945808A4
S11311508091900582FD0DC0E0919C05EF7187E0C0
S1131160E89FF0011124E050FF4F85810E9412088E
S11311700895E0919C058E2F829586958770E09165
S11311809D05E370EE0FEE0FEE0FE82B87E0E89F6E
S1131190F0011124E050FF4F85810E941208089548
S11311A00E9467080895E0919A0587E0E89FF0019E
S11311B01124E050FF4F85810E9412080895809108
S11311C0010584FF03C00E9467080895E0919A0511
S11311D087E0E89FF0011124E050FF4F85810E94D1
S11311E0120808958091010584FF03C00E946708D6
S11311F00895E0919905E695E695E695EF70F0E09F
S1131200E958FE4F80810E941208089580910105DB
S113121084FF03C00E9467080895E0919905E6954C
S1131220E695E695EF70F0E0E958FE4F80810E9464
S1131230120808950F931F93CF93DF9310928F0595
S113124010928E0580919A05803151F19091950507
S113125092FB442740F950E020919005A1E0B0E0D2
S113126002C0AA0FBB1F8A95E2F7FA01E150FB4FB7
S1131270ED56FF4F608170E0C0E0D0E080E090E088
S113128042955295507F5427407F542726952170CC
S113129032E2239F400D511D112401E010E03CC0B7
S11312A08091950582FBEE27E0F9F0E0209190050E
S11312B0DF01A150BB4FAD56BF4F4C9150E060E0F1
S11312C070E080E090E02695217032E2239FE00DEB
S11312D0F11D1124EE0FFF1FEB5FFA4FA1E0B0E008
S11312E020813181082E02C0369527950A94E2F7B1
S11312F020FF09C09D01082E02C0220F331F0A944B
S1131300E2F7622B732B0196481759074CF7709339
S11313108F0560938E051EC0FA01E80FF91FEE0FCA
S1131320FF1FE75FFA4F208131812A233B23232BC0
S113133049F09801082E02C0220F331F0A94E2F7E5
S1131340C22BD32B01966817790734F7D0938F05F6
S1131350C0938E05DF91CF911F910F9108958091D5
S11313604A02482F437C8091010588237CF58091B3
S1131370FF048450823050F580919805982F9695FB
S1131380969596958091990583708295880F807EB5
S1131390892B90E0803191052CF4842F8062809316
S11313A04A020895803291052CF4842F8061809341
S11313B04A020895C0972CF4842F886080934A02CF
S11313C00895842F846080934A020895809195053E
S11313D086958695869583708E5F21E030E0B9010D
S11313E002C0660F771F8A95E2F7CB01842B8093A6
S11313F04A020895E5E4F2E0118210820895809192
S11314000B03811102C00E94A80D0E94D11D0E94ED
S11314108A1C0E94E11C8091FF04833029F480918E
S1131420010584FF0E9469050E94760B0E948D0CC1
S11314300E94521E0E945B1F0E94121E0E94D10F26
S11314400E944E210E9491080E94061D0E943E188F
S11314500E94F7140E94661C5D980895559A8DB1F8
S11314608F608DB9399A209A739841982898719A07
S113147080E58093AC00EDEAF0E0808181608083B8
S11314806A9A3A9A239A249AE9E6F0E080818E6077
S11314908083EDE6F0E0808180618083C4E9D5E05B
S11314A08A819B819E7F9B8399819F7199838E7191
S11314B08A8380E00E9412088DE10E94120882E271
S11314C00E9412080E94661C84B5826084BD80E17B
S11314D087BD8CE093E00E94E8246EE37BE08CE01F
S11314E093E00E94DC2468E57BE08CE093E00E94BA
S11314F0E02469E57BE08CE093E00E94E4240E9410
S1131500270B0F2EFCE9EF2EF5E0FF2EF02DF7014F
S11315108181837C81830E948102EFEFF2E088E184
S11315208083DD24D394D282148684E081830E9454
S11315305E02E5EEF2E0808188608083E6EEF2E010
S113154080818E7F808301E015E0F80180818F7DAA
S113155080830F2EFFEFAF2EF4E0BF2EF02D1092FC
S1131560910584E20E941208E0E9F5E080818B7F16
S113157080838EE20E941208F501D082D182898193
S11315808D7F8B7F89838AE20E94120887E20E9402
S113159012088B81817E88618B83F8018081807F32
S11315A080830F2EFDE8CF2EF5E0DF2EF02DF6011F
S11315B08081807F8083F80182818F73828383811D
S11315C08E7F83830E944A0178948A81817E8A83F4
S11315D0F60180818F70808360E080E00E9430108B
S11315E0F801818181788062818385EEF7018083AF
S11315F081818C7F816081838CE093E00E94162737
S11316000E94FF09F9CF0F931F93CF93DF93EB0150
S1131610122F642F89EB94E00E94FD23C230D10580
S113162028F0612F89EB94E00E94FD23239729F48D
S1131630602F89EB94E00E94FD23E1ECF0E08081CF
S113164080628083DF91CF911F910F9108958FE184
S11316508093C4001092C50088E98093C100519A18
S113166040EC69EF73E089EB94E00E94F62363E0B9
S11316707BE08CE093E00E943B250895E0919D057A
S1131680E695E695EF70F0E06F7070E0E617F70707
S113169071F48091000581110AC08091010585FDD6
S11316A006C0403120F4622F842F0E943503089530
S11316B0089580910B038823C1F06A3F39F06C3F91
S11316C069F0683F91F40E94A6020895E1E0F5E014
S11316D08081806280830E94F00E0895E1E0F5E04D
S11316E080818F7D80830E94AA100895CF93DF9319
S11316F000D000D000D0CDB7DEB786E0E3E2F2E060
S1131700DE01119601900D928A95E1F780911602FF
S113171086FFFAC0E6E1F2E08F7B808380910105C9
S113172084FF3AC08091FF04853051F5809198057B
S1131730982F9695969596958091990583708295A4
S1131740880F807E892BD1F081588F77E4E9F5E00A
S1131750282F220F220F220F94819770922B9483AB
S1131760282F22952695277095819C7F922B95830F
S1131770882321F081508093FE0402C01092FE045D
S11317808091F101882321F081508093F1010EC0F2
S113179085E08093F1010AC08091F1018F5F86306A
S11317A019F08093F10102C01092F1018091E502D9
S11317B086FF07C00E94B51BE5EEF2E080818F7BB7
S11317C080833091F101FE01E30FF11D218120930B
S11317D0FF04E5E4F2E081E090E002C0880F991F85
S11317E03A95E2F79481907C892B8483233009F421
S11317F04DC018F4213028F487C0263008F473C093
S113180083C0EDE8F5E08081682F62956F70807F7A
S1131810862B80838091960586958F70E4E9F5E0A8
S1131820382F3295330F307E42814E71282F269502
S11318302695269593819E7F922B938391819F7108
S1131840932B9183342B232B22830E943010E1E0CD
S11318508091FF04813009F4E0E0A4E9B5E0119639
S11318608C911197E0FB82F911968C931197F0E01B
S1131870E150FB4FED56FF4F8081982F9F718C9163
S1131880807E892B8C930E941A093EC0EDE8F5E016
S11318908081982F92959F70807F892B808380917F
S11318A09505982F929596959770809196058170DD
S11318B0880F880F880F892B282F30E02C303105B2
S11318C01CF1E4E9F5E0982F990F82818170892B4E
S11318D080668283838181608383E5EEF2E0808188
S11318E08062808311C0EDE8F5E080818F70982FCD
S11318F09295907F892B8083809199058695869512
S113190086958F700E94FF1B26960FB6F894DEBF53
S11319100FBECDBFDF91CF910895CF93DF93CDB7A5
S1131920DEB72B970FB6F894DEBF0FBECDBF86E0AF
S1131930E9E2F2E0DE01119601900D928A95E1F759
S113194085E0EFE2F2E0DE01179601900D928A95B0
S1131950E1F7E5E4F2E094819F7394838281807FD0
S113196082832091010524FFA4C08091170286FF81
S11319707AC0E7E1F2E08F7B8083809135028F5F4C
S1131980853019F08093350202C01092350280919F
S11319903502FE01E80FF11D878180930005109246
S11319A0B1001DBA1092680094E090930003823055
S11319B0B1F128F4882391F0813031F054C08330A0
S11319C0B1F08430F1F14FC010920B03E1E8F0E084
S11319D08081846080834298729845C081E08093BE
S11319E00B031092950010929400729A3CC01092CE
S11319F00B03E1E8F0E08081846080835A9A8AB125
S1131A00886D8AB9E0EBF0E0808182608083E1EB4D
S1131A10F0E08081876080831092B20024C081E06E
S1131A2080930B03109295001092940072988AB1DF
S1131A3087728AB9E99AE8E6F0E08081846080835D
S1131A4012C0EFEFF2E081E08487109295001092CB
S1131A5094007298E89A329AAAE0B3E08C918E7F4F
S1131A608C9380E3818380910005843099F4809184
S1131A700A03E5E4F2E0482F417050E0809135021A
S1131A80815002C0440F551F8A95E2F78281482B8A
S1131A90428355C0E5E4F2E081E090E00090350235
S1131AA002C0880F991F0A94E2F79281892B8283DE
S1131AB046C02091170226FF25C0E7E1F2E02F7B04
S1131AC02083209136022F5F263019F020933602AE
S1131AD002C01092360220913602DE01A20FB11D1F
S1131AE0E1E0F5E011962C91322F3F702081207FA8
S1131AF0232B2083E4E9F5E023812F7123832481C0
S1131B00287F248320913602223068F42A5F41E042
S1131B1050E0BA0102C0660F771F2A95E2F7962BB0
S1131B20909349020CC0225041E050E0BA0102C037
S1131B30660F771F2A95E2F7862B809347022B9630
S1131B400FB6F894DEBF0FBECDBFDF91CF910895DD
S1131B500E94740290933A028093390220913702D2
S1131B6030913802821B930B9595879595958795AF
S1131B70820F931F90933802809337022BE834E04E
S1131B80A901481B590BEFEFF2E057834683868186
S1131B9097810E949502089580919805982F9695B3
S1131BA0969596958091990583708295880F807E8D
S1131BB0892B282F30E0203131051CF40E941208B3
S1131BC008952032310524F480510E9412080895AA
S1131BD02033310524F480520E9412080895805362
S1131BE00E94120808958091E60286FF28C0809121
S1131BF00305869586958F5F8F70E1E0F5E0282FC9
S1131C00220F220F9281937C922B928390E0209159
S1131C100205322F3695377022952F702770329F28
S1131C20900111248217930751F4E5EEF2E08081CC
S1131C3081608083E6EEF2E080818F7B80839091E7
S1131C409405929596959770809195058170880F6B
S1131C50880F880F892B382F3170EFEFF2E09281D3
S1131C609F5F92832081921381C09091E60290FF3E
S1131C700CC0E0919505E695E695E695E370F0E0F5
S1131C80EE50FE4F90819093FF029091E6029923CB
S1131C90C4F490910205692F661F6627661F909110
S1131CA003059370990FE1E0F5E0962B292F220F9D
S1131CB09181917F922B9183E6EEF2E090819F7760
S1131CC09083909102059E7081F031110EC0909125
S1131CD0E602992354F0E1E0F5E09281937C92834B
S1131CE0E6EEF2E09081906490839091E60296FD96
S1131CF005C0E5EEF2E090819160908321E0280F29
S1131D00E4E9F5E0322F3295330F307E90819F71F4
S1131D10932B908323FB992790F921812E7F292BE4
S1131D20218390E021FB442740F950E041505B4F70
S1131D30FA01ED56FF4F208130E08217930749F4F2
S1131D408091010585FF05C0E5EEF2E080818068A1
S1131D508083E4E0F3E080818F5F982F937080812B
S1131D608C7F892B80831092010321C0EFEFF2E076
S1131D70928180818695981303C0332399F002C021
S1131D803323A9F0EFEFF2E02281408130E0469561
S1131D90809102058695877090E0840F911D281725
S1131DA0390729F4E5EEF2E0808182608083809136
S1131DB00B038130A1F4EFEFF2E084818F5F848321
S1131DC0918189130CC010920303E6EEF2E0808146
S1131DD080628083E1E8F0E080818B7F80830895D6
S1131DE08091FF04853041F0E4E9F5E08481877057
S1131DF0848385818C7F8583E2E0F3E08081887F22
S1131E00808380910B038130A1F4E4E9F5E08081C3
S1131E10806E8083818181608183EFEFF2E0808135
S1131E2081508283A6EEB2E08C9180618C931482FF
S1131E300FC0E4E9F5E080818F71808381818E7F1A
S1131E40818310920103E6EEF2E080818F7E80832D
S1131E50E5EEF2E080818B7F8083809191058D7F18
S1131E6031F4E0E9F5E080818D7F808305C0E0E90D
S1131E70F5E0808182608083809100059EEF980F59
S1131E80923058F4E7EEF2E0808182608083E2E0F1
S1131E90F3E08081877C80830FC0E5EEF2E09081DF
S1131EA091609083813041F48CE093E00E94C424DB
S1131EB08CE093E00E94B8248091FF048330B9F44D
S1131EC08091E60282FF13C0E6EEF2E080818B7F10
S1131ED08083E0E9F5E0808182FB992790F990FB0B
S1131EE081F98083E5EEF2E08081806280838BEE6D
S1131EF087BD109285001092840010929500109274
S1131F009400E1E8F0E08081846080830895CF93B9
S1131F10DF93863090F4E1E0F5E0918180FB97F95E
S1131F2091838695837092819C7F892B8283E6EED0
S1131F30F2E080818068808315C08850863090F4F8
S1131F40E1E0F5E0282F2295220F220F207C9281D8
S1131F509F73922B928382FB992790F983818E7FC2
S1131F60892B838390910205991F9927991FC3E0B8
S1131F70D5E088818370880F892B0E94120888819C
S1131F80982F9295969596959370809104058170FB
S1131F90880F880F892B885F0E941208DF91CF91E8
S1131FA008958091180286FF2CC08091010584FF5A
S1131FB028C0E8E1F2E080818F7B808380919505E1
S1131FC0869586958695837069F08D5F8370E4E9C4
S1131FD0F5E0982F990F990F990F8181877E892BAE
S1131FE0818305C0E4E9F5E0818188618183E5EEC0
S1131FF0F2E0808180618083E6EEF2E0808181609E
S113200080830E94AF0908958091E50282FF18C081
S1132010E5EEF2E080818B7F8083809191058130B1
S113202049F010F08230D9F4E0E9F5E080818D7F49
S113203080830895E0E9F5E08081826080830895DB
S113204080919105823059F4E0E9F5E0808181FBCB
S1132050222720F991E0922790FB81F9808308954B
S1132060EF92FF920F931F93CF93DF93CDB7DEB719
S1132070CB58D1090FB6F894DEBF0FBECDBF462FA3
S113208060E0782FCE0101960E94820184E4FE0173
S11320903196A5E0B5E001900D928A95E1F784E4CC
S11320A0FE01EB5BFF4FA9E4B5E001900D928A9528
S11320B0E1F7C657DF4F8881CA58D0408093920514
S11320C0C557DF4F8881CB58D04080939305C757BD
S11320D0DF4FE881C958D040E3700F2EF4E9EF2EAA
S11320E0F5E0FF2EF02D9E2F990F990F990FD70130
S11320F011968C911197877E892B11968C93F0E021
S1132100EE50FE4F80818093FF020E941A090E94C4
S1132110AF098091950582FB002700F910E001507A
S11321201B4FF801ED56FF4F8081982F9F71F701E7
S11321308081807E892B8083C557DF4F0FB6F8944A
S1132140DEBF0FBECDBFDF91CF911F910F91FF90E6
S1132150EF900895E4E9F5E08481877084838581B4
S11321608C7F85838091950581FF09C081818D7F56
S113217081838BE20E942D088AE20E9412080E9449
S11321805808E0919A0587E0E89FF0011124E05097
S1132190FF4F85810E94120880919605982F929591
S11321A096959770809197058170880F880F880F96
S11321B0892BE4E9F5E0282F2295220F207E9181D6
S11321C09F71922B9183282F26952695269592818F
S11321D09E7F922B928393819F7193839481987FA6
S11321E09483E5EEF2E090819F7D9083E6EEF2E049
S11321F09081977F9083E5E4F2E0118210820E943F
S113220012088091FF04833031F4809197058695FC
S11322108F700E9412088091FF04853099F5809197
S1132220FE04882329F0E4E9F5E085818460858350
S11322306091BE04862F8F70E4E9F5E0362F329565
S1132240330F307E42814E71282F26952695269590
S113225093819E7F922B938391819F71932B918382
S1132260342B232B228362956F70EDE8F5E0908187
S1132270907F962B90830E943010E5EEF2E08081EF
S11322808062808380910B0381110CC080910005D2
S1132290813039F4429872988CE093E00E94D02403
S11322A001C05C9880E187BD0895CF93DF9380914E
S11322B001058F7059F180919705982F9295969505
S11322C09770809198058770880F880F880F892BE5
S11322D08F5F8F73E4E9F5E0282F2295220F207E8B
S11322E093819F71922B9383282F2695269526956B
S11322F09481987F922B9483909101059F70891308
S113230005C0E6EEF2E08081886080838091E60279
S113231083FF5BC0C4E9D5E08B818F718B838C8193
S1132320887F8C83E6EEF2E08081877F80838081E2
S11323308160808360918D056F708091970586958B
S11323408F700E94301089818D7F89838BE20E9477
S11323502D088AE20E94120880919505982F929583
S113236096959770809196058170880F880F880FD5
S1132370892B282F2295220F207E3A813E71982F97
S11323809695969596958B818E7F892B8B838695D2
S1132390482F4295440F407E99819F71942B9983D5
S11323A083FB992790F9832F822B892B8A83E0E979
S11323B0F5E0808182FB992790F990FB81F9808375
S11323C0E5EEF2E0808180628083DF91CF91089511
S11323D08091E60281FF10C1E6EEF2E080818D7FFC
S11323E080838091FF049FEF980F923008F08AC099
S11323F060919A05603171F59091900580919505F1
S113240082FB442740F950E096959170FA0122E24C
S1132410929FE00DF11D1124EE0FFF1FEB5FFA4FA9
S1132420909194059295969597708170880F880F76
S1132430880F892B21E030E0A90102C0440F551F09
S11324408A95E2F7CA0120813181822B932B9183F3
S1132450808334C0409190058091950582FB2227AA
S113246020F930E09091940592959695977081703B
S1132470880F880F880F892BF901E295F295F07F78
S1132480FE27E07FFE2741FB992790F952E2959FB2
S1132490E00DF11D1124E80FF11DEE0FFF1FE75FA2
S11324A0FA4F81E090E002C0880F991F6A95E2F725
S11324B020813181822B932B91838083EEE8F5E098
S11324C080919405982F9295969597708091950593
S11324D08170880F880F880F892B21E030E0A901D3
S11324E002C0440F551F8A95E2F7CA012081318149
S11324F0822B932B91838083E5EEF2E080818061CF
S113250080830895833009F077C08091010585FFA9
S113251009C08F7009F070C0E6EEF2E08081886037
S113252080830895E6EEF2E0808182FB992790F99A
S113253081E08927908180FB92F99083808182FFDA
S113254037C060918D056F708091970586958F7067
S11325500E94301080919505982F929596959770CA
S1132560809196058170880F880F880F892BE4E984
S1132570F5E0282F2295220F207E32813E71982F7C
S113258096959695969583818E7F892B83838695E0
S1132590482F4295440F407E91819F71942B9183E3
S11325A083FB992790F9832F822B892B82830895AB
S11325B080919605982F929596959770809197059E
S11325C08170880F880F880F892BE4E9F5E0282FA4
S11325D02295220F207E91819F71922B9183282F27
S11325E026952695269592819E7F922B92836091C3
S11325F08D056F700E9430100895CF93DF93CDB78F
S1132600DEB7CB58D1090FB6F894DEBF0FBECDBFED
S1132610982F24E4E5E0F5E0DE01119601900D9297
S11326202A95E1F724E4E9E4F5E0DE01AB5BBF4F72
S113263001900D922A95E1F780919205C657DF4FDC
S11326408883CA58D04080919305C557DF4F88834B
S1132650CB58D04020919505269526952695237034
S1132660C757DF4F2883C958D040AE014F5F5F4F33
S113267080E00E94B301C557DF4F0FB6F894DEBF68
S11326800FBECDBFDF91CF910895CF93DF93E4E9DF
S1132690F5E080818F71808381818E7F8183809139
S11326A0E50284FF16C0E5EEF2E080818F7E808330
S11326B060918D056F7090919505929596959770A0
S11326C0809196058170880F880F880F892B0E944E
S11326D0FD128091FF04843009F081C08091980537
S11326E0982F9695969596958091990583708295E5
S11326F0880F807E892BE1E0E80FEF77A4E9B5E04D
S11327002E2F220F220F220F14969C91149797704C
S1132710922B14969C9314972E2F2295269527700E
S113272015969C9115979C7F922B15969C9390E0FF
S11327302091FE0430E0821793077CF1E1E0F5E09C
S113274080818F7D80830E94AA106091BE04E4E999
S1132750F5E0262F2295220F207E92819F71922BE5
S1132760928363FB222720F983818E7F822B8383CC
S113277062956F70EDE8F5E08081807F862B808321
S1132780809195058295869587709170990F990F20
S1132790990F892B0E94301027C1F0E0E254FB4FBF
S11327A08081E4E9F5E0282F2295220F207E928192
S11327B09F71922B928383FB222720F993819E7F22
S11327C0922B9383EDE8F5E082958F709081907F52
S11327D0892B8083E5EEF2E08081806280838091A2
S11327E09305803109F47DC08091950581FF65C012
S11327F081FB992790F981E08927E4E9F5E091814B
S113280080FB91F991838BE20E942D088AE20E9459
S113281012080E9404108091E50285FF46C0E5EE8F
S1132820F2E080818F7D8083E6EEF2E0808181603A
S1132830808380919605982F9295969597708091B4
S113284097058170880F880F880F892BE4E9F5E0DC
S1132850282F2295220F207E91819F71922B9183A4
S1132860282F26952695269592819E7F922B9283DA
S113287060918D056F700E943010E0E9F5E0808171
S11328808D7F808380919105813019F480818260ED
S11328908083E4E9F5E081818D7F81838BE20E946E
S11328A02D088AE20E9412086EC08091FF048330D2
S11328B009F069C00E94551166C08AE20E942D0881
S11328C08BE20E9412088091950581FB992790F96B
S11328D081E08927E4E9F5E0918180FB91F9918316
S11328E052C00E9404108091E50285FF46C0E5EEC7
S11328F0F2E080818F7D8083E6EEF2E0808181606A
S1132900808380919605982F9295969597708091E3
S113291097058170880F880F880F892BE4E9F5E00B
S1132920282F2295220F207E91819F71922B9183D3
S1132930282F26952695269592819E7F922B928309
S113294060918D056F700E943010E0E9F5E08081A0
S11329508D7F808380919105813019F4808182601C
S11329608083E4E9F5E081818D7F81838BE20E949D
S11329702D088AE20E94120806C08091FF04833069
S113298011F40E9455118091FF048150823090F41B
S11329908091950582FB882780F9C82F80E0D82F85
S11329A0C150DB4FCD56DF4F809194058F718883E2
S11329B00E941A098091E60280FF16C0E6EEF2E05A
S11329C080818E7F8083E1E0F5E08181817F818356
S11329D0E0919505E695E695E695E370F0E0EE5016
S11329E0FE4F80818093FF02DF91CF910895EF9293
S11329F0FF920F931F93CF93DF938091E50280FFA3
S1132A00EBC0E5EEF2E080818E7F8083809101054A
S1132A1085FF26C38091E50288234CF480818F775B
S1132A2080830E9445138091010585FF20C3809116
S1132A30FF04833009F43FC020F0863008F0C5C09D
S1132A4085C00E94E8118091020580FDBEC080917E
S1132A50010584FDBAC08091950582FB992790F900
S1132A60869581709813B1C080919405982F9295A2
S1132A7096959770809195058170880F880F880FBF
S1132A80892B21E030E002C0220F331F8A95E2F740
S1132A90EEE8F5E090818181E5E4F2E0492F4223FC
S1132AA04095922B94239183982F93239095832B75
S1132AB0892380838AC00E94E8118091010584FDE6
S1132AC084C020919405822F8295869587702091E9
S1132AD095052170220F220F220F282B81E090E010
S1132AE0BC0102C0660F771F2A95E2F73091960564
S1132AF0432F42954695477020919705322F3170A8
S1132B00330F330F330F342BAC0102C0440F551F66
S1132B103A95E2F7E5E4F2E0342F36233095642B5E
S1132B203623318326952F7002C0880F991F2A956A
S1132B30E2F79C01242B352B832F8723282F209504
S1132B40852F872B892B822380833FC080910205A8
S1132B5080FD3BC0809101058823BCF12091940540
S1132B60822F829586958770209195052170220F7A
S1132B70220F220F282B81E090E0AC0102C0440F09
S1132B80551F2A95E2F720919605322F32953695F6
S1132B903770209197052170220F220F220F232BCB
S1132BA002C0880F991F2A95E2F7E5E4F2E0282F86
S1132BB024232095842B82238183892F8523282F06
S1132BC02095892F852B8223808380919505869576
S1132BD081700E94020444C28091E50281FF1BC2FD
S1132BE0E5EEF2E080818D7F80830E945808309169
S1132BF0CB012091CD01E5E4F2E0822F832B809577
S1132C009581892385838091010585FF6DC111829A
S1132C10108280910305982F9295969596959370BE
S1132C20809104058170880F880F892B853029F4E1
S1132C3060E080919A050E9435038091930580316C
S1132C4019F481E00E9402048091FF04833009F4A6
S1132C5043C020F0863008F0C3C093C080910105C2
S1132C6084FF26C08091020580FDBAC0982F991F69
S1132C709927991F0F2EF3E0EF2EF5E0FF2EF02D8C
S1132C80F70180818370880F892B0E941208F70155
S1132C908081982F929596959695937080910405CE
S1132CA08170880F880F892B885F0E94120898C052
S1132CB0E0919A0547E0E49FF0011124E050FF4FB2
S1132CC085810E941208EEE8F5E090818181E5E4B7
S1132CD0F2E09183808384C08091010584FF2DC03C
S1132CE08091020580FF06C080918D058F700E943F
S1132CF0120876C090910205991F9927991F0F2EEB
S1132D00F3E0EF2EF5E0FF2EF02DF70180818370C4
S1132D10880F892B0E941208F7018081982F9295C1
S1132D20969596959370809104058170880F880F0D
S1132D30892B885F0E94120853C090919605292F11
S1132D4022952695277080919705982F9170990F59
S1132D50990F990F922B21E030E0A90102C0440F92
S1132D60551F9A95E2F7E5E4F2E0418386958F706A
S1132D7002C0220F331F8A95E2F7852F832B8083AD
S1132D802FC08091020580FF0AC08091010584FD57
S1132D9006C080918D058F700E94120821C0809119
S1132DA0010588231CF40E94CC0D1AC0809196055D
S1132DB0982F929596959770809197058170880FBA
S1132DC0880F880F892B21E030E0A90102C0440F4D
S1132DD0551F8A95E2F7CA01E5E4F2E04183908346
S1132DE08091CB0180939B0580919005869581709D
S1132DF0C82F50E0D52F8091910590E0C817D907CE
S1132E0069F48091900581FF11C08091E50282FDF3
S1132E100DC08091CD0180939B0508C080919005E1
S1132E2081FF04C08091CD0180939B0580910403B0
S1132E30837090E002970CF013C18091FF048330FB
S1132E4018F58091010584FF1FC08091020580FF61
S1132E500FC09091960592959695977080919705DD
S1132E608170880F880F880F892B0E9412080CC06C
S1132E7090910205991F9927991F809103058370EA
S1132E80880F892B0E9412088091900581FB0027EE
S1132E9000F910E08091910590E008171907A1F05E
S1132EA08091900581FD08C0EBE9F5E09091CD019A
S1132EB08081892B8083D4C0EBE9F5E09091CB012C
S1132EC08081892B8083CCC08091900581FDC8C00E
S1132ED08091E50282FFC4C0EBE9F5E09091CD0159
S1132EE08081892B8083BCC0E5E4F2E011821082EA
S1132EF090919105913031F010F0923029F4309393
S1132F009B0502C020939B059091FF04933029F008
S1132F1050F1963008F04BC03AC084FF0AC080914B
S1132F20020580FF44C080918D058F700E941208B5
S1132F303EC08091E60282FF0FC090919605929563
S1132F4096959770809197058170880F880F880FE8
S1132F50892B0E9412082BC08091970586958F704B
S1132F600E94120824C084FF22C08091020580FFC1
S1132F7008C080919D05869586958F700E941208E1
S1132F8016C080918D058F700E94120810C0909118
S1132F90020590FF08C084FD06C080918D058F70E6
S1132FA00E94120804C0882314F40E94CC0D80915E
S1132FB00403837090E002970CF052C080910105E5
S1132FC0807909F04DC08091020580FD49C080914F
S1132FD09105823039F4EBE9F5E09091CD018081DF
S1132FE0892B808390919605929596959770809100
S1132FF097058170880F880F880F892B0E9412080B
S11330008091FF04833061F58091970586958F70D8
S11330100E94120825C080910B03813009F580912C
S1133020010585FD1DC03091CB012091CD01922F6A
S1133030932BE5E4F2E0492F409585818423858331
S113304080919105813039F018F0823039F008C050
S113305030939B0505C020939B0502C090939B056C
S1133060E5E4F2E090919B058581892B8583DF91CE
S1133070CF911F910F91FF90EF900895AF92BF925F
S1133080CF92DF92EF92FF920F931F93CF93DF9330
S11330908091010585FFB4C10E943F1FC82F8F3F57
S11330A009F42AC38091FF04833009F4FDC018F4A5
S11330B0813028F421C3853009F454C11DC38091A3
S11330C0010584FF4AC00E94FA098091020580FF2D
S11330D040C080919505982F929596959770809110
S11330E096058170880F880F880F892B482F50E030
S11330F02C2F30E04217530709F4FEC2E5EEF2E04C
S11331009081906290839C2F9F70E4E9F5E0392FC1
S1133110330F22812170C295CC0FC07E232BC22B8A
S1133120C28396959695969523812E7F922B9383B1
S11331300E942D089091960592959695977080918E
S113314097058170880F880F880F892B0E941208B9
S1133150D3C28C2F0E94870FCFC286FF0EC0E8E136
S1133160F2E080818F7B8083E4E9F5E08C2F8F711E
S1133170C081C07EC82BC083BFC280919A058031B4
S113318009F041C08091950582FBCC24C0F8D12C74
S1133190F601E150FB4FED56FF4F80818C1708F488
S11331A0ABC28C2F0E94490820919005809195050F
S11331B082FBAA24A0F8B12C81E090E002C0880F21
S11331C0991FCA95E2F726952170F50132E2239FF3
S11331D0E00DF11D1124EE0FFF1FEB5FFA4F20816C
S11331E031812827392731832083EEE8F5E02081D7
S11331F031818227932791838083E5EEF2E08081F9
S11332008061808379C28091950582FB002700F953
S113321010E001501B4FF801ED56FF4F80818C17D1
S113322008F46AC28C2F0E944908809190059091FD
S1133230950592FBEE24E0F8F12CF701E295F29566
S1133240F07FFE27E07FFE278695817092E2899FBA
S1133250E00DF11D1124EC0FF11DEE0FFF1FE75FD0
S1133260FA4F81E090E09C0100909A0502C0220F81
S1133270331F0A94E2F74081518124273527318393
S11332802083EEE8F5E002C0880F991FCA95E2F7A3
S1133290208131818227932791838083E5EEF2E0B8
S11332A080818061808328C28091010584FF23C0CE
S11332B08091020580FF1BC0CC3008F01DC28091B4
S11332C08D058F708C1709F417C20E942D088C2F5E
S11332D08F70982F9295907F982B90938D050E94D4
S11332E01208E5EEF2E080818062808305C28C2FB3
S11332F00E94870F01C2CC3058F59C2F9F70E4E9DF
S1133300F5E0292F220F328131708C2F8295880F9E
S1133310807EC32FC22BC82BC283292F26952695C6
S1133320269583818E7F822B838380919505829558
S113333086958770C170CC0FCC0FCC0FC82B9C170F
S113334009F4DAC1E5EEF2E0808180628083D4C1C1
S1133350E4E9F5E0CF708C2F880FC381C17EC82BC0
S1133360C383CAC18091020580FF1FC080910105FB
S113337084FD1BC0CC3008F0BFC180918D058F70D7
S11333808C1709F4B9C10E942D08EDE8F5E08C2FE3
S11333908F709081907F982B90830E941208E5EEA5
S11333A0F2E0808180628083A7C19C2F9F70E4E952
S11333B0F5E0292F220F328131708C2F8295880FEE
S11333C0807EC32FC22BC82BC283292F2695269516
S11333D0269583818E7F822B8383809195058295A8
S11333E086958770C170CC0FCC0FCC0FC82B9C175F
S11333F009F482C1E5EEF2E08081806280837CC1C1
S11334008091FF04833011F40E94E8110E943F1F51
S1133410C82F8F3F09F470C18091FF04833009F4F1
S1133420A8C020F0853009F40CC166C18091010563
S113343084FF59C08091020580FF15C080919D05CD
S1133440869586958F700E942D08ECE9F5E08C2F07
S11334508F70282F220F220F9181937C922B9183BE
S11334600E94120849C1CC3008F046C18091E5029F
S113347084FF16C0E5EEF2E080818F7E8083609148
S11334808D056F70909195059295969597708091A2
S113349096058170880F880F880F892B0E94FD1272
S11334A00DE815E0F80180818F700E942D088C2FA3
S11334B08F70982F9295907F982BF80190830E949B
S11334C01208F80160816F70909195059295969518
S11334D09770809196058170880F880F880F892BCB
S11334E00E94301009C186FF1AC080919505982F5B
S11334F0929596959770809196058170880F880FA4
S1133500880F892B90E02C2F30E08217930769F005
S113351060918D056F708C2F0E94FD1206C0609122
S11335208D056F708C2F0E9430109C2F9F70E4E9E2
S1133530F5E0392F330F8C2F8295880F807E969576
S11335409695969523812E7F292B2383C181232F42
S1133550282B922B9283CC7190819F7190838C2B1A
S1133560818310920103E4E0F3E080818C7F808307
S1133570C3C08091010584FF2BC08091020580FFA8
S1133580BBC0CC3008F0B8C080918D058F708C170B
S113359009F4B2C00E942D088C2F8F70CDE8D5E0BD
S11335A0982F9295907F982B98830E941208688197
S11335B06F70909195059295969597708091960568
S11335C08170880F880F880F892B0E94301094C057
S11335D0CC3068F58C2F8F7004E915E0382F330F49
S11335E0C295CC0FC07E282F269526952695F801E6
S11335F093819E7F922B938391819F719C2B9183C6
S1133600C32B2C2B228360918D056F700E94301088
S1133610F801818190819F7190838C7F81831092C6
S11336200103E4E0F3E080818C7F808365C0E4E9FA
S1133630F5E0CF708C2F880FC381C17EC82BC38364
S11336405BC08091020580FF2BC08091010584FD41
S113365027C0CC3008F050C080918D058F708C1736
S113366009F44AC00E942D088C2F8F70CDE8D5E054
S1133670982F9295907F982B98830E9412086881C6
S11336806F70909195059295969597708091960597
S11336908170880F880F880F892B0E9430102CC0EE
S11336A08C2F8F7004E915E0382F330FC295CC0F9F
S11336B0C07E282F269526952695F80193819E7F16
S11336C0922B938391819F719C2B9183C32BC22B4B
S11336D0C28360918D056F700E943010F801818162
S11336E090819F7190838C7F818310920103E4E029
S11336F0F3E080818C7F8083DF91CF911F910F91C4
S1133700FF90EF90DF90CF90BF90AF900895CF934C
S1133710DF93CDB7DEB7C154D1090FB6F894DEBF3D
S11337200FBECDBF609199056695669566956F70DD
S113373070E0CE0101960E94040281E4FE013196FC
S1133740AEEBB4E001900D928A95E1F7E5EEF2E07C
S1133750808180628083CF5BDF4F0FB6F894DEBF39
S11337600FBECDBFDF91CF910895CF93DF93CDB737
S1133770DEB7C154D1090FB6F894DEBF0FBECDBF7A
S113378040919805842F8695869586954091990554
S113379043704295440F407E482B50E020E030E0D7
S11337A0A1E0B0E0AC0FBD1FA20FB31FF901E254BA
S11337B0FB4F8081982F9F70807F892B8C932F5F84
S11337C03F4F4217530764F78091FE0422968FAF50
S11337D02297809199058695869586958F70BE016E
S11337E06F5F7F4F90E00E943502CF5BDF4F0FB6D3
S11337F0F894DEBF0FBECDBFDF91CF910895CF9374
S1133800DF93EDE8F5E090819F70292F2295207FCA
S1133810922B9083C4E9D5E08F70982F990F990F5C
S1133820990F8D818778892B8D830E94871B8C81CA
S113383087708C838D818C7F8D838091FE048111B0
S113384004C08D818B7F8D8305C0E4E9F5E085811B
S1133850846085836091BE04862F8F70E4E9F5E06F
S1133860362F3295330F307E42814E71282F2695A4
S11338702695269593819E7F922B938391819F71A8
S1133880932B9183342B232B228362956F70EDE865
S1133890F5E09081907F962B90839091010595FFA0
S11338A006C0E5EEF2E080818062808302C00E945F
S11338B03010DF91CF9108958093AE00EDEAF0E0EF
S11338C080818823ECF78091AE000895CF93DF9335
S11338D0C5E4D2E088810E945C1C89810E945C1C42
S11338E08A810E945C1C8B810E945C1C8C810E94DA
S11338F05C1C8D810E945C1C8E810E945C1C8F81EB
S11339000E945C1C88850E945C1C7198719ADF91EE
S1133910CF910895CF93DF93709A80E00E945C1C4E
S1133920C0E4D2E0888380E00E945C1C898380E04C
S11339300E945C1C8A8380E00E945C1C8B8380E074
S11339400E945C1C8C8370989881292F2695E1E055
S1133950F5E0308120FB34F9492F469546952181C5
S113396040FB20F921832A81422F42954F7040FB6E
S113397036F93083EBE3F2E0308193273927308343
S11339809323988331819981932739273183932312
S113399099833281932F9227292F232722839223DD
S11339A09A8323819B8192272927238392239B83B4
S11339B0948189279827948389238C83DF91CF91DD
S11339C0089540E050E0DA01AA50BE4F8C91E82FF0
S11339D0E695E695E695E770F0E0E05CFD4F208122
S11339E030E0982F977002C0359527959A95E2F7A5
S11339F0217086FB992790F9292720FB86F98C935F
S1133A004F5F5F4F43325105F1F6089580911202E2
S1133A1086FFC6C0E2E1F2E08F7B80838091FF04E1
S1133A20853009F0BDC08091020580FDB9C0809148
S1133A30990582FF6BC080919805982F969596956D
S1133A4096958091990583708295880F807E892B45
S1133A508F5F8F77E4E9F5E0282F220F220F220FE2
S1133A6094819770922B9483282F22952695277002
S1133A7095819C7F922B95832091FE0490E0422FA8
S1133A8050E0481759078CF4922F990F990F990F0A
S1133A9084818770892B8483229526952770822FB1
S1133AA0837025812C7F282B2583E09198058E2F08
S1133AB0869586958695E0919905E370E295EE0FDB
S1133AC0E07EE82BF0E0E254FB4F8081EDE8F5E086
S1133AD0282F22952F709081907F922B9083E4E978
S1133AE0F5E0282F2295220F207E92819F71922B40
S1133AF0928383FB992790F983818E7F892B83831B
S1133B00E5EEF2E0808180628083089580919805DB
S1133B10982F9695969596958091990583708295A0
S1133B20880F807E892BE82FF0E0E254FB4F9091C0
S1133B308D0520919605322F329536953770209158
S1133B4097052170220F220F220F232B9295907F2D
S1133B50922B90838093FE048F5F8F77803491F053
S1133B60E4E9F5E0282F220F220F220F94819770A9
S1133B70922B948382958695877095819C7F892B5F
S1133B80858309C0E4E9F5E08481886F84838581B5
S1133B908C7F81608583E5EEF2E0808180648083A0
S1133BA0089593B1292F26952695E1E0F5E08081CB
S1133BB020FB87F9808380914E0298278927809380
S1133BC04E02892382FD03C080934F0209C094E012
S1133BD0892780934F02E6EEF2E080818260808341
S1133BE080910B03813021F4809100058430C9F465
S1133BF0E1E0F5E0808185FB222720F990914F02D6
S1133C009695922790FB85F9808385FF08C0211142
S1133C1008C00E94F00E08950E94AA100895213051
S1133C20D9F308958091140286FF3BC09091010559
S1133C3094FD37C0E4E1F2E08F7B80838091FF0440
S1133C4081110EC080910B03813051F480910103E6
S1133C50882339F1EFEFF2E0828181508283089565
S1133C60E1E9F5E080818F5F8083833029F410924D
S1133C70910595FF0BC002C095FF06C0E5EEF2E08A
S1133C8080818460808308958D7F31F4E0E9F5E0DC
S1133C9080818D7F80830895E0E9F5E080818260F2
S1133CA080830895EF92FF920F931F93CF93DF9336
S1133CB08091010584FDDCC086FFB9C0E8E1F2E033
S1133CC080818F7B80838091FF04882321F085305D
S1133CD009F470C0CDC0E1EBF0E08081876080839F
S1133CE0A0EBB0E08C918C9320E730E0E90188816F
S1133CF0826088838C9181608C93808188608083CA
S1133D008CE88093B3008091E70280FF08C0E7EE5F
S1133D10F2E080818E7F80838CE10E944908A0E9D3
S1133D20B5E08C9181FB002700F910E084E4809FCA
S1133D30F001819FF00D1124E75FFA4F90E4EF0149
S1133D4019929A95E9F710928F0510928E059C911D
S1133D5091FBEE24E0F8F12C8E9DF0018F9DF00D87
S1133D601124E150FB4F17821682118610868FE0D2
S1133D708093920580E180939305E4E9F5E08181E5
S1133D80877E8860818388E18093FF020E94AF0967
S1133D9060918D056F7090919505929596959770A9
S1133DA0809196058170880F880F880F892B0E9457
S1133DB0FD125EC0E1EBF0E0808187608083A0EBC0
S1133DC0B0E08C918C93C0E7D0E0888182608883D6
S1133DD08C9181608C938081886080838CE880934F
S1133DE0B3008091E70280FF08C0E7EEF2E0808133
S1133DF08E7F808381E20E94490880E4EEEBF4E048
S1133E00DF011D928A95E9F71092FE04E4E9F5E0DA
S1133E1084818770848385818C7F8B7F85830E94D6
S1133E20B51BEDE8F5E08081807F808321C080911F
S1133E30FF0481110EC01092B000E0E7F0E0808131
S1133E408D7F808386E48093B3008CE10E94120806
S1133E500FC0853069F41092B000E0E7F0E0808193
S1133E608D7F808386E48093B30081E20E941208F0
S1133E70DF91CF911F910F91FF90EF900895809162
S1133E80F60186FD09C081E090E0FC01EA50FE4F96
S1133E90208126FF0AC002C080E090E0FC01EA50C5
S1133EA0FE4F90819F7B9083089501968031910508
S1133EB061F78FEF08958091130286FF48C0E3E114
S1133EC0F2E08F7B80838091010584FF2BC0809179
S1133ED0FF04853039F580919805982F969596952D
S1133EE096958091990583708295880F807E892BA1
S1133EF099F08158982F9F77E4E9F5E0880F880FAF
S1133F00880F24812770822B8483929596959770CD
S1133F1085818C7F892B8583E5EEF2E08081806248
S1133F20808308958091FF04833089F48EE20E9497
S1133F3049088FE20E944908E0E9F5E0808182FBAC
S1133F40222720F991E0922790FB82F9808308953B
S1133F509091900592FD39C0482F50E097E0899FD9
S1133F60F0011124E050FF4F93819F3FC1F0209155
S1133F709C052F7130E04217530749F4875FECE941
S1133F80F5E08F719081907E892B80830895ECE910
S1133F90F5E08F719081907E892B808308959091B4
S1133FA09C059F71963049F4863039F4ECE9F5E0CC
S1133FB08081807E8F6080830895ECE9F5E08F71C5
S1133FC09081907E892B80830895482F50E097E05C
S1133FD0899FF0011124E050FF4F93819F3FC1F16D
S1133FE020919C05922F92959695977020919D050E
S1133FF02370220F220F220F292B30E04217530780
S1134000A1F4875FECE9F5E0282F2295220F207EAA
S113401090819F71922B9083869586958695837067
S113402091819C7F892B81830895ECE9F5E0282F09
S11340302295220F207E90819F71922B90838695EA
S113404086958695837091819C7F892B81830895C1
S113405090919C05292F22952695277090919D0576
S11340609370990F990F990F922B963061F48630C3
S113407051F4ECE9F5E08081806E808381818C7F4E
S1134080816081830895ECE9F5E0282F2295220FC1
S1134090207E90819F71922B90838695869586953C
S11340A0837091819C7F892B81830895482F50E0F0
S11340B097E0899FF0011124E050FF4F93819F3FC7
S11340C019F4863009F09EC0CA010996FC01EE0F6E
S11340D0FF1FEE0FFF1FEE0FFF1FE81BF90BEA5F38
S11340E0FE4F6081262F217030E0220F331FFA012A
S11340F0EE0FFF1FEE0FFF1FEE0FFF1FE41BF50B6C
S1134100EA5FFE4F30813170232B213021F130F0F2
S11341102230F1F1233009F458C00895FA01EE0F6A
S1134120FF1FEE0FFF1FEE0FFF1FE41BF50BEA5FEF
S1134130FE4F208121602083FC01EE0FFF1FEE0F54
S1134140FF1FEE0FFF1FE81BF90BEA5FFE4F808194
S11341508E7F80830895FA01EE0FFF1FEE0FFF1F7D
S1134160EE0FFF1FE41BF50BEA5FFE4F20812E7F4D
S11341702083FC01EE0FFF1FEE0FFF1FEE0FFF1F4A
S1134180E81BF90BEA5FFE4F80818160808308950C
S1134190FA01EE0FFF1FEE0FFF1FEE0FFF1FE41BD0
S11341A0F50BEA5FFE4F208121602083FC01EE0FB6
S11341B0FF1FEE0FFF1FEE0FFF1FE81BF90BEA5F57
S11341C0FE4F8081816080830895FA01EE0FFF1F06
S11341D0EE0FFF1FEE0FFF1FE41BF50BEA5FFE4F10
S11341E020812E7F2083FC01EE0FFF1FEE0FFF1FA7
S11341F0EE0FFF1FE81BF90BEA5FFE4F80818E7FF5
S113420080830895FA01EE0FFF1FEE0FFF1FEE0FDC
S1134210FF1FE41BF50BEA5FFE4F8081982F9095FA
S113422090FB80F980830895CF93C82F8091010576
S113423084FD25C00E94580887E0C89FF00111241E
S1134240E050FF4F83818F3F59F080919A058C1382
S113425004C0875F80939A050FC0C0939A050CC071
S113426080919A05863031F4C63021F48FE0809332
S11342709A0502C0C0939A050E941A090DC0809144
S1134280020580FF06C00E9458088C2F0E94A81FB8
S113429003C08C2F0E945620CF9108950F931F9333
S11342A0CF93DF938091060286FD07C080910702B9
S11342B086FD61C0C2E1D0E054C0E6E0F2E0808156
S11342C08F7B80838091FF04813008F49FC083300A
S11342D020F08450823070F199C08091010584FDF2
S11342E00BC00E94580884E10E94120880E1809368
S11342F09A050E941A098AC08091020580FF86C02F
S11343000E94580884E10E9412088091900582FD61
S113431007C0ECE9F5E08081807E8061808376C00F
S1134320ECE9F5E080818F71808381818C7F8260EC
S113433081836CC08091E50286FF07C00E94B51B93
S1134340E5EEF2E080818F7B808380919905887708
S113435009F45CC080E00E94FF1B84E10E94120803
S113436055C0FE01EA50FE4F808186FF4AC08E018F
S11343700151110904C000E010E0C1E1D0E0FE01E8
S1134380EA50FE4F90819F7B90839091FF0491307F
S1134390E8F1933020F09450923028F037C0802F09
S11343A00E94142133C08091010584FF04C0802F32
S11343B00E9456202BC08091E50286FF07C00E9410
S11343C0B51BE5EEF2E080818F7B808380919905B7
S11343D08695869586958F7090E060978C179D07DB
S11343E0A9F0FC01E958FE4F80810E942D0881E06C
S11343F0800F0E94FF1BC958DE4F88810E9412085B
S113440005C02196CC31D10509F0ABCFDF91CF9116
S11344101F910F910895CF92DF92EF92FF920F9325
S11344201F93D092EE02C092ED021093E902009322
S1134430E802F0925302E09252020E946127BA010C
S1134440A9014051510961097109DB01CA011AF43A
S11344500196A11DB11DB595A79597958795809354
S1134460B8001092B9001092F3021F910F91FF90BF
S1134470EF90DF90CF90089591E09093F302209114
S11344805202309153022617370748F42091520202
S113449030915302309351022093500204C0709320
S11344A051026093500291E09093F4029093E102E0
S11344B08093EF0285EA8093BC00089591E0909385
S11344C0F30220915202309153022617370748F421
S11344D020915202309153023093510220935002A2
S11344E004C07093510260935002209152023091A3
S11344F053022417350748F4209152023091530295
S11345003093EC022093EB0204C05093EC024093EE
S1134510EB0293E09093F40291E09093E102809394
S1134520EF0285EA8093BC0008951F920F920FB6A4
S11345300F9211242F933F934F935F936F937F9325
S11345408F939F93AF93BF93EF93FF938091B900A1
S1134550887F8093E402E091E4028E2F90E0FC01D6
S11345603897E13CF10508F025C1E65AFF4F0C9459
S113457080278091E102813019F0823059F014C013
S11345801092FC021092FB028091EF02880F80933C
S1134590BB000AC01092FC021092FB028091EF0251
S11345A0880F81608093BB0085EC8093BC000DC1B3
S11345B02091FB023091FC028091500290915102B3
S11345C028173907F1F48091F402833039F482E03A
S11345D08093E10285EA8093BC00F7C0E091ED028C
S11345E0F091EE02309711F080E0099585E980930F
S11345F0BC00ECEBF0E0808184FDFDCF1092F3026F
S1134600E4C02091E8023091E9028091FB0290918C
S1134610FC02AC014F5F5F4F5093FC024093FB02DE
S1134620F901E80FF91F80818093BB0085E880932E
S1134630BC00CBC02091E8023091E9028091FB02DA
S11346409091FC02AC014F5F5F4F5093FC0240938A
S1134650FB02F901E80FF91F2091BB002083809130
S1134660EB029091EC022091FB023091FC02019745
S11346708217930721F485E88093BC00A6C085ECDB
S11346808093BC00A2C02091E8023091E90280919D
S1134690FB029091FC02AC014F5F5F4F5093FC0210
S11346A04093FB02F901E80FF91F2091BB0020831E
S11346B0E091ED02F091EE02309711F080E009955F
S11346C085E98093BC00ECEBF0E0808184FDFDCFB4
S11346D01092F3027AC01092FC021092FB0285EC55
S11346E08093BC0072C02091FB023091FC02809147
S11346F052029091530228173907A8F42091E80236
S11347003091E9028091FB029091FC02AC014F5F71
S11347105F4F5093FC024093FB02F901E80FF91F2D
S11347202091BB00208385EC8093BC004EC0809117
S1134730FB029091FC028093F002E091ED02F09173
S1134740EE02309711F080E0099585EC8093BC006F
S11347503CC01092FC021092FB022091FB023091AB
S1134760FC02809152029091530228173907A8F451
S11347702091E8023091E9028091FB029091FC02C1
S1134780AC014F5F5F4F5093FC024093FB02F90171
S1134790E80FF91F80818093BB0085EC8093BC00F7
S11347A014C0E091ED02F091EE02309719F080917F
S11347B0E402099585E98093BC00ECEBF0E080818C
S11347C084FDFDCF85EA8093BC00FF91EF91BF91FA
S11347D0AF919F918F917F916F915F914F913F9195
S11347E02F910F900FBE0F901F901895FC014283DC
S11347F074836383118210820895FF920F931F9331
S1134800CF93DF93EC01062F0E947624182FF980B2
S11348104F2D50E0CA0101962A81622F70E00E9458
S11348204D27288130E08217930729F4812F0E94B5
S1134830792480E012C0EB81FC81EF0DF11D00832F
S1134840298130E0C90101966A8170E00E944D27F8
S11348508983812F0E94792481E0DF91CF911F9178
S11348600F91FF900895CF93DF93EC010E9476247B
S113487039812881321718F0C32FC21B04C09A81D2
S1134880C32FC90FC21B0E9479248C2FDF91CF91B3
S11348900895FC01808170E09B01280F311DC9013E
S11348A0628170E00E944D270380F481E02DE80FBF
S11348B0F91F808108951F93CF93DF93EC01162F86
S11348C00E947624482F8881212F30E0B901680F97
S11348D0711DCB016A8170E00E944D278883842F6B
S11348E00E947924DF91CF911F9108958FB7F89496
S11348F008958FBF0895881F8827881F089591E021
S1134900883F08F490E0892F0895982F907F903C79
S1134910B1F058F4903941F118F4903819F524C0E5
S1134920903A11F1903BF1F41FC0903EE9F018F475
S1134930903D29F017C0903F21F0933F99F482E015
S1134940089590E0FC01E15FF109EF30F10540F4D6
S1134950E55EFE4F0C94802783E0089582E008957D
S113496080E0089580E0089583E0089581E008954B
S11349700F93DC01ED91FC9100E020E048EF61E051
S113498070E009950F9108950F93DC01ED91FC916E
S113499000E020E04AEF61E070E009950F9108958E
S11349A00F93DC01ED91FC9100E020E04CEF61E01D
S11349B070E009950F910895FC017583648308954F
S11349C0FC01778366830895FC01778B668B0895D9
S11349D0CF93DF93EC011DA21FA21EA2BC01685D50
S11349E07F4F40EC88519F4F0E94F6231B821A820E
S11349F01D821C821F821E82198618861B861A86B7
S1134A001D861C861F861E86198A188A1B8A1A8A86
S1134A101D8A1C8A1F8A1E8A198E188E1B8E1A8E56
S1134A201D8E1C8E1F8E1E8E19A218A2DF91CF918F
S1134A300895EF92FF920F931F93CF93DF93662312
S1134A4099F0EA016150062F10E00F5F1F4F040F29
S1134A50151F7C0128EEE20EF11C6991C7010E942A
S1134A60FD23C017D107C9F7DF91CF911F910F9193
S1134A70FF90EF900895FC01718360830895AF92D5
S1134A80BF92CF92DF92EF92FF920F931F93CF9337
S1134A90DF9300D01F92CDB7DEB77C016B01142FDA
S1134AA0B22EA02EDC0195968C919597843011F549
S1134AB05A96ED91FC915B97309709F4CCC09B0119
S1134AC021503109ABEABAEA0E9486279695879568
S1134AD09C01220F331F820F931F4983BA820B83D9
S1134AE04C2D481B9E012F5F3F4F682F792FC70124
S1134AF00995BEC06230710509F455C06330710573
S1134B0029F06130710509F0A1C088C0842F807F2D
S1134B10803AF1F028F48038A9F0803969F02FC088
S1134B20803EE1F0803F01F1803B49F5D7011296C8
S1134B30ED91FC91139725C0D7011496ED91FC914A
S1134B4015971FC0D7011696ED91FC91179719C0C0
S1134B50D7011896ED91FC91199713C0D7011A96B5
S1134B60ED91FC911B970DC0423F09F074C0D70131
S1134B701C96ED91FC911D97309741F46CC0E0E0D8
S1134B80F0E0309709F467C0123F31F42A2D4B2D21
S1134B9062EFC70109956CC02A2D4B2D612F6F70F0
S1134BA0C701099565C0842F807F803D51F0803F07
S1134BB071F0803C01F5D7011E96ED91FC911F9791
S1134BC01CC0D7015096ED91FC91519716C0433FFC
S1134BD041F4D7015296ED91FC915397309799F493
S1134BE03AC0413FC1F5D7015496ED91FC915597D8
S1134BF0309749F430C0E0E0F0E0309761F1812F64
S1134C008D7F813F29F44B2D612FC701099530C059
S1134C104B2D612F6F70C70109952AC0842F0E9404
S1134C207F24882331F0D7015696ED91FC91579754
S1134C3007C0163F81F4D7015896ED91FC9159971E
S1134C40309749F0612FC701099512C0643071058E
S1134C5010F0C12CD12CD7015C96ED91FC915D979D
S1134C60309731F00A2D2B2D412FB601C70109953C
S1134C70D7015E96ED91FC915F97309731F00A2D44
S1134C802B2D412FB601C70109950F900F900F905E
S1134C90DF91CF911F910F91FF90EF90DF90CF9014
S1134CA0BF90AF900895FF920F931F93CF93DF931C
S1134CB0EC01162F862F0E947F24882369F0FDA023
S1134CC081E08DA300E020E0412F61E070E0CE019F
S1134CD00E943F25FDA2A4C0812F0E947B2488232B
S1134CE009F45DC08DA1843029F01AA381E090E01D
S1134CF09FA38EA3812F0E948524813031F0B8F0C8
S1134D00823079F0833081F046C081E08DA300E0E9
S1134D1020E0412F61E070E0CE010E943F251DA2FA
S1134D207FC082E08DA37CC083E08DA379C0103F57
S1134D3019F0173F51F02BC084E08DA380EF8AA3B4
S1134D4081E090E09FA38EA36BC04EA15FA19A0166
S1134D50ABEABAEA0E948627969587959C01220FB2
S1134D60331F820F931FFA01E81BF90BEC0FFD1F91
S1134D7087EF82A3BA016F5F7F4F7FA36EA30CA15D
S1134D802BA14AA1CE010E943F251DA249C01DA20C
S1134D901FA21EA245C01DA21FA21EA241C0EDA1BA
S1134DA0EE23F1F14EA15FA19A01ABEABAEA0E94A7
S1134DB08627969587959C01220F331F820F931F98
S1134DC09A01281B390BDE01A20FB31F92961C9384
S1134DD0BA016F5F7F4F7FA36EA32130310589F045
S1134DE022303105E9F40CA12BA14AA1CE010E9485
S1134DF03F258DA18430A1F081E090E09FA38EA394
S1134E000FC0E23069F400E02BA14AA1CE010E9458
S1134E103F258DA1843021F081E090E09FA38EA3F3
S1134E20DF91CF911F910F91FF900895CF92DF9260
S1134E30EF92FF920F931F93CF93DF936C01DC01EA
S1134E409096ED91FC919197309709F00995860120
S1134E5008511F4FC8010E943324E82EF12CE1149D
S1134E60F10491F0C0E0D0E060E0C8010E94492460
S1134E70682FC6010E94532661E0C8010E945B248A
S1134E802196CE15DF0581F7DF91CF911F910F9108
S1134E90FF90EF90DF90CF90089597FB072E16F4C4
S1134EA0009407D077FD09D00E94952707FC05D010
S1134EB03EF4909581959F4F0895709561957F4F2D
S1134EC00895052E97FB1EF400940E94782757FD41
S1134ED007D00E94A92707FC03D04EF40C9478272E
S1134EE050954095309521953F4F4F4F5F4F089512
S1134EF090958095709561957F4F8F4F9F4F089542
S1134F00EE0FFF1F0590F491E02D0994A29FB001CC
S1134F10B39FC001A39F700D811D1124911DB29FE9
S1134F20700D811D1124911D0895AA1BBB1B51E115
S1134F3007C0AA1FBB1FA617B70710F0A61BB70B05
S1134F40881F991F5A95A9F780959095BC01CD01AA
S1134F500895A1E21A2EAA1BBB1BFD010DC0AA1FB6
S1134F60BB1FEE1FFF1FA217B307E407F50720F0CE
S1134F70A21BB30BE40BF50B661F771F881F991F49
S1134F801A9469F760957095809590959B01AC0192
S10D4F90BD01CF010895F894FFCF8E
S1134F9A000402FF001500010404FF0016000204C5
S1134FAA080101170003041002013000040420045C
S1134FBA01310005044008003200060480FF003372
S1134FCA00070301FF003500080302FF0036000949
S1134FDA0304FF002C000A0308FF002D000B040839
S1134FEA010018000C0410020019000D042004002A
S1134FFA1A000E044008011B008F0320FF0034002E
S113500A100401FF00140014151617303132333519
S113501A362C2D010102010401080110012001406E
S113502A0180010100020004000800100020004071
S113503A0080000102020204020802100220024057
S113504A02800210032003400380030104020404C3
S113505A0408041004200440048004010502050421
S113506A05080510052005400580051006200640A0
S113507A068006010702070407080710074007808D
S113508A07010C1810202021222324252627181969
S113509A1A1B1C1D1E1F15161708090A0B0C0D0EC8
S11350AA0F0001021011121314010111115555FFB9
S11350BAFFFFFF000102030405000F0B07030101B0
S10750CA00030204D5
S9030000FC
