:100000000C942A010C94AB060C946E060C944701D8
:100010000C9447010C94D8060C9447010C94720779
:100020000C9447010C9447010C9447010C949B07D6
:100030000C9447010C9447010C940B070C94470156
:100040000C9447010C9447010C9415080C944A0831
:100050000C9447010C9447010C9447010C94470100
:100060000C9426250C9447010C9447010C944701ED
:100070000C9447010C9447010C9447010C944701E0
:100080000C9447010C9487070C9447010C9447018A
:100090000C9447010C9447010C9447010C944701C0
:1000A0000C9447010C9447010C9491070C94470160
:1000B0000C9447014A256B266B266B266B266B2614
:1000C0006B266B264A256B266B266B266B266B26CA
:1000D0006B266B2669256B266B266B266B266B269B
:1000E0006B266B2662266B266B266B266B266B2691
:1000F0006B266B2669256B266B266B266B266B267B
:100100006B266B2662266B266B266B266B266B2670
:100110006B266B266B266B266B266B266B266B2657
:100120006B266B26C0256B266B266B266B266B26F3
:100130006B266B2662266B266B266B266B266B2640
:100140006B266B26AB256B266B266B266B266B26E8
:100150006B266B26D4256B266B266B266B266B26AF
:100160006B266B26FC256B266B266B266B266B2677
:100170006B266B26FC256B266B266B266B266B2667
:100180006B266B26FC256B266B266B266B266B2657
:100190006B266B26FC256B266B266B266B266B2647
:1001A0006B266B2604266B266B266B266B266B262E
:1001B0006B266B265E266B266B266B266B266B26C4
:1001C0006B266B2604266B266B266B266B266B260E
:1001D0006B266B265E266B266B266B266B266B26A4
:1001E0006B266B2628266B266B266B266B266B26CA
:1001F0006B266B263A266B266B266B266B266B26A8
:100200006B266B263A266B266B266B266B266B2697
:100210006B266B263E266B266B266B266B266B2683
:100220006B266B265E266B266B266B266B266B2653
:100230006B266B265E263F273D273F274127412718
:10024000472741274727472747274727472741274A
:100250004727472711241FBECFEFD8E0DEBFCDBF11
:1002600012E0A0E0B1E0EEECF4E502C005900D92E2
:10027000A833B107D9F726E0A8E3B2E001C01D9288
:10028000AF32B207E1F70E94DB0A0C94652A0C94A6
:100290000000811119C0809184038130D9F420912C
:1002A0000201309103018091000190910101281712
:1002B000390781F480910201909103010196909396
:1002C000030180930201089582E090E0909303017E
:1002D000809302010895CF92DF92EF92FF920F93E5
:1002E0001F930F2EF9E4CF2EF1E0DF2EF02D0F2E0D
:1002F000FDE8EF2EF12CF02D08E512E020E035E3CB
:100300004CE050E060E074E284EF90E00E949C24B6
:100310001093E7020093E60210938A030093890387
:1003200010938F0300938E03109382030093810335
:1003300010938603009385031F910F91FF90EF9018
:10034000DF90CF900895CF93DF93EC0190918303DA
:100350009111FCCF50E0542F44275295507F460F07
:10036000571FE091E602F091E7025083E091E60228
:10037000F091E70241834BE850E062E070E080E5F5
:100380000E94EF24909183039111FCCFE0918E03A2
:10039000F0918F038BE8DE0101900D928A95E1F7D1
:1003A000CE01DF91CF91089560938D0380937A03FE
:1003B00084E4E6E9F5E0AEEEB2E001900D928A95B4
:1003C000E1F784E4EAEDF5E0A2E3B3E001900D92F9
:1003D0008A95E1F780912306809377038091240624
:1003E00080937803809126068695869586958370FE
:1003F0008093760310920301109202018FEF9FEF1A
:1004000090930101809300010895CF93DF93FC0145
:10041000909183039111FCCFD901B695BA2FAA27E9
:10042000B795A795CD018E0F9F1FE62FF0E0FE2F09
:10043000EE27F295F07F8E0F9F1F2130310519F4C2
:10044000CBE0D0E002C0C0E8D0E0E0918903F091B9
:100450008A039083E0918903F0918A038183BA0132
:100460006A0F7B1FAE018AE592E00E945C2ABE0102
:100470006E5F7F4F80E50E94CD24DF91CF9108957C
:100480008091020190910301029704F520910201ED
:1004900030910301809100019091010128173907E3
:1004A000A9F0809102019091030190930101809342
:1004B000000120910201309103014EEE52E0609163
:1004C0008D0380E090917A030E9405020895CF93F6
:1004D000DF93EC01909183039111FCCF6E577E4F17
:1004E0007695762F662777956795E091E602F091ED
:1004F000E7027083E091E602F091E702618341E454
:1005000050E062E070E080E50E94EF249091830368
:100510009111FCCFE0918503F091860381E4DE0127
:1005200001900D928A95E1F7CE01DF91CF91089568
:100530009C01909183039111FCCFC9018E579E4F6E
:100540009695982F882797958795E0918903F09144
:100550008A039083E0918903F0918A03818381E487
:10056000FB01AAE5B2E001900D928A95E1F763E400
:1005700070E080E50E94CD24809183038111FCCF3F
:100580000895EAE7F0E0808184608083ACE7B0E022
:100590008C9180648C938C9183608C93AEE7B0E0F7
:1005A0008C9188608C938081806880830895EAE7CD
:1005B000F0E0808180648083808186FDFDCF809122
:1005C00078009091790008958CE08093810082E01A
:1005D00080936F0085E08093910086E48093B4005F
:1005E0008093B300E3E9F3E08081887F80830895FE
:1005F0009093890080938800209184003091850039
:100600008217930728F401979093850080938400C4
:100610000895CF93DF9380919400909195009093EB
:100620009903809398038091EA0285FF0AC0EAEE5D
:10063000F2E080818F7D808310928500109284008B
:100640000EC0C0E9D3E0888599850E94F8028C81AC
:10065000882329F09C818A81891B8C5F8A83EAEE3A
:10066000F2E080818F7B808310929403109295003A
:10067000109294000E94B30EE1E8F0E08081846063
:100680008083DF91CF910895CF93DF938091940081
:1006900090919500E0E9F3E091878087208531858E
:1006A000ABEABAEA0E94172A9695879596958795A0
:1006B00096958795918780878091EA0285FF0AC089
:1006C000EAEEF2E080818F7D8083109285001092A7
:1006D00084000CC0C0E9D3E0888599850E94F802A7
:1006E0008C81882319F0888181508A83EAEEF2E0B8
:1006F00080818F7B808310929403109295001092DA
:1007000094000E94B30EE1E8F0E080818460808371
:10071000DF91CF910895E9E4F2E010868681807F31
:10072000868387818F7D878385B1877E85B908958C
:10073000FF920F931F93CF93DF93C82FF62E0E9443
:100740008B03E9EEF2E0908193FFFDCFC093380276
:100750000C2F10E087E0C89FE0011124CC5FDE4F32
:10076000E8818E2F881F8827881FE981E770EE0FA8
:10077000E82BF0E0E75BFD4F90818A81892B808335
:100780008D810E9489089B819F3FC1F0A9E4B2E05E
:1007900013962C911397F801EE0FFF1FEE0FFF1F1A
:1007A000EE0FFF1FE01BF10BE85FFE4F80818170B1
:1007B000819582278923822713968C9380E48F1555
:1007C00040F4E9E4F2E080858160808784E10E9462
:1007D00089085D9AEEE6F0E080818260808385B5CD
:1007E000856085BDE9EEF2E08081877F8083DF91BF
:1007F000CF911F910F91FF900895CF93DF93CDB7C5
:10080000DEB72A970FB6F894DEBF0FBECDBF8AE0E1
:10081000EDE1F2E0DE01119601900D928A95E1F78B
:1008200080912506982F929596959770809126062F
:100830008170880F880F880F892B21E030E002C07B
:10084000220F331F8A95E2F7E09194058E2F82954F
:10085000869586958370E0919505E170EE0FEE0F19
:10086000E82BF0E03197EE0FFF1F81E090E08C0F56
:100870009D1FE80FF91F8081918182239323892B8B
:10088000D9F0A0912B0697E0A99FD0011124AC5F6D
:10089000BE4FEC918E2F881F8827881F1196EC91F0
:1008A0001197E770EE0FE82BF0E0E75BFD4F9081CA
:1008B00012968C91892B80832A960FB6F894DEBF0E
:1008C0000FBECDBFDF91CF9108953F924F925F92BF
:1008D0006F927F928F929F92AF92BF92CF92DF9250
:1008E000EF92FF920F931F93CF93DF9300D000D02E
:1008F000CDB7DEB7F82E5D9A0E948B03EEE6F0E0EE
:1009000080818260808395B5956095BD90919405B6
:10091000292F229526952695237090919505917003
:10092000990F990F922B29F08091E90281FF0E9483
:10093000FD0390919405292F2295269526952370E5
:10094000909195059170990F990F922B953009F020
:10095000FEC08091E90281FFFAC0809124068031B7
:1009600009F0F5C00E94FD03F2C05A824982D40109
:100970008C91982F929596959770F5018081817052
:10098000880F880F880F892BD6019C9196959170BE
:10099000F701399EE00DF11D1124E80FF11DEE0F56
:1009A000FF1FE656FA4F808191810B8002C0969519
:1009B00087950A94E2F780FF77C0F30180818F71F9
:1009C00090E02B813C818217930709F42B9AD30185
:1009D0008C91982F929596959770EEE2F6E0808133
:1009E0008370880F880F880F892B90E02B813C81C2
:1009F0008217930709F42C9AEB81FC81EE0FFF1FFD
:100A0000EE0FFF1FEE0FFF1F4B815C81E41BF50B08
:100A1000E65FFE4F808180FD47C0A2E9B5E08C9182
:100A200084FD04C0F80180810E948908AB81BC81EB
:100A3000AA0FBB1FAA0FBB1FAA0FBB1F2B813C8194
:100A4000A21BB30BAC5FBE4FEC918E2F881F882783
:100A5000881F1196EC91E770EE0FE82BF0E0E75B52
:100A6000FD4FD80113979C918081892B8083F801D9
:100A7000329780818F3FC1F020914C02EB81FC8145
:100A8000EE0FFF1FEE0FFF1FEE0FFF1F4B815C816C
:100A9000E41BF50BE85FFE4F9081917091959227D2
:100AA0008923822780934C028B819C8101969C83B1
:100AB0008B83095F1F4F409709F057CF8091210624
:100AC00086958170E981FA8192E2899FE00DF11D9E
:100AD0001124EE0FFF1FEA56FA4F80912506982F3A
:100AE000929596959770809126068170880F880F51
:100AF000880F892B20813181D90102C0B695A79535
:100B00008A95E2F7A0FF4FC0E9E4F2E080858160BA
:100B1000808780912D068F71803109F42B9A809106
:100B20002D06982F92959695977080912E0683703A
:100B3000880F880F880F892B803109F42C9A8091B7
:100B4000920584FD30C084E10E9489082CC009E030
:100B500011E01C821B824F2C512C0F2EF5E28F2EA0
:100B6000F6E09F2EF02D0F2EF6E2AF2EF6E0BF2E10
:100B7000F02D0F2EF1E2CF2EF6E0DF2EF02D7201D8
:100B8000EE0CFF1CEE0CFF1CEE0CFF1CEE0CFF1C11
:100B90000F2EF2E23F2EF02D0F2EFDE26F2EF6E02B
:100BA0007F2EF02DE2CE0F900F900F900F90DF91DF
:100BB000CF911F910F91FF90EF90DF90CF90BF905A
:100BC000AF909F908F907F906F905F904F903F90ED
:100BD000089580910B0286FF08C0EBE0F2E08F7B66
:100BE000808360E080E00E94980380910C0286FF81
:100BF00008C0ECE0F2E08F7B808360E081E00E943F
:100C0000980380910D0286FF08C0EDE0F2E08F7B33
:100C1000808360E082E00E94980380910E0286FF4C
:100C200008C0EEE0F2E08F7B808360E083E00E940A
:100C3000980380910F0286FF08C0EFE0F2E08F7BFF
:100C4000808360E084E00E9498038091100286FF18
:100C500008C0E0E1F2E08F7B808360E085E00E94E5
:100C600098038091110286FF08C0E1E1F2E08F7BDA
:100C7000808360E086E00E9498038091120286FFE4
:100C800008C0E2E1F2E08F7B808360E087E00E94B1
:100C900098038091130286FF08C0E3E1F2E08F7BA6
:100CA000808360E088E00E9498038091140286FFB0
:100CB00008C0E4E1F2E08F7B808360E089E00E947D
:100CC00098038091150286FF08C0E5E1F2E08F7B72
:100CD000808360E08AE00E94980308951F920F923B
:100CE0000FB60F9211242F933F934F935F936F93FF
:100CF0007F938F939F93AF93BF93EF93FF938091D5
:100D0000EA0285FF15C0E3E9F3E0808186958695C8
:100D100086958F5F8770282F220F220F220F9081D8
:100D2000977C922B9083813029F40E94090302C0A2
:100D30000E940903FF91EF91BF91AF919F918F9115
:100D40007F916F915F914F913F912F910F900FBEC7
:100D50000F901F9018951F920F920FB60F921124AB
:100D60002F933F934F935F936F937F938F939F93B3
:100D7000AF93BF93EF93FF930E944403329AEBE942
:100D8000F3E080818095908180FB90F99083FF91C2
:100D9000EF91BF91AF919F918F917F916F915F91F3
:100DA0004F913F912F910F900FBE0F901F9018956C
:100DB0001F920F920FB60F9211242F933F934F93D0
:100DC0005F936F937F938F939F93AF93BF93EF93B3
:100DD000FF934C9B08C0E2E9F5E08081806280834C
:100DE0000E94B00F07C0E2E9F5E080818F7D80832B
:100DF0000E947311FF91EF91BF91AF919F918F91DD
:100E00007F916F915F914F913F912F910F900FBE06
:100E10000F901F9018951F920F920FB60F921124EA
:100E20002F933F934F935F936F937F938F939F93F2
:100E3000AF93BF93CF93DF93EF93FF9315BCEEE691
:100E4000F0E080818D7F808385B1877E85B9E9EE72
:100E5000F2E08081886080838091910581112FC0AC
:100E6000A091380287E0A89FD0011124AC5FBE4F4B
:100E7000EC918E2F881F8827881F1196EC9111976F
:100E8000E770EE0FE82BF0E0C9E4D2E0E75BFD4F3E
:100E900012968C91809590818923808384E10E94B1
:100EA000A40888858E7F8887E091380287E0E89FD4
:100EB000F0011124EC5FFE4F85810E94A408FF9190
:100EC000EF91DF91CF91BF91AF919F918F917F91E2
:100ED0006F915F914F913F912F910F900FBE0F90A7
:100EE0001F9018951F920F920FB60F9211248F9397
:100EF000EF93FF93EBEEF2E0808182608083FF91BD
:100F0000EF918F910F900FBE0F901F9018951F9229
:100F10000F920FB60F9211240F900FBE0F901F90DB
:100F200018951F920F920FB60F9211240F900FBEBB
:100F30000F901F9018951F920F920FB60F921124C9
:100F40002F933F934F935F936F937F938F939F93D1
:100F5000AF93BF93EF93FF938091EA0285FD54C056
:100F60000E94B30EE3E9F3E02081277081E0820F55
:100F7000982F97708081887F892B8083233009F098
:100F800043C08081887F808380919105813029F4DE
:100F90008DE993E00E94492737C08330A9F5E0EB43
:100FA000F0E080818F7E8083A1EBB0E08C91806443
:100FB0008C938081806380831092B2008091EB02D9
:100FC00082FF22C0E3E9F3E08081869586958695CD
:100FD0008F5F8770282F220F220F220F9081977C1E
:100FE000922B9083813081F4EBEEF2E080818B7F55
:100FF00080835C9A10929203E9EEF2E08081816036
:10100000808380818D7F8083FF91EF91BF91AF912D
:101010009F918F917F916F915F914F913F912F9110
:101020000F900FBE0F901F9018951F920F920FB642
:101030000F9211242F933F934F935F936F937F935E
:101040008F939F93AF93BF93EF93FF93CF93DF93D0
:101050001F92CDB7DEB78091C6008983AE014F5F86
:101060005F4F61E08DE993E00E94AA270F90DF9126
:10107000CF91FF91EF91BF91AF919F918F917F9110
:101080006F915F914F913F912F910F900FBE0F90F5
:101090001F9018951F920F920FB60F9211242F9345
:1010A0003F934F935F936F937F938F939F93AF93F0
:1010B000BF93EF93FF938AE495E00E94C4268823B0
:1010C00061F060E08AE495E00E94DA268093C60031
:1010D00061E08AE495E00E94EC268AE495E00E94B3
:1010E000C426811105C0E1ECF0E080818F7D808312
:1010F000FF91EF91BF91AF919F918F917F916F91F0
:101100005F914F913F912F910F900FBE0F901F90C5
:101110001895CF93DF9390E0880F991FDC01A857B3
:10112000BE4F2C91E22FEF70F0E0E75BFD4FEC013A
:10113000C957DE4F30818881832B8083822F806165
:101140008C93DF91CF910895CF93DF9390E0880F38
:10115000991FDC01A857BE4F2C91E22FEF70F0E0F1
:10116000E75BFD4FEC01C957DE4F88818095908188
:1011700089238083822F8F7E8C93DF91CF91089576
:10118000E82FF0E0EE0FFF1FE857FE4F908194FF2D
:1011900003C00E94A40808950E9489080895CF936F
:1011A000DF93E1EBF0E0908197609083A0EBB0E0FB
:1011B0009C919C93C0E7D0E09881926098839C9129
:1011C00091609C939081986090839CE89093B30089
:1011D0009091EB0291FF07C0EBEEF2E090819D7FD2
:1011E00090830E94C008DF91CF9108951092B000C3
:1011F000E0E7F0E090819D7F908396E49093B300C8
:101200000E9489080895E9E4F2E082818F70828368
:1012100087818072878383818F70838386818F7CAF
:10122000868308950F931F93CF93DF9309E011E016
:10123000C0E0D0E0FE01EE0FFF1FEE0FFF1FEE0F2C
:10124000FF1FEC1BFD0BE65FFE4F808180FF05C09A
:10125000F80180810E94890804C0F80180810E9401
:10126000A4082196095F1F4FC031D10519F7DF91FE
:10127000CF911F910F91089580919005833009F4CB
:1012800049C038F0843009F458C0853009F469C089
:1012900008958091920584FF31C08091930580FF6D
:1012A0002AC00E9403098091210682FD0DC0E091B1
:1012B0002D06EF7187E0E89FF0011124EC5FFE4FEF
:1012C00085810E9489080895E0912D068E2F8295D0
:1012D00086958770E0912E06E370EE0FEE0FEE0F0D
:1012E000E82B87E0E89FF0011124EC5FFE4F858139
:1012F0000E94890808950E9412090895E0912B0622
:1013000087E0E89FF0011124EC5FFE4F85810E9489
:10131000890808958091920584FF03C00E941209F4
:101320000895E0912B0687E0E89FF0011124EC5F1F
:10133000FE4F85810E94890808958091920584FF5F
:1013400003C00E9412090895E0912A06E695E695E9
:10135000E695EF70F0E0E558FE4F80810E94890825
:1013600008958091920584FF03C00E941209089598
:10137000E0912A06E695E695E695EF70F0E0E558EF
:10138000FE4F80810E94890808950F931F93CF9389
:10139000DF931092200610921F0680912B06803159
:1013A00051F19091260692FB442740F950E020919C
:1013B0002106A1E0B0E002C0AA0FBB1F8A95E2F7A8
:1013C000FA01E057FA4FED56FF4F608170E0C0E040
:1013D000D0E080E090E042955295507F5427407FC6
:1013E00054272695217032E2239F400D511D112470
:1013F00001E010E03CC08091260682FBEE27E0F978
:10140000F0E020912106DF01A057BA4FAD56BF4F43
:101410004C9150E060E070E080E090E02695217013
:1014200032E2239FE00DF11D1124EE0FFF1FEA565B
:10143000FA4FA1E0B0E020813181082E02C036953C
:1014400027950A94E2F720FF09C09D01082E02C0EB
:10145000220F331F0A94E2F7622B732B0196481771
:1014600059074CF77093200660931F061EC0FA01BF
:10147000E80FF91FEE0FFF1FE656FA4F208131816A
:101480002A233B23232B49F09801082E02C0220F68
:10149000331F0A94E2F7C22BD32B01966817790702
:1014A00034F7D0932006C0931F06DF91CF911F9190
:1014B0000F91089580914E02482F437C80919205B0
:1014C00088237CF5809190058450823050F580917E
:1014D0002906982F96959695969580912A06837061
:1014E0008295880F807E892B90E0803191052CF4C5
:1014F000842F806280934E020895803291052CF4EF
:10150000842F806180934E020895C0972CF4842F1D
:10151000886080934E020895842F846080934E02E9
:1015200008958091260686958695869583708E5FB0
:1015300021E030E0B90102C0660F771F8A95E2F71B
:10154000CB01842B80934E020895E9E4F2E01182EE
:101550001082089580919C03811102C00E94680E40
:101560000E9480200E942E1F0E94851F809190055E
:10157000833029F48091920584FF0E94E9050E943E
:10158000310C0E944C0D0E9401210E94BC210E943E
:10159000C1200E949A100E94DF230E943C090E94F1
:1015A000AA1F0E94E8190E9487150E940A1F0E9424
:1015B00040025D980895559A8DB18F608DB9399A22
:1015C000209A739841982898719A80E58093AC008E
:1015D000EDEAF0E08081816080836A9A3A9A239AEA
:1015E000249AE9E6F0E080818E608083EDE6F0E009
:1015F000808180618083C5E2D6E08A819B819E7F65
:101600009B8399819F7199838E718A8380E00E9468
:1016100089088DE10E94890882E20E948908E9E434
:10162000F2E08381876083830E940A1F84B5826011
:1016300084BD80E187BD8DE993E00E94792769EF41
:101640007BE08DE993E00E946D2763E17CE08DE90A
:1016500093E00E94712764E17CE08DE993E00E94B1
:1016600075270E94E20B0F2EFDE2EF2EF6E0FF2E13
:10167000F02DF7018181837C81830E94E402E0E9FF
:10168000F3E088E18083BB24B394B282148684E0C3
:1016900081830E94C1020F2EF9EECF2EF2E0DF2EE1
:1016A000F02DF601808188608083EAEEF2E080818F
:1016B0008D7F808302E915E0F80180818F7D808332
:1016C0000F2EF0E98F2EF5E09F2EF02D10922206BE
:1016D00084E20E948908E1E2F6E080818B7F8083CA
:1016E0008EE20E948908F401B082B18289818D7FE7
:1016F0008B7F89838AE20E94890887E20E94890899
:101700008B81817E88618B83F8018081807F8083DB
:101710000F2EFEE1AF2EF6E0BF2EF02DF5018081F9
:10172000807F8083F80182818F73828383818E7FA3
:1017300083830E946B017894F60180818F7B808384
:101740008A81817E8A83F50180818F70808360E049
:1017500080E00E94F910F8018181817880628183A4
:1017600085EEF701808381818C7F816081838DE9A3
:1017700093E00E94A7290E94AA0AF9CF0F931F9312
:10178000CF93DF93EB01122F642F8AE495E00E9440
:101790008E26C230D10528F0612F8AE495E00E94A0
:1017A0008E26239729F4602F8AE495E00E948E26E6
:1017B000E1ECF0E0808180628083DF91CF911F9126
:1017C0000F9108958FE18093C4001092C50088E9BD
:1017D0008093C100519A40EC6AE874E08AE495E095
:1017E0000E9487266EEB7BE08DE993E00E94CC2778
:1017F0000895E0912E06E695E695EF70F0E06F70A3
:1018000070E0E617F70771F48091910581110AC025
:101810008091920585FD06C0403120F4622F842F0F
:101820000E9498030895089580919105811118C030
:101830006A3F39F06C3F69F0683F91F40E940903F8
:101840000895E2E9F5E08081806280830E94B00F14
:101850000895E2E9F5E080818F7D80830E94731115
:101860000895CF93DF9300D000D000D0CDB7DEB77E
:1018700086E0E7E2F2E0DE01119601900D928A9592
:10188000E1F780911A0286FFFEC0EAE1F2E08F7B69
:1018900080838091920584FF3EC0809190058530C1
:1018A00071F580912A0682FD2AC080912906982F21
:1018B00096959695969580912A0683708295880FC5
:1018C000807E892BD1F081588F77E5E2F6E0282FD2
:1018D000220F220F220F94819770922B9483282F2E
:1018E00022952695277095819C7F922B958388233E
:1018F00021F0815080938F0502C010928F05809156
:10190000F501882321F081508093F5010EC085E018
:101910008093F5010AC08091F5018F5F863019F040
:101920008093F50102C01092F5018091E9028823AD
:101930003CF40E940B19E9EEF2E080818F778083FE
:101940003091F501FE01E30FF11D218120939005F7
:10195000E9E4F2E081E090E002C0880F991F3A9537
:10196000E2F79481907C892B8483233009F44DC065
:1019700018F4213028F487C0263008F473C083C0DF
:10198000EEE1F6E08081682F62956F70807F862B94
:1019900080838091270686958F70E5E2F6E0382FE8
:1019A0003295330F307E42814E71282F2695269531
:1019B000269593819E7F922B938391819F71932B88
:1019C0009183342B232B22830E94F910E1E0809134
:1019D0009005813009F4E0E0A5E2B6E011968C9123
:1019E0001197E0FB82F911968C931197F0E0E05784
:1019F000FA4FED56FF4F8081982F9F718C91807E1A
:101A0000892B8C930E94C5093EC0EEE1F6E08081EF
:101A1000982F92959F70807F892B808380912606D6
:101A2000982F929596959770809127068170880FD0
:101A3000880F880F892B282F30E02C3031051CF1BE
:101A4000E5E2F6E0982F990F82818170892B8066FC
:101A50008283838181608383E9EEF2E0808180620A
:101A6000808311C0EEE1F6E080818F70982F92950F
:101A7000907F892B808380912A068695869586950E
:101A80008F700E94491926960FB6F894DEBF0FBEDC
:101A9000CDBFDF91CF910895CF93DF93CDB7DEB760
:101AA0002B970FB6F894DEBF0FBECDBF86E0EDE2F8
:101AB000F2E0DE01119601900D928A95E1F785E042
:101AC000E3E3F2E0DE01179601900D928A95E1F7CB
:101AD000E9E4F2E094819F7394838281807F828322
:101AE0002091920524FFA5C080911B0286FF7BC038
:101AF000EBE1F2E08F7B8083809139028F5F85304C
:101B000019F08093390202C0109239028091390293
:101B1000FE01E80FF11D8781809391051092B100BD
:101B20001DBA1092680094E09093910342987298C5
:101B30008230A1F128F4882381F0813031F053C044
:101B40008330A9F08430E9F14EC010929C03E1E8A3
:101B5000F0E080818460808346C081E080939C03B4
:101B60001092950010929400429A729A3CC0109282
:101B70009C03E1E8F0E08081846080838AB1886D15
:101B80008AB9E0EBF0E0808182608083E1EBF0E0F5
:101B90008081876080831092B20025C081E08093AD
:101BA0009C031092950010929400429A729A8AB106
:101BB00087728AB9E99AE8E6F0E0808184608083E0
:101BC00012C0E0E9F3E081E0848710929500109262
:101BD0009400429A729AE89AABE9B3E08C918E7FB6
:101BE0008C9380E3818380919105843099F4809176
:101BF0009B03E9E4F2E0482F417050E08091390204
:101C0000815002C0440F551F8A95E2F78281482B0C
:101C1000428355C0E9E4F2E081E090E000903902AF
:101C200002C0880F991F0A94E2F79281892B828360
:101C300046C020911B0226FF25C0EBE1F2E02F7B7E
:101C4000208320913A022F5F263019F020933A0228
:101C500002C010923A0220913A02DE01A20FB11D99
:101C6000E2E9F5E011962C91322F3F702081207F20
:101C7000232B2083E5E2F6E023812F712383248147
:101C8000287F248320913A02223068F42A5F41E0C1
:101C900050E0BA0102C0660F771F2A95E2F7962B33
:101CA00090934D020CC0225041E050E0BA0102C0B6
:101CB000660F771F2A95E2F7862B80934B022B96AF
:101CC0000FB6F894DEBF0FBECDBFDF91CF91089560
:101CD0000E94D70290933E0280933D0220913B02E6
:101CE00030913C02821B930B95958795959587952E
:101CF000820F931F90933C0280933B022BE834E0C9
:101D0000A901481B590BE0E9F3E05783468386811C
:101D100097810E94F802089580912906982F969540
:101D20009695969580912A0683708295880F807E7D
:101D3000892B282F30E0203131051CF40E948908BE
:101D400008952032310524F480510E9489080895B5
:101D50002033310524F480520E948908089580536D
:101D60000E94890808958091EA02882344F58091B1
:101D70009405869586958F5F8F70E2E9F5E0282FB0
:101D8000220F220F9281937C922B928390E02091DC
:101D90009305322F3695377022952F702770329F1A
:101DA000900111248217930751F4E9EEF2E080814B
:101DB00081608083EAEEF2E080818F77808390916A
:101DC0002506929596959770809126068170880FCA
:101DD000880F880F892B382F3170E0E9F3E092816A
:101DE0009F5F92832081921381C09091EA0291FFBC
:101DF0000CC0E0912606E695E695E695E370F0E0E6
:101E0000EA50FE4F9081909390039091EB0290FFE7
:101E100018C090919305692F661F6627661F9091E1
:101E200094059370990FE2E9F5E0962B292F220F84
:101E30009181917F922B9183EBEEF2E090819E7FD6
:101E40009083909193059E7081F031110EC0909116
:101E5000EB0290FD0AC0E2E9F5E09281937C928367
:101E6000EAEEF2E09081906890839091EA029923E3
:101E70002CF0E9EEF2E090819160908321E0280F50
:101E8000E5E2F6E0322F3295330F307E90819F717C
:101E9000932B908323FB992790F921812E7F292B67
:101EA000218390E021FB442740F950E040575A4FEE
:101EB000FA01ED56FF4F208130E08217930749F475
:101EC0008091920585FF05C0EAEEF2E08081816095
:101ED0008083E5E9F3E080818F5F982F93708081A4
:101EE0008C7F892B80831092920321C0E0E9F3E07C
:101EF000928180818695981303C0332399F002C0A4
:101F00003323A9F0E0E9F3E02281408130E04695F7
:101F1000809193058695877090E0840F911D281716
:101F2000390729F4E9EEF2E08081826080838091B4
:101F30009C038130A1F4E0E9F3E084818F5F848326
:101F4000918189130CC010929403EAEEF2E0808133
:101F500080648083E1E8F0E080818B7F8083089556
:101F600042987298EBE9F3E080818E7F80838091C4
:101F70002406803129F0E5E2F6E0818182608183E8
:101F800080919005853041F0E5E2F6E0848187702C
:101F9000848385818C7F8583E3E9F3E08081887F7A
:101FA0008083E5E2F6E08081806E808381818160BC
:101FB0008183E0E9F3E080818150828384858130F0
:101FC00041F4EAEEF2E08081806280831092940313
:101FD00006C0EAEEF2E080818F7D8083429AE9EECE
:101FE000F2E080818B7F8083809122068D7F31F4A7
:101FF000E1E2F6E080818D7F808305C0E1E2F6E0DA
:1020000080818260808380919C03809191059EEF06
:10201000980F923058F4EBEEF2E080818460808378
:10202000E3E9F3E08081877C80830AC0813041F45A
:102030008DE993E00E9455278DE993E00E9449279E
:10204000809190058330B9F48091EA0283FF13C038
:10205000EAEEF2E08081877F8083E1E2F6E0808132
:1020600082FB992790F990FB81F98083E9EEF2E0F9
:10207000808180628083E9E4F2E0838187608383EA
:102080008BEE87BD1092850010928400109295000F
:1020900010929400E1E8F0E08081846080830895EC
:1020A000CF93DF93863090F4E2E9F5E0918180FBF5
:1020B00097F991838695837092819C7F892B828387
:1020C000EBEEF2E080818160808315C0885086301D
:1020D00090F4E2E9F5E0282F2295220F220F207CD0
:1020E00092819F73922B928382FB992790F983812F
:1020F0008E7F892B838390919305991F9927991F30
:10210000C4E9D5E088818370880F892B0E948908F3
:102110008881982F929596959695937080919505C4
:102120008170880F880F892B885F0E948908DF9152
:10213000CF91089580911C0286FF2CC0809192055A
:1021400084FF28C0ECE1F2E080818F7B8083809166
:102150002606869586958695837069F08D5F8370D7
:10216000E5E2F6E0982F990F990F990F8181877E0C
:10217000892B818305C0E5E2F6E081818861818356
:10218000E9EEF2E0808180618083EAEEF2E0808116
:10219000826080830E945A0A08958091E90282FF3A
:1021A00018C0E9EEF2E080818B7F80838091220667
:1021B000813049F010F08230D9F4E1E2F6E080811C
:1021C0008D7F80830895E1E2F6E0808182608083E4
:1021D000089580912206823059F4E1E2F6E0808190
:1021E00081FB222720F991E0922790FB81F98083DF
:1021F0000895EF92FF920F931F93CF93DF93CDB784
:10220000DEB7CB58D1090FB6F894DEBF0FBECDBFF5
:10221000462F60E0782FCE0101960E94A30184E44E
:10222000FE013196A6E9B5E001900D928A95E1F79D
:1022300084E4FE01EB5BFF4FAAEDB5E001900D9247
:102240008A95E1F7C657DF4F8881CA58D0408093FE
:102250002306C557DF4F8881CB58D0408093240692
:10226000C757DF4FE881C958D040E3700F2EF5E221
:10227000EF2EF6E0FF2EF02D9E2F990F990F990F5C
:10228000D70111968C911197877E892B11968C938B
:10229000F0E0EA50FE4F8081809390030E94C509D0
:1022A0000E945A0A8091260682FB002700F910E05E
:1022B00000571A4FF801ED56FF4F8081982F9F71FC
:1022C000F7018081807E892B8083C557DF4F0FB651
:1022D000F894DEBF0FBECDBFDF91CF911F910F915C
:1022E000FF90EF90089542987298EBE9F3E08081B7
:1022F0008E7F8083E5E2F6E0848187708483858128
:102300008C7F85838091260681FF09C081818D7F26
:1023100081838BE20E94A4088AE20E9489080E94BD
:102320000309E0912B0687E0E89FF0011124EC5FA0
:10233000FE4F85810E94890880912706982F9295EB
:1023400096959770809128068170880F880F880F66
:10235000892BE5E2F6E0282F2295220F207E91813D
:102360009F71922B9183282F2695269526959281F1
:102370009E7F922B928393819F7193839481987F08
:102380009483E9EEF2E090819F7D9083EAEEF2E0A3
:1023900090819F7E9083E9E4F2E0118210820E9496
:1023A000890880919005833031F4809128068695C4
:1023B0008F700E94890880919005853099F58091F1
:1023C0008F05882329F0E5E2F6E085818460858326
:1023D00060914F05862F8F70E5E2F6E0362F32953B
:1023E000330F307E42814E71282F269526952695F3
:1023F00093819E7F922B938391819F71932B9183E5
:10240000342B232B228362956F70EEE1F6E09081EE
:10241000907F962B90830E94F910E9EEF2E0808184
:102420008062808380919C0381110AC08091910514
:10243000813029F48DE993E00E94612701C05C9806
:10244000E9E4F2E083818760838380E187BD0895BA
:10245000CF93DF93809192058F7059F18091280678
:10246000982F929596959770809129068770880F7E
:10247000880F880F892B8F5F8F73E5E2F6E0282F96
:102480002295220F207E93819F71922B9383282F78
:102490002695269526959481987F922B94839091EA
:1024A00092059F70891305C0EAEEF2E08081806199
:1024B00080838091EA0284FF5BC0C5E2D6E08B8115
:1024C0008F718B838C81887F8C83EAEEF2E0808130
:1024D0008F7E808380818260808360911E066F7012
:1024E0008091280686958F700E94F91089818D7FD2
:1024F00089838BE20E94A4088AE20E948908809165
:102500002606982F92959695977080912706817050
:10251000880F880F880F892B282F2295220F207E65
:102520003A813E71982F9695969596958B818E7FE0
:10253000892B8B838695482F4295440F407E998145
:102540009F71942B998383FB992790F9832F822B7A
:10255000892B8A83E1E2F6E0808182FB992790F95A
:1025600090FB81F98083E9EEF2E0808180628083D4
:10257000DF91CF9108952091260622FB882780F9CC
:1025800090E080579A4FFC01ED56FF4FA5E2B6E070
:102590008C918F7180838C9311968C9111978E7F83
:1025A00011968C938091E90284FF16C0E9EEF2E067
:1025B00080818F7E808360911E066F7090912606C9
:1025C000929596959770809127068170880F880F55
:1025D000880F892B0E94D40180919005843009F0E6
:1025E00080C080912906982F969596959695809112
:1025F0002A0683708295880F807E892BE1E0E80FA0
:10260000EF77A5E2B6E02E2F220F220F220F1496AD
:102610009C9114979770922B14969C9314972E2F3D
:1026200022952695277015969C9115979C7F922B45
:1026300015969C9390E020918F0530E082179307C8
:1026400074F1E2E9F5E080818F7D80830E9473114F
:10265000E5E2F6E084818770848385818C7F8583C1
:1026600060914F05862F8F70262F2295220F207E96
:1026700092819F71922B9283282F269526952695DD
:1026800093819E7F922B938362956F70EEE1F6E0CB
:102690009081907F962B90830E94F9100895F0E02E
:1026A000E15BFA4F8081E5E2F6E0282F2295220FC8
:1026B000207E92819F71922B928383FB222720F9A7
:1026C00093819E7F922B9383EEE1F6E082958F704B
:1026D0009081907F892B8083E9EEF2E08081806297
:1026E000808380912406803109F47DC08091260684
:1026F00081FF65C081FB992790F981E08927E5E298
:10270000F6E0918180FB91F991838BE20E94A4080D
:102710008AE20E9489080E94CD108091E90285FF1B
:1027200046C0E9EEF2E080818F7D8083EAEEF2E040
:1027300080818260808380912706982F929596955C
:102740009770809128068170880F880F880F892BD9
:10275000E5E2F6E0282F2295220F207E91819F71DD
:10276000922B9183282F26952695269592819E7FE0
:10277000922B928360911E066F700E94F910E1E225
:10278000F6E080818D7F808380912206813019F46C
:10279000808182608083E5E2F6E081818D7F8183A4
:1027A0008BE20E94A4088AE20E94890879C0809185
:1027B0009005833009F074C00E94281271C08AE22B
:1027C0000E94A4088BE20E9489088091260681FB62
:1027D000992790F981E08927E5E2F6E0918180FB75
:1027E00091F991835DC0E5E2F6E081818D7F81837F
:1027F0008BE20E94A4088AE20E9489080E94CD1000
:102800008091E90285FF46C0E9EEF2E080818F7D8C
:102810008083EAEEF2E080818260808380912706E7
:10282000982F929596959770809128068170880FC1
:10283000880F880F892BE5E2F6E0282F2295220FDA
:10284000207E91819F71922B9183282F269526952A
:10285000269592819E7F922B928360911E066F70C7
:102860000E94F910E1E2F6E080818D7F8083809103
:102870002206813019F4808182608083E5E2F6E0EF
:1028800081818D7F81838BE20E94A4088AE20E946D
:10289000890806C080919005833011F40E942812A7
:1028A000809190058150823010F40E94C50980917A
:1028B000EA0281FF16C0EAEEF2E080818D7F80831C
:1028C000E2E9F5E08181817F8183E0912606E6954A
:1028D000E695E695E370F0E0EA50FE4F8081809344
:1028E000900308958091EA0282FF10C1EAEEF2E0BF
:1028F00080818B7F8083809190059FEF980F92302D
:1029000008F08AC060912B06603171F59091210624
:102910008091260682FB442740F950E096959170FD
:10292000FA0122E2929FE00DF11D1124EE0FFF1F2C
:10293000EA56FA4F90912506929596959770817078
:10294000880F880F880F892B21E030E0A90102C091
:10295000440F551F8A95E2F7CA0120813181822BED
:10296000932B9183808334C0409121068091260669
:1029700082FB222720F930E09091250692959695CA
:1029800097708170880F880F880F892BF901E29565
:10299000F295F07FFE27E07FFE2741FB992790F913
:1029A00052E2959FE00DF11D1124E80FF11DEE0F8D
:1029B000FF1FE656FA4F81E090E002C0880F991F92
:1029C0006A95E2F720813181822B932B918380835A
:1029D000EFE1F6E080912506982F929596959770F5
:1029E000809126068170880F880F880F892B21E03F
:1029F00030E0A90102C0440F551F8A95E2F7CA01D1
:102A000020813181822B932B91838083E9EEF2E048
:102A10008081806180830895833009F077C0809140
:102A2000920585FF09C08F7009F070C0EAEEF2E0F0
:102A30008081806180830895EAEEF2E0808183FBEB
:102A4000992790F981E08927908180FB93F9908301
:102A5000808183FF37C060911E066F7080912806C9
:102A600086958F700E94F91080912606982F929576
:102A700096959770809127068170880F880F880F30
:102A8000892BE5E2F6E0282F2295220F207E328165
:102A90003E71982F96959695969583818E7F892B7A
:102AA00083838695482F4295440F407E91819F7184
:102AB000942B918383FB992790F9832F822B892B69
:102AC0008283089580912706982F92959695977006
:102AD000809128068170880F880F880F892BE5E286
:102AE000F6E0282F2295220F207E91819F71922B54
:102AF0009183282F26952695269592819E7F922B4D
:102B0000928360911E066F700E94F9100895EF92F3
:102B1000FF920F931F93CF93DF938091E90280FF81
:102B2000EDC0E9EEF2E080818E7F80838091920596
:102B300085FF35C38091EA0280FF0BC0EAEEF2E028
:102B400080818E7F80830E94BB128091920585FFD9
:102B50002DC380919005833009F43FC020F086306A
:102B600008F0C5C085C00E9472148091930580FD55
:102B7000BEC08091920584FDBAC08091260682FB7A
:102B8000992790F9869581709813B1C08091250698
:102B9000982F929596959770809126068170880F50
:102BA000880F880F892B21E030E002C0220F331FED
:102BB0008A95E2F7EFE1F6E090818181E9E4F2E0C5
:102BC000492F42234095922B94239183982F93234E
:102BD0009095832B892380838AC00E9472148091F0
:102BE000920584FD84C020912506822F82958695CA
:102BF0008770209126062170220F220F220F282B8A
:102C000081E090E0BC0102C0660F771F2A95E2F7D1
:102C100030912706432F429546954770209128060C
:102C2000322F3170330F330F330F342BAC0102C00E
:102C3000440F551F3A95E2F7E9E4F2E0342F3623CA
:102C40003095642B3623318326952F7002C0880F70
:102C5000991F2A95E2F79C01242B352B832F87237C
:102C6000282F2095852F872B892B822380833FC097
:102C70008091930580FD3BC0809192058823BCF133
:102C800020912506822F82958695877020912606B1
:102C90002170220F220F220F282B81E090E0AC013F
:102CA00002C0440F551F2A95E2F720912706322FC4
:102CB000329536953770209128062170220F220F09
:102CC000220F232B02C0880F991F2A95E2F7E9E40F
:102CD000F2E0282F24232095842B82238183892FBF
:102CE0008523282F2095892F852B8223808380910F
:102CF0002606869581700E94650451C28091E90282
:102D000081FF28C20E9403093091CF012091D10197
:102D1000E9E4F2E0822F832B8095958189238583D6
:102D20008091920585FF78C11182108280912406DE
:102D3000803121F481E00E94650414C080919405E3
:102D4000982F9295969596959370809195058170A0
:102D5000880F880F892B853029F460E080912B063D
:102D60000E94980380919005833009F44DC020F0B3
:102D7000863008F0CDC09DC08091920584FF26C0AA
:102D80008091930580FDC4C0982F991F9927991FA2
:102D90000F2EF4E9EF2EF5E0FF2EF02DF7018081E4
:102DA0008370880F892B0E948908F7018081982FF2
:102DB0009295969596959370809195058170880F60
:102DC000880F892B885F0E948908A2C08091930593
:102DD00080FF06C080911E068F700E94890898C0EF
:102DE000E0912B0647E0E49FF0011124EC5FFE4FD9
:102DF00085810E948908EFE1F6E090818181E9E414
:102E0000F2E09183808384C08091920584FF2DC07D
:102E10008091930580FF06C080911E068F700E94EE
:102E2000890876C090919305991F9927991F0F2EB5
:102E3000F4E9EF2EF5E0FF2EF02DF701808183708D
:102E4000880F892B0E948908F7018081982F92951D
:102E5000969596959370809195058170880F880F4F
:102E6000892B885F0E94890853C090912706292FDB
:102E700022952695277080912806982F9170990F9A
:102E8000990F990F922B21E030E0A90102C0440F65
:102E9000551F9A95E2F7E9E4F2E0418386958F7039
:102EA00002C0220F331F8A95E2F7852F832B808380
:102EB0002FC08091930580FF0AC08091920584FD08
:102EC00006C080911E068F700E94890821C08091E3
:102ED000920588231CF40E948C0E1AC0809127064C
:102EE000982F929596959770809128068170880FFB
:102EF000880F880F892B21E030E0A90102C0440F20
:102F0000551F8A95E2F7CA01E9E4F2E04183908314
:102F10008091CF0180932C06809121068695817047
:102F2000C82F50E0D52F8091220690E0C817D9070E
:102F300069F48091210681FF11C08091E90282FD30
:102F40000DC08091D10180932C0608C0809121068C
:102F500081FF04C08091D10180932C06809195035C
:102F6000837090E002970CF0EFC080919005833061
:102F700018F58091920584FF1FC08091930580FF12
:102F80000FC090912706929596959770809128068C
:102F90008170880F880F880F892B0E9489080CC0C8
:102FA00090919305991F9927991F8091940583709B
:102FB000880F892B0E9489088091210681FB0027B8
:102FC00000F910E08091220690E008171907A1F09F
:102FD0008091210681FD08C0ECE2F6E09091D101DC
:102FE0008081892B8083B0C0ECE2F6E09091CF0124
:102FF0008081892B8083A8C08091210681FDA4C097
:103000008091E90282FFA0C0ECE2F6E09091D1014C
:103010008081892B808398C0E9E4F2E011821082DC
:1030200090912206913031F010F0923029F43093D3
:103030002C0602C020932C0690919005933029F025
:1030400050F1963008F04FC03EC084FF0AC0809116
:10305000930580FF48C080911E068F700E948908EA
:1030600042C08091EA0283FF0FC09091270692959B
:1030700096959770809128068170880F880F880F29
:10308000892B0E9489082FC08091280686958F7011
:103090000E94890828C084FF0CC08091930580FF9E
:1030A00022C080912E06869586958F700E94890891
:1030B0001AC08091930580FF16C080911E068F7004
:1030C0000E94890810C09091930590FF08C084FD6C
:1030D00006C080911E068F700E94890804C0882354
:1030E00014F40E948C0E80919503837090E00297F7
:1030F0005CF580919205807939F58091930580FD8A
:1031000023C080912206823039F4ECE2F6E09091FF
:10311000D1018081892B8083909127069295969585
:103120009770809128068170880F880F880F892BEF
:103130000E94890880919005833031F4809128069F
:1031400086958F700E948908E9EEF2E080818D7F7C
:10315000808325C080919C03813009F58091920580
:1031600085FD1DC03091CF012091D101922F932B6D
:10317000E9E4F2E0492F409585818423858380919D
:103180002206813039F018F0823039F008C03093CF
:103190002C0605C020932C0602C090932C06E9E46F
:1031A000F2E090912C068581892B8583DF91CF9168
:1031B0001F910F91FF90EF900895CF93DF93CDB7BC
:1031C000DEB7C154D1090FB6F894DEBF0FBECDBF34
:1031D00060912A066695669566956F7070E0CE01DF
:1031E00001960E94670281E4FE013196AFE4B5E0EA
:1031F00001900D928A95E1F7E9EEF2E0808180621C
:103200008083CF5BDF4F0FB6F894DEBF0FBECDBF1C
:10321000DF91CF910895CF93DF93CDB7DEB7C1543F
:10322000D1090FB6F894DEBF0FBECDBF60918F05F8
:10323000462F50E020E030E0A1E0B0E0AC0FBD1F31
:10324000A20FB31FF901E15BFA4F8081982F9F70A5
:10325000807F892B8C932F5F3F4F4217530764F772
:1032600022966FAF229780912A068695869586953D
:103270008F70BE016F5F7F4F90E00E949802CF5B1E
:10328000DF4F0FB6F894DEBF0FBECDBFDF91CF91F9
:103290000895CF93DF93EEE1F6E090819F70292FA0
:1032A0002295207F922B9083C5E2D6E08F70982FD5
:1032B000990F990F990F8D818778892B8D830E94A3
:1032C000DD188C8187708C838D818C7F8D838091BC
:1032D0008F05811104C08D818B7F8D8305C0E5E250
:1032E000F6E085818460858360914F05862F8F701D
:1032F000E5E2F6E0362F3295330F307E42814E7193
:10330000282F26952695269593819E7F922B938331
:1033100091819F71932B9183342B232B2283629570
:103320006F70EEE1F6E09081907F962B9083909104
:10333000920595FF06C0E9EEF2E08081806280830D
:1033400002C00E94F910DF91CF9108959091E90297
:1033500096FD1AC090E060918F0570E08617970780
:103360009CF4AC014F5F5F4FFA01E15BFA4F2081A3
:10337000DC01A15BBA4F322F3F70207F232B2C93AF
:10338000CA01461757076CF380918F05882319F0FF
:10339000815080938F05089520918F0530E0682F2C
:1033A00070E0621773079CF4A90141505109FA01BA
:1033B000E15BFA4F8081D901A15BBA4F982F9F70D2
:1033C000807F892B8C939A014617570769F70895D8
:1033D0008F929F92AF92BF92CF92DF92EF92FF9225
:1033E0000F931F93CF93DF938091920585FF69C35D
:1033F0000E94A021C82F8F3F09F4F5C48091900549
:10340000833009F468C118F4813028F4ECC48530A5
:1034100009F4C1C1E8C49091920594FF4DC00E9487
:10342000A50A8091930580FF43C080912606982FBE
:10343000929596959770809127068170880F880FD6
:10344000880F892B482F50E02C2F30E0421753076C
:1034500009F4C9C4E9EEF2E09081906290839C2F58
:103460009F70E5E2F6E0392F330F228121709C2E08
:10347000990C990C990C990C990C232B922A9282F5
:1034800096959695969523812E7F922B93830E94F5
:10349000A40890912706929596959770809128069A
:1034A0008170880F880F880F892B0E9489089BC420
:1034B0008C2F0E94501097C42091930520FF38C094
:1034C000CC3008F090C480911E068F708C1709F4E0
:1034D0008AC40E94A408EEE1F6E08C2F8F709081E0
:1034E000907F982B90830E94890880912A0682FF02
:1034F00019C0E09129068E2F869586958695E091D4
:103500002A06E370E295EE0FE07EE82BF0E0E15B47
:10351000FA4F80911E06982F9295907F80818F7030
:10352000892B8083E9EEF2E08081806280835BC436
:1035300096FF3AC0ECE1F2E090819F7B9083C1114D
:1035400012C0909125069F7171F4823061F4E5E21A
:10355000F6E08081807E80618083E9EEF2E0808108
:103560008061808340C48C2F8F71E5E2F6E090810A
:10357000907E982B908390E02091260622FB882451
:1035800080F8912CE401C057DA4FFE01ED56FF4F51
:10359000208130E08217930709F425C4E9EEF2E0B8
:1035A0008081806180831FC480912B06803109F067
:1035B00041C08091260682FBCC24C0F8D12CF601B4
:1035C000E057FA4FED56FF4F80818C1708F40BC47B
:1035D0008C2F0E94C008209121068091260682FB34
:1035E000AA24A0F8B12C81E090E002C0880F991FB6
:1035F000CA95E2F726952170F50132E2239FE00D8E
:10360000F11D1124EE0FFF1FEA56FA4F2081318180
:103610002827392731832083EFE1F6E020813181AB
:103620008227932791838083E9EEF2E08081806195
:103630008083D9C38091260682FB002700F910E021
:1036400000571A4FF801ED56FF4F80818C1708F490
:10365000CAC38C2F0E94C008809121069091260633
:1036600092FBEE24E0F8F12CF701E295F295F07F61
:10367000FE27E07FFE278695817092E2899FE00D0C
:10368000F11D1124EC0FF11DEE0FFF1FE656FA4F4E
:1036900081E090E09C0100902B0602C0220F331FB6
:1036A0000A94E2F740815181242735273183208312
:1036B000EFE1F6E002C0880F991FCA95E2F720817A
:1036C00031818227932791838083E9EEF2E0808124
:1036D0008061808388C38091920584FF23C080919C
:1036E000930580FF1BC0CC3008F07DC380911E067F
:1036F0008F708C1709F477C30E94A4088C2F8F70E9
:10370000982F9295907F982B90931E060E9489087F
:10371000E9EEF2E080818062808365C38C2F0E9495
:10372000501061C3CC3060F52C2F2F70E5E2F6E02D
:10373000922F990F828181709C2E990C990C990C73
:10374000990C990C892B89298283322F36953695CD
:10375000369593819E7F932B938390912606929525
:10376000969597708170880F880F880F892B28177E
:1037700009F439C3E9EEF2E080818062808333C3CB
:10378000E5E2F6E08C2F8F70880F9381917E992E61
:10379000982A938228C38091930580FF3CC0809132
:1037A000920584FD3CC0CC3008F01DC380911E06FC
:1037B0008F708C1709F417C30E94A408EEE1F6E09D
:1037C0008C2F8F709081907F982B90830E94890816
:1037D00080912A0682FF19C0E09129068E2F8695D6
:1037E00086958695E0912A06E370E295EE0FE07EDD
:1037F000E82BF0E0E15BFA4F80911E06982F92953E
:10380000907F80818F70892B8083E9EEF2E0808148
:1038100080628083E8C28091920584FF09C1CF3025
:1038200009F064C080912906982F969596959695F3
:1038300080912A0683708295880F807E892B99F06B
:103840008158982F9F77E5E2F6E0880F880F880F60
:1038500024812770822B8483929596959770858119
:103860008C7F892B858309E216E0D8019C9196957F
:1038700096959695CAE2D6E0888183708295880FE6
:10388000807E892B0E94A619D801EC918E2F8695F7
:1038900086958695E881E370E295EE0FE07EE82B51
:1038A000F0E0E15BFA4F8081E5E2F6E0282F229517
:1038B000220F207E92819F71922B928383FB22277D
:1038C00020F993819E7F922B9383EEE1F6E082951F
:1038D0008F709081907F892B8083E9EEF2E0808168
:1038E000806880838081806280837DC2CE3009F0D1
:1038F0007AC280918F058F5F803419F080938F0595
:1039000003C08FE380938F058091E90286FD50C04C
:1039100080912906982F96959695969580912A06DE
:1039200083708295880F807E892B99F08158982F1B
:103930009F77E5E2F6E0880F880F880F24812770D3
:10394000822B848392959695977085818C7F892BA5
:10395000858380912906982F9695969596958091C6
:103960002A0683708295880F807E892BE82FF0E0ED
:10397000E15BFA4F9081EEE1F6E0392F32953F702E
:103980002081207F232B2083E5E2F6E0392F32953A
:10399000330F307E22812F71232B228393FB9927B3
:1039A00090F923812E7F922B93830E94CC1914C00F
:1039B000E5E2F6E080918F05282F220F220F220FDB
:1039C00094819770922B94838295869587708370EB
:1039D00095819C7F892B8583E09129068E2F869582
:1039E00086958695E0912A06E370E295EE0FE07EDB
:1039F000E82BF0E0E15BFA4F80911E0690912706DC
:103A0000292F229526952770909128069170990F5D
:103A1000990F990F922B8295807F892B8083E9EEF5
:103A2000F2E0808180628083808180688083DBC156
:103A30002C2F2F70E5E2F6E0922F990F8281817092
:103A40009C2E990C990C990C990C990C892B89290D
:103A50008283322F36953695369593819E7F932BB0
:103A60009383909126069295969597708170880F12
:103A7000880F880F892B281709F4B5C1E9EEF2E009
:103A800080818062808380912A0682FFACC1E091B0
:103A900029068E2F869586958695E0912A06E370F5
:103AA000E295EE0FE07EE82BF0E0E15BFA4F8081DB
:103AB000807F282B2083E9EEF2E08081806880837C
:103AC00092C180919005833011F40E9472140E947B
:103AD000A021C82F8F3F09F486C1809190058330C3
:103AE00009F4ACC020F0853009F419C17CC1809183
:103AF000920584FF19C08091930580FF74C1809165
:103B00002E06869586958F700E94A408EDE2F6E059
:103B10008C2F8F70282F220F220F9181937C922B54
:103B200091830E9489085FC19091930590FF40C0E6
:103B3000CC3008F058C18091E90284FF16C0E9EE4C
:103B4000F2E080818F7E808360911E066F7090917D
:103B50002606929596959770809127068170880F1A
:103B6000880F880F892B0E94D4010EE116E0F8011E
:103B700080818F700E94A4088C2F8F70982F92954F
:103B8000907F982BD8019C930E948908F80160814E
:103B90006F70909126069295969597708091270662
:103BA0008170880F880F880F892B0E94F9101BC124
:103BB00086FF1AC080912606982F92959695977049
:103BC000809127068170880F880F880F892B90E0DD
:103BD0002C2F30E08217930769F060911E066F70FA
:103BE0008C2F0E94D40106C060911E066F708C2F2E
:103BF0000E94F9109C2F9F70E5E2F6E0392F330FF9
:103C00008C2F8295880F807E969596959695238128
:103C10002E7F292B2383C181232F282B922B928344
:103C2000CC7190819F7190838C2B81831092920331
:103C3000E5E9F3E080818C7F8083D5C08091920597
:103C400084FF2BC08091930580FFCDC0CC3008F05D
:103C5000CAC080911E068F708C1709F4C4C00E94E0
:103C6000A4088C2F8F70CEE1D6E0982F9295907F8C
:103C7000982B98830E94890868816F70909126061E
:103C8000929596959770809127068170880F880F7E
:103C9000880F892B0E94F910A6C0CC30B0F58C2F6C
:103CA0008F7005E216E0382F330FC295CC0FC07E1F
:103CB000282F269526952695D80113969C91139723
:103CC0009E7F922B13969C93139711969C9111971C
:103CD0009F719C2B11969C931197C32B2C2B1296A2
:103CE0002C9360911E066F700E94F910F80181817B
:103CF00090819F7190838C7F818310929203E5E97C
:103D0000F3E080818C7F80836EC0E5E2F6E0CF70C7
:103D10008C2F880FC381C17EC82BC38364C0809160
:103D2000930580FF2BC08091920584FD27C0CC3085
:103D300008F059C080911E068F708C1709F453C08B
:103D40000E94A4088C2F8F70CEE1D6E0982F929518
:103D5000907F982B98830E94890868816F7090915A
:103D60002606929596959770809127068170880F08
:103D7000880F880F892B0E94F91035C08C2F8F7007
:103D800005E216E0382F330FC295CC0FC07E282FE6
:103D9000269526952695D80113969C9113979E7F7C
:103DA000922B13969C93139711969C9111979F7148
:103DB0009C2B11969C931197C32BC22B1296CC93DC
:103DC00060911E066F700E94F910F8018181908148
:103DD0009F7190838C7F818310929203E5E9F3E0D9
:103DE00080818C7F8083DF91CF911F910F91FF9015
:103DF000EF90DF90CF90BF90AF909F908F900895FD
:103E00008093AE00EDEAF0E080818823ECF78091AA
:103E1000AE000895CF93DF93C9E4D2E088810E9479
:103E2000001F89810E94001F8A810E94001F8B81D0
:103E30000E94001F8C810E94001F8D810E94001F24
:103E40008E810E94001F8F810E94001F88850E9422
:103E5000001F7198719ADF91CF910895CF93DF93EE
:103E6000709A80E00E94001FC4E4D2E0888380E062
:103E70000E94001F898380E00E94001F8A8380E0E7
:103E80000E94001F8B8380E00E94001F8C8370982B
:103E90009881292F2695E2E9F5E0308120FB34F95D
:103EA000492F46954695218140FB20F921832A819F
:103EB000422F42954F7040FB36F93083EFE3F2E03A
:103EC00030819327392730839323988331819981D7
:103ED000932739273183932399833281932F922714
:103EE000292F2327228392239A8323819B81922740
:103EF0002927238392239B8394818927982794835E
:103F000089238C83DF91CF91089540E050E0DA015E
:103F1000A650BE4F8C91E82FE695E695E695E770A2
:103F2000F0E0EC5BFD4F208130E0982F977002C0ED
:103F3000359527959A95E2F7217086FB992790F998
:103F4000292720FB86F98C934F5F5F4F4332510541
:103F5000F1F608958091160286FFD1C0E6E1F2E005
:103F60008F7B808380919005853009F0C8C0809157
:103F7000930580FDC4C080912A0682FF76C080919F
:103F80002906982F96959695969580912A06837086
:103F90008295880F807E892B8F5F8F77E5E2F6E030
:103FA000282F220F220F220F94819770922B948337
:103FB000282F22952695277095819C7F922B95839B
:103FC00020918F0590E0422F50E048175907BCF42C
:103FD000922F990F990F990F84818770892B848371
:103FE000229526952770822F837025812C7F282B80
:103FF0002583E9EEF2E080818064808305C0E9EEEC
:10400000F2E080818F7B8083E09129068E2F869558
:1040100086958695E0912A06E370E295EE0FE07EA4
:10402000E82BF0E0E15BFA4F8081EEE1F6E0282F2B
:1040300022952F709081907F922B9083E5E2F6E09D
:10404000282F2295220F207E92819F71922B92839E
:1040500083FB992790F983818E7F892B8383E9EEF7
:10406000F2E0808180628083089580912906982FF4
:1040700096959695969580912A0683708295880FDD
:10408000807E892BE82FF0E0E15BFA4F90911E06CD
:1040900020912706322F32953695377020912806C9
:1040A0002170220F220F220F232B9295907F922BAB
:1040B000908380938F058F5F8F77803491F0E5E256
:1040C000F6E0282F220F220F220F94819770922B57
:1040D000948382958695877095819C7F892B8583B3
:1040E00009C0E5E2F6E08481886F848385818C7F56
:1040F00081608583E9EEF2E08081806880830895A5
:1041000093B1292F26952695E2E9F5E0808120FBE1
:1041100087F98083809152029827892780935202E1
:10412000892382FD03C08093530209C094E089274C
:1041300080935302EAEEF2E0808184608083809174
:104140009C03813021F4809191058430C9F4E2E927
:10415000F5E0808185FB222720F990915302969506
:10416000922790FB85F9808385FF08C0211108C044
:104170000E94B00F08950E94731108952130D9F361
:1041800008958091180286FF3BC09091920594FD9E
:1041900037C0E8E1F2E08F7B808380919005811148
:1041A0000EC080919C03813051F48091920388234A
:1041B00039F1E0E9F3E08281815082830895E2E2FF
:1041C000F6E080818F5F8083833029F4109222068D
:1041D00095FF0BC002C095FF06C0E9EEF2E08081BA
:1041E0008460808308958D7F31F4E1E2F6E0808180
:1041F0008D7F80830895E1E2F6E080818260808394
:1042000008950F931F93CF93DF938091920584FDC0
:1042100092C086FF83C080919005811104C08CE11B
:104220000E94CF0805C0853019F481E20E94CF08B2
:1042300080911C0286FF7FC0ECE1F2E08F7B8083DF
:1042400080919005882321F0853009F44DC073C01A
:10425000A1E2B6E08C9181FB002700F910E084E434
:10426000809FF001819FF00D1124E656FA4F90E4F3
:10427000EF0119929A95E9F71092200610921F0605
:104280009C9196959170C92F90E0D92F8C9FF00149
:104290008D9FF00D1124E057FA4F17821682118678
:1042A00010868FE08093230680E180932406E5E268
:1042B000F6E08181877E8860818388E18093900326
:1042C0000E945A0A60911E066F7090912606929580
:1042D00096959770809127068170880F880F880FB8
:1042E000892B0E94D40127C080E4EFE4F5E0DF01D0
:1042F0001D928A95E9F710928F05E5E2F6E0848138
:104300008770848385818C7F8B7F85830E940B19C6
:10431000EEE1F6E08081807F80830DC08091900582
:10432000811104C08CE10E94F60805C0853019F4A3
:1043300081E20E94F608DF91CF911F910F910895BD
:104340008091FA0186FD09C081E090E0FC01E65011
:10435000FE4F208126FF0AC002C080E090E0FC01F1
:10436000E650FE4F90819F7B9083089501968031A7
:10437000910561F78FEF08958091170286FF78C04D
:10438000E7E1F2E08F7B80838091920584FF5BC040
:1043900080919005853009F056C080912A0682FFF1
:1043A00067C080912906982F96959695969580914D
:1043B0002A0683708295880F807E892B99F0815818
:1043C000982F9F77E5E2F6E0880F880F880F248109
:1043D0002770822B848392959695977085818C7F28
:1043E000892B8583E09129068E2F86958695869563
:1043F000E0912A06E370E295EE0FE07EE82BF0E014
:10440000E15BFA4F8081EEE1F6E0282F22952F70D4
:104410009081907F922B9083E5E2F6E0282F229501
:10442000220F207E92819F71922B928383FB99278A
:1044300090F983818E7F892B8383E9EEF2E080817E
:1044400080628083089580919005833089F48EE2A4
:104450000E94C0088FE20E94C008E1E2F6E080817D
:1044600082FB222720F991E0922790FB82F980833A
:1044700008959091210692FD39C0482F50E097E0B1
:10448000899FF0011124EC5FFE4F93819F3FC1F0A3
:1044900020912D062F7130E04217530749F4875FB2
:1044A000EDE2F6E08F719081907E892B80830895F4
:1044B000EDE2F6E08F719081907E892B80830895E4
:1044C00090912D069F71963049F4863039F4EDE2D3
:1044D000F6E08081807E8F6080830895EDE2F6E0D3
:1044E0008F719081907E892B80830895482F50E0B2
:1044F00097E0899FF0011124EC5FFE4F93819F3F6D
:10450000C1F120912D06922F92959695977020914A
:104510002E062370220F220F220F292B30E0421784
:104520005307A1F4875FEDE2F6E0282F2295220FD2
:10453000207E90819F71922B90838695869586959B
:10454000837091819C7F892B81830895EDE2F6E051
:10455000282F2295220F207E90819F71922B90838D
:10456000869586958695837091819C7F892B818322
:10457000089590912D06292F2295269527709091C8
:104580002E069370990F990F990F922B963061F424
:10459000863051F4EDE2F6E08081806E8083818187
:1045A0008C7F816081830895EDE2F6E0282F2295CB
:1045B000220F207E90819F71922B90838695869505
:1045C0008695837091819C7F892B81830895482FE4
:1045D00050E097E0899FF0011124EC5FFE4F93813A
:1045E0009F3F19F4863009F09EC0CA010996FC016C
:1045F000EE0FFF1FEE0FFF1FEE0FFF1FE81BF90B63
:10460000E65FFE4F6081262F217030E0220F331FBE
:10461000FA01EE0FFF1FEE0FFF1FEE0FFF1FE41B4F
:10462000F50BE65FFE4F30813170232B213021F1F5
:1046300030F02230F1F1233009F458C00895FA0126
:10464000EE0FFF1FEE0FFF1FEE0FFF1FE41BF50B1A
:10465000E65FFE4F208121602083FC01EE0FFF1FEB
:10466000EE0FFF1FEE0FFF1FE81BF90BE65FFE4F7B
:1046700080818E7F80830895FA01EE0FFF1FEE0F79
:10468000FF1FEE0FFF1FE41BF50BE65FFE4F2081BF
:104690002E7F2083FC01EE0FFF1FEE0FFF1FEE0F9A
:1046A000FF1FE81BF90BE65FFE4F8081816080836E
:1046B0000895FA01EE0FFF1FEE0FFF1FEE0FFF1F11
:1046C000E41BF50BE65FFE4F208121602083FC0197
:1046D000EE0FFF1FEE0FFF1FEE0FFF1FE81BF90B82
:1046E000E65FFE4F8081816080830895FA01EE0FBE
:1046F000FF1FEE0FFF1FEE0FFF1FE41BF50BE65F22
:10470000FE4F20812E7F2083FC01EE0FFF1FEE0F56
:10471000FF1FEE0FFF1FE81BF90BE65FFE4F8081C6
:104720008E7F80830895FA01EE0FFF1FEE0FFF1FAB
:10473000EE0FFF1FE41BF50BE65FFE4F8081982F05
:10474000909590FB80F980830895CF93C82F809136
:10475000920584FD25C00E94030987E0C89FF001EF
:104760001124EC5FFE4F83818F3F59F080912B061F
:104770008C1304C0875F80932B060FC0C0932B0659
:104780000CC080912B06863031F4C63021F48FE0C6
:1047900080932B0602C0C0932B060E94C5090DC052
:1047A0008091930580FF06C00E9403098C2F0E9410
:1047B000392203C08C2F0E94E722CF9108950F93D6
:1047C0001F93CF93DF9380910A0286FD07C08091EB
:1047D0000B0286FD61C0C2E1D0E054C0EAE0F2E025
:1047E00080818F7B808380919005813008F49FC009
:1047F000833020F08450823070F199C0809192050E
:1048000084FD0BC00E94030984E10E94890880E1B5
:1048100080932B060E94C5098AC08091930580FF72
:1048200086C00E94030984E10E94890880912106C4
:1048300082FD07C0EDE2F6E08081807E80618083AA
:1048400076C0EDE2F6E080818F71808381818C7F7C
:10485000826081836CC08091E90288233CF40E94CD
:104860000B19E9EEF2E080818F77808380912A0630
:10487000887709F45CC080E00E94491984E10E94B5
:10488000890855C0FE01E650FE4F808186FF4AC070
:104890008E010151110904C000E010E0C1E1D0E037
:1048A000FE01E650FE4F90819F7B90839091900592
:1048B0009130E8F1933020F09450923028F037C0D6
:1048C000802F0E94A52333C08091920584FF04C0ED
:1048D000802F0E94E7222BC08091E90288233CF4BC
:1048E0000E940B19E9EEF2E080818F77808380913E
:1048F0002A068695869586958F7090E060978C172E
:104900009D07A9F0FC01E558FE4F80810E94A40894
:1049100081E0800F0E944919C558DE4F88810E94AE
:10492000890805C02196CC31D10509F0ABCFDF91C4
:10493000CF911F910F910895CF92DF92EF92FF9246
:104940000F931F93D0927E03C0927D031093ED02CC
:104950000093EC02F0925702E09256020E94F22974
:10496000BA01A9014051510961097109DB01CA016C
:104970001AF40196A11DB11DB595A7959795879538
:104980008093B8001092B900109283031F910F9189
:10499000FF90EF90DF90CF90089591E09093830384
:1049A00020915602309157022617370748F420917C
:1049B000560230915702309355022093540204C09E
:1049C000709355026093540291E090938403909306
:1049D000E50280937F0385EA8093BC00089591E00F
:1049E0009093830320915602309157022617370780
:1049F00048F420915602309157023093550220938B
:104A0000540204C0709355026093540220915602E0
:104A1000309157022417350748F4209156023091FF
:104A2000570230937C0320937B0304C050937C0394
:104A300040937B0393E09093840391E09093E5028D
:104A400080937F0385EA8093BC0008951F920F92A4
:104A50000FB60F9211242F933F934F935F936F9351
:104A60007F938F939F93AF93BF93EF93FF93809127
:104A7000B900887F8093E802E091E8028E2F90E0F1
:104A8000FC013897E13CF10508F025C1E65AFF4FDB
:104A90000C94112A8091E502813019F0823059F08E
:104AA00014C010928C0310928B0380917F03880FA7
:104AB0008093BB000AC010928C0310928B038091EC
:104AC0007F03880F81608093BB0085EC8093BC00DE
:104AD0000DC120918B0330918C03809154029091F1
:104AE000550228173907F1F480918403833039F493
:104AF00082E08093E50285EA8093BC00F7C0E091F4
:104B00007D03F0917E03309711F080E0099585E9EF
:104B10008093BC00ECEBF0E0808184FDFDCF10922F
:104B20008303E4C02091EC023091ED0280918B036D
:104B300090918C03AC014F5F5F4F50938C03409377
:104B40008B03F901E80FF91F80818093BB0085E892
:104B50008093BC00CBC02091EC023091ED0280919B
:104B60008B0390918C03AC014F5F5F4F50938C038C
:104B700040938B03F901E80FF91F2091BB002083BC
:104B800080917B0390917C0320918B0330918C0367
:104B900001978217930721F485E88093BC00A6C093
:104BA00085EC8093BC00A2C02091EC023091ED0214
:104BB00080918B0390918C03AC014F5F5F4F5093BA
:104BC0008C0340938B03F901E80FF91F2091BB0080
:104BD0002083E0917D03F0917E03309711F080E017
:104BE000099585E98093BC00ECEBF0E0808184FDC1
:104BF000FDCF109283037AC010928C0310928B0326
:104C000085EC8093BC0072C020918B0330918C03A3
:104C1000809156029091570228173907A8F42091E5
:104C2000EC023091ED0280918B0390918C03AC01EA
:104C30004F5F5F4F50938C0340938B03F901E80F54
:104C4000F91F2091BB00208385EC8093BC004EC0EF
:104C500080918B0390918C0380938003E0917D037E
:104C6000F0917E03309711F080E0099585EC8093F8
:104C7000BC003CC010928C0310928B0320918B03DC
:104C800030918C0380915602909157022817390772
:104C9000A8F42091EC023091ED0280918B03909169
:104CA0008C03AC014F5F5F4F50938C0340938B0399
:104CB000F901E80FF91F80818093BB0085EC809398
:104CC000BC0014C0E0917D03F0917E03309719F091
:104CD0008091E802099585E98093BC00ECEBF0E057
:104CE000808184FDFDCF85EA8093BC00FF91EF9128
:104CF000BF91AF919F918F917F916F915F914F91F4
:104D00003F912F910F900FBE0F901F901895FC01AF
:104D1000428374836383118210820895FF920F93FC
:104D20001F93CF93DF93EC01062F0E940727182FC4
:104D3000F9804F2D50E0CA0101962A81622F70E060
:104D40000E94DE29288130E08217930729F4812F01
:104D50000E940A2780E012C0EB81FC81EF0DF11D5B
:104D60000083298130E0C90101966A8170E00E94C8
:104D7000DE298983812F0E940A2781E0DF91CF916C
:104D80001F910F91FF900895CF93DF93EC010E9444
:104D9000072739812881321718F0C32FC21B04C09E
:104DA0009A81C32FC90FC21B0E940A278C2FDF9143
:104DB000CF910895FC01808170E09B01280F311D87
:104DC000C901628170E00E94DE290380F481E02D38
:104DD000E80FF91F808108951F93CF93DF93EC01B3
:104DE000162F0E940727482F8881212F30E0B90114
:104DF000680F711DCB016A8170E00E94DE298883F3
:104E0000842F0E940A27DF91CF911F9108958FB7B9
:104E1000F89408958FBF0895881F8827881F0895E4
:104E200091E0883F08F490E0892F0895982F907FB3
:104E3000903CB1F058F4903941F118F4903819F5DC
:104E400024C0903A11F1903BF1F41FC0903EE9F07C
:104E500018F4903D29F017C0903F21F0933F99F44A
:104E600082E0089590E0FC01E15FF109EF30F10587
:104E700040F4E55EFE4F0C94112A83E0089582E031
:104E8000089580E0089580E0089583E0089581E02A
:104E900008950F93DC01ED91FC9100E020E048EFD4
:104EA00061E070E009950F9108950F93DC01ED9199
:104EB000FC9100E020E04AEF61E070E009950F917D
:104EC00008950F93DC01ED91FC9100E020E04CEFA0
:104ED00061E070E009950F910895FC01758364838A
:104EE0000895FC01778366830895FC01778B668BB8
:104EF0000895CF93DF93EC011DA21FA21EA2BC0157
:104F0000685D7F4F40EC88519F4F0E9487261B822F
:104F10001A821D821C821F821E82198618861B8699
:104F20001A861D861C861F861E86198A188A1B8A69
:104F30001A8A1D8A1C8A1F8A1E8A198E188E1B8E39
:104F40001A8E1D8E1C8E1F8E1E8E19A218A2DF9126
:104F5000CF910895EF92FF920F931F93CF93DF931A
:104F6000662399F0EA016150062F10E00F5F1F4F92
:104F7000040F151F7C0128EEE20EF11C6991C70198
:104F80000E948E26C017D107C9F7DF91CF911F91DC
:104F90000F91FF90EF900895FC0171836083089555
:104FA000AF92BF92CF92DF92EF92FF920F931F9337
:104FB000CF93DF9300D01F92CDB7DEB77C016B019A
:104FC000142FB22EA02EDC0195968C9195978430EB
:104FD00011F55A96ED91FC915B97309709F4CCC08E
:104FE0009B0121503109ABEABAEA0E94172A969533
:104FF00087959C01220F331F820F931F4983BA822A
:105000000B834C2D481B9E012F5F3F4F682F792F3C
:10501000C7010995BEC06230710509F455C06330FF
:10502000710529F06130710509F0A1C088C0842F95
:10503000807F803AF1F028F48038A9F0803969F057
:105040002FC0803EE1F0803F01F1803B49F5D70160
:105050001296ED91FC91139725C0D7011496ED910E
:10506000FC9115971FC0D7011696ED91FC911797EB
:1050700019C0D7011896ED91FC91199713C0D7016B
:105080001A96ED91FC911B970DC0423F09F074C038
:10509000D7011C96ED91FC911D97309741F46CC09F
:1050A000E0E0F0E0309709F467C0123F31F42A2DB8
:1050B0004B2D62EFC70109956CC02A2D4B2D612F36
:1050C0006F70C701099565C0842F807F803D51F0C6
:1050D000803F71F0803C01F5D7011E96ED91FC9167
:1050E0001F971CC0D7015096ED91FC91519716C0A7
:1050F000433F41F4D7015296ED91FC91539730977D
:1051000099F43AC0413FC1F5D7015496ED91FC9115
:105110005597309749F430C0E0E0F0E0309761F106
:10512000812F8D7F813F29F44B2D612FC701099578
:1051300030C04B2D612F6F70C70109952AC0842F95
:105140000E941027882331F0D7015696ED91FC91EB
:10515000579707C0163F81F4D7015896ED91FC91FF
:105160005997309749F0612FC701099512C06430F3
:10517000710510F0C12CD12CD7015C96ED91FC91FA
:105180005D97309731F00A2D2B2D412FB601C701C5
:105190000995D7015E96ED91FC915F97309731F0BC
:1051A0000A2D2B2D412FB601C70109950F900F90A5
:1051B0000F90DF91CF911F910F91FF90EF90DF90B3
:1051C000CF90BF90AF900895FF920F931F93CF930E
:1051D000DF93EC01162F862F0E941027882369F099
:1051E000FDA081E08DA300E020E0412F61E070E0B0
:1051F000CE010E94D027FDA2A4C0812F0E940C27BF
:10520000882309F45DC08DA1843029F01AA381E0C0
:1052100090E09FA38EA3812F0E941627813031F04A
:10522000B8F0823079F0833081F046C081E08DA300
:1052300000E020E0412F61E070E0CE010E94D02725
:105240001DA27FC082E08DA37CC083E08DA379C0C6
:10525000103F19F0173F51F02BC084E08DA380EF71
:105260008AA381E090E09FA38EA36BC04EA15FA1B3
:105270009A01ABEABAEA0E94172A969587959C0193
:10528000220F331F820F931FFA01E81BF90BEC0F5B
:10529000FD1F87EF82A3BA016F5F7F4F7FA36EA3CD
:1052A0000CA12BA14AA1CE010E94D0271DA249C06A
:1052B0001DA21FA21EA245C01DA21FA21EA241C068
:1052C000EDA1EE23F1F14EA15FA19A01ABEABAEA9A
:1052D0000E94172A969587959C01220F331F820FF3
:1052E000931F9A01281B390BDE01A20FB31F929660
:1052F0001C93BA016F5F7F4F7FA36EA321303105EE
:1053000089F022303105E9F40CA12BA14AA1CE018C
:105310000E94D0278DA18430A1F081E090E09FA36E
:105320008EA30FC0E23069F400E02BA14AA1CE01A8
:105330000E94D0278DA1843021F081E090E09FA3CE
:105340008EA3DF91CF911F910F91FF900895CF927F
:10535000DF92EF92FF920F931F93CF93DF936C0135
:10536000DC019096ED91FC919197309709F00995A9
:10537000860108511F4FC8010E94C426E82EF12C57
:10538000E114F10491F0C0E0D0E060E0C8010E94B7
:10539000DA26682FC6010E94E42861E0C8010E9455
:1053A000EC262196CE15DF0581F7DF91CF911F9175
:1053B0000F91FF90EF90DF90CF90089597FB072E0D
:1053C00016F4009407D077FD09D00E94262A07FC26
:1053D00005D03EF4909581959F4F08957095619505
:1053E0007F4F0895052E97FB1EF400940E94092A12
:1053F00057FD07D00E943A2A07FC03D04EF40C94C4
:10540000092A50954095309521953F4F4F4F5F4F5A
:10541000089590958095709561957F4F8F4F9F4F20
:105420000895EE0FFF1F0590F491E02D0994A29FBF
:10543000B001B39FC001A39F700D811D1124911D68
:10544000B29F700D811D1124911D0895AA1BBB1BD5
:1054500051E107C0AA1FBB1FA617B70710F0A61B74
:10546000B70B881F991F5A95A9F780959095BC0195
:10547000CD010895A1E21A2EAA1BBB1BFD010DC090
:10548000AA1FBB1FEE1FFF1FA217B307E407F507F4
:1054900020F0A21BB30BE40BF50B661F771F881FD0
:1054A000991F1A9469F760957095809590959B0166
:1054B000AC01BD01CF010895FB01DC0102C00190E8
:0E54C0000D9241505040D8F70895F894FFCF58
:1054CE00FFFF0200000402FF001500010404FF00AC
:1054DE001600020408010117000304100201300037
:1054EE0004042004013100050440080032000604C3
:1054FE0080FF003300070301FF003500080302FFA1
:10550E00003600090304FF002C000A0308FF002DDB
:10551E00000B0408010018000C0410020019000D05
:10552E00042004001A000E044008011B008F032003
:10553E00FF003400100401FF00140014151617307C
:10554E0031323335362C2D010102010401080110D0
:10555E00012001400180010100020004000800103A
:10556E000020004000800001020202040208021026
:10557E000220024002800210032003400380030138
:10558E0004020404040804100420044004800401EE
:10559E0005020504050805100520054005800510C7
:1055AE0006200640068006010702070407080710BA
:1055BE000740078007010C181020202122232425E4
:1055CE00262718191A1B1C1D1E1F15161708090A47
:1055DE000B0C0D0E0F00010210111213140101110C
:1055EE00115555FFFFFFFF000102030405000F0BCD
:0855FE00070301010003020490
:00000001FF
