S017000054522D3830382D6669726D776172652E7372656310
S11300000C942A010C94F5050C94B8050C94470142
S11300100C9447010C941F060C9447010C94B606EB
S11300200C9447010C9447010C9447010C94DF068F
S11300300C9447010C9447010C9452060C9447010C
S11300400C9447010C9447010C9436070C946B07ED
S11300500C9447010C9447010C9447010C944701FC
S11300600C946F210C9447010C9447010C944701A4
S11300700C9447010C9447010C9447010C944701DC
S11300800C9447010C94CB060C9447010C94470143
S11300900C9447010C9447010C9447010C944701BC
S11300A00C9447010C9447010C94D5060C94470119
S11300B00C9447019321B422B422B422B422B42272
S11300C0B422B4229321B422B422B422B422B4229E
S11300D0B422B422B221B422B422B422B422B4226F
S11300E0B422B422AB22B422B422B422B422B42265
S11300F0B422B422B221B422B422B422B422B4224F
S1130100B422B422AB22B422B422B422B422B42244
S1130110B422B422B422B422B422B422B422B4222B
S1130120B422B4220922B422B422B422B422B422C6
S1130130B422B422AB22B422B422B422B422B42214
S1130140B422B422F421B422B422B422B422B422BC
S1130150B422B4221D22B422B422B422B422B42282
S1130160B422B4224522B422B422B422B422B4224A
S1130170B422B4224522B422B422B422B422B4223A
S1130180B422B4224522B422B422B422B422B4222A
S1130190B422B4224522B422B422B422B422B4221A
S11301A0B422B4224D22B422B422B422B422B42202
S11301B0B422B422A722B422B422B422B422B42298
S11301C0B422B4224D22B422B422B422B422B422E2
S11301D0B422B422A722B422B422B422B422B42278
S11301E0B422B4227122B422B422B422B422B4229E
S11301F0B422B4228322B422B422B422B422B4227C
S1130200B422B4228322B422B422B422B422B4226B
S1130210B422B4228722B422B422B422B422B42257
S1130220B422B422A722B422B422B422B422B42227
S1130230B422B422A7228823862388238A238A23EC
S113024090238A23902390239023902390238A231E
S11302509023902311241FBECFEFD8E0DEBFCDBF83
S113026012E0A0E0B1E0EEE4FDE402C005900D92DE
S1130270A033B107D9F725E0A0E3B2E001C01D9295
S1130280AB3DB207E1F70E94170A0C94A5260C9423
S113029000000895CF92DF92EF92FF920F931F9385
S11302A00F2EF9E4CF2EF1E0DF2EF02D0F2EFDE816
S11302B0EF2EF12CF02D00E512E020E035E34CE0C8
S11302C050E060E074E284EF90E00E94E520109337
S11302D0DF020093DE021093F6020093F5021093FE
S11302E0FA020093F9021093EE020093ED021093C8
S11302F0F2020093F1021F910F91FF90EF90DF90B3
S1130300CF900895CF93DF93EC019091EF02911178
S1130310FCCF50E0542F44275295507F460F571F6F
S1130320E091DE02F091DF025083E091DE02F09171
S1130330DF0241834BE850E062E070E080E50E9418
S113034038219091EF029111FCCFE091F902F091E4
S1130350FA028BE8DE0101900D928A95E1F7CE0155
S1130360DF91CF9108950F931F93CF93DF939C0157
S11303708A019091EF029111FCCFC62FD0E0DC2FBF
S1130380CC27D295D07FC20FD31FE091F502F09114
S1130390F602D083E091F502F091F602C18380E881
S11303A0F801A2E5B2E001900D928A95E1F762E8C6
S11303B070E080E50E941621C058DF4F9091EF0253
S11303C09111FCCFE091F502F091F602D083E09117
S11303D0F502F091F602C183F801E058FF4F8BE07B
S11303E0A2E5B2E001900D928A95E1F76DE070E02C
S11303F080E50E9416218091EF028111FCCFDF91EC
S1130400CF911F910F910895CF93DF93EC019091B9
S1130410EF029111FCCF6E577E4F7695762F6627AB
S113042077956795E091DE02F091DF027083E091A9
S1130430DE02F091DF02618341E450E062E070E0AB
S113044080E50E9438219091EF029111FCCFE09158
S1130450F102F091F20281E4DE0101900D928A959D
S1130460E1F7CE01DF91CF9108959C019091EF02C5
S11304709111FCCFC9018E579E4F9695982F8827CE
S113048097958795E091F502F091F6029083E091BB
S1130490F502F091F602818381E4FB01A2E5B2E06A
S11304A001900D928A95E1F763E470E080E50E9483
S11304B016218091EF028111FCCF0895EAE7F0E064
S11304C0808184608083ACE7B0E08C9180648C93FD
S11304D08C9183608C93AEE7B0E08C9188608C93B0
S11304E08081806880830895EAE7F0E080818064F9
S11304F08083808186FDFDCF809178009091790082
S113050008958CE08093810082E080936F0085E001
S11305108093910086E48093B4008093B300EDEF60
S1130520F2E08081887F808308959093890080938E
S1130530880020918400309185008217930728F465
S1130540019790938500809384000895809194008E
S11305509091950090930403809303038091E202A9
S113056084FF0AC0E2EEF2E080818F7E80831092E5
S113057085001092840027C08091030390910403A6
S11305800E9495028091FD02982F929596959695DA
S113059093708091FE028170880F880F892B99F0E7
S11305A09091FD02892F829586958695837090910E
S11305B0FE029170990F990F982BEBEFF2E0818175
S11305C0891B8C5F8183E2EEF2E080818F7D8083E2
S11305D0EDEFF2E080818F73808381818E7F818350
S11305E010929500109294000E94540DE1E8F0E0FE
S11305F08081846080830895E1E4F2E0108686813E
S1130600807F868387818F7D87830895FF920F93F0
S11306101F93CF93DF93C82FF62E0E94FC02E1EEC6
S1130620F2E0908193FFFDCFC09330020C2F10E0D5
S113063087E0C89FE0011124C050DF4FE8818E2F6E
S1130640881F8827881FE981E770EE0FE82BF0E008
S1130650EF5BFD4F90818A81892B80838D810E947D
S1130660AA079B819F3FC1F0A1E4B2E013962C91AD
S11306701397F801EE0FFF1FEE0FFF1FEE0FFF1F82
S1130680E01BF10BEC5FFE4F808181708195822726
S11306908923822713968C9380E48F1540F4E1E438
S11306A0F2E080858160808784E10E94AA075D9AD8
S11306B0EEE6F0E080818260808385B5856085BD4B
S11306C0E1EEF2E08081877F8083DF91CF911F91FB
S11306D00F91FF900895CF93DF93CDB7DEB72A979C
S11306E00FB6F894DEBF0FBECDBF8AE0E9E1F2E0B9
S11306F0DE01119601900D928A95E1F78091D10562
S1130700982F9295969597708091D2058170880F55
S1130710880F880F892B21E030E002C0220F331F9D
S11307208A95E2F7E091FE048E2F82958695869550
S11307308370E091FF04E170EE0FEE0FE82BF0E020
S11307403197EE0FFF1F81E090E08C0F9D1FE80FA3
S1130750F91F8081918182239323892BD9F0A09161
S1130760D70597E0A99FD0011124A050BF4FEC9169
S11307708E2F881F8827881F1196EC911197E77098
S1130780EE0FE82BF0E0EF5BFD4F908112968C9119
S1130790892B80832A960FB6F894DEBF0FBECDBF97
S11307A0DF91CF9108953F924F925F926F927F9223
S11307B08F929F92AF92BF92CF92DF92EF92FF926D
S11307C00F931F93CF93DF9300D000D0CDB7DEB744
S11307D05D9A0E94FC02EEE6F0E0808182608083F4
S11307E085B5856085BD8091FE04982F9295969578
S11307F0969593708091FF048170880F880F892BE0
S113080009F4F0C00E946B03EDC0D4018C9181FB0C
S1130810002700F910E0F501908192959695977064
S11308208170880F880F880F892BD6019C91F8015D
S1130830E295F295F07FFE27E07FFE279695917072
S1130840399EE00DF11D1124E80FF11DEE0FFF1F7D
S1130850EC5FFA4F808191810B8002C09695879559
S11308600A94E2F780FF64C0F30180818F7190E005
S11308702B813C818217930709F42B9AEB81FC812D
S1130880EE0FFF1FEE0FFF1FEE0FFF1F4B815C816A
S1130890E41BF50BEA5FFE4F808180FD49C0ACEF9D
S11308A0B4E08C9184FD04C0F70180810E94AA0702
S11308B0AB81BC81AA0FBB1FAA0FBB1FAA0FBB1F12
S11308C02B813C81A21BB30BA050BF4FEC918E2F08
S11308D0881F8827881F1196EC91E770EE0FE82B8C
S11308E0F0E0EF5BFD4FD70113979C918081892B3A
S11308F08083F701329780818F3FD1F0D201139624
S11309002C911397EB81FC81EE0FFF1FEE0FFF1F5D
S1130910EE0FFF1F4B815C81E41BF50BEC5FFE4F78
S113092090819170919592278923822713968C93B5
S11309308B819C8101969C838B8397E0E90EF11C4B
S1130940AB81BC81509709F060CF9091CD05809127
S1130950D20581FBBB27B0F9B9831A8296959170B1
S1130960E981FA8122E2929FE00DF11D1124EE0F3C
S1130970FF1FE050FB4F9091D1059295969597708B
S11309808170880F880F880F892B20813181A901FC
S113099002C0569547958A95E2F740FF4EC0E1E4C0
S11309A0F2E08085816080878091D9058F718031E4
S11309B009F42B9A8091D905982F92959695977062
S11309C08091DA058370880F880F880F892B803116
S11309D009F42C9A8091FC0484FD2FC084E10E94C8
S11309E0AA072BC00F2EF5E0EF2EF1E0FF2EF02D1D
S11309F01C821B820F2EF2ED8F2EF5E09F2EF02D20
S1130A000F2EF1EDAF2EF5E0BF2EF02D0F2EFDECE5
S1130A10CF2EF5E0DF2EF02D0F2EF2E23F2EF02D3B
S1130A200F2EF9ED6F2EF5E07F2EF02D0F2EF1E451
S1130A304F2EF2E05F2EF02DE8CE0F900F900F9026
S1130A400F90DF91CF911F910F91FF90EF90DF9066
S1130A50CF90BF90AF909F908F907F906F905F905A
S1130A604F903F9008958091070286FF08C0E7E009
S1130A70F2E08F7B808360E080E00E940603809137
S1130A80080286FF08C0E8E0F2E08F7B808360E024
S1130A9081E00E9406038091090286FF08C0E9E014
S1130AA0F2E08F7B808360E082E00E940603809105
S1130AB00A0286FF08C0EAE0F2E08F7B808360E0F0
S1130AC083E00E94060380910B0286FF08C0EBE0DE
S1130AD0F2E08F7B808360E084E00E9406038091D3
S1130AE00C0286FF08C0ECE0F2E08F7B808360E0BC
S1130AF085E00E94060380910D0286FF08C0EDE0A8
S1130B00F2E08F7B808360E086E00E9406038091A0
S1130B100E0286FF08C0EEE0F2E08F7B808360E087
S1130B2087E00E94060380910F0286FF08C0EFE071
S1130B30F2E08F7B808360E088E00E94060380916E
S1130B40100286FF08C0E0E1F2E08F7B808360E062
S1130B5089E00E9406038091110286FF08C0E1E14A
S1130B60F2E08F7B808360E08AE00E9406030895B0
S1130B701F920F920FB60F9211242F933F934F930E
S1130B805F936F937F938F939F93AF93BF93EF93F1
S1130B90FF938091E20284FF15C0EDEFF2E08081C3
S1130BA08695869586958F5F8770282F220F220F52
S1130BB0220F9081977C922B9083813029F40E949C
S1130BC0A60202C00E94A602FF91EF91BF91AF91CD
S1130BD09F918F917F916F915F914F913F912F9151
S1130BE00F900FBE0F901F9018951F920F920FB683
S1130BF00F9211242F933F934F935F936F937F939F
S1130C008F939F93AF93BF93EF93FF93EBEFF2E038
S1130C108081815081830E94540D329AFF91EF911B
S1130C20BF91AF919F918F917F916F915F914F9100
S1130C303F912F910F900FBE0F901F9018951F9208
S1130C400F920FB60F9211242F933F934F935F93FC
S1130C506F937F938F939F93AF93BF93EF93FF9380
S1130C604C9B08C0ECEFF4E08081806280830E949A
S1130C70730E07C0ECEFF4E080818F7D80830E94C7
S1130C80080FFF91EF91BF91AF919F918F917F9149
S1130C906F915F914F913F912F910F900FBE0F90E5
S1130CA01F9018951F920F920FB60F9211242F9335
S1130CB03F934F935F936F937F938F939F93AF93E0
S1130CC0BF93CF93DF93EF93FF9315BCEEE6F0E071
S1130CD080818D7F8083E1EEF2E080818860808373
S1130CE08091FB0481112FC0A091300287E0A89F5E
S1130CF0D0011124A050BF4FEC918E2F881F88275C
S1130D00881F1196EC911197E770EE0FE82BF0E035
S1130D10C1E4D2E0EF5BFD4F12968C9180959081F7
S1130D208923808384E10E94C50788858E7F888714
S1130D30E091300287E0E89FF0011124E050FF4F7A
S1130D4085810E94C507FF91EF91DF91CF91BF91FB
S1130D50AF919F918F917F916F915F914F913F914F
S1130D602F910F900FBE0F901F9018951F920F9206
S1130D700FB60F9211248F93EF93FF93E3EEF2E0FB
S1130D80808181608083FF91EF918F910F900FBEDE
S1130D900F901F9018951F920F920FB60F92112467
S1130DA00F900FBE0F901F9018951F920F920FB6C1
S1130DB00F9211240F900FBE0F901F9018951F9241
S1130DC00F920FB60F9211242F933F934F935F937B
S1130DD06F937F938F939F93AF93BF93EF93FF93FF
S1130DE08091E20284FD31C00E94540D8091FC0484
S1130DF085FF2BC0EDEFF2E02081277081E0820FA8
S1130E00982F97708081887F892B80832330E9F421
S1130E108081887F80838091FB04813031F487E076
S1130E2093E00E949223329A10C0E0EBF0E08081BC
S1130E308F7E8083A1EBB0E08C9180648C93808161
S1130E40806380831092B200329AFF91EF91BF9138
S1130E50AF919F918F917F916F915F914F913F914E
S1130E602F910F900FBE0F901F9018951F920F9205
S1130E700FB60F9211242F933F934F935F936F9369
S1130E807F938F939F93AF93BF93EF93FF93CF93EE
S1130E90DF931F92CDB7DEB78091C6008983AE0180
S1130EA04F5F5F4F61E087E093E00E94F3230F9070
S1130EB0DF91CF91FF91EF91BF91AF919F918F916E
S1130EC07F916F915F914F913F912F910F900FBE42
S1130ED00F901F9018951F920F920FB60F92112426
S1130EE02F933F934F935F936F937F938F939F932E
S1130EF0AF93BF93EF93FF9384EB94E00E940D2391
S1130F00882361F060E084EB94E00E9423238093C3
S1130F10C60061E084EB94E00E94352384EB94E006
S1130F200E940D23811105C0E1ECF0E080818F7DEA
S1130F308083FF91EF91BF91AF919F918F917F91AA
S1130F406F915F914F913F912F910F900FBE0F9032
S1130F501F901895CF93DF9390E0880F991FDC01C1
S1130F60AC57BE4F2C91E22FEF70F0E0EF5BFD4FDA
S1130F70EC01CD57DE4F30818881832B8083822F13
S1130F8080618C93DF91CF910895CF93DF9390E0AC
S1130F90880F991FDC01AC57BE4F2C91E22FEF70E4
S1130FA0F0E0EF5BFD4FEC01CD57DE4F888180957B
S1130FB0908189238083822F8F7E8C93DF91CF91C0
S1130FC00895E82FF0E0EE0FFF1FEC57FE4F9081DD
S1130FD094FF03C00E94C50708950E94AA070895BC
S1130FE0E1E4F2E082818F7082838781807287835B
S1130FF083818F70838386818F7C868308950F938A
S11310001F93CF93DF9305E011E0C0E0D0E0FE0131
S1131010EE0FFF1FEE0FFF1FEE0FFF1FEC1BFD0B6C
S1131020EA5FFE4F808180FF05C0F80180810E9445
S1131030AA0704C0F80180810E94C5072196095FB0
S11310401F4FC031D10519F7DF91CF911F910F9137
S113105008958091FA04833009F449C038F084304B
S113106009F458C0853009F470C008958091FC04D7
S113107084FF31C08091FD0480FF2AC00E94F007E4
S11310808091CD0582FD0DC0E091D905EF7187E017
S1131090E89FF0011124E050FF4F85810E94AA07C8
S11310A00895E091D9058E2F829586958770E091F9
S11310B0DA05E370EE0FEE0FEE0FE82B87E0E89F02
S11310C0F0011124E050FF4F85810E94AA07089582
S11310D00E94FF070895E091D70587E0E89FF0019B
S11310E01124E050FF4F85810E94AA070895809142
S11310F0FC0484FF03C00E94FF070895E091D70514
S113110087E0E89FF0011124E050FF4F85810E94A1
S1131110AA0708958091FC0484FF03C00E94FF077E
S11311200895E091D5058E2F8295869586958370D6
S1131130E091D605E370EE0FEE0FE82BF0E0E958EE
S1131140FE4F80810E94AA0708958091FC0484FFC9
S113115003C00E94FF070895E091D5058E2F829564
S1131160869586958370E091D605E370EE0FEE0FB9
S1131170E82BF0E0E958FE4F80810E94AA07089509
S11311802F923F924F925F926F927F928F929F9293
S1131190AF92BF92CF92DF92EF92FF920F931F9381
S11311A0CF93DF9324E4E9E8F5E0DF011D922A956B
S11311B0E9F72091D20522FB882780F990E000E02E
S11311C010E06C01CC0CDD1CCC0CDD1CCC0CDD1C4B
S11311D0CC0CDD1CEE24E394F12C5C01B3E0AB0EEB
S11311E0B11C9501220F331FF901E650FB4F5F013B
S11311F00F2EF9EA8F2EF5E09F2EF02D3C01F5E23B
S11312006F0E711C9301220F331FA90146505B4FCF
S11312103A010F2EFBEC4F2EF5E05F2EF02D865099
S11312209B4F1C0155ED250E311C52C09E01082E0A
S113123002C0369527950A94E2F720FF06C0208164
S11312403181242B352B318320839B01082E02C04E
S1131250369527950A94E2F720FF08C02D913C911A
S11312601197242B352B11963C932E9301961296AD
S1131270329680319105D1F6D5018D919C91002E45
S113128002C0969587950A94E2F780FF07C0F4019F
S113129080819181842B952B91838083D3018D91BF
S11312A09C91002E02C0969587950A94E2F780FFE0
S11312B007C0F20180819181482B592B51834083CF
S11312C00F5F1F4FD1018C9190E080179107FCF0C4
S11312D0C601800F911FFC01EE0FFF1FEC5FFA4F58
S11312E0C081D181A701002E02C0440F551F0A946A
S11312F0E2F7880F991FFC01E85BFA4F6081718166
S1131300ABEAB5E0E9E8F5E080E090E08FCFDF916B
S1131310CF911F910F91FF90EF90DF90CF90BF90EE
S1131320AF909F908F907F906F905F904F903F9081
S11313302F90089580914602482F437C8091FC04AD
S113134088236CF58091FA048450823040F58091B2
S1131350D405982F991F9927991F8091D5058F73CC
S1131360880F892B90E0803191052CF4842F8062C2
S1131370809346020895803291052CF4842F806175
S1131380809346020895C0972CF4842F886080933C
S113139046020895842F84608093460208958091C4
S11313A0D20586958695869583708E5F21E030E020
S11313B0B90102C0660F771F8A95E2F7CB01842B2F
S11313C0809346020895E1E4F2E0118210820895C8
S11313D080910603811102C00E94FC0C0E94311C02
S11313E00E946C1B0E94C31B8091FA04833029F471
S11313F08091FC0484FF0E9433050E94500B0E94DC
S1131400170C0E949C1C0E94A81D0E946E1C0E9426
S1131410BC0F0E948E1F0E9429080E94E81B0E9494
S113142068170E9428140E94481B5D980895559AD5
S11314308DB18F608DB9399A209A73984198289804
S1131440719A80E58093AC00EDEAF0E080818160E0
S113145080836A9A3A9A239A249AE9E6F0E0808192
S11314608E608083EDE6F0E080818061808301ED11
S113147015E0F801828191819F719183807E82833E
S113148080E00E94AA078DE10E94AA0782E20E94DE
S1131490AA070E94481B84B5826084BD80E187BD91
S11314A087E093E00E94C22368E17BE087E093E059
S11314B00E94B62362E37BE087E093E00E94BA23B4
S11314C063E37BE087E093E00E94BE230E94010B6C
S11314D00F2EF9EDEF2EF5E0FF2EF02DF7018181AF
S11314E0837C81830E948102EBEFF2E088E18083B8
S11314F0DD24D394D18213860E945E02E1EEF2E0F1
S1131500808188608083E2EEF2E080818E7F808338
S1131510CCEFD4E088818F7D88830F2EFAEFAF2E35
S1131520F4E0BF2EF02D1092CE0584E20E94AA07AB
S1131530EDECF5E080818B7F80838EE20E94AA0728
S1131540F501D082D182F80181818D7F8B7F8183E7
S11315508AE20E94AA0787E20E94AA07F801828110
S11315608F71806882838381816083838881807F97
S11315708883E8E8F5E08081807F80838A818F73A7
S11315808A838B818E7F8B830E944A01789460E0EA
S113159080E00E941B10898181788062898385EEB6
S11315A0F701808381818C7F8160818387E093E070
S11315B00E94F0250E94E809F9CF0F931F93CF935F
S11315C0DF93EB01122F642F84EB94E00E94D72267
S11315D0C230D10528F0612F84EB94E00E94D72219
S11315E0239729F4602F84EB94E00E94D722E1EC46
S11315F0F0E0808180628083DF91CF911F910F9111
S113160008958FE18093C4001092C50088E9809307
S1131610C100519A40EC64EF73E084EB94E00E94C3
S1131620D0226DED7AE087E093E00E9415240895BE
S1131630E091DA05E695E695EF70F0E06F7070E002
S1131640E617F70771F48091FB0481110AC08091B9
S1131650FC0485FD06C0403120F4622F842F0E94D3
S1131660060308950895809106038823C1F06A3F14
S113167039F06C3F69F0683F91F40E94A602089526
S1131680ECEFF4E08081806280830E94730E089501
S1131690ECEFF4E080818F7D80830E94080F089531
S11316A0CF93DF9300D000D000D0CDB7DEB786E073
S11316B0E3E2F2E0DE01119601900D928A95E1F7E2
S11316C08091160286FFAAC0E6E1F2E08F7B808358
S11316D08091FC0484FF0CC08091F101882321F0E7
S11316E081508093F1010EC085E08093F1010AC01E
S11316F08091F1018F5F863019F08093F10102C06F
S11317001092F1013091F101FE01E30FF11D2181ED
S11317102093FA04E1E4F2E081E090E002C0880F53
S1131720991F3A95E2F79481907C892B84838FEFFB
S1131730820F8230E8F4E1E0213009F4E0E0A1ED29
S1131740B5E011968C911197E0FB82F911968C9378
S11317501197F0E0E650FB4FEB52FF4F8081982F3A
S11317609F718C91807E892B8C930E94C00856C0F7
S11317702330E9F48091D205982F9295969597702D
S11317808091D3058170880F880F880F892B90E092
S11317900C970CF443C0E1EDF5E08281817E866113
S11317A08283E1EEF2E080818062808337C024305E
S11317B0A9F50E94BA1AE1EDF5E083818F7783835E
S11317C08481807C84836091B904862F8F70382F44
S11317D0330F9281907E462F4295440F407E2181A3
S11317E02F71242B2183282F269526952695932B1C
S11317F0922B928362956F70E8E8F5E09081907F78
S1131800962B90839091FC0495FF06C0E1EEF2E0E4
S113181080818062808302C00E941B1026960FB6CE
S1131820F894DEBF0FBECDBFDF91CF910895CF9363
S1131830DF93CDB7DEB72A970FB6F894DEBF0FBE9D
S1131840CDBF86E0E9E2F2E0DE01119601900D924F
S11318508A95E1F781E08F83188683E0898782E0A7
S11318608A87E1E4F2E024812F7324838281807FDC
S113187082839091FC0494FF74C08091170286FFC8
S113188061C0E7E1F2E08F7B8083809131028F5F5A
S1131890843019F08093310202C010923102809199
S11318A03102FE01E80FF11D87818093FB04109241
S11318B0B1001DBA10926800813031F078F08230A6
S11318C071F18330A1F03EC010920603E1E8F0E02C
S11318D08081846080834298729834C081E08093D0
S11318E006031092950010929400729A2BC01092E5
S11318F00603E1E8F0E08081846080835A9A8AB12B
S1131900886D8AB9E0EBF0E0808182608083E1EB4E
S1131910F0E08081876080831092B20013C081E080
S113192080930603109295001092940072988AB1E5
S113193087728AB98DB383608DBBE8E6F0E080815D
S113194084608083E1E4F2E081E090E00090310281
S113195002C0880F991F0A94E2F79281892B82832F
S113196042C09091170296FF22C0E7E1F2E09F7B0C
S11319709083909132029F5F963019F090933202D7
S113198002C01092320290913202DE01A90FB11D01
S1131990ECEFF4E011969C91392F3F709081907F89
S11319A0932B9083E1EDF5E093819178938390916B
S11319B03202923068F49A5F41E050E0BA0102C00A
S11319C0660F771F9A95E2F7262B209345020BC0EA
S11319D0925021E030E002C0220F331F9A95E2F7C3
S11319E0822B809343022A960FB6F894DEBF0FBE73
S11319F0CDBFDF91CF9108950E9474029093360277
S1131A00809335022091330230913402821B930B70
S1131A109595879595958795820F931F909334029A
S1131A20809333022BE834E0A901481B590BEBEFF8
S1131A30F2E0558344832481358186819781281778
S1131A40390731F08091FF02909100030E949502C2
S1131A50EBEFF2E0848195819783868308958091EA
S1131A60D405982F991F9927991F8091D5058F73B5
S1131A70880F892B282F30E0203131051CF40E9477
S1131A80AA0708952032310524F480510E94AA0740
S1131A9008952033310524F480520E94AA07089542
S1131AA080530E94AA0708958091E20286FF28C00D
S1131AB08091FE04869586958F5F8F70ECEFF4E03D
S1131AC0282F220F220F9281937C922B928390E0F5
S1131AD02091FD04322F3695377022952F70277090
S1131AE0329F900111248217930751F4E1EEF2E042
S1131AF0808181608083E2EEF2E080818F7B80834D
S1131B009091D1059295969597708091D2058170A8
S1131B10880F880F880F892B382F3170EBEFF2E094
S1131B2091819F5F91832081921384C09091E202FE
S1131B3090FF0CC0E091D205E695E695E695E3703A
S1131B40F0E0EE50FE4F90819093FB029091E20200
S1131B509923C4F49091FD04692F661F6627661FBC
S1131B609091FE049370990FECEFF4E0962B292FDB
S1131B70220F9181917F922B9183E2EEF2E090818A
S1131B809F7790839091FD049E7081F031110EC077
S1131B909091E202992354F0ECEFF4E09281937C6B
S1131BA09283E2EEF2E09081906490839091E2025D
S1131BB096FD05C0E1EEF2E090819160908321E012
S1131BC0280FE1EDF5E0322F3295330F307E90810E
S1131BD09F71932B908323FB992790F921812E7F6A
S1131BE0292B218390E021FB442740F950E0465003
S1131BF05B4FFA01EB52FF4F208130E082179307CD
S1131C0049F48091FC0485FF05C0E1EEF2E0808197
S1131C10806880838091FE0286958F5FEDEFF2E00D
S1131C208370982F990F8181897F892B81831092EA
S1131C30FC0221C0EBEFF2E091818081869598133C
S1131C4003C0332399F002C03323A9F0EBEFF2E091
S1131C502181408130E046958091FD04869587700E
S1131C6090E0840F911D2817390729F4E1EEF2E082
S1131C7080818260808380910603813099F5EDEF45
S1131C80F2E08081982F9295969596959370809125
S1131C90FE028170880F880F892B8F5F8770282F31
S1131CA02295220F220F207C90819F73922B908388
S1131CB0282F2695269591819E7F922B918384309F
S1131CC089F480818F73808381818E7F81832C98B6
S1131CD0E2EEF2E0808180628083E1E8F0E08081DE
S1131CE08B7F80830895E1EDF5E083818F77838393
S1131CF08481807C8483EDEFF2E08081887F80831F
S1131D00809106038130D9F4E1EDF5E08081806EA5
S1131D108083818181608183EBEFF2E08081815057
S1131D208183E2EEF2E0808180618083EDEFF2E076
S1131D3080818F73808381818E7F81830AC0E1EDEE
S1131D40F5E080818F71808381818E7F8183109201
S1131D50FC02E1EEF2E080818B7F80838091CE05EE
S1131D608D7F31F4EDECF5E080818D7F808305C0BB
S1131D70EDECF5E08081826080838091FB049EEF2E
S1131D80980F923058F4E2EEF2E080818061808313
S1131D90EDEFF2E08081877C80830FC0E1EEF2E01A
S1131DA0908191609083813041F487E093E00E94B8
S1131DB09E2387E093E00E9492238091FA0483306B
S1131DC0B9F48091E20282FF13C0E2EEF2E0808176
S1131DD08B7F8083EDECF5E0808182FB992790F97D
S1131DE090FB81F98083E1EEF2E080818062808360
S1131DF08BEE87BD1092850010928400109295009E
S1131E0010929400E1E8F0E080818460808308957A
S1131E108091D20581FF0BC0E1EDF5E081818D7FDA
S1131E2081838BE20E94C5078AE20E94AA070E946E
S1131E30F007E091D70587E0E89FF0011124E05016
S1131E40FF4F85810E94AA078091D30586958F70E4
S1131E50E1EDF5E0282F2295220F207E91819F71DC
S1131E60922B9183282F26952695269592819E7FE5
S1131E70922B9283938191789383E1EEF2E09081A7
S1131E809F7D9083E2EEF2E09081977F9083E1E47E
S1131E90F2E0118210820E94AA078091FA04833032
S1131EA071F49091D3059295969597708091D4058D
S1131EB08170880F880F880F892B0E94AA07809150
S1131EC0060381110CC08091FB04813039F44298DF
S1131ED0729887E093E00E94AA2301C05C9880E195
S1131EE087BD0895CF93DF93863090F4ECEFF4E050
S1131EF0918180FB97F991838695837092819C7F71
S1131F00892B8283E2EEF2E080818068808315C0B1
S1131F108850863090F4ECEFF4E0282F2295220FBD
S1131F20220F207C92819F73922B928382FB9927AC
S1131F3090F983818E7F892B83839091FD04991F6F
S1131F409927991FCEEFD4E088818370880F892B5D
S1131F500E94AA078881982F9295969596959370DA
S1131F608091FF048170880F880F892B885F0E94FD
S1131F70AA07DF91CF9108958091180286FF2CC0A3
S1131F808091FC0484FF28C0E8E1F2E080818F7B2B
S1131F9080838091D205869586958695837069F0B5
S1131FA08D5F8370E1EDF5E0982F990F990F990FEC
S1131FB08181877E892B818305C0E1EDF5E08181F4
S1131FC088618183E1EEF2E0808180618083E2EECA
S1131FD0F2E08081816080830E949A090895809153
S1131FE0E10282FF18C0E1EEF2E080818B7F808302
S1131FF08091CE05813049F010F08230D9F4EDECB7
S1132000F5E080818D7F80830895EDECF5E080819B
S11320108260808308958091CE05823059F4EDEC7E
S1132020F5E0808181FB222720F991E0922790FB43
S113203081F980830895EF92FF920F931F93CF93BA
S1132040DF93CDB7DEB7CB58D1090FB6F894DEBF16
S11320500FBECDBF462F60E0782FCE0101960E94BF
S1132060820184E4FE013196A0E0B5E001900D9276
S11320708A95E1F784E4FE01EB5BFF4FA4E4B5E04D
S113208001900D928A95E1F7C657DF4F8881CA58AF
S1132090D0408093CF05C557DF4F8881CB58D040BF
S11320A08093D005C757DF4FE881C958D040E3700B
S11320B00F2EF1EDEF2EF5E0FF2EF02D9E2F990F50
S11320C0990F990FD70111968C911197877E892BBF
S11320D011968C93F0E0EE50FE4F80818093FB02CA
S11320E00E94C0080E949A098091D20582FB0027B1
S11320F000F910E006501B4FF801EB52FF4F8081AE
S1132100982F9F71F7018081807E892B8083C5572A
S1132110DF4F0FB6F894DEBF0FBECDBFDF91CF9176
S11321201F910F91FF90EF900895EF92FF920F93FC
S11321301F93CF93DF938091FC048F70B9F080914B
S1132140D40586958F5F8F73E1EDF5E0282F220F7C
S113215093819178922B93839091FC049F708913BF
S113216005C0E2EEF2E08081886080838091E20223
S113217083FF68C0C1EDD5E08B8181788B83E2EE6B
S1132180F2E08081877F8083808181608083609199
S113219088056F700F2EF3EDEF2EF5E0FF2EF02D76
S11321A0F701908192959695977004ED15E0F801EA
S11321B080818170880F880F880F892B0E941B10E3
S11321C089818D7F89838BE20E94C5078AE20E9400
S11321D0AA078091D205282F229526952770F7010A
S11321E080818170880F880F880F822B982F990F18
S11321F08A81817E892B282F229526952770F801C4
S113220090819170990F990F990F922B392F3295D4
S1132210330F307E29812F71232B29839695969530
S113222096958E7F892B8A83EDECF5E0808182FB85
S1132230992790F990FB81F98083E1EEF2E08081A7
S113224080628083DF91CF911F910F91FF90EF9077
S113225008950F931F93CF93DF938091E20281FF40
S113226022C1E2EEF2E080818D7F80838091FA04C6
S11322709FEF980F923008F09BC06091D7056031B2
S113228071F59091CD058091D20582FBAA27A0F922
S1132290B0E096959170FD0122E2929FE00DF11D50
S11322A01124EE0FFF1FE050FB4F9091D105929542
S11322B0969597708170880F880F880F892B21E07D
S11322C030E0D90102C0AA0FBB1F8A95E2F7CD0105
S11322D020813181822B932B9183808335C070912F
S11322E0CD058091D20582FB222720F930E0909120
S11322F0D1059295969597708170880F880F880FF5
S1132300892BF901E295F295F07FFE27E07FFE2705
S113231071FB992790F9B2E29B9FE00DF11D112406
S1132320E80FF11DEE0FFF1FEC5FFA4F81E090E024
S1132330062E02C0880F991F0A94E2F7208131818A
S1132340822B932B918380838091CD0581FB44273D
S113235040F950E081E1849FF001859FF00D112444
S1132360E60FF11DEE0FFF1FE757FA4F8091D105DD
S1132370982F9295969597708091D2058170880FC9
S1132380880F880F892B21E030E0A90102C0440F97
S1132390551F8A95E2F7CA0120813181822B932B44
S11323A091838083E1EEF2E08081806180837BC051
S11323B0833009F078C08091FC0485FF09C08F70D8
S11323C009F071C0E2EEF2E08081886080836BC026
S11323D0E2EEF2E0808182FB992790F981E089277F
S11323E0908180FB92F99083808182FF41C060914B
S11323F088056F7003ED15E0D8019C919295969530
S11324009770C4EDD5E088818170880F880F880F9C
S1132410892B0E941B108091D205282F2295269586
S11324202770F80180818170880F880F880FE1ED93
S1132430F5E0822B982F990F8281817E892B282F9A
S113244022952695277098819170990F990F990F6D
S1132450922B392F3295330F307E21812F71232B0C
S113246021839695969596958E7F892B82831BC0A2
S11324708091D30586958F70E1EDF5E0282F2295A4
S1132480220F207E91819F71922B9183282F269574
S11324902695269592819E7F922B92836091880542
S11324A06F700E941B10DF91CF911F910F910895BF
S11324B0CF93DF93CDB7DEB7CB58D1090FB6F894DD
S11324C0DEBF0FBECDBF982F24E4E0E0F5E0DE01CF
S11324D0119601900D922A95E1F724E4E4E4F5E0E5
S11324E0DE01AB5BBF4F01900D922A95E1F780911D
S11324F0CF05C657DF4F8883CA58D0408091D00596
S1132500C557DF4F8883CB58D0402091D2052695FC
S1132510269526952370C757DF4F2883C958D04086
S1132520AE014F5F5F4F80E00E94B301C557DF4F9C
S11325300FB6F894DEBF0FBECDBFDF91CF910895E3
S1132540CF93DF93E1EDF5E080818F71808381810A
S11325508E7F81838091E10284FF16C0E1EEF2E078
S113256080818F7E8083609188056F709091D20501
S11325709295969597708091D3058170880F880FF6
S1132580880F892B0E9458128091FA04843009F034
S11325906BC08091D405982F991F9927991F80911A
S11325A0D5058F73880F892BE1E0E80FEF77A1ED54
S11325B0B5E013969C911397E0FB97F913969C93BF
S11325C013972E2F269514969C911497907C922BFA
S11325D014969C9390E02091F90430E082179307BD
S11325E044F1ECEFF4E080818F7D80830E94080F3A
S11325F06091B904962F9F70E1EDF5E0292F220F29
S11326009281917E922B928362956F70E8E8F5E057
S11326108081807F862B80838091D20582958695E8
S113262087709170990F990F990F892B0E941B1035
S11326300CC1F0E0E754FB4F8081982F9F70E1EDCF
S1132640F5E0292F220F9281917E922B9283E8E864
S1132650F5E082958F709081907F892B8083E1EEE5
S1132660F2E08081806280838091D005803109F41A
S113267074C08091D20581FF5CC081FB992790F9D9
S113268081E08927E1EDF5E0918180FB91F9918367
S11326908BE20E94C5078AE20E94AA070E94EF0FFC
S11326A08091E10285FF3DC0E1EEF2E080818F7D03
S11326B08083E2EEF2E08081816080838091D305A3
S11326C086958F70E1EDF5E0282F2295220F207E6C
S11326D091819F71922B9183282F2695269526957B
S11326E092819E7F922B9283609188056F700E94E5
S11326F01B10EDECF5E080818D7F80838091CE0509
S1132700813019F4808182608083E1EDF5E081817C
S11327108D7F81838BE20E94C5078AE20E94AA070B
S113272065C08091FA04833009F060C00E9495105E
S11327305DC08AE20E94C5078BE20E94AA078091CD
S1132740D20581FB992790F981E08927E1EDF5E035
S1132750918180FB91F9918349C00E94EF0F809190
S1132760E10285FF3DC0E1EEF2E080818F7D808350
S1132770E2EEF2E08081816080838091D3058695CA
S11327808F70E1EDF5E0282F2295220F207E9181B4
S11327909F71922B9183282F2695269526959281B9
S11327A09E7F922B9283609188056F700E941B100C
S11327B0EDECF5E080818D7F80838091CE058130C2
S11327C019F4808182608083E1EDF5E081818D7F61
S11327D081838BE20E94C5078AE20E94AA0706C091
S11327E08091FA04833011F40E9495108091FA04C8
S11327F08150823080F48091D20582FB882780F951
S1132800C82F80E0D82FC650DB4FCB52DF4F8091CA
S1132810D1058F7188838091E20280FF16C0E2EEB9
S1132820F2E080818E7F8083ECEFF4E08181817F10
S11328308183E091D205E695E695E695E370F0E0B4
S1132840EE50FE4F80818093FB02DF91CF9108957B
S1132850CF92DF92EF92FF920F931F93CF93DF9368
S11328608091E10280FFEBC0E1EEF2E080818E7F97
S113287080838091FC0485FF1BC38091E10288233F
S11328804CF480818F7780830E94A0128091FC0495
S113289085FF15C38091FA04833009F44DC020F0FC
S11328A0863008F0C9C092C00E9429118091FC04AE
S11328B084FDC2C08091D20582FB992790F9869548
S11328C081709813B9C08091D105982F92959695EF
S11328D097708091D2058170880F880F880F892B9B
S11328E021E030E002C0220F331F8A95E2F7809185
S11328F0CD0581FB002700F910E08091D70591E117
S1132900909FF001919FF00D1124E80FF11DEE0F3F
S1132910FF1FE757FA4F90818181E1E4F2E0492FEC
S113292042234095922B94239183982F932390953F
S1132930832B8923808380C00E9429118091FC0409
S113294084FD7AC02091D105822F82958695877067
S11329502091D2052170220F220F220F282B81E013
S113296090E0AC0102C0440F551F2A95E2F7209174
S1132970D305322F36953F70BC0102C0660F771F16
S11329803A95E2F7E1E4F2E0362F34233095462B12
S1132990342331832295269527703091D4053170E4
S11329A0330F330F330F232B02C0880F991F2A953F
S11329B0E2F79C01262B372B832F8523282F209584
S11329C0872F852B892B8223808336C08091FD0439
S11329D080FD32C08091FC04882374F12091D105DC
S11329E0822F8295869587702091D2052170220FBF
S11329F0220F220F282B81E090E0AC0102C0440F8B
S1132A00551F2A95E2F72091D30526952F7002C011
S1132A10880F991F2A95E2F7E1E4F2E0282F242396
S1132A202095842B82238183892F8523282F209529
S1132A30892F852B822380830E94D30339C28091FE
S1132A40E10281FF10C2E1EEF2E080818D7F80839C
S1132A500E94F0073091CB012091CD01E1E4F2E036
S1132A60822F832B80959581892385838091FC0413
S1132A7085FF61C1118210828091FE04982F929586
S1132A809695969593708091FF048170880F880FB6
S1132A90892B853029F460E08091D7050E940603D4
S1132AA08091FA04833009F453C020F0863008F092
S1132AB0C5C09EC08091FC0484FF22C08091FD04A7
S1132AC080FDBCC0982F991F9927991F0EEF14E021
S1132AD0D8018C918370880F892B0E94AA07F80172
S1132AE08081982F92959695969593708091FF0486
S1132AF08170880F880F892B885F0E94AA079EC067
S1132B0007ED15E0D801EC91B7E0EB9FF00111243B
S1132B10E050FF4F85810E94AA078091CD0581FB7B
S1132B20CC24C0F8D12CF801808191E19C9DF00166
S1132B309D9DF00D1124E80FF11DEE0FFF1FE757C7
S1132B40FA4F90818181E1E4F2E09183808376C041
S1132B508091FC0484FF29C08091FD0480FF06C09D
S1132B60809188058F700E94AA0768C09091FD0427
S1132B70991F9927991F0EEF14E0D8018C91837047
S1132B80880F892B0E94AA07F8018081982F9295BB
S1132B909695969593708091FF048170880F880FA5
S1132BA0892B885F0E94AA0749C08091D305982F7A
S1132BB096959F7021E030E0A90102C0440F551F93
S1132BC09A95E2F7E1E4F2E0418382958695877075
S1132BD09091D4059170990F990F990F892B02C088
S1132BE0220F331F8A95E2F7852F832B808326C01B
S1132BF08091FD0480FF0AC08091FC0484FD06C01E
S1132C00809188058F700E94AA0718C08091FC04E7
S1132C1088231CF40E942F0D11C08091D305869542
S1132C208F7021E030E0A90102C0440F551F8A953E
S1132C30E2F7CA01E1E4F2E0418390838091CB01A1
S1132C408093D8058091CD0586958170C82F50E07A
S1132C50D52F8091CE0590E0C817D90769F48091EB
S1132C60CD0581FF11C08091E10282FD0DC08091EC
S1132C70CD018093D80508C08091CD0581FF04C0A3
S1132C808091CD018093D8058091FE028695837052
S1132C9090E002970CF00CC18091FA048330D8F4D0
S1132CA08091FC0484FF17C08091FD0480FF07C05D
S1132CB08091D30586958F700E94AA070CC09091CD
S1132CC0FD04991F9927991F8091FE048370880F32
S1132CD0892B0E94AA078091CD0581FBEE24E0F8A0
S1132CE0F12C8091CE0590E0E816F906A1F08091D0
S1132CF0CD0581FD08C0E8EDF5E09091CD0180811E
S1132D00892B8083D5C0E8EDF5E09091CB018081DB
S1132D10892B8083CDC08091CD0581FDC9C0809170
S1132D20E10282FFC5C0E8EDF5E09091CD0180811C
S1132D30892B8083BDC0E1E4F2E01182108290917E
S1132D40CE05913031F010F0923029F43093D8054B
S1132D5002C02093D8059091FA04933029F050F1E1
S1132D60963008F04BC03AC084FF0AC08091FD043D
S1132D7080FF44C0809188058F700E94AA073EC0DE
S1132D808091E20282FF07C08091D30586958F70FF
S1132D900E94AA0733C09091D30592959695977097
S1132DA08091D4058170880F880F880F892B0E9429
S1132DB0AA0724C084FF22C08091FD0480FF08C0BC
S1132DC08091DA05869586958F700E94AA0716C0B1
S1132DD0809188058F700E94AA0710C09091FD040D
S1132DE090FF08C084FD06C0809188058F700E9402
S1132DF0AA0704C0882314F40E942F0D8091FE02B8
S1132E008695837090E002970CF052C08091FC0488
S1132E10807909F04DC08091FD0480FD49C0809106
S1132E20CE05823039F4E8EDF5E09091CD01808152
S1132E30892B80838091D30586958F700E94AA0781
S1132E408091FA048330A1F59091D30592959695DB
S1132E5097708091D4058170880F880F880F892B13
S1132E600E94AA0725C080910603813009F580914C
S1132E70FC0485FD1DC03091CB012091CD01922F22
S1132E80932BE1E4F2E0492F4095858184238583E7
S1132E908091CE05813039F018F0823039F008C0C5
S1132EA03093D80505C02093D80502C09093D80567
S1132EB0E1E4F2E09091D8058581892B8583DF9147
S1132EC0CF911F910F91FF90EF90DF90CF900895D5
S1132ED06F927F928F929F92AF92BF92CF92DF9226
S1132EE0EF92FF920F931F93CF93DF938091FC0493
S1132EF085FFB1C10E948C1D182F8F3F09F42BC38D
S1132F008091FA04833009F40DC118F4813028F457
S1132F1022C3853009F45FC11EC38091FC0484FF81
S1132F2037C00E94E3098091FD0480FF2DC0809189
S1132F30D205982F9295969597708091D3058170BC
S1132F40880F880F880F892B482F50E0212F30E0FD
S1132F504217530709F4FFC2E1EEF2E09081906258
S1132F609083E1EDF5E0912F9F70792E770C92819B
S1132F70917E972992830E94C5078091D3058695F7
S1132F808F700E94AA07E7C2812F0E94720FE3C2CA
S1132F9086FF0FC0E8E1F2E080818F7B8083E1ED62
S1132FA0F5E0812F8F719081907E792E782A70823E
S1132FB0D2C28091D705803109F052C08091D205E8
S1132FC082FB662460F8712CC30186509B4FFC0180
S1132FD0EB52FF4F8081811708F4BDC2812F0E94FC
S1132FE0E1078091CD0581FBAA24A0F8B12C809142
S1132FF0D20582FB882480F8912C81E090E002C005
S1133000880F991F1A95E2F722E22A9DF0012B9D61
S1133010F00D1124E80DF91DEE0FFF1FE050FB4FDA
S11330202081318128273927318320832091D705B6
S113303031E13A9DF0013B9DF00D1124E20FF11DA9
S1133040EE0FFF1FE757FA4F208131818227932724
S113305091838083E1EEF2E08081806180837BC292
S11330608091D20582FB882780F9C82F80E0D82F71
S1133070C650DB4FCB52DF4F8881811708F46BC2F7
S1133080812F0E94E1078091CD0581FBCC24C0F8FB
S1133090D12C8091D20582FBEE24E0F8F12C4091F2
S11330A0D705F701E295F295F07FFE27E07FFE2732
S11330B022E22C9DC0012D9D900D1124E80FF91FD3
S11330C0E10FF11DEE0FFF1FEC5FFA4F81E090E07E
S11330D09C01042E02C0220F331F0A94E2F7608180
S11330E07181262737273183208321E12C9DF0012C
S11330F02D9DF00D1124E40FF11DEE0FFF1FE75776
S1133100FA4F02C0880F991F1A95E2F72081318186
S11331108227932791838083E1EEF2E080818061AE
S1133120808319C28091FC0484FF23C08091FD0434
S113313080FF1BC01C3008F00EC2809188058F7080
S1133140811709F408C20E94C507E8E8F5E0812F59
S11331508F709081907F982B90830E94AA07E1EE54
S1133160F2E0808180628083F6C1812F0E94720F19
S1133170F2C11C30E8F4812F8F70E1EDF5E0282FC7
S1133180220F9281917E922B92832091D2052295D7
S1133190269527709170990F990F990F922B891783
S11331A009F4D9C1E1EEF2E0808180628083D3C169
S11331B0E1EDF5E0912F9295990F907E82818F71C8
S11331C0892B828313FB882780F993819E7F792E34
S11331D0782A7382C0C18091FD0480FF1FC0809152
S11331E0FC0484FD1BC01C3008F0B5C18091880527
S11331F08F70811709F4AFC10E94C507E8E8F5E0B4
S1133200812F8F709081907F982B90830E94AA07C2
S1133210E1EEF2E08081806280839DC1812F8F7016
S1133220E1EDF5E0282F220F9281917E922B92837B
S11332302091D2052295269527709170990F990FA8
S1133240990F922B891709F486C1E1EEF2E080818F
S11332508062808380C18091FA04833011F40E94DB
S113326029110E948C1DC82F8F3F09F474C18091CD
S1133270FA04833009F4A6C020F0853009F411C1A2
S11332806AC18091FC0484FF58C08091FD0480FFD2
S113329015C08091DA05869586958F700E94C507C2
S11332A0E9EDF5E08C2F8F70282F220F220F9181EA
S11332B0937C922B91830E94AA074DC1CC3008F0D5
S11332C04AC18091E10284FF16C0E1EEF2E0808100
S11332D08F7E8083609188056F709091D20592955E
S11332E0969597708091D3058170880F880F880F09
S11332F0892B0E94581208E815E0F80180818F702C
S11333000E94C5078C2F8F70F8019081907F982BB5
S113331090830E94AA07F80160816F709091D20592
S11333209295969597708091D3058170880F880F38
S1133330880F892B0E941B100EC186FF1AC0809132
S1133340D205982F9295969597708091D3058170A8
S1133350880F880F880F892B90E02C2F30E082177C
S1133360930769F0609188056F708C2F0E94581242
S113337006C0609188056F708C2F0E941B109C2FD3
S11333809F70E1EDF5E0392F330F4281407E8C2FA1
S11333908295880F807EC181292F269526952695B2
S11333A0942F932B922B9283CC7190819F71908355
S11333B0C82BC1831092FC02EDEFF2E08181897F7A
S11333C08183C9C08091FC0484FF2CC08091FD04DA
S11333D080FFC1C0CC3008F0BEC0809188058F70DA
S11333E08C1709F4B8C00E94C50708E815E08C2FB3
S11333F08F70F8019081907F982B90830E94AA0788
S1133400F80160816F709091D205929596959770AE
S11334108091D3058170880F880F880F892B0E94B3
S11334201B1099C0CC3058F58C2F8F7001ED15E02E
S1133430382F330FF8019281907EC295CC0FC07E55
S113344021812F71C22BC183282F2695269526957D
S1133450932B922B9283609188056F700E941B10AE
S1133460F801818190819F7190838C7F8183109278
S1133470FC02EDEFF2E08181897F81836CC0E1ED94
S1133480F5E09C2F9295990F907E82818F71892B04
S11334908283C3FB882780F9C381CE7FC82BC38373
S11334A05AC08091FD0480FF2CC08091FC0484FDEF
S11334B028C0CC3008F04FC0809188058F708C17DD
S11334C009F449C00E94C50708E815E08C2F8F70E5
S11334D0F8019081907F982B90830E94AA07F801AD
S11334E060816F709091D2059295969597708091B6
S11334F0D3058170880F880F880F892B0E941B10B9
S11335002AC08C2F8F7001ED15E0382F330FF8018E
S11335109281907EC295CC0FC07E21812F71C22BE7
S1133520C183282F269526952695932B922B92833B
S1133530609188056F700E941B10F8018181908151
S11335409F7190838C7F81831092FC02EDEFF2E0F7
S11335508181897F8183DF91CF911F910F91FF90AA
S1133560EF90DF90CF90BF90AF909F908F907F901F
S11335706F900895CF93DF93CDB7DEB7C154D109CF
S11335800FB6F894DEBF0FBECDBF6091D505862F70
S113359082958695869583706091D6056370660FD3
S11335A0660F682B70E0CE0101960E94040281E44C
S11335B0FE013196A9EBB4E001900D928A95E1F7F2
S11335C0E1EEF2E0808180628083CF5BDF4F0FB653
S11335D0F894DEBF0FBECDBFDF91CF910895CF9396
S11335E0DF93CDB7DEB7C154D1090FB6F894DEBF6F
S11335F00FBECDBF4091D405842F881F8827881F14
S11336004091D5054F73440F482B50E020E030E043
S1133610A1E0B0E0AC0FBD1FA20FB31FF901E75446
S1133620FB4F8081982F9F70807F892B8C932F5F15
S11336303F4F4217530764F78091F90422968FAFE6
S113364022978091D505982F92959695969593708B
S11336508091D6058370880F880F892BBE016F5F18
S11336607F4F90E00E943502CF5BDF4F0FB6F89496
S1133670DEBF0FBECDBFDF91CF9108958093AE0022
S1133680EDEAF0E080818823ECF78091AE000895A4
S1133690CF93DF93C1E4D2E088810E943E1B8981ED
S11336A00E943E1B8A810E943E1B8B810E943E1B0E
S11336B08C810E943E1B8D810E943E1B8E810E9444
S11336C03E1B8F810E943E1B88850E943E1B719881
S11336D0719ADF91CF910895CF93DF93709A80E030
S11336E00E943E1BCCE3D2E0888380E00E943E1B14
S11336F0898380E00E943E1B8A8380E00E943E1BF7
S11337008B8380E00E943E1B8C8370989881292FC4
S11337102695ECEFF4E0308120FB34F9492F4695EF
S11337204695218140FB20F921832A81422F42952D
S11337304F7040FB36F93083E7E3F2E030819327A2
S113374039273083932398833181998193273927AB
S11337503183932399833281932F9227292F23270F
S1133760228392239A8323819B819227292723836F
S113377092239B83948189279827948389238C831C
S1133780DF91CF91089540E050E0DA01AA50BE4F96
S11337908C91E82FE695E695E695E770F0E0E45C19
S11337A0FD4F208130E0982F977002C03595279502
S11337B09A95E2F7217086FB992790F9292720FB37
S11337C086F98C934F5F5F4F43325105F1F60895AC
S11337D08091120286FF44C08091FA04853009F07A
S11337E03FC0E2E1F2E080818F7B80838091FD0421
S11337F080FD36C08091D405982F991F9927991F71
S11338008091D5058F73880F892BE82FF0E0E7545A
S1133810FB4F909188052091D30526952F709295A2
S1133820907F922B90838093F9048F5F8F778034FD
S113383061F0E1EDF5E0938180FB97F99383869540
S11338409481907C892B848309C0E1EDF5E0838128
S1133850806883838481807C8F6184830E94EF1AD3
S1133860089593B1292F26952695ECEFF4E08081F5
S113387020FB87F9808380914A02982789278093C7
S11338804A02892382FD03C080934B0209C094E05D
S1133890892780934B02E2EEF2E08081826080838C
S11338A0809106038130C9F0ECEFF4E0808185FB60
S11338B0222720F990914B029695922790FB85F947
S11338C0808385FF08C0211108C00E94730E0895EB
S11338D00E94080F08952130D9F3089580911402AD
S11338E086FF29C09091FC0494FD25C0E4E1F2E038
S11338F08F7B8083EEECF5E080818F5F8083833063
S113390029F41092CE0595FF0BC002C095FF06C0A6
S1133910E1EEF2E080818460808308958D7F31F44C
S1133920EDECF5E080818D7F80830895EDECF5E08A
S11339308081826080830895CF92DF92EF92FF921C
S11339400F931F93CF93DF938091FC0484FDDBC01E
S113395086FFB8C0E8E1F2E080818F7B80838091AC
S1133960FA04882321F0853009F47DC0CCC0E1EB52
S1133970F0E0808187608083A0EBB0E08C918C9331
S113398020E730E0E9018881826088838C9181603E
S11339908C938081886080838CE88093B3008091CD
S11339A0E30280FF08C0E3EEF2E080818E7F808333
S11339B08CE10E94E107EDECF5E0808181FBEE24CF
S11339C0E0F8F12C84E48E9DD0018F9DB00D11247C
S11339D0AC5FBA4F90E4ED0119929A95E9F79081A2
S11339E091FB002700F910E092E2909FD001919F93
S11339F0B00D1124A757BA4FED0119929A95E9F722
S1133A00908191FBCC24C0F8D12C8C9DF0018D9D2C
S1133A10F00D1124E650FB4F178216821186108692
S1133A208FE08093CF0580E18093D005E1EDF5E050
S1133A308181877E8860818388E18093FB020E9474
S1133A409A09609188056F709091D2059295969528
S1133A5097708091D3058170880F880F880F892B08
S1133A600E94581250C0E1EBF0E0808187608083AF
S1133A70A0EBB0E08C918C93C0E7D0E088818260A9
S1133A8088838C9181608C938081886080838CE8AA
S1133A908093B3008091E30280FF08C0E3EEF2E07C
S1133AA080818E7F808381E20E94E10780E4E9EBDC
S1133AB0F4E0DF011D928A95E9F71092F9040E945F
S1133AC0EF1A21C08091FA0481110EC01092B00047
S1133AD0E0E7F0E080818D7F808386E48093B3000B
S1133AE08CE10E94AA070FC0853069F41092B000DF
S1133AF0E0E7F0E080818D7F808386E48093B300EB
S1133B0081E20E94AA07DF91CF911F910F91FF904C
S1133B10EF90DF90CF9008958091F60186FD09C063
S1133B2081E090E0FC01EA50FE4F208126FF0AC0AC
S1133B3002C080E090E0FC01EA50FE4F90819F7B40
S1133B409083089501968031910561F78FEF089570
S1133B508091130286FF3DC0E3E1F2E08F7B808316
S1133B608091FC0484FF24C08091FA04853001F51F
S1133B708091D405982F991F9927991F8091D50575
S1133B808F73880F892B71F08158982F9F77E1EDFF
S1133B90F5E0238180FB27F9238396958481807C3B
S1133BA0892B8483E1EEF2E0808180628083089532
S1133BB08EE20E94E1078FE20E94E107EDECF5E05E
S1133BC0808182FB222720F991E0922790FB82F9E1
S1133BD0808308959091CD0592FD39C0482F50E01F
S1133BE097E0899FF0011124E050FF4F93819F3F9C
S1133BF0C1F02091D9052F7130E04217530749F4E1
S1133C00875FE9EDF5E08F719081907E892B808349
S1133C100895E9EDF5E08F719081907E892B808382
S1133C2008959091D9059F71963049F4863039F4FE
S1133C30E9EDF5E08081807E8F6080830895E9ED71
S1133C40F5E08F719081907E892B80830895482FB1
S1133C5050E097E0899FF0011124E050FF4F9381D9
S1133C609F3FC1F12091D905922F92959695977017
S1133C702091DA052370220F220F220F292B30E026
S1133C8042175307A1F4875FE9EDF5E0282F229549
S1133C90220F207E90819F71922B9083869586952A
S1133CA08695837091819C7F892B81830895E9EDAA
S1133CB0F5E0282F2295220F207E90819F71922B70
S1133CC09083869586958695837091819C7F892BB8
S1133CD0818308959091D905292F229526952770DF
S1133CE09091DA059370990F990F990F922B963052
S1133CF061F4863051F4E9EDF5E08081806E8083D3
S1133D0081818C7F816081830895E9EDF5E0282F1E
S1133D102295220F207E90819F71922B908386950D
S1133D2086958695837091819C7F892B81830895E4
S1133D30482F50E097E0899FF0011124E050FF4F95
S1133D4093819F3F19F4863009F09EC0CA010996F9
S1133D50FC01EE0FFF1FEE0FFF1FEE0FFF1FE81B0E
S1133D60F90BEA5FFE4F6081262F217030E0220FAD
S1133D70331FFA01EE0FFF1FEE0FFF1FEE0FFF1FA1
S1133D80E41BF50BEA5FFE4F30813170232B2130A9
S1133D9021F130F02230F1F1233009F458C00895B4
S1133DA0FA01EE0FFF1FEE0FFF1FEE0FFF1FE41BC4
S1133DB0F50BEA5FFE4F208121602083FC01EE0FAA
S1133DC0FF1FEE0FFF1FEE0FFF1FE81BF90BEA5F4B
S1133DD0FE4F80818E7F80830895FA01EE0FFF1FCE
S1133DE0EE0FFF1FEE0FFF1FE41BF50BEA5FFE4F04
S1133DF020812E7F2083FC01EE0FFF1FEE0FFF1F9B
S1133E00EE0FFF1FE81BF90BEA5FFE4F8081816014
S1133E1080830895FA01EE0FFF1FEE0FFF1FEE0FD0
S1133E20FF1FE41BF50BEA5FFE4F20812160208316
S1133E30FC01EE0FFF1FEE0FFF1FEE0FFF1FE81B2D
S1133E40F90BEA5FFE4F8081816080830895FA0157
S1133E50EE0FFF1FEE0FFF1FEE0FFF1FE41BF50B0E
S1133E60EA5FFE4F20812E7F2083FC01EE0FFF1FAF
S1133E70EE0FFF1FEE0FFF1FE81BF90BEA5FFE4F6B
S1133E8080818E7F80830895FA01EE0FFF1FEE0F6D
S1133E90FF1FEE0FFF1FE41BF50BEA5FFE4F80814F
S1133EA0982F909590FB80F980830895CF93C82F25
S1133EB08091FC0484FD23C00E94F00787E0C89F22
S1133EC0F0011124E050FF4F83818F3F59F080911E
S1133ED0D7058C1304C0875F8093D7051DC0C0939A
S1133EE0D7051AC08091D705863031F4C63021F445
S1133EF08FE08093D70510C0C093D7050DC0809183
S1133F00FD0480FF06C00E94F0078C2F0E94EA1D6A
S1133F1003C08C2F0E94981ECF9108950F931F9376
S1133F20CF93DF938091060286FD07C0809107023C
S1133F3086FDA2C022E130E096C0E6E0F2E0808196
S1133F408F7B80838091FA04813008F439C18330F7
S1133F5020F08450823060F133C18091FC0484FDF0
S1133F6009C00E94F00784E10E94AA0780E18093BF
S1133F70D70526C18091FD0480FF22C10E94F0076D
S1133F8084E10E94AA078091CD0582FD07C0E9ED76
S1133F90F5E08081807E8061808312C1E9EDF5E0E7
S1133FA080818F71808381818C7F8260818308C14D
S1133FB08091D505982F92959695969593708091BA
S1133FC0D6058370880F880F892B09F4F9C0E1EEB8
S1133FD0F2E0808180648083C1EDD5E08B818F77AE
S1133FE08B831C828D818C7F8D8384E10E94AA0740
S1133FF00E94BA1AE091D4058E2F881F8827881F43
S1134000E091D505EF73EE0FE82BF0E0E754FB4F9A
S11340106081862F8F70382F330F9A81907E462FC0
S11340204295440F407E29812F71242B2983282F08
S1134030269526952695932B922B9A8362956F70DD
S1134040E8E8F5E09081907F962B90839091FC04B2
S113405095FF06C0E1EEF2E0808180628083B0C00B
S11340600E941B10ADC0F901EA50FE4F808186FF0B
S1134070A1C0E901619704C0C0E0D0E021E130E0D3
S1134080F901EA50FE4F90819F7B90839091FA044E
S1134090913008F495C0933018F0963028F090C011
S11340A08C2F0E94561F8CC08091FC0484FF04C096
S11340B08C2F0E94981E84C08091D505982F9295CC
S11340C09695969593708091D6058370880F880F86
S11340D0892B90E0205131098217930709F470C0AD
S11340E0E1EEF2E020812064208301ED15E0F80187
S11340F023812F7723832481207C2483FC01E958A6
S1134100FE4F80810E94C507CF5FCF709C2F929590
S1134110990F990F907CF80184818F73892B848384
S11341209C2F9695969585818C7F892B8583EC2F82
S1134130F0E0E958FE4F80810E94AA070E94BA1A53
S1134140E091D4058E2F881F8827881FE091D5051C
S1134150EF73EE0FE82BF0E0E754FB4F6081862FFE
S11341608F70382F330FF8019281907E462F42953D
S1134170440F407E21812F71242B2183282F2695E3
S113418026952695932B922B928362956F70E8E87F
S1134190F5E09081907F962B90839091FC0495FF9D
S11341A006C0E1EEF2E080818062808309C00E9453
S11341B01B1006C02F5F3F4F2C31310509F053CF40
S11341C0DF91CF911F910F910895CF92DF92EF92DB
S11341D0FF920F931F93D092EA02C092E9021093C8
S11341E0E5020093E402F0924F02E0924E020E9434
S11341F03B26BA01A9014051510961097109DB014A
S1134200CA011AF40196A11DB11DB595A7959795FC
S113421087958093B8001092B9001092EF021F9115
S11342200F91FF90EF90DF90CF90089591E09093DD
S1134230EF0220914E0230914F022617370748F4BF
S113424020914E0230914F0230934D0220934C0244
S113425004C070934D0260934C0291E09093F0027D
S11342609093DD028093EB0285EA8093BC0008956D
S113427091E09093EF0220914E0230914F02261765
S1134280370748F420914E0230914F0230934D028B
S113429020934C0204C070934D0260934C02209111
S11342A04E0230914F022417350748F420914E02F4
S11342B030914F023093E8022093E70204C05093F8
S11342C0E8024093E70293E09093F00291E0909328
S11342D0DD028093EB0285EA8093BC0008951F926F
S11342E00F920FB60F9211242F933F934F935F9326
S11342F06F937F938F939F93AF93BF93EF93FF93AA
S11343008091B900887F8093E002E091E0028E2FD3
S113431090E0FC013897E13CF10508F025C1E65A2C
S1134320FF4F0C945A268091DD02813019F08230BF
S113433059F014C01092F8021092F7028091EB0227
S1134340880F8093BB000AC01092F8021092F70203
S11343508091EB02880F81608093BB0085EC809391
S1134360BC000DC12091F7023091F80280914C02FB
S113437090914D0228173907F1F48091F0028330AF
S113438039F482E08093DD0285EA8093BC00F7C0B3
S1134390E091E902F091EA02309711F080E009958A
S11343A085E98093BC00ECEBF0E0808184FDFDCFD7
S11343B01092EF02E4C02091E4023091E502809172
S11343C0F7029091F802AC014F5F5F4F5093F802EF
S11343D04093F702F901E80FF91F80818093BB0035
S11343E085E88093BC00CBC02091E4023091E502C3
S11343F08091F7029091F802AC014F5F5F4F5093A8
S1134400F8024093F702F901E80FF91F2091BB006D
S113441020838091E7029091E8022091F702309185
S1134420F80201978217930721F485E88093BC0072
S1134430A6C085EC8093BC00A2C02091E402309118
S1134440E5028091F7029091F802AC014F5F5F4F53
S11344505093F8024093F702F901E80FF91F2091F5
S1134460BB002083E091E902F091EA02309711F059
S113447080E0099585E98093BC00ECEBF0E0808155
S113448084FDFDCF1092EF027AC01092F8021092D0
S1134490F70285EC8093BC0072C02091F702309142
S11344A0F80280914E0290914F0228173907A8F420
S11344B02091E4023091E5028091F7029091F80294
S11344C0AC014F5F5F4F5093F8024093F702F9013C
S11344D0E80FF91F2091BB00208385EC8093BC007A
S11344E04EC08091F7029091F8028093EC02E09123
S11344F0E902F091EA02309711F080E0099585EC29
S11345008093BC003CC01092F8021092F7022091F4
S1134510F7023091F80280914E0290914F022817D1
S11345203907A8F42091E4023091E5028091F70262
S11345309091F802AC014F5F5F4F5093F8024093A3
S1134540F702F901E80FF91F80818093BB0085EC25
S11345508093BC0014C0E091E902F091EA02309724
S113456019F08091E002099585E98093BC00ECEB99
S1134570F0E0808184FDFDCF85EA8093BC00FF914B
S1134580EF91BF91AF919F918F917F916F915F91C7
S11345904F913F912F910F900FBE0F901F90189540
S11345A0FC01428374836383118210820895FF9215
S11345B00F931F93CF93DF93EC01062F0E94502398
S11345C0182FF9804F2D50E0CA0101962A81622FDD
S11345D070E00E942726288130E08217930729F48F
S11345E0812F0E94532380E012C0EB81FC81EF0DE8
S11345F0F11D0083298130E0C90101966A8170E0D0
S11346000E9427268983812F0E94532381E0DF9112
S1134610CF911F910F91FF900895CF93DF93EC01F9
S11346200E94502339812881321718F0C32FC21BEE
S113463004C09A81C32FC90FC21B0E9453238C2F1D
S1134640DF91CF910895FC01808170E09B01280FD8
S1134650311DC901628170E00E9427260380F48124
S1134660E02DE80FF91F808108951F93CF93DF9306
S1134670EC01162F0E945023482F8881212F30E00F
S1134680B901680F711DCB016A8170E00E94272671
S11346908883842F0E945323DF91CF911F91089523
S11346A08FB7F89408958FBF0895881F8827881FAF
S11346B0089591E0883F08F490E0892F0895982F99
S11346C0907F903CB1F058F4903941F118F490384F
S11346D019F524C0903A11F1903BF1F41FC0903EBB
S11346E0E9F018F4903D29F017C0903F21F0933F72
S11346F099F482E0089590E0FC01E15FF109EF3064
S1134700F10540F4E55EFE4F0C945A2683E00895CB
S113471082E0089580E0089580E0089583E008959C
S113472081E008950F93DC01ED91FC9100E020E01D
S113473048EF61E070E009950F9108950F93DC0153
S1134740ED91FC9100E020E04AEF61E070E0099512
S11347500F9108950F93DC01ED91FC9100E020E0AE
S11347604CEF61E070E009950F910895FC017583A9
S113477064830895FC01778366830895FC01778B35
S1134780668B0895CF93DF93EC011DA21FA21EA296
S1134790BC01685D7F4F40EC88519F4F0E94D0223E
S11347A01B821A821D821C821F821E821986188611
S11347B01B861A861D861C861F861E86198A188AE1
S11347C01B8A1A8A1D8A1C8A1F8A1E8A198E188EB1
S11347D01B8E1A8E1D8E1C8E1F8E1E8E19A218A261
S11347E0DF91CF910895EF92FF920F931F93CF9390
S11347F0DF93662399F0EA016150062F10E00F5F02
S11348001F4F040F151F7C0128EEE20EF11C699165
S1134810C7010E94D722C017D107C9F7DF91CF91F2
S11348201F910F91FF90EF900895FC0171836083B5
S11348300895AF92BF92CF92DF92EF92FF920F93BF
S11348401F93CF93DF9300D01F92CDB7DEB77C01C7
S11348506B01142FB22EA02EDC0195968C919597A6
S1134860843011F55A96ED91FC915B97309709F4D9
S1134870CCC09B0121503109ABEABAEA0E94602600
S1134880969587959C01220F331F820F931F4983AE
S1134890BA820B834C2D481B9E012F5F3F4F682F1C
S11348A0792FC7010995BEC06230710509F455C05E
S11348B06330710529F06130710509F0A1C088C029
S11348C0842F807F803AF1F028F48038A9F0803971
S11348D069F02FC0803EE1F0803F01F1803B49F553
S11348E0D7011296ED91FC91139725C0D701149628
S11348F0ED91FC9115971FC0D7011696ED91FC918F
S1134900179719C0D7011896ED91FC91199713C008
S1134910D7011A96ED91FC911B970DC0423F09F007
S113492074C0D7011C96ED91FC911D97309741F40A
S11349306CC0E0E0F0E0309709F467C0123F31F456
S11349402A2D4B2D62EFC70109956CC02A2D4B2DE2
S1134950612F6F70C701099565C0842F807F803DEA
S113496051F0803F71F0803C01F5D7011E96ED9126
S1134970FC911F971CC0D7015096ED91FC91519763
S113498016C0433F41F4D7015296ED91FC915397E1
S1134990309799F43AC0413FC1F5D7015496ED914F
S11349A0FC915597309749F430C0E0E0F0E030973F
S11349B061F1812F8D7F813F29F44B2D612FC70138
S11349C0099530C04B2D612F6F70C70109952AC01E
S11349D0842F0E945923882331F0D7015696ED91F4
S11349E0FC91579707C0163F81F4D7015896ED9173
S11349F0FC915997309749F0612FC701099512C06E
S1134A006430710510F0C12CD12CD7015C96ED9166
S1134A10FC915D97309731F00A2D2B2D412FB60173
S1134A20C7010995D7015E96ED91FC915F97309788
S1134A3031F00A2D2B2D412FB601C70109950F9096
S1134A400F900F90DF91CF911F910F91FF90EF90F6
S1134A50DF90CF90BF90AF900895FF920F931F9374
S1134A60CF93DF93EC01162F862F0E9459238823BE
S1134A7069F0FDA081E08DA300E020E0412F61E01A
S1134A8070E0CE010E941924FDA2A4C0812F0E94CF
S1134A905523882309F45DC08DA1843029F01AA31D
S1134AA081E090E09FA38EA3812F0E945F23813039
S1134AB031F0B8F0823079F0833081F046C081E083
S1134AC08DA300E020E0412F61E070E0CE010E9460
S1134AD019241DA27FC082E08DA37CC083E08DA336
S1134AE079C0103F19F0173F51F02BC084E08DA31B
S1134AF080EF8AA381E090E09FA38EA36BC04EA1B8
S1134B005FA19A01ABEABAEA0E946026969587955E
S1134B109C01220F331F820F931FFA01E81BF90B2C
S1134B20EC0FFD1F87EF82A3BA016F5F7F4F7FA356
S1134B306EA30CA12BA14AA1CE010E9419241DA28F
S1134B4049C01DA21FA21EA245C01DA21FA21EA2D3
S1134B5041C0EDA1EE23F1F14EA15FA19A01ABEAB0
S1134B60BAEA0E946026969587959C01220F331F0E
S1134B70820F931F9A01281B390BDE01A20FB31F6A
S1134B8092961C93BA016F5F7F4F7FA36EA321306F
S1134B90310589F022303105E9F40CA12BA14AA199
S1134BA0CE010E9419248DA18430A1F081E090E00F
S1134BB09FA38EA30FC0E23069F400E02BA14AA1A9
S1134BC0CE010E9419248DA1843021F081E090E06F
S1134BD09FA38EA3DF91CF911F910F91FF90089512
S1134BE0CF92DF92EF92FF920F931F93CF93DF93B5
S1134BF06C01DC019096ED91FC919197309709F04E
S1134C000995860108511F4FC8010E940D23E82E03
S1134C10F12CE114F10491F0C0E0D0E060E0C801AF
S1134C200E942323682FC6010E942D2561E0C8013C
S1134C300E9435232196CE15DF0581F7DF91CF91B0
S1134C401F910F91FF90EF90DF90CF90089597FB05
S1134C50072E16F4009407D077FD09D00E946F2622
S1134C6007FC05D03EF4909581959F4F089570956B
S1134C7061957F4F0895052E97FB1EF400940E94C2
S1134C80522657FD07D00E94832607FC03D04EF41A
S1134C900C94522650954095309521953F4F4F4F97
S1134CA05F4F089590958095709561957F4F8F4FD4
S1134CB09F4F0895EE0FFF1F0590F491E02D099486
S1134CC0A29FB001B39FC001A39F700D811D112449
S1134CD0911DB29F700D811D1124911D0895AA1B71
S1134CE0BB1B51E107C0AA1FBB1FA617B70710F0D3
S1134CF0A61BB70B881F991F5A95A9F78095909505
S1134D00BC01CD010895A1E21A2EAA1BBB1BFD0113
S1134D100DC0AA1FBB1FEE1FFF1FA217B307E40796
S1134D20F50720F0A21BB30BE40BF50B661F771FEE
S1134D30881F991F1A9469F76095709580959095CE
S1114D409B01AC01BD01CF010895F894FFCF93
S1134D4E000402FF001500010404FF001600020413
S1134D5E08010117000304100201300004042004AA
S1134D6E01310005044008003200060480FF0033C0
S1134D7E00070301FF003500080302FF0036000997
S1134D8E0304FF002C000A0308FF002D000B040887
S1134D9E010018000C0410020019000D0420040078
S1134DAE1A000E044008011B008F0320FF0034007C
S1134DBE100401FF00140014151617303132333568
S1134DCE362C2D01010201040108011001200140BD
S1134DDE01800101000200040008001000200040C0
S1134DEE00800001020202040208021002200240A6
S1134DFE0280021003200340038003010402040412
S1134E0E040804100420044004800401050205046F
S1134E1E05080510052005400580051006200640EE
S1134E2E06800601070207040708071007400780DB
S1134E3E07010C18102020212223242526271819B7
S1134E4E1A1B1C1D1E1F15161708090A0B0C0D0E16
S1134E5E0F0001021011121314010111115555FF07
S1134E6EFFFFFF000102030405000F0B07030100FF
S9030000FC
