S017000054522D3830382D6669726D776172652E7372656310
S11300000C942A010C942B060C94EE050C944701D5
S11300100C9447010C9458060C9447010C94F20676
S11300200C9447010C9447010C9447010C941B0752
S11300300C9447010C9447010C948B060C944701D3
S11300400C9447010C9447010C949E070C94D3071D
S11300500C9447010C9447010C9447010C944701FC
S11300600C944B210C9447010C9447010C944701C8
S11300700C9447010C9447010C9447010C944701DC
S11300800C9447010C9407070C9447010C94470106
S11300900C9447010C9447010C9447010C944701BC
S11300A00C9447010C9447010C9411070C944701DC
S11300B00C9447016F21902290229022902290224A
S11300C0902290226F2190229022902290229022BE
S11300D0902290228E21902290229022902290228F
S11300E09022902287229022902290229022902285
S11300F0902290228E21902290229022902290226F
S11301009022902287229022902290229022902264
S1130110902290229022902290229022902290224B
S113012090229022E52190229022902290229022E7
S11301309022902287229022902290229022902234
S113014090229022D02190229022902290229022DC
S113015090229022F92190229022902290229022A3
S1130160902290222122902290229022902290226A
S1130170902290222122902290229022902290225A
S1130180902290222122902290229022902290224A
S1130190902290222122902290229022902290223A
S11301A09022902229229022902290229022902222
S11301B090229022832290229022902290229022B8
S11301C09022902229229022902290229022902202
S11301D09022902283229022902290229022902298
S11301E0902290224D2290229022902290229022BE
S11301F0902290225F22902290229022902290229C
S1130200902290225F22902290229022902290228B
S11302109022902263229022902290229022902277
S11302209022902283229022902290229022902247
S1130230902290228322642362236423662366230C
S11302406C2366236C236C236C236C236C2366233E
S11302506C236C2311241FBECFEFD8E0DEBFCDBFCB
S113026012E0A0E0B1E0E6E0FDE402C005900D92EA
S1130270A433B107D9F725E0A4E3B2E001C01D928D
S1130280AE39B207E1F70E943A0A0C9481260C9425
S113029000000895CF92DF92EF92FF920F931F9385
S11302A00F2EF9E4CF2EF1E0DF2EF02D0F2EFDE816
S11302B0EF2EF12CF02D04E512E020E035E34CE0C4
S11302C050E060E074E284EF90E00E94C12010935B
S11302D0E3020093E2021093FA020093F9021093EE
S11302E0FE020093FD021093F2020093F1021093B8
S11302F0F6020093F5021F910F91FF90EF90DF90AB
S1130300CF900895CF93DF93EC019091F302911174
S1130310FCCF50E0542F44275295507F460F571F6F
S1130320E091E202F091E3025083E091E202F09165
S1130330E30241834BE850E062E070E080E50E9414
S113034014219091F3029111FCCFE091FD02F09100
S1130350FE028BE8DE0101900D928A95E1F7CE0151
S1130360DF91CF9108950F931F93CF93DF939C0157
S11303708A019091F3029111FCCFC62FD0E0DC2FBB
S1130380CC27D295D07FC20FD31FE091F902F09110
S1130390FA02D083E091F902F091FA02C18380E875
S11303A0F801A6E5B2E001900D928A95E1F762E8C2
S11303B070E080E50E94F220C058DF4F9091F30274
S11303C09111FCCFE091F902F091FA02D083E0910F
S11303D0F902F091FA02C183F801E058FF4F8BE073
S11303E0A6E5B2E001900D928A95E1F76DE070E028
S11303F080E50E94F2208091F3028111FCCFDF910D
S1130400CF911F910F910895CF93DF93EC019091B9
S1130410F3029111FCCF6E577E4F7695762F6627A7
S113042077956795E091E202F091E3027083E091A1
S1130430E202F091E302618341E450E062E070E0A3
S113044080E50E9414219091F3029111FCCFE09178
S1130450F502F091F60281E4DE0101900D928A9595
S1130460E1F7CE01DF91CF9108959C019091F302C1
S11304709111FCCFC9018E579E4F9695982F8827CE
S113048097958795E091F902F091FA029083E091B3
S1130490F902F091FA02818381E4FB01A6E5B2E05E
S11304A001900D928A95E1F763E470E080E50E9483
S11304B0F2208091F3028111FCCF0895EAE7F0E085
S11304C0808184608083ACE7B0E08C9180648C93FD
S11304D08C9183608C93AEE7B0E08C9188608C93B0
S11304E08081806880830895EAE7F0E080818064F9
S11304F08083808186FDFDCF809178009091790082
S113050008958CE08093810082E080936F0085E001
S11305108093910086E48093B4008093B300E2E07A
S1130520F3E08081887F808308959093890080938D
S1130530880020918400309185008217930728F465
S1130540019790938500809384000895CF93DF935F
S113055080919400909195009093080380930703F1
S11305608091E60284FF0AC0E6EEF2E080818F7E8D
S1130570808310928500109284000EC0CFEFD2E0E9
S1130580888599850E9495028C81882329F09C8115
S11305908A81891B8C5F8A83E6EEF2E080818F7DFD
S11305A080831092030310929500109294000E948D
S11305B09D0DE1E8F0E0808184608083DF91CF913C
S11305C00895CF93DF938091940090919500EFEF7D
S11305D0F2E09187808720853185ABEABAEA0E94F0
S11305E03C269695879596958795969587959187B8
S11305F080878091E60284FF0AC0E6EEF2E0808103
S11306008F7E808310928500109284000CC0CFEFFF
S1130610D2E0888599850E9495028C81882319F0FF
S1130620888181508A83E6EEF2E080818F7D808329
S11306301092030310929500109294000E949D0D55
S1130640E1E8F0E0808184608083DF91CF910895B8
S1130650E5E4F2E010868681807F868387818F7D42
S1130660878385B1877E85B90895FF920F931F9381
S1130670CF93DF93C82FF62E0E942803E5EEF2E015
S1130680908193FFFDCFC09334020C2F10E087E0DC
S1130690C89FE0011124C050DF4FE8818E2F881FCE
S11306A08827881FE981E770EE0FE82BF0E0EB5B09
S11306B0FD4F90818A81892B80838D810E9412084D
S11306C09B819F3FC1F0A5E4B2E013962C91139750
S11306D0F801EE0FFF1FEE0FFF1FEE0FFF1FE01BD1
S11306E0F10BEC5FFE4F8081817081958227892315
S11306F0822713968C9380E48F1540F4E5E4F2E0AE
S113070080858160808784E10E9412085D9AEEE60C
S1130710F0E080818260808385B5856085BDE5EEEB
S1130720F2E08081877F8083DF91CF911F910F91C9
S1130730FF900895CF93DF93CDB7DEB72A970FB616
S1130740F894DEBF0FBECDBF8AE0E9E1F2E0DE013E
S1130750119601900D928A95E1F780919405982F56
S1130760929596959770809195058170880F880F62
S1130770880F892B21E030E002C0220F331F8A95B5
S1130780E2F7E09103058E2F829586958695837016
S1130790E0910405E170EE0FEE0FE82BF0E03197E5
S11307A0EE0FFF1F81E090E08C0F9D1FE80FF91FF3
S11307B08081918182239323892BD9F0A0919A057A
S11307C097E0A99FD0011124A050BF4FEC918E2F28
S11307D0881F8827881F1196EC911197E770EE0FF8
S11307E0E82BF0E0EB5BFD4F908112968C91892B06
S11307F080832A960FB6F894DEBF0FBECDBFDF917B
S1130800CF9108953F924F925F926F927F928F9211
S11308109F92AF92BF92CF92DF92EF92FF920F938B
S11308201F93CF93DF9300D000D0CDB7DEB7F82E5F
S11308305D9A0E942803EEE6F0E090819260908336
S113084095B5956095BD90910305292F2295269520
S113085026952370909104059170990F990F922B0E
S113086009F4F5C00E949A03F2C05A824982D40165
S11308708C91982F929596959770F501808181704F
S1130880880F880F880F892BD6019C9196959170BB
S1130890F701399EE00DF11D1124E80FF11DEE0F53
S11308A0FF1FE75FFA4F808191810B8002C096950C
S11308B087950A94E2F780FF77C0F30180818F71F6
S11308C090E02B813C818217930709F42B9AD30182
S11308D08C91982F929596959770EDE9F5E080812B
S11308E08370880F880F880F892B90E02B813C81BF
S11308F08217930709F42C9AEB81FC81EE0FFF1FFA
S1130900EE0FFF1FEE0FFF1F4B815C81E41BF50B05
S1130910EA5FFE4F808180FD47C0A1E0B5E08C9185
S113092084FD04C0F80180810E941208AB81BC815F
S1130930AA0FBB1FAA0FBB1FAA0FBB1F2B813C8191
S1130940A21BB30BA050BF4FEC918E2F881F88279A
S1130950881F1196EC91E770EE0FE82BF0E0EB5B4B
S1130960FD4FD80113979C918081892B8083F801D6
S1130970329780818F3FC1F020914802EB81FC8146
S1130980EE0FFF1FEE0FFF1FEE0FFF1F4B815C8169
S1130990E41BF50BEC5FFE4F9081917091959227CB
S11309A089238227809348028B819C8101969C83B2
S11309B08B83095F1F4F409709F057CF80919005B3
S11309C086958170E981FA8192E2899FE00DF11D9B
S11309D01124EE0FFF1FEB5FFA4F80919405982FBF
S11309E0929596959770809195058170880F880FE0
S11309F0880F892B20813181D90102C0B695A79532
S1130A008A95E2F7A0FF4FC0E5E4F2E080858160BB
S1130A10808780919C058F71803109F42B9A809195
S1130A209C05982F92959695977080919D0583705B
S1130A30880F880F880F892B803109F42C9A8091B4
S1130A40010584FD30C084E10E9412082CC005E039
S1130A5011E01C821B824F2C512C0F2EF4E98F2E97
S1130A60F5E09F2EF02D0F2EF5E9AF2EF5E0BF2E09
S1130A70F02D0F2EF0E9CF2EF5E0DF2EF02D7201D0
S1130A80EE0CFF1CEE0CFF1CEE0CFF1CEE0CFF1C0E
S1130A900F2EF2E23F2EF02D0F2EFCE96F2EF5E023
S1130AA07F2EF02DE2CE0F900F900F900F90DF91DC
S1130AB0CF911F910F91FF90EF90DF90CF90BF9057
S1130AC0AF909F908F907F906F905F904F903F90EA
S1130AD008958091070286FF08C0E7E0F2E08F7B6B
S1130AE0808360E080E00E9435038091080286FFE5
S1130AF008C0E8E0F2E08F7B808360E081E00E9440
S1130B0035038091090286FF08C0E9E0F2E08F7B9B
S1130B10808360E082E00E94350380910A0286FFB0
S1130B2008C0EAE0F2E08F7B808360E083E00E940B
S1130B30350380910B0286FF08C0EBE0F2E08F7B67
S1130B40808360E084E00E94350380910C0286FF7C
S1130B5008C0ECE0F2E08F7B808360E085E00E94D7
S1130B60350380910D0286FF08C0EDE0F2E08F7B33
S1130B70808360E086E00E94350380910E0286FF48
S1130B8008C0EEE0F2E08F7B808360E087E00E94A3
S1130B90350380910F0286FF08C0EFE0F2E08F7BFF
S1130BA0808360E088E00E9435038091100286FF14
S1130BB008C0E0E1F2E08F7B808360E089E00E947E
S1130BC035038091110286FF08C0E1E1F2E08F7BDA
S1130BD0808360E08AE00E94350308951F920F929B
S1130BE00FB60F9211242F933F934F935F936F93FC
S1130BF07F938F939F93AF93BF93EF93FF938091D2
S1130C00E60284FF15C0E2E0F3E0808186958695D4
S1130C1086958F5F8770282F220F220F220F9081D5
S1130C20977C922B9083813029F40E94A60202C003
S1130C300E94A602FF91EF91BF91AF919F918F9176
S1130C407F916F915F914F913F912F910F900FBEC4
S1130C500F901F9018951F920F920FB60F921124A8
S1130C602F933F934F935F936F937F938F939F93B0
S1130C70AF93BF93EF93FF930E94E102329AEAE0AD
S1130C80F3E080818095908180FB90F99083FF91BF
S1130C90EF91BF91AF919F918F917F916F915F91F0
S1130CA04F913F912F910F900FBE0F901F90189569
S1130CB01F920F920FB60F9211242F933F934F93CD
S1130CC05F936F937F938F939F93AF93BF93EF93B0
S1130CD0FF934C9B08C0E1E0F5E080818062808353
S1130CE00E949A0E07C0E1E0F5E080818F7D808349
S1130CF00E942D0FFF91EF91BF91AF919F918F9122
S1130D007F916F915F914F913F912F910F900FBE03
S1130D100F901F9018951F920F920FB60F921124E7
S1130D202F933F934F935F936F937F938F939F93EF
S1130D30AF93BF93CF93DF93EF93FF9315BCEEE68E
S1130D40F0E080818D7F808385B1877E85B9E5EE73
S1130D50F2E08081886080838091000581112FC03A
S1130D60A091340287E0A89FD0011124A050BF4F66
S1130D70EC918E2F881F8827881F1196EC9111976C
S1130D80E770EE0FE82BF0E0C5E4D2E0EB5BFD4F3B
S1130D9012968C91809590818923808384E10E94AE
S1130DA02D0888858E7F8887E091340287E0E89F4C
S1130DB0F0011124E050FF4F85810E942D08FF911E
S1130DC0EF91DF91CF91BF91AF919F918F917F91DF
S1130DD06F915F914F913F912F910F900FBE0F90A4
S1130DE01F9018951F920F920FB60F9211248F9394
S1130DF0EF93FF93E7EEF2E0808181608083FF91BF
S1130E00EF918F910F900FBE0F901F9018951F9226
S1130E100F920FB60F9211240F900FBE0F901F90D8
S1130E2018951F920F920FB60F9211240F900FBEB8
S1130E300F901F9018951F920F920FB60F921124C6
S1130E402F933F934F935F936F937F938F939F93CE
S1130E50AF93BF93EF93FF938091E60284FD5DC04F
S1130E600E949D0DE2E0F3E02081277081E0820F73
S1130E70982F97708081887F892B8083233009F095
S1130E804CC08081887F808380910005813051F43B
S1130E908CE093E00E946E238091010585FF3DC0A4
S1130EA0329A3BC08330C9F5E0EBF0E080818F7E5D
S1130EB08083A1EBB0E08C9180648C93808180630B
S1130EC080831092B2008091010585FD329A809151
S1130ED0E70281FF22C0E2E0F3E0808186958695F7
S1130EE086958F5F8770282F220F220F220F908103
S1130EF0977C922B9083813081F4E7EEF2E080813D
S1130F008D7F80835C9A10920103E5EEF2E080818C
S1130F108160808380818D7F8083FF91EF91BF9179
S1130F20AF919F918F917F916F915F914F913F917D
S1130F302F910F900FBE0F901F9018951F920F9234
S1130F400FB60F9211242F933F934F935F936F9398
S1130F507F938F939F93AF93BF93EF93FF93CF931D
S1130F60DF931F92CDB7DEB78091C6008983AE01AF
S1130F704F5F5F4F61E08CE093E00E94CF230F90BE
S1130F80DF91CF91FF91EF91BF91AF919F918F919D
S1130F907F916F915F914F913F912F910F900FBE71
S1130FA00F901F9018951F920F920FB60F92112455
S1130FB02F933F934F935F936F937F938F939F935D
S1130FC0AF93BF93EF93FF9389EB94E00E94E922E0
S1130FD0882361F060E089EB94E00E94FF22809313
S1130FE0C60061E089EB94E00E94112389EB94E050
S1130FF00E94E922811105C0E1ECF0E080818F7D3F
S11310008083FF91EF91BF91AF919F918F917F91D9
S11310106F915F914F913F912F910F900FBE0F9061
S11310201F901895CF93DF9390E0880F991FDC01F0
S1131030AC57BE4F2C91E22FEF70F0E0EB5BFD4F0D
S1131040EC01CD57DE4F30818881832B8083822F42
S113105080618C93DF91CF910895CF93DF9390E0DB
S1131060880F991FDC01AC57BE4F2C91E22FEF7013
S1131070F0E0EB5BFD4FEC01CD57DE4F88818095AE
S1131080908189238083822F8F7E8C93DF91CF91EF
S11310900895E82FF0E0EE0FFF1FEC57FE4F90810C
S11310A094FF03C00E942D0808950E941208089519
S11310B0E5E4F2E082818F70828387818072878386
S11310C083818F70838386818F7C868308950F93B9
S11310D01F93CF93DF9305E011E0C0E0D0E0FE0161
S11310E0EE0FFF1FEE0FFF1FEE0FFF1FEC1BFD0B9C
S11310F0EA5FFE4F808180FF05C0F80180810E9475
S1131100120804C0F80180810E942D082196095F0D
S11311101F4FC031D10519F7DF91CF911F910F9166
S113112008958091FF04833009F449C038F0843075
S113113009F458C0853009F470C008958091010500
S113114084FF31C08091020580FF2AC00E945808A4
S11311508091900582FD0DC0E0919C05EF7187E0C0
S1131160E89FF0011124E050FF4F85810E9412088E
S11311700895E0919C058E2F829586958770E09165
S11311809D05E370EE0FEE0FEE0FE82B87E0E89F6E
S1131190F0011124E050FF4F85810E941208089548
S11311A00E9467080895E0919A0587E0E89FF0019E
S11311B01124E050FF4F85810E9412080895809108
S11311C0010584FF03C00E9467080895E0919A0511
S11311D087E0E89FF0011124E050FF4F85810E94D1
S11311E0120808958091010584FF03C00E946708D6
S11311F00895E09198058E2F829586958695837043
S1131200E0919905E370EE0FEE0FE82BF0E0E9585A
S1131210FE4F80810E94120808958091010584FF89
S113122003C00E9467080895E09198058E2F829567
S1131230869586958370E0919905E370EE0FEE0F25
S1131240E82BF0E0E958FE4F80810E9412080895CF
S11312500F931F93CF93DF9310928F0510928E05F7
S113126080919A05803151F19091950592FB442724
S113127040F950E020919005A1E0B0E002C0AA0F2F
S1131280BB1F8A95E2F7FA01E150FB4FED56FF4F81
S1131290608170E0C0E0D0E080E090E0429552953B
S11312A0507F5427407F54272695217032E2239F94
S11312B0400D511D112401E010E03CC080919505C2
S11312C082FBEE27E0F9F0E020919005DF01A150C8
S11312D0BB4FAD56BF4F4C9150E060E070E080E0F2
S11312E090E02695217032E2239FE00DF11D112438
S11312F0EE0FFF1FEB5FFA4FA1E0B0E020813181D8
S1131300082E02C0369527950A94E2F720FF09C0FB
S11313109D01082E02C0220F331F0A94E2F7622BAC
S1131320732B0196481759074CF770938F056093F8
S11313308E051EC0FA01E80FF91FEE0FFF1FE75FCD
S1131340FA4F208131812A233B23232B49F0980132
S1131350082E02C0220F331F0A94E2F7C22BD32BAC
S113136001966817790734F7D0938F05C0938E05DB
S1131370DF91CF911F910F91089580914A02482FD8
S1131380437C8091010588236CF58091FF0484508F
S1131390823040F580919705982F991F9927991FBE
S11313A0809198058F73880F892B90E08031910587
S11313B02CF4842F806280934A0208958032910530
S11313C02CF4842F806180934A020895C0972CF4F2
S11313D0842F886080934A020895842F84608093C8
S11313E04A02089580919505869586958695837021
S11313F08E5F21E030E0B90102C0660F771F8A9545
S1131400E2F7CB01842B80934A020895E5E4F2E0ED
S113141011821082089580910B03811102C00E94F1
S1131420540D0E94001C0E943B1B0E94921B809141
S1131430FF04833029F48091010584FF0E9469052B
S11314400E94750B0E943C0C0E94811C0E947C1D12
S11314500E94411C0E94E10F0E94681F0E94910893
S11314600E94B71B0E9469170E943E140E94171B1A
S11314705D980895559A8DB18F608DB9399A209AE7
S1131480739841982898719A80E58093AC00EDEAAE
S1131490F0E08081816080836A9A3A9A239A249A40
S11314A0E9E6F0E080818E608083EDE6F0E0808103
S11314B08061808304E915E0F801828191819F7144
S11314C09183807E828380E00E9412088DE10E94D5
S11314D0120882E20E9412080E94171B84B58260DF
S11314E084BD80E187BD8CE093E00E949E236DE380
S11314F07BE08CE093E00E94922367E57BE08CE044
S113150093E00E94962368E57BE08CE093E00E94E0
S11315109A230E94260B0F2EFCE9EF2EF5E0FF2EF6
S1131520F02DF7018181837C81830E948102EFEF9A
S1131530F2E088E18083DD24D394D282148684E0AF
S113154081830E945E02E5EEF2E080818860808300
S1131550E6EEF2E080818E7F8083C1E0D5E0888171
S11315608F7D88830F2EFFEFAF2EF4E0BF2EF02D7A
S11315701092910584E20E941208E0E9F5E080816E
S11315808B7F80838EE20E941208F501D082D18283
S1131590F80181818D7F8B7F81838AE20E9412080A
S11315A087E20E941208F80182818F718068828329
S11315B08381816083838881807F8883EDE8F5E07F
S11315C08081807F80838A818F738A838B818E7FE1
S11315D08B830E944A01789460E080E00E9440106E
S11315E0898181788062898385EEF7018083818196
S11315F08C7F816081838CE093E00E94CC250E94E3
S11316000B0AF9CF0F931F93CF93DF93EB01122FA4
S1131610642F89EB94E00E94B322C230D10528F0F4
S1131620612F89EB94E00E94B322239729F4602F61
S113163089EB94E00E94B322E1ECF0E080818062C7
S11316408083DF91CF911F910F9108958FE1809353
S1131650C4001092C50088E98093C100519A40ECFF
S113166069EF73E089EB94E00E94AC2262E07BE0D6
S11316708CE093E00E94F1230895E0919D05E695A6
S1131680E695EF70F0E06F7070E0E617F70771F41D
S11316908091000581110AC08091010585FD06C075
S11316A0403120F4622F842F0E9435030895089559
S11316B080910B038823C1F06A3F39F06C3F69F0D5
S11316C0683F91F40E94A6020895E1E0F5E080816C
S11316D0806280830E949A0E0895E1E0F5E08081A3
S11316E08F7D80830E942D0F0895CF93DF9300D0C8
S11316F000D000D0CDB7DEB786E0E3E2F2E0DE0151
S1131700119601900D928A95E1F78091160286FF59
S1131710AAC0E6E1F2E08F7B80838091010584FF1B
S11317200CC08091F101882321F081508093F10154
S11317300EC085E08093F1010AC08091F1018F5FB2
S1131740863019F08093F10102C01092F1013091BA
S1131750F101FE01E30FF11D21812093FF04E5E473
S1131760F2E081E090E002C0880F991F3A95E2F719
S11317709481907C892B84838FEF820F8230E8F4EC
S1131780E1E0213009F4E0E0A4E9B5E011968C91A0
S11317901197E0FB82F911968C931197F0E0E150D8
S11317A0FB4FED56FF4F8081982F9F718C91807E67
S11317B0892B8C930E94280956C02330E9F4809128
S11317C09505982F929596959770809196058170BE
S11317D0880F880F880F892B90E00C970CF443C076
S11317E0E4E9F5E08281817E86618283E5EEF2E0C0
S11317F080818062808337C02430A9F50E94891AD1
S1131800E4E9F5E083818F7783838481807C84831A
S11318106091BE04862F8F70382F330F9281907E93
S1131820462F4295440F407E21812F71242B218322
S1131830282F269526952695932B922B9283629595
S11318406F70EDE8F5E09081907F962B90839091F6
S1131850010595FF06C0E5EEF2E080818062808399
S113186002C00E94401026960FB6F894DEBF0FBE49
S1131870CDBFDF91CF910895CF93DF93CDB7DEB77E
S11318802B970FB6F894DEBF0FBECDBF86E0E9E21A
S1131890F2E0DE01119601900D928A95E1F785E060
S11318A0EFE2F2E0DE01179601900D928A95E1F7DE
S11318B0E5E4F2E094819F7394838281807F828344
S11318C02091010524FFA4C08091170286FF7AC0ED
S11318D0E7E1F2E08F7B8083809135028F5F853072
S11318E019F08093350202C01092350280913502BE
S11318F0FE01E80FF11D8781809300051092B1006D
S11319001DBA1092680094E0909300038230B1F104
S113191028F4882391F0813031F054C08330B1F041
S11319208430F1F14FC010920B03E1E8F0E08081C4
S1131930846080834298729845C081E080930B0351
S11319401092950010929400729A3CC010920B036E
S1131950E1E8F0E08081846080835A9A8AB1886DDE
S11319608AB9E0EBF0E0808182608083E1EBF0E013
S11319708081876080831092B20024C081E08093CC
S11319800B03109295001092940072988AB187729A
S11319908AB9E99AE8E6F0E080818460808312C025
S11319A0EFEFF2E081E084871092950010929400AA
S11319B07298E89A329AAAE0B3E08C918E7F8C9365
S11319C080E3818380910005843099F480910A0337
S11319D0E5E4F2E0482F417050E0809135028150F7
S11319E002C0440F551F8A95E2F78281482B428337
S11319F052C0E5E4F2E081E090E00090350202C0DC
S1131A00880F991F0A94E2F79281892B828343C03D
S1131A102091170226FF22C0E7E1F2E02F7B20830A
S1131A20209136022F5F263019F02093360202C02F
S1131A301092360220913602DE01A20FB11DE1E0C0
S1131A40F5E011962C91322F3F702081207F232BBB
S1131A502083E4E9F5E02381217823832091360271
S1131A60223068F42A5F41E050E0BA0102C0660FF8
S1131A70771F2A95E2F7962B909349020CC02250C7
S1131A8041E050E0BA0102C0660F771F2A95E2F7E1
S1131A90862B809347022B960FB6F894DEBF0FBEB9
S1131AA0CDBFDF91CF9108950E94740290933A02C2
S1131AB0809339022091370230913802821B930BB4
S1131AC09595879595958795820F931F90933802E6
S1131AD0809337022BE834E0A901481B590BEFEF40
S1131AE0F2E057834683868197810E949502089588
S1131AF080919705982F991F9927991F8091980590
S1131B008F73880F892B282F30E0203131051CF486
S1131B100E94120808952032310524F480510E9455
S1131B20120808952033310524F480520E941208CB
S1131B30089580530E94120808958091E60286FF5A
S1131B4028C080910305869586958F5F8F70E1E0AC
S1131B50F5E0282F220F220F9281937C922B9283FF
S1131B6090E020910205322F3695377022952F7020
S1131B702770329F900111248217930751F4E5EEE8
S1131B80F2E0808181608083E6EEF2E080818F7BE9
S1131B908083909194059295969597708091950580
S1131BA08170880F880F880F892B382F3170EFEFE1
S1131BB0F2E092819F5F92832081921381C0909181
S1131BC0E60290FF0CC0E0919505E695E695E69552
S1131BD0E370F0E0EE50FE4F90819093FF029091FD
S1131BE0E6029923C4F490910205692F661F6627C3
S1131BF0661F909103059370990FE1E0F5E0962B31
S1131C00292F220F9181917F922B9183E6EEF2E0AE
S1131C1090819F779083909102059E7081F031119D
S1131C200EC09091E602992354F0E1E0F5E0928130
S1131C30937C9283E6EEF2E090819064908390919D
S1131C40E60296FD05C0E5EEF2E090819160908396
S1131C5021E0280FE4E9F5E0322F3295330F307E8E
S1131C6090819F71932B908323FB992790F9218175
S1131C702E7F292B218390E021FB442740F950E05B
S1131C8041505B4FFA01ED56FF4F208130E082173F
S1131C90930749F48091010585FF05C0E5EEF2E064
S1131CA0808180688083E4E0F3E080818F5F982FF7
S1131CB0937080818C7F892B80831092010321C0D3
S1131CC0EFEFF2E0928180818695981303C033236D
S1131CD099F002C03323A9F0EFEFF2E022814081B2
S1131CE030E04695809102058695877090E0840FD8
S1131CF0911D2817390729F4E5EEF2E0808182600E
S1131D00808380910B038130A1F4EFEFF2E08481B2
S1131D108F5F8483918189130CC010920303E6EED4
S1131D20F2E0808180628083E1E8F0E080818B7F53
S1131D3080830895E4E9F5E083818F778383848148
S1131D40807C8483E2E0F3E08081887F80838091DB
S1131D500B038130A1F4E4E9F5E08081806E808397
S1131D60818181608183EFEFF2E080818150828301
S1131D70A6EEB2E08C9180618C9314820FC0E4E9EA
S1131D80F5E080818F71808381818E7F81831092C1
S1131D900103E6EEF2E080818F7E8083E5EEF2E0DF
S1131DA080818B7F8083809191058D7F31F4E0E980
S1131DB0F5E080818D7F808305C0E0E9F5E08081D6
S1131DC082608083809100059EEF980F923058F4D2
S1131DD0E7EEF2E0808182608083E2E0F3E08081DC
S1131DE0877C80830FC0E5EEF2E090819160908360
S1131DF0813041F48CE093E00E947A238CE093E0FC
S1131E000E946E238091FF048330B9F48091E6022E
S1131E1082FF13C0E6EEF2E080818B7F8083E0E9ED
S1131E20F5E0808182FB992790F990FB81F980830A
S1131E30E5EEF2E08081806280838BEE87BD1092B4
S1131E408500109284001092950010929400E1E8AD
S1131E50F0E080818460808308958091950581FFFE
S1131E600BC0E4E9F5E081818D7F81838BE20E94E0
S1131E702D088AE20E9412080E945808E0919A05EF
S1131E8087E0E89FF0011124E050FF4F85810E9414
S1131E9012088091960586958F70E4E9F5E0282F65
S1131EA02295220F207E91819F71922B9183282F5E
S1131EB026952695269592819E7F922B92839381D7
S1131EC091789383E5EEF2E090819F7D9083E6EE36
S1131ED0F2E09081977F9083E5E4F2E01182108232
S1131EE00E9412088091FF04833071F4909196054A
S1131EF0929596959770809197058170880F880FB9
S1131F00880F892B0E94120880910B0381110CC049
S1131F1080910005813039F4429872988CE093E006
S1131F200E94862301C05C9880E187BD0895CF9309
S1131F30DF93863090F4E1E0F5E0918180FB97F93E
S1131F4091838695837092819C7F892B8283E6EEB0
S1131F50F2E080818068808315C08850863090F4D8
S1131F60E1E0F5E0282F2295220F220F207C9281B8
S1131F709F73922B928382FB992790F983818E7FA2
S1131F80892B838390910205991F9927991FC3E098
S1131F90D5E088818370880F892B0E94120888817C
S1131FA0982F9295969596959370809104058170DB
S1131FB0880F880F892B885F0E941208DF91CF91C8
S1131FC008958091180286FF2CC08091010584FF3A
S1131FD028C0E8E1F2E080818F7B808380919505C1
S1131FE0869586958695837069F08D5F8370E4E9A4
S1131FF0F5E0982F990F990F990F8181877E892B8E
S1132000818305C0E4E9F5E0818188618183E5EE9F
S1132010F2E0808180618083E6EEF2E0808181607D
S113202080830E94BD0908958091E50282FF18C053
S1132030E5EEF2E080818B7F808380919105813091
S113204049F010F08230D9F4E0E9F5E080818D7F29
S113205080830895E0E9F5E08081826080830895BB
S113206080919105823059F4E0E9F5E0808181FBAB
S1132070222720F991E0922790FB81F9808308952B
S1132080EF92FF920F931F93CF93DF93CDB7DEB7F9
S1132090CB58D1090FB6F894DEBF0FBECDBF462F83
S11320A060E0782FCE0101960E94820184E4FE0153
S11320B03196A5E0B5E001900D928A95E1F784E4AC
S11320C0FE01EB5BFF4FA9E4B5E001900D928A9508
S11320D0E1F7C657DF4F8881CA58D04080939205F4
S11320E0C557DF4F8881CB58D04080939305C7579D
S11320F0DF4FE881C958D040E3700F2EF4E9EF2E8A
S1132100F5E0FF2EF02D9E2F990F990F990FD7010F
S113211011968C911197877E892B11968C93F0E000
S1132120EE50FE4F80818093FF020E9428090E9496
S1132130BD098091950582FB002700F910E001504C
S11321401B4FF801ED56FF4F8081982F9F71F701C7
S11321508081807E892B8083C557DF4F0FB6F8942A
S1132160DEBF0FBECDBFDF91CF911F910F91FF90C6
S1132170EF900895EF92FF920F931F93CF93DF9305
S1132180809101058F70B9F08091970586958F5FD6
S11321908F73E4E9F5E0282F220F93819178922B35
S11321A09383909101059F70891305C0E6EEF2E0D8
S11321B08081886080838091E60283FF68C0C4E9DF
S11321C0D5E08B8181788B83E6EEF2E08081877F96
S11321D0808380818160808360918D056F700F2E74
S11321E0F6E9EF2EF5E0FF2EF02DF70190819295A0
S11321F09695977007E915E0F80180818170880F42
S1132200880F880F892B0E94401089818D7F8983D4
S11322108BE20E942D088AE20E94120880919505A3
S1132220282F229526952770F70180818170880FC9
S1132230880F880F822B982F990F8A81817E892B92
S1132240282F229526952770F80190819170990F77
S1132250990F990F922B392F3295330F307E2981A4
S11322602F71232B29839695969596958E7F892B8E
S11322708A83E0E9F5E0808182FB992790F990FB5D
S113228081F98083E5EEF2E0808180628083DF91D2
S1132290CF911F910F91FF90EF9008950F931F938B
S11322A0CF93DF938091E60281FF11C1E6EEF2E065
S11322B080818D7F80838091FF049FEF980F9230FF
S11322C008F08AC060919A05603171F5909190058B
S11322D08091950582FB442740F950E096959170D2
S11322E0FA0122E2929FE00DF11D1124EE0FFF1F6F
S11322F0EB5FFA4F90919405929596959770817043
S1132300880F880F880F892B21E030E0A90102C0D3
S1132310440F551F8A95E2F7CA0120813181822B2F
S1132320932B9183808334C04091900580919505CF
S113233082FB222720F930E090919405929596959E
S113234097708170880F880F880F892BF901E295A7
S1132350F295F07FFE27E07FFE2741FB992790F955
S113236052E2959FE00DF11D1124E80FF11DEE0FCF
S1132370FF1FE75FFA4F81E090E002C0880F991FCA
S11323806A95E2F720813181822B932B918380839C
S1132390EEE8F5E080919405982F929596959770C4
S11323A0809195058170880F880F880F892B21E013
S11323B030E0A90102C0440F551F8A95E2F7CA0113
S11323C020813181822B932B91838083E5EEF2E08F
S11323D08081806180837BC0833009F078C08091E4
S11323E0010585FF09C08F7009F071C0E6EEF2E0C7
S11323F08081886080836BC0E6EEF2E0808182FB9E
S1132400992790F981E08927908180FB92F9908344
S1132410808182FF41C060918D056F7006E915E0EF
S1132420F8019081929596959770C7E9D5E08881D7
S11324308170880F880F880F892B0E94401080912B
S11324409505282F229526952770F80180818170A3
S1132450880F880F880FE4E9F5E0822B982F990FF5
S11324608281817E892B282F229526952770988139
S11324709170990F990F990F922B392F3295330F31
S1132480307E21812F71232B2183969596959695E5
S11324908E7F892B82831BC08091960586958F70D1
S11324A0E4E9F5E0282F2295220F207E91819F7187
S11324B0922B9183282F26952695269592819E7F8F
S11324C0922B928360918D056F700E944010DF9172
S11324D0CF911F910F910895CF93DF93CDB7DEB7BE
S11324E0CB58D1090FB6F894DEBF0FBECDBF982FDD
S11324F024E4E5E0F5E0DE01119601900D922A95C1
S1132500E1F724E4E9E4F5E0DE01AB5BBF4F0190C1
S11325100D922A95E1F780919205C657DF4F888383
S1132520CA58D04080919305C557DF4F8883CB5854
S1132530D040209195052695269526952370C7575A
S1132540DF4F2883C958D040AE014F5F5F4F80E012
S11325500E94B301C557DF4F0FB6F894DEBF0FBE1C
S1132560CDBFDF91CF910895CF93DF93E4E9F5E0F8
S113257080818F71808381818E7F81838091E50248
S113258084FF16C0E5EEF2E080818F7E8083609147
S11325908D056F70909195059295969597708091A1
S11325A096058170880F880F880F892B0E946C1202
S11325B08091FF04843009F06BC080919705982FB7
S11325C0991F9927991F809198058F73880F892BDC
S11325D0E1E0E80FEF77A4E9B5E013969C91139737
S11325E0E0FB97F913969C9313972E2F2695149638
S11325F09C911497907C922B14969C9390E020913C
S1132600FE0430E08217930744F1E1E0F5E08081B5
S11326108F7D80830E942D0F6091BE04962F9F7042
S1132620E4E9F5E0292F220F9281917E922B928387
S113263062956F70EDE8F5E08081807F862B808362
S1132640809195058295869587709170990F990F61
S1132650990F892B0E9440100EC1F0E0E254FB4F09
S11326608081982F9F70E4E9F5E0292F220F928151
S1132670917E922B9283EDE8F5E082958F709081A4
S1132680907F892B8083E5EEF2E0808180628083F5
S113269080919305803109F474C08091950581FF80
S11326A05CC081FB992790F981E08927E4E9F5E092
S11326B0918180FB91F991838BE20E942D088AE23B
S11326C00E9412080E9414108091E50285FF3DC00B
S11326D0E5EEF2E080818F7D8083E6EEF2E080819A
S11326E0816080838091960586958F70E4E9F5E09A
S11326F0282F2295220F207E91819F71922B918306
S1132700282F26952695269592819E7F922B92833B
S113271060918D056F700E944010E0E9F5E08081C2
S11327208D7F808380919105813019F4808182604E
S11327308083E4E9F5E081818D7F81838BE20E94CF
S11327402D088AE20E94120865C08091FF0483303C
S113275009F060C00E94BA105DC08AE20E942D0890
S11327608BE20E9412088091950581FB992790F9CC
S113277081E08927E4E9F5E0918180FB91F9918377
S113278049C00E9414108091E50285FF3DC0E5EE2A
S1132790F2E080818F7D8083E6EEF2E080818160CB
S11327A080838091960586958F70E4E9F5E0282F63
S11327B02295220F207E91819F71922B9183282F45
S11327C026952695269592819E7F922B92836091E1
S11327D08D056F700E944010E0E9F5E080818D7FE7
S11327E0808380919105813019F480818260808397
S11327F0E4E9F5E081818D7F81838BE20E942D08DD
S11328008AE20E94120806C08091FF04833011F40A
S11328100E94BA108091FF048150823090F480911C
S1132820950582FB882780F9C82F80E0D82FC150F6
S1132830DB4FCD56DF4F809194058F7188830E94C2
S113284028098091E60280FF16C0E6EEF2E080815E
S11328508E7F8083E1E0F5E08181817F8183E09157
S11328609505E695E695E695E370F0E0EE50FE4FAB
S113287080818093FF02DF91CF910895EF92FF92C0
S11328800F931F93CF93DF938091E50280FFE1C004
S1132890E5EEF2E080818E7F80838091010585FFE3
S11328A00AC38091E50288234CF480818F7780836A
S11328B00E94B4128091010585FF04C38091FF0436
S11328C0833009F43FC020F0863008F0BBC084C0D8
S11328D00E944E118091020580FDB4C080910105D3
S11328E084FDB0C08091950582FB992790F9869567
S11328F081709813A7C080919405982F929596950E
S11329009770809195058170880F880F880F892BA7
S113291021E030E002C0220F331F8A95E2F7EEE88F
S1132920F5E090818181E5E4F2E0492F422340956E
S1132930922B94239183982F93239095832B89230F
S1132940808380C00E944E118091010584FD7AC06D
S113295020919405822F8295869587702091950504
S11329602170220F220F220F282B81E090E0AC016E
S113297002C0440F551F2A95E2F720919605322F85
S113298036953F70BC0102C0660F771F3A95E2F797
S1132990E5E4F2E0362F34233095462B342331839B
S11329A0229526952770309197053170330F330F98
S11329B0330F232B02C0880F991F2A95E2F79C013D
S11329C0262B372B832F8523282F2095872F852B84
S11329D0892B8223808336C08091020580FD32C01A
S11329E080910105882374F120919405822F8295AA
S11329F086958770209195052170220F220F220F52
S1132A00282B81E090E0AC0102C0440F551F2A95A9
S1132A10E2F72091960526952F7002C0880F991F22
S1132A202A95E2F7E5E4F2E0282F24232095842B6D
S1132A3082238183892F8523282F2095892F852B15
S1132A408223808380919505869581700E9402047B
S1132A5032C28091E50281FF09C2E5EEF2E0808195
S1132A608D7F80830E9458083091CB012091CD0145
S1132A70E5E4F2E0822F832B809595818923858379
S1132A808091010585FF5BC111821082809103054D
S1132A90982F9295969596959370809104058170E0
S1132AA0880F880F892B853029F460E080919A057E
S1132AB00E94350380919305803119F481E00E94CE
S1132AC002048091FF04833009F443C020F086306F
S1132AD008F0B9C092C08091010584FF26C080919E
S1132AE0020580FDB0C0982F991F9927991F0F2EBA
S1132AF0F3E0EF2EF5E0FF2EF02DF70180818370D7
S1132B00880F892B0E941208F7018081982F9295D3
S1132B10969596959370809104058170880F880F1F
S1132B20892B885F0E9412088EC0E0919A0547E0C5
S1132B30E49FF0011124E050FF4F85810E941208A8
S1132B40EEE8F5E090818181E5E4F2E09183808311
S1132B507AC08091010584FF2DC08091020580FF19
S1132B6006C080918D058F700E9412086CC09091F0
S1132B700205991F9927991F0F2EF3E0EF2EF5E018
S1132B80FF2EF02DF70180818370880F892B0E941E
S1132B901208F7018081982F9295969596959370D7
S1132BA0809104058170880F880F892B885F0E94AB
S1132BB0120849C080919605982F96959F7021E040
S1132BC030E0A90102C0440F551F9A95E2F7E5E4ED
S1132BD0F2E0418382958695877090919705917074
S1132BE0990F990F990F892B02C0220F331F8A95D1
S1132BF0E2F7852F832B808326C08091020580FF16
S1132C000AC08091010584FD06C080918D058F70F6
S1132C100E94120818C08091010588231CF40E94A8
S1132C20780D11C08091960586958F7021E030E073
S1132C30A90102C0440F551F8A95E2F7CA01E5E4D1
S1132C40F2E0418390838091CB0180939B05809136
S1132C50900586958170C82F50E0D52F80919105FD
S1132C6090E0C817D90769F48091900581FF11C0DD
S1132C708091E50282FD0DC08091CD0180939B057A
S1132C8008C08091900581FF04C08091CD0180939C
S1132C909B0580910403837090E002970CF00BC1B4
S1132CA08091FF048330D8F48091010584FF17C01C
S1132CB08091020580FF07C08091960586958F70EC
S1132CC00E9412080CC090910205991F9927991F20
S1132CD0809103058370880F892B0E9412088091CC
S1132CE0900581FB002700F910E08091910590E0A8
S1132CF008171907A1F08091900581FD08C0EBE940
S1132D00F5E09091CD018081892B8083D4C0EBE9DB
S1132D10F5E09091CB018081892B8083CCC0809198
S1132D20900581FDC8C08091E50282FFC4C0EBE933
S1132D30F5E09091CD018081892B8083BCC0E5E4CE
S1132D40F2E01182108290919105913031F010F0EF
S1132D50923029F430939B0502C020939B059091F7
S1132D60FF04933029F050F1963008F04BC03AC07C
S1132D7084FF0AC08091020580FF44C080918D05C4
S1132D808F700E9412083EC08091E60282FF07C045
S1132D908091960586958F700E94120833C0909199
S1132DA09605929596959770809197058170880FF6
S1132DB0880F880F892B0E94120824C084FF22C028
S1132DC08091020580FF08C080919D0586958695B7
S1132DD08F700E94120816C080918D058F700E941A
S1132DE0120810C09091020590FF08C084FD06C02F
S1132DF080918D058F700E94120804C0882314F4FA
S1132E000E94780D80910403837090E002970CF087
S1132E1052C080910105807909F04DC0809102056E
S1132E2080FD49C080919105823039F4EBE9F5E0E9
S1132E309091CD018081892B808380919605869520
S1132E408F700E9412088091FF048330A1F5909145
S1132E509605929596959770809197058170880F45
S1132E60880F880F892B0E94120825C080910B03BC
S1132E70813009F58091010585FD1DC03091CB019C
S1132E802091CD01922F932BE5E4F2E0492F409558
S1132E9085818423858380919105813039F018F0F0
S1132EA0823039F008C030939B0505C020939B0500
S1132EB002C090939B05E5E4F2E090919B05858127
S1132EC0892B8583DF91CF911F910F91FF90EF9014
S1132ED00895AF92BF92CF92DF92EF92FF920F9339
S1132EE01F93CF938091010585FF89C10E94601DC6
S1132EF0C82F8F3F09F403C38091FF04833009F482
S1132F00E8C018F4813028F4FAC2853009F438C1D5
S1132F10F6C28091010584FF35C00E94060A8091A3
S1132F20020580FF2BC080919505982F9295969568
S1132F309770809196058170880F880F880F892B70
S1132F40482F50E02C2F30E04217530709F4D7C222
S1132F50E5EEF2E0908190629083E4E9F5E0CF70D1
S1132F60CC0F9281917E9C2B92830E942D0880919C
S1132F70960586958F700E941208C1C28C2F0E94FC
S1132F80970FBDC286FF0EC0E8E1F2E080818F7B1F
S1132F908083E4E9F5E08C2F8F71C081C07EC82B5B
S1132FA0C083ADC280919A05803109F041C08091FF
S1132FB0950582FBCC24C0F8D12CF601E150FB4FDF
S1132FC0ED56FF4F80818C1708F499C28C2F0E9414
S1132FD04908209190058091950582FBAA24A0F8C8
S1132FE0B12C81E090E002C0880F991FCA95E2F7E6
S1132FF026952170F50132E2239FE00DF11D112485
S1133000EE0FFF1FEB5FFA4F20813181282739270C
S113301031832083EEE8F5E02081318182279327F4
S113302091838083E5EEF2E080818061808367C2D2
S11330308091950582FB002700F910E001501B4F99
S1133040F801ED56FF4F80818C1708F458C28C2F7D
S11330500E944908809190059091950592FBEE2479
S1133060E0F8F12CF701E295F295F07FFE27E07F7E
S1133070FE278695817092E2899FE00DF11D11244F
S1133080EC0FF11DEE0FFF1FE75FFA4F81E090E0B8
S11330909C0100909A0502C0220F331F0A94E2F7A4
S11330A0408151812427352731832083EEE8F5E0E0
S11330B002C0880F991FCA95E2F7208131818227C7
S11330C0932791838083E5EEF2E0808180618083A1
S11330D016C28091010584FF23C08091020580FF00
S11330E01BC0CC3008F00BC280918D058F708C17FB
S11330F009F405C20E942D08EDE8F5E08C2F8F70CD
S11331009081907F982B90830E941208E5EEF2E064
S1133110808180628083F3C18C2F0E94970FEFC15E
S1133120CC30E0F4CF70E4E9F5E02C2F220F92814B
S1133130917E922B92832091950522952695277056
S11331409170990F990F990F922BC91709F4D7C150
S1133150E5EEF2E0808180628083D1C1E4E9F5E0AC
S11331609C2F9295990F907E82818F71892B8283F7
S1133170C3FB882780F9C381CE7FC82BC383BFC11B
S11331808091020580FF1FC08091010584FD1BC052
S1133190CC3008F0B4C180918D058F708C1709F480
S11331A0AEC10E942D08EDE8F5E08C2F8F70908160
S11331B0907F982B90830E941208E5EEF2E08081C4
S11331C0806280839CC1CF70E4E9F5E09C2F990F65
S11331D08281817E892B8283909195059295969523
S11331E097708170880F880F880F892BC81709F48E
S11331F086C1E5EEF2E080818062808380C18091A7
S1133200FF04833011F40E944E110E94601DC82FE8
S11332108F3F09F474C18091FF04833009F4A6C080
S113322020F0853009F411C16AC18091010584FF41
S113323058C08091020580FF15C080919D05869538
S113324086958F700E942D08ECE9F5E08C2F8F7025
S1133250282F220F220F9181937C922B91830E941D
S113326012084DC1CC3008F04AC18091E50284FFB8
S113327016C0E5EEF2E080818F7E808360918D053B
S11332806F7090919505929596959770809196059B
S11332908170880F880F880F892B0E946C120DE8AB
S11332A015E0F80180818F700E942D088C2F8F709B
S11332B0F8019081907F982B90830E941208F80166
S11332C060816F7090919505929596959770809115
S11332D096058170880F880F880F892B0E944010F3
S11332E00EC186FF1AC080919505982F92959695E8
S11332F09770809196058170880F880F880F892BAD
S113330090E02C2F30E08217930769F060918D05CF
S11333106F708C2F0E946C1206C060918D056F70C7
S11333208C2F0E9440109C2F9F70E4E9F5E0392F08
S1133330330F4281407E8C2F8295880F807EC1811D
S1133340292F269526952695942F932B922B92839D
S1133350CC7190819F719083C82BC183109201031B
S1133360E4E0F3E080818C7F8083C9C08091010513
S113337084FF2CC08091020580FFC1C0CC3008F0CE
S1133380BEC080918D058F708C1709F4B8C00E945F
S11333902D080DE815E08C2F8F70F8019081907F37
S11333A0982B90830E941208F80160816F709091AD
S11333B09505929596959770809196058170880FE2
S11333C0880F880F892B0E94401099C0CC3058F583
S11333D08C2F8F7004E915E0382F330FF801928198
S11333E0907EC295CC0FC07E21812F71C22BC183E8
S11333F0282F269526952695932B922B92836091C0
S11334008D056F700E944010F801818190819F7139
S113341090838C7F818310920103E4E0F3E0808148
S11334208C7F80836CC0E4E9F5E09C2F9295990F22
S1133430907E82818F71892B8283C3FB882780F9D8
S1133440C381CE7FC82BC3835AC08091020580FFFD
S11334502CC08091010584FD28C0CC3008F04FC0F9
S113346080918D058F708C1709F449C00E942D0836
S11334700DE815E08C2F8F70F8019081907F982BC8
S113348090830E941208F80160816F7090919505F5
S1133490929596959770809196058170880F880F04
S11334A0880F892B0E9440102AC08C2F8F7004E94A
S11334B015E0382F330FF8019281907EC295CC0F1E
S11334C0C07E21812F71C22BC183282F269526957A
S11334D02695932B922B928360918D056F700E9499
S11334E04010F801818190819F7190838C7F81834A
S11334F010920103E4E0F3E080818C7F8083CF911C
S11335001F910F91FF90EF90DF90CF90BF90AF90FD
S11335100895CF93DF93CDB7DEB7C154D1090FB669
S1133520F894DEBF0FBECDBF60919805862F8295BB
S1133530869586958370609199056370660F660F12
S1133540682B70E0CE0101960E94040281E4FE0122
S11335503196AEEBB4E001900D928A95E1F7E5EE79
S1133560F2E0808180628083CF5BDF4F0FB6F894F6
S1133570DEBF0FBECDBFDF91CF910895CF93DF9310
S1133580CDB7DEB7C154D1090FB6F894DEBF0FBE74
S1133590CDBF40919705842F881F8827881F4091AD
S11335A098054F73440F482B50E020E030E0A1E031
S11335B0B0E0AC0FBD1FA20FB31FF901E254FB4FE3
S11335C08081982F9F70807F892B8C932F5F3F4F32
S11335D04217530764F78091FE0422968FAF229717
S11335E080919805982F92959695969593708091D1
S11335F099058370880F880F892BBE016F5F7F4FF9
S113360090E00E943502CF5BDF4F0FB6F894DEBF27
S11336100FBECDBFDF91CF9108958093AE00EDEA48
S1133620F0E080818823ECF78091AE000895CF9379
S1133630DF93C5E4D2E088810E940D1B89810E943A
S11336400D1B8A810E940D1B8B810E940D1B8C8196
S11336500E940D1B8D810E940D1B8E810E940D1BEB
S11336608F810E940D1B88850E940D1B7198719A91
S1133670DF91CF910895CF93DF93709A80E00E94F9
S11336800D1BC0E4D2E0888380E00E940D1B898377
S113369080E00E940D1B8A8380E00E940D1B8B83B7
S11336A080E00E940D1B8C8370989881292F2695A9
S11336B0E1E0F5E0308120FB34F9492F4695469549
S11336C0218140FB20F921832A81422F42954F70AA
S11336D040FB36F93083EBE3F2E03081932739275E
S11336E030839323988331819981932739273183B8
S11336F0932399833281932F9227292F232722837F
S113370092239A8323819B819227292723839223BF
S11337109B83948189279827948389238C83DF91C1
S1133720CF91089540E050E0DA01AA50BE4F8C9149
S1133730E82FE695E695E695E770F0E0E05CFD4F4E
S1133740208130E0982F977002C0359527959A957F
S1133750E2F7217086FB992790F9292720FB86F947
S11337608C934F5F5F4F43325105F1F6089580917A
S1133770120286FF44C08091FF04853009F03FC0E7
S1133780E2E1F2E080818F7B80838091020580FDFD
S113379036C080919705982F991F9927991F80917A
S11337A098058F73880F892BE82FF0E0E254FB4FC4
S11337B090918D052091960526952F709295907F76
S11337C0922B90838093FE048F5F8F77803461F017
S11337D0E4E9F5E0938180FB97F9938386959481DE
S11337E0907C892B848309C0E4E9F5E083818068B7
S11337F083838481807C8F6184830E94BE1A0895B0
S113380093B1292F26952695E1E0F5E0808120FBF0
S113381087F9808380914E029827892780934E02EE
S1133820892382FD03C080934F0209C094E0892755
S113383080934F02E6EEF2E0808182608083809183
S11338400B03813021F4809100058430C9F4E1E058
S1133850F5E0808185FB222720F990914F0296950F
S1133860922790FB85F9808385FF08C0211108C049
S11338700E949A0E08950E942D0F08952130D9F3C5
S113388008958091140286FF3BC09091010594FD38
S113389037C0E4E1F2E08F7B80838091FF048111E3
S11338A00EC080910B03813051F480910103882371
S11338B039F1EFEFF2E08281815082830895E1E9EA
S11338C0F5E080818F5F8083833029F41092910525
S11338D095FF0BC002C095FF06C0E5EEF2E08081C3
S11338E08460808308958D7F31F4E0E9F5E0808180
S11338F08D7F80830895E0E9F5E080818260808394
S11339000895EF92FF920F931F93CF93DF938091CB
S1133910010584FDCEC086FFABC0E8E1F2E0808102
S11339208F7B80838091FF04882321F0853009F404
S113393070C0BFC0E1EBF0E0808187608083A0EBC2
S1133940B0E08C918C9320E730E0E90188818260BB
S113395088838C9181608C938081886080838CE8DB
S11339608093B3008091E70280FF08C0E7EEF2E0A5
S113397080818E7F80838CE10E944908A0E9B5E0B4
S11339808C9181FB002700F910E084E4809FF00112
S1133990819FF00D1124E75FFA4F90E4EF01199233
S11339A09A95E9F710928F0510928E059C9191FBE0
S11339B0EE24E0F8F12C8E9DF0018F9DF00D112482
S11339C0E150FB4F17821682118610868FE0809398
S11339D0920580E180939305E4E9F5E08181877E97
S11339E08860818388E18093FF020E94BD09609111
S11339F08D056F709091950592959695977080912D
S1133A0096058170880F880F880F892B0E946C128D
S1133A1050C0E1EBF0E0808187608083A0EBB0E0F0
S1133A208C918C93C0E7D0E08881826088838C91EC
S1133A3081608C938081886080838CE88093B3005C
S1133A408091E70280FF08C0E7EEF2E080818E7F7C
S1133A50808381E20E94490880E4EEEBF4E0DF0118
S1133A601D928A95E9F71092FE040E94BE1A21C0A5
S1133A708091FF0481110EC01092B000E0E7F0E0E5
S1133A8080818D7F808386E48093B3008CE10E94E3
S1133A9012080FC0853069F41092B000E0E7F0E03E
S1133AA080818D7F808386E48093B30081E20E94CD
S1133AB01208DF91CF911F910F91FF90EF9008951D
S1133AC08091F60186FD09C081E090E0FC01EA5096
S1133AD0FE4F208126FF0AC002C080E090E0FC0176
S1133AE0EA50FE4F90819F7B908308950196803128
S1133AF0910561F78FEF08958091130286FF41C00D
S1133B00E3E1F2E08F7B80838091010584FF24C090
S1133B108091FF04853001F580919705982F991FB6
S1133B209927991F809198058F73880F892B71F0BD
S1133B308158982F9F77E4E9F5E0238180FB27F9EA
S1133B40238396958481807C892B8483E5EEF2E03F
S1133B5080818062808308958091FF04833089F49A
S1133B608EE20E9449088FE20E944908E0E9F5E0EC
S1133B70808182FB222720F991E0922790FB82F931
S1133B80808308959091900592FD39C0482F50E0AC
S1133B9097E0899FF0011124E050FF4F93819F3FEC
S1133BA0C1F020919C052F7130E04217530749F46E
S1133BB0875FECE9F5E08F719081907E892B80839B
S1133BC00895ECE9F5E08F719081907E892B8083D4
S1133BD0089590919C059F71963049F4863039F48C
S1133BE0ECE9F5E08081807E8F6080830895ECE9C4
S1133BF0F5E08F719081907E892B80830895482F02
S1133C0050E097E0899FF0011124E050FF4F938129
S1133C109F3FC1F120919C05922F929596959770A4
S1133C2020919D052370220F220F220F292B30E0B3
S1133C3042175307A1F4875FECE9F5E0282F22959A
S1133C40220F207E90819F71922B9083869586957A
S1133C508695837091819C7F892B81830895ECE9FB
S1133C60F5E0282F2295220F207E90819F71922BC0
S1133C709083869586958695837091819C7F892B08
S1133C808183089590919C05292F2295269527706C
S1133C9090919D059370990F990F990F922B9630DF
S1133CA061F4863051F4ECE9F5E08081806E808324
S1133CB081818C7F816081830895ECE9F5E0282F70
S1133CC02295220F207E90819F71922B908386955E
S1133CD086958695837091819C7F892B8183089535
S1133CE0482F50E097E0899FF0011124E050FF4FE6
S1133CF093819F3F19F4863009F09EC0CA0109964A
S1133D00FC01EE0FFF1FEE0FFF1FEE0FFF1FE81B5E
S1133D10F90BEA5FFE4F6081262F217030E0220FFD
S1133D20331FFA01EE0FFF1FEE0FFF1FEE0FFF1FF1
S1133D30E41BF50BEA5FFE4F30813170232B2130F9
S1133D4021F130F02230F1F1233009F458C0089504
S1133D50FA01EE0FFF1FEE0FFF1FEE0FFF1FE41B14
S1133D60F50BEA5FFE4F208121602083FC01EE0FFA
S1133D70FF1FEE0FFF1FEE0FFF1FE81BF90BEA5F9B
S1133D80FE4F80818E7F80830895FA01EE0FFF1F1E
S1133D90EE0FFF1FEE0FFF1FE41BF50BEA5FFE4F54
S1133DA020812E7F2083FC01EE0FFF1FEE0FFF1FEB
S1133DB0EE0FFF1FE81BF90BEA5FFE4F8081816065
S1133DC080830895FA01EE0FFF1FEE0FFF1FEE0F21
S1133DD0FF1FE41BF50BEA5FFE4F20812160208367
S1133DE0FC01EE0FFF1FEE0FFF1FEE0FFF1FE81B7E
S1133DF0F90BEA5FFE4F8081816080830895FA01A8
S1133E00EE0FFF1FEE0FFF1FEE0FFF1FE41BF50B5E
S1133E10EA5FFE4F20812E7F2083FC01EE0FFF1FFF
S1133E20EE0FFF1FEE0FFF1FE81BF90BEA5FFE4FBB
S1133E3080818E7F80830895FA01EE0FFF1FEE0FBD
S1133E40FF1FEE0FFF1FE41BF50BEA5FFE4F80819F
S1133E50982F909590FB80F980830895CF93C82F75
S1133E608091010584FD25C00E94580887E0C89F01
S1133E70F0011124E050FF4F83818F3F59F080916E
S1133E809A058C1304C0875F80939A050FC0C09372
S1133E909A050CC080919A05863031F4C63021F41D
S1133EA08FE080939A0502C0C0939A050E94280966
S1133EB00DC08091020580FF06C00E9458088C2F17
S1133EC00E94C21D03C08C2F0E94701ECF910895C2
S1133ED00F931F93CF93DF938091060286FD07C053
S1133EE08091070286FDA4C022E130E098C0E6E09C
S1133EF0F2E080818F7B80838091FF04813008F41D
S1133F003BC1833020F08450823070F135C1809100
S1133F10010584FD0BC00E94580884E10E94120828
S1133F2080E180939A050E94280926C180910205A8
S1133F3080FF22C10E94580884E10E9412088091E7
S1133F40900582FD07C0ECE9F5E08081807E806108
S1133F50808312C1ECE9F5E080818F7180838181D7
S1133F608C7F8260818308C180919805982F9295F7
S1133F70969596959370809199058370880F880F14
S1133F80892B09F4F9C0E5EEF2E080818064808336
S1133F90C4E9D5E08B818F778B831C828D818C7FE4
S1133FA08D8384E10E9412080E94891AE09197058A
S1133FB08E2F881F8827881FE0919805EF73EE0FD6
S1133FC0E82BF0E0E254FB4F6081862F8F70382F8E
S1133FD0330F9A81907E462F4295440F407E29816B
S1133FE02F71242B2983282F269526952695932BEC
S1133FF0922B9A8362956F70EDE8F5E09081907F43
S1134000962B90839091010595FF06C0E5EEF2E0B2
S1134010808180628083B0C00E944010ADC0F901ED
S1134020EA50FE4F808186FFA1C0E901619704C078
S1134030C0E0D0E021E130E0F901EA50FE4F908188
S11340409F7B90839091FF04913008F495C0933046
S113405018F0963028F090C08C2F0E942E1F8CC030
S11340608091010584FF04C08C2F0E94701E84C0BF
S113407080919805982F9295969596959370809136
S113408099058370880F880F892B90E0205131099E
S11340908217930709F470C0E5EEF2E020812064F2
S11340A0208304E915E0F80123812F7723832481F9
S11340B0207C2483FC01E958FE4F80810E942D0856
S11340C0CF5FCF709C2F9295990F990F907CF80138
S11340D084818F73892B84839C2F969596958581F3
S11340E08C7F892B8583EC2FF0E0E958FE4F80818B
S11340F00E9412080E94891AE09197058E2F881F4A
S11341008827881FE0919805EF73EE0FE82BF0E005
S1134110E254FB4F6081862F8F70382F330FF801E4
S11341209281907E462F4295440F407E21812F71CB
S1134130242B2183282F269526952695932B922B85
S1134140928362956F70EDE8F5E09081907F962BF5
S113415090839091010595FF06C0E5EEF2E0808121
S11341608062808309C00E94401006C02F5F3F4FC9
S11341702C31310509F053CFDF91CF911F910F916D
S11341800895CF92DF92EF92FF920F931F93D092F4
S1134190EE02C092ED021093E9020093E802F0925D
S11341A05302E09252020E941726BA01A90140511B
S11341B0510961097109DB01CA011AF40196A11DB3
S11341C0B11DB595A795979587958093B8001092E2
S11341D0B9001092F3021F910F91FF90EF90DF90BE
S11341E0CF90089591E09093F30220915202309180
S11341F053022617370748F4209152023091530294
S1134200309351022093500204C070935102609382
S1134210500291E09093F4029093E1028093EF02B4
S113422085EA8093BC00089591E09093F302209175
S11342305202309153022617370748F42091520254
S113424030915302309351022093500204C0709372
S1134250510260935002209152023091530224176C
S1134260350748F420915202309153023093EC0206
S11342702093EB0204C05093EC024093EB0293E0D2
S11342809093F40291E09093E1028093EF0285EA27
S11342908093BC0008951F920F920FB60F921124C1
S11342A02F933F934F935F936F937F938F939F933A
S11342B0AF93BF93EF93FF938091B900887F80936E
S11342C0E402E091E4028E2F90E0FC013897E13C97
S11342D0F10508F025C1E65AFF4F0C94362680916B
S11342E0E102813019F0823059F014C01092FC02BE
S11342F01092FB028091EF02880F8093BB000AC0EA
S11343001092FC021092FB028091EF02880F8160F0
S11343108093BB0085EC8093BC000DC12091FB020F
S11343203091FC0280915002909151022817390774
S1134330F1F48091F402833039F482E08093E10255
S113434085EA8093BC00F7C0E091ED02F091EE02A3
S1134350309711F080E0099585E98093BC00ECEB7F
S1134360F0E0808184FDFDCF1092F302E4C020913F
S1134370E8023091E9028091FB029091FC02AC01C9
S11343804F5F5F4F5093FC024093FB02F901E80F2B
S1134390F91F80818093BB0085E88093BC00CBC06B
S11343A02091E8023091E9028091FB029091FC0295
S11343B0AC014F5F5F4F5093FC024093FB02F90145
S11343C0E80FF91F2091BB0020838091EB029091AC
S11343D0EC022091FB023091FC02019782179307B3
S11343E021F485E88093BC00A6C085EC8093BC00D2
S11343F0A2C02091E8023091E9028091FB029091E1
S1134400FC02AC014F5F5F4F5093FC024093FB02F0
S1134410F901E80FF91F2091BB002083E091ED0220
S1134420F091EE02309711F080E0099585E98093D0
S1134430BC00ECEBF0E0808184FDFDCF1092F30230
S11344407AC01092FC021092FB0285EC8093BC00AF
S113445072C02091FB023091FC0280915202909133
S1134460530228173907A8F42091E8023091E90291
S11344708091FB029091FC02AC014F5F5F4F50931F
S1134480FC024093FB02F901E80FF91F2091BB00E5
S1134490208385EC8093BC004EC08091FB029091F8
S11344A0FC028093F002E091ED02F091EE0230976D
S11344B011F080E0099585EC8093BC003CC010921B
S11344C0FC021092FB022091FB023091FC028091CD
S11344D052029091530228173907A8F42091E80258
S11344E03091E9028091FB029091FC02AC014F5F94
S11344F05F4F5093FC024093FB02F901E80FF91F50
S113450080818093BB0085EC8093BC0014C0E09153
S1134510ED02F091EE02309719F08091E4020995D2
S113452085E98093BC00ECEBF0E0808184FDFDCF55
S113453085EA8093BC00FF91EF91BF91AF919F9169
S11345408F917F916F915F914F913F912F910F9038
S11345500FBE0F901F901895FC01428374836383F0
S1134560118210820895FF920F931F93CF93DF93CC
S1134570EC01062F0E942C23182FF9804F2D50E0B8
S1134580CA0101962A81622F70E00E9403262881C5
S113459030E08217930729F4812F0E942F2380E0B3
S11345A012C0EB81FC81EF0DF11D0083298130E005
S11345B0C90101966A8170E00E9403268983812FD4
S11345C00E942F2381E0DF91CF911F910F91FF90E3
S11345D00895CF93DF93EC010E942C233981288125
S11345E0321718F0C32FC21B04C09A81C32FC90FFE
S11345F0C21B0E942F238C2FDF91CF910895FC01C1
S1134600808170E09B01280F311DC901628170E037
S11346100E9403260380F481E02DE80FF91F8081B6
S113462008951F93CF93DF93EC01162F0E942C2340
S1134630482F8881212F30E0B901680F711DCB010B
S11346406A8170E00E9403268883842F0E942F23AE
S1134650DF91CF911F9108958FB7F89408958FBF7C
S11346600895881F8827881F089591E0883F08F4DB
S113467090E0892F0895982F907F903CB1F058F4E2
S1134680903941F118F4903819F524C0903A11F199
S1134690903BF1F41FC0903EE9F018F4903D29F0EE
S11346A017C0903F21F0933F99F482E0089590E081
S11346B0FC01E15FF109EF30F10540F4E55EFE4FE6
S11346C00C94362683E0089582E0089580E00895EE
S11346D080E0089583E0089581E008950F93DC015C
S11346E0ED91FC9100E020E048EF61E070E0099575
S11346F00F9108950F93DC01ED91FC9100E020E00F
S11347004AEF61E070E009950F9108950F93DC0181
S1134710ED91FC9100E020E04CEF61E070E0099540
S11347200F910895FC01758364830895FC017783D8
S113473066830895FC01778B668B0895CF93DF938E
S1134740EC011DA21FA21EA2BC01685D7F4F40ECBC
S113475088519F4F0E94AC221B821A821D821C82A8
S11347601F821E82198618861B861A861D861C8641
S11347701F861E86198A188A1B8A1A8A1D8A1C8A11
S11347801F8A1E8A198E188E1B8E1A8E1D8E1C8EE1
S11347901F8E1E8E19A218A2DF91CF910895EF9259
S11347A0FF920F931F93CF93DF93662399F0EA014F
S11347B06150062F10E00F5F1F4F040F151F7C017F
S11347C028EEE20EF11C6991C7010E94B322C017C2
S11347D0D107C9F7DF91CF911F910F91FF90EF900F
S11347E00895FC01718360830895AF92BF92CF92C4
S11347F0DF92EF92FF920F931F93CF93DF9300D03A
S11348001F92CDB7DEB77C016B01142FB22EA02E00
S1134810DC0195968C919597843011F55A96ED911B
S1134820FC915B97309709F4CCC09B01215031096E
S1134830ABEABAEA0E943C26969587959C01220F22
S1134840331F820F931F4983BA820B834C2D481B5D
S11348509E012F5F3F4F682F792FC7010995BEC076
S11348606230710509F455C06330710529F0613077
S1134870710509F0A1C088C0842F807F803AF1F0CF
S113488028F48038A9F0803969F02FC0803EE1F027
S1134890803F01F1803B49F5D7011296ED91FC91DF
S11348A0139725C0D7011496ED91FC9115971FC05D
S11348B0D7011696ED91FC91179719C0D701189658
S11348C0ED91FC91199713C0D7011A96ED91FC91C3
S11348D01B970DC0423F09F074C0D7011C96ED919F
S11348E0FC911D97309741F46CC0E0E0F0E0309704
S11348F009F467C0123F31F42A2D4B2D62EFC70132
S113490009956CC02A2D4B2D612F6F70C701099535
S113491065C0842F807F803D51F0803F71F0803CE2
S113492001F5D7011E96ED91FC911F971CC0D7018C
S11349305096ED91FC91519716C0433F41F4D70135
S11349405296ED91FC915397309799F43AC0413FB8
S1134950C1F5D7015496ED91FC915597309749F4E0
S113496030C0E0E0F0E0309761F1812F8D7F813F2E
S113497029F44B2D612FC701099530C04B2D612FB0
S11349806F70C70109952AC0842F0E94352388239C
S113499031F0D7015696ED91FC91579707C0163F19
S11349A081F4D7015896ED91FC915997309749F0CD
S11349B0612FC701099512C06430710510F0C12C34
S11349C0D12CD7015C96ED91FC915D97309731F035
S11349D00A2D2B2D412FB601C7010995D7015E96EB
S11349E0ED91FC915F97309731F00A2D2B2D412FDB
S11349F0B601C70109950F900F900F90DF91CF91E9
S1134A001F910F91FF90EF90DF90CF90BF90AF90E8
S1134A100895FF920F931F93CF93DF93EC01162F0A
S1134A20862F0E943523882369F0FDA081E08DA3A1
S1134A3000E020E0412F61E070E0CE010E94F52308
S1134A40FDA2A4C0812F0E943123882309F45DC0F4
S1134A508DA1843029F01AA381E090E09FA38EA356
S1134A60812F0E943B23813031F0B8F0823079F0FD
S1134A70833081F046C081E08DA300E020E0412F27
S1134A8061E070E0CE010E94F5231DA27FC082E0A8
S1134A908DA37CC083E08DA379C0103F19F0173F2C
S1134AA051F02BC084E08DA380EF8AA381E090E0D5
S1134AB09FA38EA36BC04EA15FA19A01ABEABAEA91
S1134AC00E943C26969587959C01220F331F820FE6
S1134AD0931FFA01E81BF90BEC0FFD1F87EF82A36C
S1134AE0BA016F5F7F4F7FA36EA30CA12BA14AA1D4
S1134AF0CE010E94F5231DA249C01DA21FA21EA221
S1134B0045C01DA21FA21EA241C0EDA1EE23F1F1DA
S1134B104EA15FA19A01ABEABAEA0E943C2696959F
S1134B2087959C01220F331F820F931F9A01281B24
S1134B30390BDE01A20FB31F92961C93BA016F5F6B
S1134B407F4F7FA36EA32130310589F022303105D8
S1134B50E9F40CA12BA14AA1CE010E94F5238DA159
S1134B608430A1F081E090E09FA38EA30FC0E230D7
S1134B7069F400E02BA14AA1CE010E94F5238DA186
S1134B80843021F081E090E09FA38EA3DF91CF9148
S1134B901F910F91FF900895CF92DF92EF92FF92B1
S1134BA00F931F93CF93DF936C01DC019096ED91EB
S1134BB0FC919197309709F00995860108511F4F90
S1134BC0C8010E94E922E82EF12CE114F10491F0CD
S1134BD0C0E0D0E060E0C8010E94FF22682FC60157
S1134BE00E94092561E0C8010E9411232196CE1577
S1134BF0DF0581F7DF91CF911F910F91FF90EF9027
S1134C00DF90CF90089597FB072E16F4009407D0F9
S1134C1077FD09D00E944B2607FC05D03EF4909501
S1134C2081959F4F0895709561957F4F0895052E46
S1134C3097FB1EF400940E942E2657FD07D00E9475
S1134C405F2607FC03D04EF40C942E265095409515
S1134C50309521953F4F4F4F5F4F08959095809524
S1134C60709561957F4F8F4F9F4F0895EE0FFF1FF3
S1134C700590F491E02D0994A29FB001B39FC00167
S1134C80A39F700D811D1124911DB29F700D811D74
S1134C901124911D0895AA1BBB1B51E107C0AA1F33
S1134CA0BB1FA617B70710F0A61BB70B881F991FC9
S1134CB05A95A9F780959095BC01CD010895A1E27C
S1134CC01A2EAA1BBB1BFD010DC0AA1FBB1FEE1F82
S1134CD0FF1FA217B307E407F50720F0A21BB30BCD
S1134CE0E40BF50B661F771F881F991F1A9469F749
S1134CF060957095809590959B01AC01BD01CF01A5
S1094D000895F894FFCFB2
S1134D06000402FF001500010404FF00160002045B
S1134D1608010117000304100201300004042004F2
S1134D2601310005044008003200060480FF003308
S1134D3600070301FF003500080302FF00360009DF
S1134D460304FF002C000A0308FF002D000B0408CF
S1134D56010018000C0410020019000D04200400C0
S1134D661A000E044008011B008F0320FF003400C4
S1134D76100401FF001400141516173031323335B0
S1134D86362C2D0101020104010801100120014005
S1134D960180010100020004000800100020004008
S1134DA600800001020202040208021002200240EE
S1134DB6028002100320034003800301040204045A
S1134DC604080410042004400480040105020504B8
S1134DD60508051005200540058005100620064037
S1134DE60680060107020704070807100740078024
S1134DF607010C1810202021222324252627181900
S1134E061A1B1C1D1E1F15161708090A0B0C0D0E5E
S1134E160F0001021011121314010111115555FF4F
S1134E26FFFFFF000102030405000F0B0703010146
S1074E36000302046B
S9030000FC
