S017000054522D3830382D6669726D776172652E7372656310
S11300000C942A010C94AF050C9476050C944701CA
S11300100C9447010C94D9050C9447010C94730675
S11300200C9447010C9447010C9447010C949C06D2
S11300300C9447010C9447010C940C060C94470152
S11300400C9447010C9447010C941E070C9453071D
S11300500C9447010C9447010C9447010C944701FC
S11300600C94F2200C9447010C9447010C94470122
S11300700C9447010C9447010C9447010C944701DC
S11300800C9447010C9488060C9447010C94470186
S11300900C9447010C9447010C9447010C944701BC
S11300A00C9447010C9447010C9492060C9447015C
S11300B00C94470116213722372237223722372260
S11300C03722372216213722372237223722372286
S11300D03722372235213722372237223722372257
S11300E0372237222E22372237223722372237224D
S11300F03722372235213722372237223722372237
S1130100372237222E22372237223722372237222C
S11301103722372237223722372237223722372213
S1130120372237228C2137223722372237223722AF
S1130130372237222E2237223722372237223722FC
S113014037223722772137223722372237223722A4
S113015037223722A021372237223722372237226B
S113016037223722C8213722372237223722372233
S113017037223722C8213722372237223722372223
S113018037223722C8213722372237223722372213
S113019037223722C8213722372237223722372203
S11301A037223722D02137223722372237223722EB
S11301B0372237222A223722372237223722372280
S11301C037223722D02137223722372237223722CB
S11301D0372237222A223722372237223722372260
S11301E037223722F4213722372237223722372287
S11301F03722372206223722372237223722372264
S11302003722372206223722372237223722372253
S1130210372237220A22372237223722372237223F
S1130220372237222A22372237223722372237220F
S1130230372237222A220B2309230B230D230D23D4
S113024013230D23132313231323132313230D2306
S11302501323132311241FBECFEFD8E0DEBFCDBF7D
S113026012E0A0E0B1E0E4E5FCE402C005900D92E8
S1130270A033B107D9F725E0A0E3B2E001C01D9295
S1130280AD3DB207E1F70E94FF090C9428260C94B7
S113029000000895CF92DF92EF92FF920F931F9385
S11302A00F2EF9E4CF2EF1E0DF2EF02D0F2EFDE816
S11302B0EF2EF12CF02D00E512E020E035E34CE0C8
S11302C050E060E074E284EF90E00E9468201093B4
S11302D0DF020093DE021093F7020093F6021093FC
S11302E0FB020093FA021093EF020093EE021093C4
S11302F0F3020093F2021F910F91FF90EF90DF90B1
S1130300CF900895CF93DF93EC019091F002911177
S1130310FCCF50E0542F44275295507F460F571F6F
S1130320E091DE02F091DF025083E091DE02F09171
S1130330DF0241834BE850E062E070E080E50E9418
S1130340BB209091F0029111FCCFE091FA02F09160
S1130350FB028BE8DE0101900D928A95E1F7CE0154
S1130360DF91CF9108950F931F93CF93DF939C0157
S11303708A019091F0029111FCCFC62FD0E0DC2FBE
S1130380CC27D295D07FC20FD31FE091F602F09113
S1130390F702D083E091F602F091F702C18380E87E
S11303A0F801A2E5B2E001900D928A95E1F762E8C6
S11303B070E080E50E949920C058DF4F9091F002D0
S11303C09111FCCFE091F602F091F702D083E09115
S11303D0F602F091F702C183F801E058FF4F8BE079
S11303E0A2E5B2E001900D928A95E1F76DE070E02C
S11303F080E50E9499208091F0028111FCCFDF9169
S1130400CF911F910F910895CF93DF93EC019091B9
S1130410F0029111FCCF6E577E4F7695762F6627AA
S113042077956795E091DE02F091DF027083E091A9
S1130430DE02F091DF02618341E450E062E070E0AB
S113044080E50E94BB209091F0029111FCCFE091D5
S1130450F202F091F30281E4DE0101900D928A959B
S1130460E1F7CE01DF91CF9108959C019091F002C4
S11304709111FCCFC9018E579E4F9695982F8827CE
S113048097958795E091F602F091F7029083E091B9
S1130490F602F091F702818381E4FB01A2E5B2E068
S11304A001900D928A95E1F763E470E080E50E9483
S11304B099208091F0028111FCCF0895EAE7F0E0E1
S11304C0808184608083ACE7B0E08C9180648C93FD
S11304D08C9183608C93AEE7B0E08C9188608C93B0
S11304E08081806880830895EAE7F0E080818064F9
S11304F08083808186FDFDCF809178009091790082
S113050008958CE08093810082E080936F0085E001
S11305108093910086E48093B4008093B300EEEF5F
S1130520F2E08081887F808308959093890080938E
S1130530880020918400309185008217930728F465
S1130540019790938500809384000895E1E4F2E09C
S113055010868681807F868387818F7D87832B9811
S11305602C980895FF920F931F93CF93DF93C82F76
S1130570F62E0E94A602E1EEF2E0908193FFFDCFF9
S1130580C09330020C2F10E087E0C89FE0011124D3
S1130590C050DF4FE8818E2F881F8827881FE9818C
S11305A0E770EE0FE82BF0E0EF5BFD4F90818A815E
S11305B0892B80838D810E9492079B819F3FC1F08C
S11305C0A1E4B2E013962C911397F801EE0FFF1FEC
S11305D0EE0FFF1FEE0FFF1FE01BF10BEC5FFE4F52
S11305E080818170819582278923822713968C9339
S11305F080E48F1540F4E1E4F2E080858160808737
S113060084E10E9492075D9AEEE6F0E080818260C8
S1130610808385B5856085BDE1EEF2E08081877FCA
S11306208083DF91CF911F910F91FF900895CF9315
S1130630DF93CDB7DEB72A970FB6F894DEBF0FBEAF
S1130640CDBF8AE0E9E1F2E0DE01119601900D925E
S11306508A95E1F78091D305982F92959695977096
S11306608091D4058170880F880F880F892B21E031
S113067030E002C0220F331F8A95E2F7E0910005B3
S11306808E2F8295869586958370E0910105E170A1
S1130690EE0FEE0FE82BF0E03197EE0FFF1F81E035
S11306A090E08C0F9D1FE80FF91F808191818223B8
S11306B09323892BD9F0A091D90597E0A99FD00164
S11306C01124A050BF4FEC918E2F881F8827881FBC
S11306D01196EC911197E770EE0FE82BF0E0EF5BC9
S11306E0FD4F908112968C91892B80832A960FB6A8
S11306F0F894DEBF0FBECDBFDF91CF9108953F9236
S11307004F925F926F927F928F929F92AF92BF921D
S1130710CF92DF92EF92FF920F931F93CF93DF93C9
S113072000D000D0CDB7DEB75D9A0E94A602EEE6F7
S1130730F0E080818260808385B5856085BD80918D
S11307400005982F92959695969593708091010542
S11307508170880F880F892B09F402C10E94170346
S1130760FFC0D4018C9181FB002700F910E0F50152
S113077090819295969597708170880F880F880F55
S1130780892BD6019C91F801E295F295F07FFE2722
S1130790E07FFE2796959170399EE00DF11D11249E
S11307A0E80FF11DEE0FFF1FEA5FFA4F8081918180
S11307B00B8002C0969587950A94E2F780FF76C075
S11307C0F30180818F7190E02B813C818217930724
S11307D009F42B9AD3018C91982F92959695977042
S11307E0F20180818370880F880F880F892B90E035
S11307F02B813C818217930709F42C9AEB81FC81AD
S1130800EE0FFF1FEE0FFF1FEE0FFF1F4B815C81EA
S1130810E41BF50BEA5FFE4F808180FD47C0AEEF1D
S1130820B4E08C9184FD04C0F70180810E9492079A
S1130830AB81BC81AA0FBB1FAA0FBB1FAA0FBB1F92
S11308402B813C81A21BB30BA050BF4FEC918E2F88
S1130850881F8827881F1196EC91E770EE0FE82B0C
S1130860F0E0EF5BFD4FD70113979C918081892BBA
S11308708083F701329780818F3FC1F02091440239
S1130880EB81FC81EE0FFF1FEE0FFF1FEE0FFF1F2A
S11308904B815C81E41BF50BEC5FFE4F9081917002
S11308A09195922789238227809344028B819C818E
S11308B001969C838B8397E0E90EF11CAB81BC818C
S11308C0509709F04ECF9091CF058091D40581FBCC
S11308D0BB27B0F9B9831A8296959170E981FA81A0
S11308E022E2929FE00DF11D1124EE0FFF1FEE5F37
S11308F0FA4F9091D3059295969597708170880FD1
S1130900880F880F892B20813181A90102C0569557
S113091047958A95E2F740FF4EC0E1E4F2E0808516
S1130920816080878091DB058F71803109F42B9A77
S11309308091DB05982F9295969597708091DC05B0
S11309408370880F880F880F892B803109F42C9AC3
S11309508091FE0484FD2FC084E10E9492072BC085
S11309600F2EF5E0EF2EF1E0FF2EF02D1C821B82FE
S11309700F2EF4ED8F2EF5E09F2EF02D0F2EF3EDBC
S1130980AF2EF5E0BF2EF02D0F2EFFECCF2EF5E0AD
S1130990DF2EF02D0F2EF2E23F2EF02D0F2EFBED69
S11309A06F2EF5E07F2EF02D0F2EFCED4F2EF5E08F
S11309B05F2EF02DD6CE0F900F900F900F90DF91F9
S11309C0CF911F910F91FF90EF90DF90CF90BF9048
S11309D0AF909F908F907F906F905F904F903F90DB
S11309E008958091070286FF08C0E7E0F2E08F7B5C
S11309F0808360E080E00E94B2028091080286FF5A
S1130A0008C0E8E0F2E08F7B808360E081E00E9430
S1130A10B2028091090286FF08C0E9E0F2E08F7B10
S1130A20808360E082E00E94B20280910A0286FF25
S1130A3008C0EAE0F2E08F7B808360E083E00E94FC
S1130A40B20280910B0286FF08C0EBE0F2E08F7BDC
S1130A50808360E084E00E94B20280910C0286FFF1
S1130A6008C0ECE0F2E08F7B808360E085E00E94C8
S1130A70B20280910D0286FF08C0EDE0F2E08F7BA8
S1130A80808360E086E00E94B20280910E0286FFBD
S1130A9008C0EEE0F2E08F7B808360E087E00E9494
S1130AA0B20280910F0286FF08C0EFE0F2E08F7B74
S1130AB0808360E088E00E94B2028091100286FF89
S1130AC008C0E0E1F2E08F7B808360E089E00E946F
S1130AD0B2028091110286FF08C0E1E1F2E08F7B4F
S1130AE0808360E08AE00E94B20208951F920F9210
S1130AF00FB60F9211242F933F934F935F936F93ED
S1130B007F938F939F93AF93BF93CF93DF93EF9391
S1130B10FF93CCEFD2E089818D5F89830E94470DDA
S1130B208F8198859A878987E4E9F0E080819181B3
S1130B3098878F8311821082FF91EF91DF91CF917B
S1130B40BF91AF919F918F917F916F915F914F91E1
S1130B503F912F910F900FBE0F901F9018951F92E9
S1130B600F920FB60F9211242F933F934F935F93DD
S1130B706F937F938F939F93AF93BF93EF93FF9361
S1130B80ECEFF2E08081815081830E94470D329A1C
S1130B90FF91EF91BF91AF919F918F917F916F9151
S1130BA05F914F913F912F910F900FBE0F901F9027
S1130BB018951F920F920FB60F9211242F933F9303
S1130BC04F935F936F937F938F939F93AF93BF9351
S1130BD0EF93FF934C9B08C0EEEFF4E080818062BA
S1130BE080830E942C0E07C0EEEFF4E080818F7D9D
S1130BF080830E94A70EFF91EF91BF91AF919F91C7
S1130C008F917F916F915F914F913F912F910F90B1
S1130C100FBE0F901F9018951F920F920FB60F9250
S1130C2011242F933F934F935F936F937F938F93ED
S1130C309F93AF93BF93CF93DF93EF93FF9315BC31
S1130C40EEE6F0E080818D7F808385B1877E85B973
S1130C50E1EEF2E08081886080838091FD0481115F
S1130C602FC0A091300287E0A89FD0011124A0508A
S1130C70BF4FEC918E2F881F8827881F1196EC9107
S1130C801197E770EE0FE82BF0E0C1E4D2E0EF5BE0
S1130C90FD4F12968C91809590818923808384E105
S1130CA00E94AD0788858E7F8887E091300287E0B7
S1130CB0E89FF0011124E050FF4F85810E94AD07A9
S1130CC0FF91EF91DF91CF91BF91AF919F918F9160
S1130CD07F916F915F914F913F912F910F900FBE34
S1130CE00F901F9018951F920F920FB60F92112418
S1130CF08F93EF93FF93E3EEF2E081818160818330
S1130D00FF91EF918F910F900FBE0F901F90189548
S1130D101F920F920FB60F9211240F900FBE0F90D7
S1130D201F9018951F920F920FB60F9211240F90D7
S1130D300FBE0F901F9018951F920F920FB60F922F
S1130D4011242F933F934F935F936F937F938F93CC
S1130D509F93AF93BF93EF93FF9380910803811107
S1130D605CC00E94470D8091FE0485FF56C0EEEFE3
S1130D70F2E02081277081E0820F982F97708081A4
S1130D80887F892B8083233009F047C08081887F46
S1130D9080838091FD04813031F489E093E00E94E6
S1130DA01523329A3AC0E0EBF0E080818F7E808395
S1130DB0A1EBB0E08C9180648C938081806380830C
S1130DC01092B200329A8091E30285FF26C0EEEFC2
S1130DD0F2E080818695869586958F5F8770282FAF
S1130DE0220F220F220F9081977C922B90838330C5
S1130DF0A1F4E3EEF2E080818F7D80835C9A10920F
S1130E00FD02E1EEF2E08081816080831092850032
S1130E101092840080818D7F8083FF91EF91BF9138
S1130E20AF919F918F917F916F915F914F913F917E
S1130E302F910F900FBE0F901F9018951F920F9235
S1130E400FB60F9211242F933F934F935F936F9399
S1130E507F938F939F93AF93BF93EF93FF93CF931E
S1130E60DF931F92CDB7DEB78091C6008983AE01B0
S1130E704F5F5F4F61E089E093E00E9476230F901B
S1130E80DF91CF91FF91EF91BF91AF919F918F919E
S1130E907F916F915F914F913F912F910F900FBE72
S1130EA00F901F9018951F920F920FB60F92112456
S1130EB02F933F934F935F936F937F938F939F935E
S1130EC0AF93BF93EF93FF9386EB94E00E9490223D
S1130ED0882361F060E086EB94E00E94A622809370
S1130EE0C60061E086EB94E00E94B82286EB94E0B1
S1130EF00E949022811105C0E1ECF0E080818F7D99
S1130F008083FF91EF91BF91AF919F918F917F91DA
S1130F106F915F914F913F912F910F900FBE0F9062
S1130F201F901895CF93DF9390E0880F991FDC01F1
S1130F30AC57BE4F2C91E22FEF70F0E0EF5BFD4F0A
S1130F40EC01CD57DE4F30818881832B8083822F43
S1130F5080618C93DF91CF910895CF93DF9390E0DC
S1130F60880F991FDC01AC57BE4F2C91E22FEF7014
S1130F70F0E0EF5BFD4FEC01CD57DE4F88818095AB
S1130F80908189238083822F8F7E8C93DF91CF91F0
S1130F900895E82FF0E0EE0FFF1FEC57FE4F90810D
S1130FA094FF03C00E94AD0708950E94920708951C
S1130FB0E1E4F2E082818F7082838781807287838B
S1130FC083818F70838386818F7C868308950F93BA
S1130FD01F93CF93DF9305E011E0C0E0D0E0FE0162
S1130FE0EE0FFF1FEE0FFF1FEE0FFF1FEC1BFD0B9D
S1130FF0EA5FFE4F808180FF05C0F80180810E9476
S1131000920704C0F80180810E94AD072196095F10
S11310101F4FC031D10519F7DF91CF911F910F9167
S113102008958091FC04833009F449C038F0843079
S113103009F458C0853009F470C008958091FE0405
S113104084FF31C08091FF0480FF2AC00E94D8072A
S11310508091CF0582FD0DC0E091DB05EF7187E043
S1131060E89FF0011124E050FF4F85810E94920710
S11310700895E091DB058E2F829586958770E09127
S1131080DC05E370EE0FEE0FEE0FE82B87E0E89F30
S1131090F0011124E050FF4F85810E9492070895CA
S11310A00E94E7070895E091D90587E0E89FF001E1
S11310B01124E050FF4F85810E949207089580918A
S11310C0FE0484FF03C00E94E7070895E091D90558
S11310D087E0E89FF0011124E050FF4F85810E94D2
S11310E0920708958091FE0484FF03C00E94E707DD
S11310F00895E091D7058E2F829586958695837005
S1131100E091D805E370EE0FEE0FE82BF0E0E9581C
S1131110FE4F80810E94920708958091FE0484FF0F
S113112003C00E94E7070895E091D7058E2F8295AA
S1131130869586958370E091D805E370EE0FEE0FE7
S1131140E82BF0E0E958FE4F80810E949207089551
S11311502F923F924F925F926F927F928F929F92C3
S1131160AF92BF92CF92DF92EF92FF920F931F93B1
S1131170CF93DF9324E4EBE8F5E0DF011D922A9599
S1131180E9F72091D40522FB882780F990E000E05C
S113119010E06C01CC0CDD1CCC0CDD1CCC0CDD1C7B
S11311A0CC0CDD1CEE24E394F12C5C01B3E0AB0E1B
S11311B0B11C9501220F331FF901E450FB4F5F016D
S11311C00F2EFBEA8F2EF5E09F2EF02D3C01F5E269
S11311D06F0E711C9301220F331FA90144505B4F02
S11311E03A010F2EFDEC4F2EF5E05F2EF02D8450CA
S11311F09B4F1C0155ED250E311C52C09E01082E3B
S113120002C0369527950A94E2F720FF06C0208194
S11312103181242B352B318320839B01082E02C07E
S1131220369527950A94E2F720FF08C02D913C914A
S11312301197242B352B11963C932E9301961296DD
S1131240329680319105D1F6D5018D919C91002E75
S113125002C0969587950A94E2F780FF07C0F401CF
S113126080819181842B952B91838083D3018D91EF
S11312709C91002E02C0969587950A94E2F780FF10
S113128007C0F20180819181482B592B51834083FF
S11312900F5F1F4FD1018C9190E080179107FCF0F4
S11312A0C601800F911FFC01EE0FFF1FEA5FFA4F8A
S11312B0C081D181A701002E02C0440F551F0A949A
S11312C0E2F7880F991FFC01E65BFA4F6081718198
S11312D0ADEAB5E0EBE8F5E080E090E08FCFDF9198
S11312E0CF911F910F91FF90EF90DF90CF90BF901F
S11312F0AF909F908F907F906F905F904F903F90B2
S11313002F90089580914602482F437C8091FE04DB
S113131088236CF58091FC048450823040F58091E0
S1131320D605982F991F9927991F8091D7058F73F8
S1131330880F892B90E0803191052CF4842F8062F2
S1131340809346020895803291052CF4842F8061A5
S1131350809346020895C0972CF4842F886080936C
S113136046020895842F84608093460208958091F4
S1131370D40586958695869583708E5F21E030E04E
S1131380B90102C0660F771F8A95E2F7CB01842B5F
S1131390809346020895E1E4F2E0118210820895F8
S11313A080910803811102C00E94EF0C0E94B81BB7
S11313B00E94F31A0E944A1B8091FC04833029F492
S11313C08091FE0484FF0E94F1040E944D0B0E9450
S11313D0140C0E94231C0E942F1D0E94F51B0E94C6
S11313E05B0F0E94151F0E9411080E946F1B0E9430
S11313F0EF160E94A9130E94CF1A5D980895559A7A
S11314008DB18F608DB9399A209A73984198289834
S1131410719A80E58093AC00EDEAF0E08081816010
S113142080836A9A3A9A239A249AE9E6F0E08081C2
S11314308E608083EDE6F0E080818061808303ED3F
S113144015E0F801828191819F719183807E82836E
S113145080E00E9492078DE10E94920782E20E943E
S113146092070E94CF1A84B5826084BD80E187BD53
S113147089E093E00E94452360E07BE089E093E00B
S11314800E9439236AE17BE089E093E00E943D23D6
S11314906BE17BE089E093E00E9441230E94E90A2A
S11314A00F2EFBEDEF2EF5E0FF2EF02DF7018181DD
S11314B0837C81830E948102ECEFF2E088E18083E7
S11314C0DD24D394D18214860E945E02E1EEF2E020
S11314D0808188608083E3EEF2E080818D7F808369
S11314E0CEEFD4E088818F7D88830F2EFCEFAF2E62
S11314F0F4E0BF2EF02D1092D00584E20E949207F2
S1131500EFECF5E080818B7F80838EE20E9492076E
S1131510F501D082D182F80181818D7F8B7F818317
S11315208AE20E94920787E20E949207F801828170
S11315308F71806882838381816083838881807FC7
S11315408883EAE8F5E08081807F80838A818F73D5
S11315508A838B818E7F8B830E944A01789460E01A
S113156080E00E94BA0F898181788062898385EE48
S1131570F701808381818C7F8160818389E093E09E
S11315800E9473250E94D009F9CF0F931F93CF9324
S1131590DF93EB01122F642F86EB94E00E945A2212
S11315A0C230D10528F0612F86EB94E00E945A22C4
S11315B0239729F4602F86EB94E00E945A22E1ECF1
S11315C0F0E0808180628083DF91CF911F910F9141
S11315D008958FE18093C4001092C50088E9809338
S11315E0C100519A40EC66EF73E086EB94E00E94F0
S11315F0532265EC7AE089E093E00E9498230895F1
S1131600E091DC05E695E695EF70F0E06F7070E030
S1131610E617F70771F48091FD0481110AC08091E7
S1131620FE0485FD06C0403120F4622F842F0E9401
S1131630B20208950895CF93DF938091080388231D
S113164049F16A3FC1F06C3FF1F0683F19F5CCEF06
S1131650D2E089818D5F89830E94470D8F819885AF
S11316609A878987E4E9F0E08081918198878F8364
S1131670118210820FC0EEEFF4E0808180628083DB
S11316800E942C0E07C0EEEFF4E080818F7D8083F2
S11316900E94A70EDF91CF910895CF93DF9300D0DE
S11316A000D000D0CDB7DEB786E0E3E2F2E0DE01A1
S11316B0119601900D928A95E1F78091160286FFAA
S11316C0AAC0E6E1F2E08F7B80838091FE0484FF70
S11316D00CC08091F101882321F081508093F101A5
S11316E00EC085E08093F1010AC08091F1018F5F03
S11316F0863019F08093F10102C01092F10130910B
S1131700F101FE01E30FF11D21812093FC04E1E4CA
S1131710F2E081E090E002C0880F991F3A95E2F769
S11317209481907C892B84838FEF820F8230E8F43C
S1131730E1E0213009F4E0E0A3EDB5E011968C91ED
S11317401197E0FB82F911968C931197F0E0E45025
S1131750FB4FEB52FF4F8081982F9F718C91807EBD
S1131760892B8C930E94A80856C02330E9F48091F9
S1131770D405982F9295969597708091D505817090
S1131780880F880F880F892B90E00C970CF443C0C6
S1131790E3EDF5E08281817E86618283E1EEF2E011
S11317A080818062808337C02430A9F50E94411A69
S11317B0E3EDF5E083818F7783838481807C848368
S11317C06091BB04862F8F70382F330F9281907EE7
S11317D0462F4295440F407E21812F71242B218373
S11317E0282F269526952695932B922B92836295E6
S11317F06F70EAE8F5E09081907F962B908390914A
S1131800FE0495FF06C0E1EEF2E0808180628083F1
S113181002C00E94BA0F26960FB6F894DEBF0FBE20
S1131820CDBFDF91CF910895CF93DF93CDB7DEB7CE
S11318302A970FB6F894DEBF0FBECDBF86E0E9E26B
S1131840F2E0DE01119601900D928A95E1F781E0B4
S11318508F83188683E0898782E08A87E1E4F2E057
S113186024812F7324838281807F82839091FE045C
S113187094FF6AC08091170286FF57C0E7E1F2E047
S11318808F7B8083809131028F5F843019F0809345
S1131890310202C01092310280913102FE01E80F40
S11318A0F11D87818093FD041092B1001DBA10923E
S11318B06800813031F050F0823021F1833079F0CA
S11318C034C010920803429872982FC081E080932C
S11318D008031092950010929400729A26C01092F8
S11318E008035A9A8AB1886D8AB9E0EBF0E08081E6
S11318F082608083E1EBF0E08081876080831092D6
S1131900B20013C081E080930803109295001092F6
S1131910940072988AB187728AB98DB383608DBB43
S1131920E8E6F0E0808184608083E1E4F2E081E035
S113193090E00090310202C0880F991F0A94E2F7E8
S11319409281892B828342C09091170296FF22C014
S1131950E7E1F2E09F7B9083909132029F5F9630A3
S113196019F09093320202C0109232029091320226
S1131970DE01A90FB11DEEEFF4E011969C91392F11
S11319803F709081907F932B9083E3EDF5E09381FA
S11319909178938390913202923068F49A5F41E097
S11319A050E0BA0102C0660F771F9A95E2F7262B22
S11319B0209345020BC0925021E030E002C0220F78
S11319C0331F9A95E2F7822B809343022A960FB62F
S11319D0F894DEBF0FBECDBFDF91CF9108950E9472
S11319E07402909336028093350220913302309131
S11319F03402821B930B9595879595958795820F55
S1131A00931F90933402809333022BE834E0A901AE
S1131A10481B590BECEFF2E0548343832381348158
S1131A20858196812817390731F08091FF029091C2
S1131A3000030E949502ECEFF2E083819481968387
S1131A40858308958091D605982F991F9927991F0A
S1131A508091D7058F73880F892B282F30E0203190
S1131A6031051CF40E94920708952032310524F4B4
S1131A7080510E94920708952033310524F4805246
S1131A800E949207089580530E94920708958091BE
S1131A90E30286FF28C080910005869586958F5FB6
S1131AA08F70EEEFF4E0282F220F220F9281937CA7
S1131AB0922B928390E02091FF04322F3695377059
S1131AC022952F702770329F90011124821793075B
S1131AD051F4E1EEF2E0808181608083E3EEF2E094
S1131AE080818F7B80839091D30592959695977092
S1131AF08091D4058170880F880F880F892B382F27
S1131B003170ECEFF2E091819F5F91832081921319
S1131B1081C09091E30291FF0CC0E091D405E69559
S1131B20E695E695E370F0E0EE50FE4F90819093D9
S1131B30FC029091E3029923C4F49091FF04692F6D
S1131B40661F6627661F909100059370990FEEEF4C
S1131B50F4E0962B292F220F9181917F922B918370
S1131B60E3EEF2E090819F7790839091FF049E7062
S1131B7081F031110EC09091E302992354F0EEEFFD
S1131B80F4E09281937C9283E3EEF2E0908190649E
S1131B9090839091E30296FD05C0E1EEF2E090811E
S1131BA09160908321E0280FE3EDF5E0322F329528
S1131BB0330F307E90819F71932B908323FB992761
S1131BC090F921812E7F292B218390E021FB44274A
S1131BD040F950E044505B4FFA01EB52FF4F208133
S1131BE030E08217930749F48091FE0485FF05C015
S1131BF0E3EEF2E0808181608083EEEFF2E08081A9
S1131C00807C90E4980F80818F73892B808310925D
S1131C10FD020895ECEFF2E091818081869598139E
S1131C2003C0332399F002C03323A9F0ECEFF2E0B0
S1131C302181408130E046958091FF04869587702C
S1131C4090E0840F911D2817390729F4E1EEF2E0A2
S1131C508081826080830895E3EDF5E083818F774E
S1131C6083838481807C8483EEEFF2E08081887FAB
S1131C70808380910803813071F4E3EDF5E0808185
S1131C80806E8083818181608183ECEFF2E08081CA
S1131C90845081830AC0E3EDF5E080818F718083F5
S1131CA081818E7F81831092FD02E1EEF2E08081DA
S1131CB08B7F80838091D0058D7F31F4EFECF5E04C
S1131CC080818D7F808305C0EFECF5E080818260A8
S1131CD080838091FD049EEF980F923058F4E3EED8
S1131CE0F2E0808180628083EEEFF2E08081877C85
S1131CF080830FC0E1EEF2E09081916090838130A7
S1131D0041F489E093E00E94212389E093E00E945A
S1131D1015238091FC048330B9F48091E30283FF9E
S1131D2013C0E3EEF2E08081877F8083EFECF5E07F
S1131D30808182FB992790F990FB81F98083E1EE01
S1131D40F2E08081806280838BEE87BD089580916C
S1131D50D40581FF0BC0E3EDF5E081818D7F8183A4
S1131D608BE20E94AD078AE20E9492070E94D80784
S1131D70E091D90587E0E89FF0011124E050FF4F7E
S1131D8085810E9492078091D50586958F70E3ED39
S1131D90F5E0282F2295220F207E91819F71922BAE
S1131DA09183282F26952695269592819E7F922BA6
S1131DB09283938191789383E1EEF2E090819F7D09
S1131DC09083E3EEF2E090819F7E9083E1E4F2E081
S1131DD0118210820E9492078091FC04833071F476
S1131DE09091D5059295969597708091D6058170BE
S1131DF0880F880F880F892B0E949207809108030F
S1131E0081110CC08091FD04813039F4429872989C
S1131E1089E093E00E942D2301C05C9880E187BD96
S1131E200895CF93DF93863090F4EEEFF4E0918140
S1131E3080FB97F991838695837092819C7F892B8F
S1131E408283E3EEF2E080818068808315C088504D
S1131E50863090F4EEEFF4E0282F2295220F220F23
S1131E60207C92819F73922B928382FB992790F915
S1131E7083818E7F892B83839091FF04991F9927F7
S1131E80991FC0E0D5E088818370880F892B0E9458
S1131E9092078881982F9295969596959370809144
S1131EA001058170880F880F892B885F0E94920733
S1131EB0DF91CF9108958091180286FF2CC0809104
S1131EC0FE0484FF28C0E8E1F2E080818F7B8083F8
S1131ED08091D405869586958695837069F08D5F8B
S1131EE08370E3EDF5E0982F990F990F990F818195
S1131EF0877E892B818305C0E3EDF5E081818861CC
S1131F008183E1EEF2E0808180618083E3EEF2E0A0
S1131F108081826080830E94820908958091E10219
S1131F2082FF18C0E1EEF2E080818B7F8083809194
S1131F30D005813049F010F08230D9F4EFECF5E0AF
S1131F4080818D7F80830895EFECF5E0808182604D
S1131F50808308958091D005823059F4EFECF5E048
S1131F60808181FB222720F991E0922790FB81F95F
S1131F7080830895EF92FF920F931F93CF93DF9383
S1131F80CDB7DEB7CB58D1090FB6F894DEBF0FBE7C
S1131F90CDBF462F60E0782FCE0101960E948201CA
S1131FA084E4FE013196A2E0B5E001900D928A9599
S1131FB0E1F784E4FE01EB5BFF4FA6E4B5E001909A
S1131FC00D928A95E1F7C657DF4F8881CA58D040F1
S1131FD08093D105C557DF4F8881CB58D04080937B
S1131FE0D205C757DF4FE881C958D040E3700F2EA0
S1131FF0F3EDEF2EF5E0FF2EF02D9E2F990F990FA4
S1132000990FD70111968C911197877E892B119680
S11320108C93F0E0EE50FE4F80818093FC020E948E
S1132020A8080E9482098091D40582FB002700F948
S113203010E004501B4FF801EB52FF4F8081982FA2
S11320409F71F7018081807E892B8083C557DF4F84
S11320500FB6F894DEBF0FBECDBFDF91CF911F91B5
S11320600F91FF90EF900895EF92FF920F931F93BB
S1132070CF93DF938091FE048F70B9F08091D605E1
S113208086958F5F8F73E3EDF5E0282F220F938100
S11320909178922B93839091FE049F70891305C0CD
S11320A0E3EEF2E08081806180838091E30284FF2B
S11320B068C0C3EDD5E08B8181788B83E3EEF2E0D9
S11320C080818F7E808380818260808360918A0595
S11320D06F700F2EF5EDEF2EF5E0FF2EF02DF701CA
S11320E0908192959695977006ED15E0F8018081A0
S11320F08170880F880F880F892B0E94BA0F8981FD
S11321008D7F89838BE20E94AD078AE20E94920749
S11321108091D405282F229526952770F701808178
S11321208170880F880F880F822B982F990F8A81CE
S1132130817E892B282F229526952770F80190817E
S11321409170990F990F990F922B392F3295330F64
S1132150307E29812F71232B298396959695969508
S11321608E7F892B8A83EFECF5E0808182FB9927AF
S113217090F990FB81F98083E1EEF2E08081806246
S11321808083DF91CF911F910F91FF90EF9008957D
S11321900F931F93CF93DF938091E30282FF22C1B9
S11321A0E3EEF2E080818B7F80838091FC049FEFDB
S11321B0980F923008F09BC06091D905603171F599
S11321C09091CF058091D40582FBAA27A0F9B0E0B5
S11321D096959170FD0122E2929FE00DF11D11246C
S11321E0EE0FFF1FEE5FFA4F9091D30592959695EF
S11321F097708170880F880F880F892B21E030E059
S1132200D90102C0AA0FBB1F8A95E2F7CD01208134
S11322103181822B932B9183808335C07091CF05BC
S11322208091D40582FB222720F930E09091D305D8
S11322309295969597708170880F880F880F892BD7
S1132240F901E295F295F07FFE27E07FFE2771FB0E
S1132250992790F9B2E29B9FE00DF11D1124E80F3C
S1132260F11DEE0FFF1FEA5FFA4F81E090E0062EAA
S113227002C0880F991F0A94E2F720813181822BD2
S1132280932B918380838091CF0581FB442740F970
S113229050E081E1849FF001859FF00D1124E60F49
S11322A0F11DEE0FFF1FE557FA4F8091D305982FCC
S11322B09295969597708091D4058170880F880FB8
S11322C0880F892B21E030E0A90102C0440F551F7B
S11322D08A95E2F7CA0120813181822B932B918365
S11322E08083E1EEF2E08081806180837BC0833073
S11322F009F078C08091FE0485FF09C08F7009F051
S113230071C0E3EEF2E08081806180836BC0E3EE14
S1132310F2E0808183FB992790F981E089279081FD
S113232080FB93F99083808183FF41C060918A058B
S11323306F7005ED15E0D8019C9192959695977074
S1132340C6EDD5E088818170880F880F880F892BAE
S11323500E94BA0F8091D405282F229526952770C4
S1132360F80180818170880F880F880FE3EDF5E014
S1132370822B982F990F8281817E892B282F229579
S11323802695277098819170990F990F990F922B28
S1132390392F3295330F307E21812F71232B2183E6
S11323A09695969596958E7F892B82831BC08091F6
S11323B0D50586958F70E3EDF5E0282F2295220F41
S11323C0207E91819F71922B9183282F26952695AB
S11323D0269592819E7F922B928360918A056F70DD
S11323E00E94BA0FDF91CF911F910F910895CF935F
S11323F0DF93CDB7DEB7CB58D1090FB6F894DEBF63
S11324000FBECDBF982F24E4E2E0F5E0DE01119683
S113241001900D922A95E1F724E4E6E4F5E0DE016B
S1132420AB5BBF4F01900D922A95E1F78091D105E6
S1132430C657DF4F8883CA58D0408091D205C5570C
S1132440DF4F8883CB58D0402091D405269526951C
S113245026952370C757DF4F2883C958D040AE0153
S11324604F5F5F4F80E00E94B301C557DF4F0FB647
S1132470F894DEBF0FBECDBFDF91CF910895CF9307
S1132480DF93E3EDF5E080818F71808381818E7F1E
S113249081838091E10284FF16C0E1EEF2E0808145
S11324A08F7E808360918A056F709091D405929598
S11324B0969597708091D5058170880F880F880F45
S11324C0892B0E94F7118091FC04843009F04BC0E1
S11324D08091D605982F991F9927991F8091D70528
S11324E08F73880F892BE1E0E80FEF77A3EDB5E058
S11324F013969C911397E0FB97F913969C9313976B
S11325002E2F269514969C911497907C922B1496BA
S11325109C9390E02091FB0430E08217930744F0F1
S1132520EEEFF4E080818F7D80830E94A70E0EC1C0
S1132530F0E0E554FB4F8081982F9F70E3EDF5E0C8
S1132540292F220F9281917E922B9283EAE8F5E063
S113255082958F709081907F892B8083E1EEF2E0E9
S11325608081806280838091D205803109F474C0B7
S11325708091D40581FF5CC081FB992790F981E0AB
S11325808927E3EDF5E0918180FB91F991838BE25A
S11325900E94AD078AE20E9492070E948E0F8091EA
S11325A0E10285FF3DC0E1EEF2E080818F7D808312
S11325B0E3EEF2E08081826080838091D505869588
S11325C08F70E3EDF5E0282F2295220F207E918174
S11325D09F71922B9183282F26952695269592817B
S11325E09E7F922B928360918A056F700E94BA0F2E
S11325F0EFECF5E080818D7F80838091D005813080
S113260019F4808182608083E3EDF5E081818D7F20
S113261081838BE20E94AD078AE20E94920765C023
S11326208091FC04833009F060C00E9434105DC0C6
S11326308AE20E94AD078BE20E9492078091D40542
S113264081FB992790F981E08927E3EDF5E09181F9
S113265080FB91F9918349C00E948E0F8091E10221
S113266085FF3DC0E1EEF2E080818F7D8083E3EE63
S1132670F2E08081826080838091D50586958F7099
S1132680E3EDF5E0282F2295220F207E91819F71A2
S1132690922B9183282F26952695269592819E7FAD
S11326A0922B928360918A056F700E94BA0FEFECAF
S11326B0F5E080818D7F80838091D005813019F48D
S11326C0808182608083E3EDF5E081818D7F818369
S11326D08BE20E94AD078AE20E94920706C08091B5
S11326E0FC04833011F40E9434108091FC04815066
S11326F0823090F48091D40582FB882780F9C82F1A
S113270080E0D82FC450DB4FCB52DF4F8091D305EC
S11327108F7188830E94A8088091E30281FF16C00C
S1132720E3EEF2E080818D7F8083EEEFF4E081813F
S1132730817F8183E091D405E695E695E695E37083
S1132740F0E0EE50FE4F80818093FC02DF91CF9148
S11327500895CF92DF92EF92FF920F931F93CF933E
S1132760DF938091E10280FFEDC0E1EEF2E0808131
S11327708E7F80838091FE0485FF21C38091E302D4
S113278080FF0BC0E3EEF2E080818E7F80830E94A5
S11327903F128091FE0485FF19C38091FC048330AD
S11327A009F44DC020F0863008F0C9C092C00E94E0
S11327B0C8108091FE0484FDC2C08091D40582FBC0
S11327C0992790F9869581709813B9C08091D305A3
S11327D0982F9295969597708091D4058170880F63
S11327E0880F880F892B21E030E002C0220F331FAD
S11327F08A95E2F78091CF0581FB002700F910E06C
S11328008091D90591E1909FF001919FF00D1124E1
S1132810E80FF11DEE0FFF1FE557FA4F90818181FC
S1132820E1E4F2E0492F42234095922B94239183D3
S1132830982F93239095832B8923808380C00E94B3
S1132840C8108091FE0484FD7AC02091D305822FA4
S11328508295869587702091D4052170220F220FCE
S1132860220F282B81E090E0AC0102C0440F551FD9
S11328702A95E2F72091D505322F36953F70BC0199
S113288002C0660F771F3A95E2F7E1E4F2E0362FD3
S113289034233095462B3423318322952695277093
S11328A03091D6053170330F330F330F232B02C011
S11328B0880F991F2A95E2F79C01262B372B832F2B
S11328C08523282F2095872F852B892B822380838E
S11328D036C08091FF0480FD32C08091FE048823BD
S11328E074F12091D305822F82958695877020916B
S11328F0D4052170220F220F220F282B81E090E0B3
S1132900AC0102C0440F551F2A95E2F72091D5056A
S113291026952F7002C0880F991F2A95E2F7E1E4EB
S1132920F2E0282F24232095842B82238183892F6E
S11329308523282F2095892F852B822380830E942D
S11329407F033DC28091E10281FF14C2E1EEF2E017
S113295080818D7F80830E94D8073091CB012091A4
S1132960CD01E1E4F2E0822F832B809595818923C8
S113297085838091FE0485FF63C11182108280915A
S11329800005982F929596959695937080910105E0
S11329908170880F880F892B853029F460E080913D
S11329A0D9050E94B2028091FC04833009F453C01B
S11329B020F0863008F0C5C09EC08091FE0484FFDC
S11329C022C08091FF0480FDBCC0982F991F9927D5
S11329D0991F00E015E0D8018C918370880F892B32
S11329E00E949207F8018081982F9295969596956A
S11329F09370809101058170880F880F892B885FFF
S1132A000E9492079EC009ED15E0D801EC91B7E051
S1132A10EB9FF0011124E050FF4F85810E94920743
S1132A208091CF0581FBCC24C0F8D12CF8018081A2
S1132A3091E19C9DF0019D9DF00D1124E80FF11D85
S1132A40EE0FFF1FE557FA4F90818181E1E4F2E038
S1132A509183808376C08091FE0484FF29C0809195
S1132A60FF0480FF06C080918A058F700E94920740
S1132A7068C09091FF04991F9927991F00E015E001
S1132A80D8018C918370880F892B0E949207F801DA
S1132A908081982F929596959695937080910105D3
S1132AA08170880F880F892B885F0E94920749C024
S1132AB08091D505982F96959F7021E030E0A9016B
S1132AC002C0440F551F9A95E2F7E1E4F2E0418316
S1132AD08295869587709091D6059170990F990F7C
S1132AE0990F892B02C0220F331F8A95E2F7852F95
S1132AF0832B808326C08091FF0480FF0AC08091CD
S1132B00FE0484FD06C080918A058F700E9492079E
S1132B1018C08091FE0488231CF40E94220D11C069
S1132B208091D50586958F7021E030E0A90102C01F
S1132B30440F551F8A95E2F7CA01E1E4F2E04183AC
S1132B4090838091CB018093DA058091CF0586959F
S1132B508170C82F50E0D52F8091D00590E0C81720
S1132B60D90769F48091CF0581FF11C08091E102FA
S1132B7082FD0DC08091CD018093DA0508C080915B
S1132B80CF0581FF04C08091CD018093DA05809147
S1132B90FE02829586958695837090E002970CF0EC
S1132BA00EC18091FC048330D8F48091FE0484FF2C
S1132BB017C08091FF0480FF07C08091D5058695DA
S1132BC08F700E9492070CC09091FF04991F99275F
S1132BD0991F809100058370880F892B0E949207AA
S1132BE08091CF0581FBEE24E0F8F12C8091D00593
S1132BF090E0E816F906A1F08091CF0581FD08C0A8
S1132C00EAEDF5E09091CD018081892B8083D7C0D6
S1132C10EAEDF5E09091CB018081892B8083CFC0D0
S1132C208091CF0581FDCBC08091E10282FFC7C0B6
S1132C30EAEDF5E09091CD018081892B8083BFC0BE
S1132C40E1E4F2E0118210829091D005913031F0EC
S1132C5010F0923029F43093DA0502C02093DA059B
S1132C609091FC04933029F050F1963008F04BC059
S1132C703AC084FF0AC08091FF0480FF44C0809161
S1132C808A058F700E9492073EC08091E30283FF01
S1132C9007C08091D50586958F700E94920733C036
S1132CA09091D5059295969597708091D6058170EF
S1132CB0880F880F880F892B0E94920724C084FFF5
S1132CC022C08091FF0480FF08C08091DC058695B6
S1132CD086958F700E94920716C080918A058F7026
S1132CE00E94920710C09091FF0490FF08C084FDD9
S1132CF006C080918A058F700E94920704C08823C1
S1132D0014F40E94220D8091FE0282958695869588
S1132D10837090E002970CF052C08091FE04807999
S1132D2009F04DC08091FF0480FD49C08091D00519
S1132D30823039F4EAEDF5E09091CD018081892B60
S1132D4080838091D50586958F700E94920780912B
S1132D50FC048330A1F59091D505929596959770D2
S1132D608091D6058170880F880F880F892B0E9467
S1132D70920725C080910803813009F58091FE04F3
S1132D8085FD1DC03091CB012091CD01922F932B55
S1132D90E1E4F2E0492F4095858184238583809185
S1132DA0D005813039F018F0823039F008C0309302
S1132DB0DA0505C02093DA0502C09093DA05E1E450
S1132DC0F2E09091DA058581892B8583DF91CF919B
S1132DD01F910F91FF90EF90DF90CF9008956F9225
S1132DE07F928F929F92AF92BF92CF92DF92EF9297
S1132DF0FF920F931F93CF93DF938091FE0485FF7F
S1132E00B1C10E94131D182F8F3F09F42BC3809169
S1132E10FC04833009F40DC118F4813028F422C372
S1132E20853009F45FC11EC38091FE0484FF37C05E
S1132E300E94CB098091FF0480FF2DC08091D405AE
S1132E40982F9295969597708091D5058170880FEB
S1132E50880F880F892B482F50E0212F30E042172C
S1132E60530709F4FFC2E1EEF2E09081906290838F
S1132E70E3EDF5E0912F9F70792E770C9281917E8E
S1132E80972992830E94AD078091D50586958F700E
S1132E900E949207E7C2812F0E94110FE3C286FFAE
S1132EA00FC0E8E1F2E080818F7B8083E3EDF5E001
S1132EB0812F8F719081907E792E782A7082D2C270
S1132EC08091D905803109F052C08091D40582FBEC
S1132ED0662460F8712CC30184509B4FFC01EB52B3
S1132EE0FF4F8081811708F4BDC2812F0E94C9075A
S1132EF08091CF0581FBAA24A0F8B12C8091D40540
S1132F0082FB882480F8912C81E090E002C0880F35
S1132F10991F1A95E2F722E22A9DF0012B9DF00DEC
S1132F201124E80DF91DEE0FFF1FEE5FFA4F20810B
S1132F30318128273927318320832091D90531E134
S1132F403A9DF0013B9DF00D1124E20FF11DEE0FAF
S1132F50FF1FE557FA4F2081318182279327918300
S1132F608083E1EEF2E08081806180837BC2809186
S1132F70D40582FB882780F9C82F80E0D82FC4505D
S1132F80DB4FCB52DF4F8881811708F46BC2812F4E
S1132F900E94C9078091CF0581FBCC24C0F8D12CB5
S1132FA08091D40582FBEE24E0F8F12C4091D90500
S1132FB0F701E295F295F07FFE27E07FFE2722E2FB
S1132FC02C9DC0012D9D900D1124E80FF91FE10FD8
S1132FD0F11DEE0FFF1FEA5FFA4F81E090E09C01C4
S1132FE0042E02C0220F331F0A94E2F7608171811C
S1132FF0262737273183208321E12C9DF0012D9D45
S1133000F00D1124E40FF11DEE0FFF1FE557FA4FE9
S113301002C0880F991F1A95E2F720813181822717
S1133020932791838083E1EEF2E080818061808345
S113303019C28091FE0484FF23C08091FF0480FFA5
S11330401BC01C3008F00EC280918A058F70811756
S113305009F408C20E94AD07EAE8F5E0812F8F70F9
S11330609081907F982B90830E949207E1EEF2E08A
S1133070808180628083F6C1812F0E94110FF2C18A
S11330801C30E8F4812F8F70E3EDF5E0282F220F38
S11330909281917E922B92832091D405229526953C
S11330A027709170990F990F990F922B891709F432
S11330B0D9C1E1EEF2E0808180628083D3C1E3ED87
S11330C0F5E0912F9295990F907E82818F71892BD3
S11330D0828313FB882780F993819E7F792E782A37
S11330E07382C0C18091FF0480FF1FC08091FE04E1
S11330F084FD1BC01C3008F0B5C180918A058F7017
S1133100811709F4AFC10E94AD07EAE8F5E0812F09
S11331108F709081907F982B90830E949207E1EEAC
S1133120F2E08081806280839DC1812F8F70E3ED06
S1133130F5E0282F220F9281917E922B9283209189
S1133140D4052295269527709170990F990F990FA0
S1133150922B891709F486C1E1EEF2E08081806246
S1133160808380C18091FC04833011F40E94C810D4
S11331700E94131DC82F8F3F09F474C18091FC0471
S1133180833009F4A6C020F0853009F411C16AC166
S11331908091FE0484FF58C08091FF0480FF15C015
S11331A08091DC05869586958F700E94AD07EBEDC6
S11331B0F5E08C2F8F70282F220F220F9181937CA2
S11331C0922B91830E9492074DC1CC3008F04AC1E2
S11331D08091E10284FF16C0E1EEF2E080818F7EEF
S11331E0808360918A056F709091D405929596952D
S11331F097708091D5058170880F880F880F892B6F
S11332000E94F7110AE815E0F80180818F700E948E
S1133210AD078C2F8F70F8019081907F982B90834D
S11332200E949207F80160816F709091D405929585
S1133230969597708091D5058170880F880F880FB7
S1133240892B0E94BA0F0EC186FF1AC08091D40543
S1133250982F9295969597708091D5058170880FD7
S1133260880F880F892B90E02C2F30E0821793076A
S113327069F060918A056F708C2F0E94F71106C067
S113328060918A056F708C2F0E94BA0F9C2F9F70DB
S1133290E3EDF5E0392F330F4281407E8C2F829588
S11332A0880F807EC181292F269526952695942FF7
S11332B0932B922B9283CC7190819F719083C82B16
S11332C0C1831092FD02EEEFF2E080818F73808360
S11332D0C9C08091FE0484FF2CC08091FF0480FF4C
S11332E0C1C0CC3008F0BEC080918A058F708C17A5
S11332F009F4B8C00E94AD070AE815E08C2F8F705E
S1133300F8019081907F982B90830E949207F80196
S113331060816F709091D405929596959770809185
S1133320D5058170880F880F880F892B0E94BA0FEA
S113333099C0CC3058F58C2F8F7003ED15E0382FE1
S1133340330FF8019281907EC295CC0FC07E21810B
S11333502F71C22BC183282F269526952695932B52
S1133360922B928360918A056F700E94BA0FF801C4
S1133370818190819F7190838C7F81831092FD0263
S1133380EEEFF2E080818F7380836CC0E3EDF5E0B3
S11333909C2F9295990F907E82818F71892B8283C5
S11333A0C3FB882780F9C381CE7FC82BC3835AC04F
S11333B08091FF0480FF2CC08091FE0484FD28C00E
S11333C0CC3008F04FC080918A058F708C1709F4B7
S11333D049C00E94AD070AE815E08C2F8F70F801F0
S11333E09081907F982B90830E949207F8016081CE
S11333F06F709091D4059295969597708091D505AC
S11334008170880F880F880F892B0E94BA0F2AC0F9
S11334108C2F8F7003ED15E0382F330FF801928154
S1133420907EC295CC0FC07E21812F71C22BC183A7
S1133430282F269526952695932B922B928360917F
S11334408A056F700E94BA0FF801818190819F7183
S113345090838C7F81831092FD02EEEFF2E08081F5
S11334608F738083DF91CF911F910F91FF90EF9025
S1133470DF90CF90BF90AF909F908F907F906F9090
S11334800895CF93DF93CDB7DEB7C154D1090FB6FA
S1133490F894DEBF0FBECDBF6091D705862F82950D
S11334A08695869583706091D8056370660F660F64
S11334B0682B70E0CE0101960E94040281E4FE01B3
S11334C03196ABEBB4E001900D928A95E1F7E1EE11
S11334D0F2E0808180628083CF5BDF4F0FB6F89487
S11334E0DEBF0FBECDBFDF91CF910895CF93DF93A1
S11334F0CDB7DEB7C154D1090FB6F894DEBF0FBE05
S1133500CDBF4091D605842F881F8827881F4091FE
S1133510D7054F73440F482B50E020E030E0A1E082
S1133520B0E0AC0FBD1FA20FB31FF901E554FB4F70
S11335308081982F9F70807F892B8C932F5F3F4FC2
S11335404217530764F78091FB0422968FAF2297AA
S11335508091D705982F9295969596959370809122
S1133560D8058370880F880F892BBE016F5F7F4F4A
S113357090E00E943502CF5BDF4F0FB6F894DEBFB8
S11335800FBECDBFDF91CF9108958093AE00EDEAD9
S1133590F0E080818823ECF78091AE000895CF930A
S11335A0DF93C1E4D2E088810E94C51A89810E9418
S11335B0C51A8A810E94C51A8B810E94C51A8C8102
S11335C00E94C51A8D810E94C51A8E810E94C51A57
S11335D08F810E94C51A88850E94C51A7198719AB4
S11335E0DF91CF910895CF93DF93709A80E00E948A
S11335F0C51ACCE3D2E0888380E00E94C51A89838F
S113360080E00E94C51A8A8380E00E94C51A8B83D9
S113361080E00E94C51A8C8370989881292F269582
S1133620EEEFF4E0308120FB34F9492F46954695BE
S1133630218140FB20F921832A81422F42954F703A
S113364040FB36F93083E7E3F2E0308193273927F2
S11336503083932398833181998193273927318348
S1133660932399833281932F9227292F232722830F
S113367092239A8323819B81922729272383922350
S11336809B83948189279827948389238C83DF9152
S1133690CF91089540E050E0DA01AA50BE4F8C91DA
S11336A0E82FE695E695E695E770F0E0E45CFD4FDB
S11336B0208130E0982F977002C0359527959A9510
S11336C0E2F7217086FB992790F9292720FB86F9D8
S11336D08C934F5F5F4F43325105F1F6089580910B
S11336E0120286FF44C08091FC04853009F03FC07B
S11336F0E2E1F2E080818F7B80838091FF0480FD92
S113370036C08091D605982F991F9927991F8091CB
S1133710D7058F73880F892BE82FF0E0E554FB4F12
S113372090918A052091D50526952F709295907FCA
S1133730922B90838093FB048F5F8F77803461F0AA
S1133740E3EDF5E0938180FB97F99383869594816B
S1133750907C892B848309C0E3EDF5E08381806844
S113376083838481807C8F6184830E94761A089588
S113377093B1292F26952695EEEFF4E0808120FB66
S113378087F9808380914A029827892780934A0287
S1133790892382FD03C080934B0209C094E08927EA
S11337A080934B02E3EEF2E0808184608083809119
S11337B008038130C9F0EEEFF4E0808185FB222715
S11337C020F990914B029695922790FB85F980837E
S11337D085FF08C0211108C00E942C0E08950E9484
S11337E0A70E08952130D9F308958091140286FF1D
S11337F029C09091FE0494FD25C0E4E1F2E08F7BA2
S11338008083E0EDF5E080818F5F8083833029F44D
S11338101092D00595FF0BC002C095FF06C0E1EEE3
S1133820F2E080818460808308958D7F31F4EFEC31
S1133830F5E080818D7F80830895EFECF5E0808151
S1133840826080830895CF92DF92EF92FF920F936C
S11338501F93CF93DF938091FE0484FDDBC086FF2A
S1133860B8C0E8E1F2E080818F7B80838091FC0422
S1133870882321F0853009F47DC0CCC0E1EBF0E071
S1133880808187608083A0EBB0E08C918C9320E7EB
S113389030E0E9018881826088838C9181608C9317
S11338A08081886080838CE88093B3008091E402F7
S11338B080FF08C0E3EEF2E081818E7F81838CE19A
S11338C00E94C907EFECF5E0808181FBEE24E0F86B
S11338D0F12C84E48E9DD0018F9DB00D1124AA5F3C
S11338E0BA4F90E4ED0119929A95E9F7908191FB12
S11338F0002700F910E092E2909FD001919FB00D53
S11339001124A557BA4FED0119929A95E9F79081C0
S113391091FBCC24C0F8D12C8C9DF0018D9DF00D31
S11339201124E450FB4F17821682118610868FE013
S11339308093D10580E18093D205E3EDF5E08181A8
S1133940877E8860818388E18093FC020E948209DB
S113395060918A056F709091D405929596959770B1
S11339608091D5058170880F880F880F892B0E945C
S1133970F71150C0E1EBF0E0808187608083A0EB19
S1133980B0E08C918C93C0E7D0E08881826088831A
S11339908C9181608C938081886080838CE8809393
S11339A0B3008091E40280FF08C0E3EEF2E081817D
S11339B08E7F818381E20E94C90780E4EBEBF4E00F
S11339C0DF011D928A95E9F71092FB040E94761A92
S11339D021C08091FC0481110EC01092B000E0E778
S11339E0F0E080818D7F808386E48093B3008CE156
S11339F00E9492070FC0853069F41092B000E0E78E
S1133A00F0E080818D7F808386E48093B30081E23F
S1133A100E949207DF91CF911F910F91FF90EF9039
S1133A20DF90CF9008958091F60186FD09C081E072
S1133A3090E0FC01EA50FE4F208126FF0AC002C03C
S1133A4080E090E0FC01EA50FE4F90819F7B9083E0
S1133A50089501968031910561F78FEF0895809163
S1133A60130286FF3DC0E3E1F2E08F7B8083809107
S1133A70FE0484FF24C08091FC04853001F580910C
S1133A80D605982F991F9927991F8091D7058F7371
S1133A90880F892B71F08158982F9F77E3EDF5E01B
S1133AA0238180FB27F9238396958481807C892B4D
S1133AB08483E1EEF2E080818062808308958EE267
S1133AC00E94C9078FE20E94C907EFECF5E08081EC
S1133AD082FB222720F991E0922790FB82F98083D0
S1133AE008959091CF0592FD39C0482F50E097E09A
S1133AF0899FF0011124E050FF4F93819F3FC1F053
S1133B002091DB052F7130E04217530749F4875F9A
S1133B10EBEDF5E08F719081907E892B8083089581
S1133B20EBEDF5E08F719081907E892B8083089571
S1133B309091DB059F71963049F4863039F4EBEDB2
S1133B40F5E08081807E8F6080830895EBEDF5E061
S1133B508F719081907E892B80830895482F50E047
S1133B6097E0899FF0011124E050FF4F93819F3F1C
S1133B70C1F12091DB05922F929596959770209133
S1133B80DC052370220F220F220F292B30E042176D
S1133B905307A1F4875FEBEDF5E0282F2295220F60
S1133BA0207E90819F71922B908386958695869531
S1133BB0837091819C7F892B81830895EBEDF5E0DF
S1133BC0282F2295220F207E90819F71922B908323
S1133BD0869586958695837091819C7F892B8183B8
S1133BE008959091DB05292F2295269527709091B1
S1133BF0DC059370990F990F990F922B963061F40D
S1133C00863051F4EBEDF5E08081806E8083818114
S1133C108C7F816081830895EBEDF5E0282F229558
S1133C20220F207E90819F71922B9083869586959A
S1133C308695837091819C7F892B81830895482F79
S1133C4050E097E0899FF0011124E050FF4F9381E9
S1133C509F3F19F4863009F09EC0CA010996FC0101
S1133C60EE0FFF1FEE0FFF1FEE0FFF1FE81BF90BF8
S1133C70EA5FFE4F6081262F217030E0220F331F50
S1133C80FA01EE0FFF1FEE0FFF1FEE0FFF1FE41BE5
S1133C90F50BEA5FFE4F30813170232B213021F187
S1133CA030F02230F1F1233009F458C00895FA01BC
S1133CB0EE0FFF1FEE0FFF1FEE0FFF1FE41BF50BB0
S1133CC0EA5FFE4F208121602083FC01EE0FFF1F7D
S1133CD0EE0FFF1FEE0FFF1FE81BF90BEA5FFE4F0D
S1133CE080818E7F80830895FA01EE0FFF1FEE0F0F
S1133CF0FF1FEE0FFF1FE41BF50BEA5FFE4F208151
S1133D002E7F2083FC01EE0FFF1FEE0FFF1FEE0F2F
S1133D10FF1FE81BF90BEA5FFE4F808181608083FF
S1133D200895FA01EE0FFF1FEE0FFF1FEE0FFF1FA6
S1133D30E41BF50BEA5FFE4F208121602083FC0128
S1133D40EE0FFF1FEE0FFF1FEE0FFF1FE81BF90B17
S1133D50EA5FFE4F8081816080830895FA01EE0F4F
S1133D60FF1FEE0FFF1FEE0FFF1FE41BF50BEA5FB3
S1133D70FE4F20812E7F2083FC01EE0FFF1FEE0FEC
S1133D80FF1FEE0FFF1FE81BF90BEA5FFE4F808158
S1133D908E7F80830895FA01EE0FFF1FEE0FFF1F41
S1133DA0EE0FFF1FE41BF50BEA5FFE4F8081982F97
S1133DB0909590FB80F980830895CF93C82F8091CC
S1133DC0FE0484FD23C00E94D80787E0C89FF00149
S1133DD01124E050FF4F83818F3F59F08091D90522
S1133DE08C1304C0875F8093D9051DC0C093D90587
S1133DF01AC08091D905863031F4C63021F48FE0A1
S1133E008093D90510C0C093D9050DC08091FF04DB
S1133E1080FF06C00E94D8078C2F0E94711D03C02A
S1133E208C2F0E941F1ECF9108950F931F93CF9341
S1133E30DF938091060286FD07C08091070286FD0C
S1133E40A0C022E130E094C0E6E0F2E080818F7B04
S1133E5080838091FC04813008F435C1833020F0E4
S1133E608450823060F12FC18091FE0484FD09C02A
S1133E700E94D80784E10E94920780E18093D905CB
S1133E8022C18091FF0480FF1EC10E94D80784E1F3
S1133E900E9492078091CF0582FD07C0EBEDF5E00B
S1133EA08081807E806180830EC1EBEDF5E08081AE
S1133EB08F71808381818C7F8260818304C1809132
S1133EC0D705982F92959695969593708091D805DD
S1133ED08370880F880F892B09F4F5C081E08093E3
S1133EE0E202C3EDD5E08B818F778B831C828D81B9
S1133EF08C7F8D8384E10E9492070E94411AE09195
S1133F00D6058E2F881F8827881FE091D705EF7369
S1133F10EE0FE82BF0E0E554FB4F6081862F8F70A5
S1133F20382F330F9A81907E462F4295440F407E5E
S1133F3029812F71242B2983282F269526952695B0
S1133F40932B922B9A8362956F70EAE8F5E0908147
S1133F50907F962B90839091FE0495FF06C0E1EE2E
S1133F60F2E0808180628083AEC00E94BA0FABC051
S1133F70F901EA50FE4F808186FF9FC0E9016197F5
S1133F8004C0C0E0D0E021E130E0F901EA50FE4F86
S1133F9090819F7B90839091FC04913008F493C0AE
S1133FA0933018F0963028F08EC08C2F0E94DD1EBE
S1133FB08AC08091FE0484FF04C08C2F0E941F1EBF
S1133FC082C08091D705982F929596959695937077
S1133FD08091D8058370880F880F892B90E0205139
S1133FE031098217930709F46EC021E02093E2029D
S1133FF003ED15E0F80123812F7723832481207CAE
S11340002483FC01E958FE4F80810E94AD07CF5FF5
S1134010CF709C2F9295990F990F907CF801848111
S11340208F73892B84839C2F9695969585818C7F9D
S1134030892B8583EC2FF0E0E958FE4F80810E94A4
S113404092070E94411AE091D6058E2F881F882777
S1134050881FE091D705EF73EE0FE82BF0E0E554ED
S1134060FB4F6081862F8F70382F330FF8019281B8
S1134070907E462F4295440F407E21812F71242B40
S11340802183282F269526952695932B922B928370
S113409062956F70EAE8F5E09081907F962B9083AB
S11340A09091FE0495FF06C0E1EEF2E0808180620B
S11340B0808309C00E94BA0F06C02F5F3F4F2C3186
S11340C0310509F055CFDF91CF911F910F910895DC
S11340D0CF92DF92EF92FF920F931F93D092EB0255
S11340E0C092EA021093E6020093E502F0924F02B6
S11340F0E0924E020E94BE25BA01A9014051510925
S113410061097109DB01CA011AF40196A11DB11DEF
S1134110B595A795979587958093B8001092B900A7
S11341201092F0021F910F91FF90EF90DF90CF90CB
S1134130089591E09093F00220914E0230914F0245
S11341402617370748F420914E0230914F023093DE
S11341504D0220934C0204C070934D0260934C02B4
S113416091E09093F1029093DD028093EC0285EA52
S11341708093BC00089591E09093F00220914E0248
S113418030914F022617370748F420914E023091A0
S11341904F0230934D0220934C0204C070934D02A1
S11341A060934C0220914E0230914F022417350740
S11341B048F420914E0230914F023093E90220934B
S11341C0E80204C05093E9024093E80293E090931C
S11341D0F10291E09093DD028093EC0285EA8093F2
S11341E0BC0008951F920F920FB60F9211242F93C3
S11341F03F934F935F936F937F938F939F93AF936B
S1134200BF93EF93FF938091B900887F8093E0027E
S1134210E091E0028E2F90E0FC013897E13CF1053B
S113422008F025C1E65AFF4F0C94DD258091DD028C
S1134230813019F0823059F014C01092F9021092B2
S1134240F8028091EC02880F8093BB000AC01092A0
S1134250F9021092F8028091EC02880F8160809339
S1134260BB0085EC8093BC000DC12091F802309115
S1134270F90280914C0290914D0228173907F1F40C
S11342808091F102833039F482E08093DD0285EA83
S11342908093BC00F7C0E091EA02F091EB02309702
S11342A011F080E0099585E98093BC00ECEBF0E027
S11342B0808184FDFDCF1092F002E4C02091E502DC
S11342C03091E6028091F8029091F902AC014F5FBF
S11342D05F4F5093F9024093F802F901E80FF91F78
S11342E080818093BB0085E88093BC00CBC0209183
S11342F0E5023091E6028091F8029091F902AC0156
S11343004F5F5F4F5093F9024093F802F901E80FB1
S1134310F91F2091BB0020838091E8029091E9026B
S11343202091F8023091F90201978217930721F442
S113433085E88093BC00A6C085EC8093BC00A2C035
S11343402091E5023091E6028091F8029091F90201
S1134350AC014F5F5F4F5093F9024093F802F901AB
S1134360E80FF91F2091BB002083E091EA02F0914D
S1134370EB02309711F080E0099585E98093BC0049
S1134380ECEBF0E0808184FDFDCF1092F0027AC066
S11343901092F9021092F80285EC8093BC0072C06E
S11343A02091F8023091F90280914E0290914F02CF
S11343B028173907A8F42091E5023091E60280918C
S11343C0F8029091F902AC014F5F5F4F5093F902EC
S11343D04093F802F901E80FF91F2091BB002083F4
S11343E085EC8093BC004EC08091F8029091F90254
S11343F08093ED02E091EA02F091EB02309711F024
S113440080E0099585EC8093BC003CC01092F902D1
S11344101092F8022091F8023091F90280914E0234
S113442090914F0228173907A8F42091E5023091A2
S1134430E6028091F8029091F902AC014F5F5F4F60
S11344405093F9024093F802F901E80FF91F8081B3
S11344508093BB0085EC8093BC0014C0E091EA0219
S1134460F091EB02309719F08091E002099585E90B
S11344708093BC00ECEBF0E0808184FDFDCF85EA05
S11344808093BC00FF91EF91BF91AF919F918F9169
S11344907F916F915F914F913F912F910F900FBE3C
S11344A00F901F901895FC014283748363831182DB
S11344B010820895FF920F931F93CF93DF93EC0123
S11344C0062F0E94D322182FF9804F2D50E0CA01E5
S11344D001962A81622F70E00E94AA25288130E08B
S11344E08217930729F4812F0E94D62280E012C0FC
S11344F0EB81FC81EF0DF11D0083298130E0C901BE
S113450001966A8170E00E94AA258983812F0E9406
S1134510D62281E0DF91CF911F910F91FF900895F2
S1134520CF93DF93EC010E94D32239812881321783
S113453018F0C32FC21B04C09A81C32FC90FC21B1A
S11345400E94D6228C2FDF91CF910895FC018081A7
S113455070E09B01280F311DC901628170E00E9447
S1134560AA250380F481E02DE80FF91F80810895C6
S11345701F93CF93DF93EC01162F0E94D322482F71
S11345808881212F30E0B901680F711DCB016A8148
S113459070E00E94AA258883842F0E94D622DF918E
S11345A0CF911F9108958FB7F89408958FBF089500
S11345B0881F8827881F089591E0883F08F490E0B9
S11345C0892F0895982F907F903CB1F058F490393A
S11345D041F118F4903819F524C0903A11F1903B48
S11345E0F1F41FC0903EE9F018F4903D29F017C093
S11345F0903F21F0933F99F482E0089590E0FC010C
S1134600E15FF109EF30F10540F4E55EFE4F0C94F3
S1134610DD2583E0089582E0089580E0089580E038
S1134620089583E0089581E008950F93DC01ED91EE
S1134630FC9100E020E048EF61E070E009950F9103
S113464008950F93DC01ED91FC9100E020E04AEF26
S113465061E070E009950F9108950F93DC01ED91ED
S1134660FC9100E020E04CEF61E070E009950F91CF
S11346700895FC01758364830895FC017783668340
S11346800895FC01778B668B0895CF93DF93EC013B
S11346901DA21FA21EA2BC01685D7F4F40EC885181
S11346A09F4F0E9453221B821A821D821C821F82EA
S11346B01E82198618861B861A861D861C861F86EE
S11346C01E86198A188A1B8A1A8A1D8A1C8A1F8ABE
S11346D01E8A198E188E1B8E1A8E1D8E1C8E1F8E8E
S11346E01E8E19A218A2DF91CF910895EF92FF9226
S11346F00F931F93CF93DF93662399F0EA016150E0
S1134700062F10E00F5F1F4F040F151F7C0128EECA
S1134710E20EF11C6991C7010E945A22C017D10709
S1134720C9F7DF91CF911F910F91FF90EF900895FA
S1134730FC01718360830895AF92BF92CF92DF92A0
S1134740EF92FF920F931F93CF93DF9300D01F92AA
S1134750CDB7DEB77C016B01142FB22EA02EDC0185
S113476095968C919597843011F55A96ED91FC911C
S11347705B97309709F4CCC09B0121503109ABEA17
S1134780BAEA0E94E325969587959C01220F331F70
S1134790820F931F4983BA820B834C2D481B9E01C1
S11347A02F5F3F4F682F792FC7010995BEC0623034
S11347B0710509F455C06330710529F06130710544
S11347C009F0A1C088C0842F807F803AF1F028F4DA
S11347D08038A9F0803969F02FC0803EE1F0803F35
S11347E001F1803B49F5D7011296ED91FC911397A5
S11347F025C0D7011496ED91FC9115971FC0D701E0
S11348001696ED91FC91179719C0D7011896ED9162
S1134810FC91199713C0D7011A96ED91FC911B973F
S11348200DC0423F09F074C0D7011C96ED91FC9174
S11348301D97309741F46CC0E0E0F0E0309709F444
S113484067C0123F31F42A2D4B2D62EFC701099541
S11348506CC02A2D4B2D612F6F70C701099565C05F
S1134860842F807F803D51F0803F71F0803C01F5C2
S1134870D7011E96ED91FC911F971CC0D70150964D
S1134880ED91FC91519716C0433F41F4D7015296E4
S1134890ED91FC915397309799F43AC0413FC1F59B
S11348A0D7015496ED91FC915597309749F430C057
S11348B0E0E0F0E0309761F1812F8D7F813F29F4B2
S11348C04B2D612FC701099530C04B2D612F6F709F
S11348D0C70109952AC0842F0E94DC22882331F065
S11348E0D7015696ED91FC91579707C0163F81F476
S11348F0D7015896ED91FC915997309749F0612F63
S1134900C701099512C06430710510F0C12CD12C77
S1134910D7015C96ED91FC915D97309731F00A2DAB
S11349202B2D412FB601C7010995D7015E96ED9154
S1134930FC915F97309731F00A2D2B2D412FB60152
S1134940C70109950F900F900F90DF91CF911F91A0
S11349500F91FF90EF90DF90CF90BF90AF900895AC
S1134960FF920F931F93CF93DF93EC01162F862FA3
S11349700E94DC22882369F0FDA081E08DA300E081
S113498020E0412F61E070E0CE010E949C23FDA253
S1134990A4C0812F0E94D822882309F45DC08DA170
S11349A0843029F01AA381E090E09FA38EA3812F85
S11349B00E94E222813031F0B8F0823079F0833005
S11349C081F046C081E08DA300E020E0412F61E04A
S11349D070E0CE010E949C231DA27FC082E08DA3C3
S11349E07CC083E08DA379C0103F19F0173F51F0CC
S11349F02BC084E08DA380EF8AA381E090E09FA385
S1134A008EA36BC04EA15FA19A01ABEABAEA0E94E1
S1134A10E325969587959C01220F331F820F931FE0
S1134A20FA01E81BF90BEC0FFD1F87EF82A3BA0113
S1134A306F5F7F4F7FA36EA30CA12BA14AA1CE0170
S1134A400E949C231DA249C01DA21FA21EA245C0F4
S1134A501DA21FA21EA241C0EDA1EE23F1F14EA1A1
S1134A605FA19A01ABEABAEA0E94E325969587957D
S1134A709C01220F331F820F931F9A01281B390BAD
S1134A80DE01A20FB31F92961C93BA016F5F7F4F92
S1134A907FA36EA32130310589F022303105E9F47A
S1134AA00CA12BA14AA1CE010E949C238DA184308C
S1134AB0A1F081E090E09FA38EA30FC0E23069F4DF
S1134AC000E02BA14AA1CE010E949C238DA1843039
S1134AD021F081E090E09FA38EA3DF91CF911F91FD
S1134AE00F91FF900895CF92DF92EF92FF920F9370
S1134AF01F93CF93DF936C01DC019096ED91FC91B1
S1134B009197309709F00995860108511F4FC80104
S1134B100E949022E82EF12CE114F10491F0C0E0FF
S1134B20D0E060E0C8010E94A622682FC6010E945E
S1134B30B02461E0C8010E94B8222196CE15DF0599
S1134B4081F7DF91CF911F910F91FF90EF90DF904C
S1134B50CF90089597FB072E16F4009407D077FDA5
S1134B6009D00E94F22507FC05D03EF4909581956A
S1134B709F4F0895709561957F4F0895052E97FB7B
S1134B801EF400940E94D52557FD07D00E940626E6
S1134B9007FC03D04EF40C94D525509540953095E0
S1134BA021953F4F4F4F5F4F089590958095709595
S1134BB061957F4F8F4F9F4F0895EE0FFF1F059014
S1134BC0F491E02D0994A29FB001B39FC001A39F6B
S1134BD0700D811D1124911DB29F700D811D112432
S1134BE0911D0895AA1BBB1B51E107C0AA1FBB1F3F
S1134BF0A617B70710F0A61BB70B881F991F5A9565
S1134C00A9F780959095BC01CD010895A1E21A2ED3
S1134C10AA1BBB1BFD010DC0AA1FBB1FEE1FFF1F5C
S1134C20A217B307E407F50720F0A21BB30BE40BAC
S1134C30F50B661F771F881F991F1A9469F76095F3
S1134C407095809590959B01AC01BD01CF010895AD
S1074C50F894FFCF02
S1134C54000402FF001500010404FF00160002040E
S1134C6408010117000304100201300004042004A5
S1134C7401310005044008003200060480FF0033BB
S1134C8400070301FF003500080302FF0036000992
S1134C940304FF002C000A0308FF002D000B040882
S1134CA4010018000C0410020019000D0420040073
S1134CB41A000E044008011B008F0320FF00340077
S1134CC4100401FF00140014151617303132333563
S1134CD4362C2D01010201040108011001200140B8
S1134CE401800101000200040008001000200040BB
S1134CF400800001020202040208021002200240A1
S1134D04028002100320034003800301040204040C
S1134D14040804100420044004800401050205046A
S1134D2405080510052005400580051006200640E9
S1134D3406800601070207040708071007400780D6
S1134D4407010C18102020212223242526271819B2
S1134D541A1B1C1D1E1F15161708090A0B0C0D0E11
S1134D640F0001021011121314010111115555FF02
S1134D74FFFFFF000102030405000F0B07030100FA
S9030000FC
