S017000054522D3830382D6669726D776172652E7372656310
S11300000C942A010C944D050C94FF040C944701A4
S11300100C9447010C9477050C9447010C94110639
S11300200C9447010C9447010C9447010C943A0634
S11300300C9447010C9447010C94AA050C944701B5
S11300400C9447010C9447010C94BC060C94F106E3
S11300500C9447010C9447010C9447010C944701FC
S11300600C94191D0C9447010C9447010C944701FE
S11300700C9447010C9447010C9447010C944701DC
S11300800C9447010C9426060C9447010C944701E8
S11300900C9447010C9447010C9447010C944701BC
S11300A00C9447010C9447010C9430060C944701BE
S11300B00C9447013D1D5E1E5E1E5E1E5E1E5E1E8E
S11300C05E1E5E1E3D1D5E1E5E1E5E1E5E1E5E1E6E
S11300D05E1E5E1E5C1D5E1E5E1E5E1E5E1E5E1E3F
S11300E05E1E5E1E551E5E1E5E1E5E1E5E1E5E1E35
S11300F05E1E5E1E5C1D5E1E5E1E5E1E5E1E5E1E1F
S11301005E1E5E1E551E5E1E5E1E5E1E5E1E5E1E14
S11301105E1E5E1E5E1E5E1E5E1E5E1E5E1E5E1EFB
S11301205E1E5E1EB31D5E1E5E1E5E1E5E1E5E1E97
S11301305E1E5E1E551E5E1E5E1E5E1E5E1E5E1EE4
S11301405E1E5E1E9E1D5E1E5E1E5E1E5E1E5E1E8C
S11301505E1E5E1EC71D5E1E5E1E5E1E5E1E5E1E53
S11301605E1E5E1EEF1D5E1E5E1E5E1E5E1E5E1E1B
S11301705E1E5E1EEF1D5E1E5E1E5E1E5E1E5E1E0B
S11301805E1E5E1EEF1D5E1E5E1E5E1E5E1E5E1EFB
S11301905E1E5E1EEF1D5E1E5E1E5E1E5E1E5E1EEB
S11301A05E1E5E1EF71D5E1E5E1E5E1E5E1E5E1ED3
S11301B05E1E5E1E511E5E1E5E1E5E1E5E1E5E1E68
S11301C05E1E5E1EF71D5E1E5E1E5E1E5E1E5E1EB3
S11301D05E1E5E1E511E5E1E5E1E5E1E5E1E5E1E48
S11301E05E1E5E1E1B1E5E1E5E1E5E1E5E1E5E1E6E
S11301F05E1E5E1E2D1E5E1E5E1E5E1E5E1E5E1E4C
S11302005E1E5E1E2D1E5E1E5E1E5E1E5E1E5E1E3B
S11302105E1E5E1E311E5E1E5E1E5E1E5E1E5E1E27
S11302205E1E5E1E511E5E1E5E1E5E1E5E1E5E1EF7
S11302305E1E5E1E511E321F301F321F341F341FBC
S11302403A1F341F3A1F3A1F3A1F3A1F3A1F341FEE
S11302503A1F3A1F11241FBECFEFD8E0DEBFCDBF37
S113026012E0A0E0B1E0E2EAF4E402C005900D92ED
S1130270A033B107D9F725E0A0E3B2E001C01D9295
S1130280A43DB207E1F70E9461090C944F220C943B
S113029000000895CF92DF92EF92FF920F931F9385
S11302A00F2EF9E4CF2EF1E0DF2EF02D0F2EFDE816
S11302B0EF2EF12CF02D02E512E020E035E34CE0C6
S11302C050E060E074E284EF90E00E948F1C109391
S11302D0F3020093F2021093EF020093EE021093E4
S11302E0F7020093F6021F910F91FF90EF90DF90B9
S11302F0CF900895CF93DF93EC019091EC0291118C
S1130300FCCF50E0542F44275295507F460F571F7F
S1130310E091EE02F091EF025083E091EE02F09151
S1130320EF0241834BE850E062E070E080E50E9418
S1130330E21C9091EC029111FCCFE091F602F09155
S1130340F7028BE8DE0101900D928A95E1F7CE0168
S1130350DF91CF9108950F931F93CF93DF939C0167
S11303608A019091EC029111FCCFC62FD0E0DC2FD2
S1130370CC27D295D07FC20FD31FE091F202F09127
S1130380F302D083E091F202F091F302C18380E89A
S1130390F801A4E5B2E001900D928A95E1F762E8D4
S11303A070E080E50E94C01CC058DF4F9091EC02C1
S11303B09111FCCFE091F202F091F302D083E0912D
S11303C0F202F091F302C183F801E058FF4F8BE091
S11303D0A4E5B2E001900D928A95E1F76DE070E03A
S11303E080E50E94C01C8091EC028111FCCFDF915A
S11303F0CF911F910F910895EAE7F0E08081846026
S11304008083ACE7B0E08C9180648C938C918360A2
S11304108C93AEE7B0E08C9188608C938081806887
S113042080830895EAE7F0E080818064808380819E
S113043086FDFDCF809178009091790008958CE03D
S11304408093810082E080936F0086E48093B400FF
S11304508093B300EAEFF2E08081887F808308957F
S113046090938900809388002091840030918500C6
S11304708217930728F40197909385008093840052
S11304800895E1E4F2E010868681807F8683878187
S11304908F7D87832B982C980895FF920F931F9339
S11304A0CF93DF93C82FF62E0E944102E1EEF2E0D3
S11304B0908193FFFDCFC09330020C2F10E087E0B2
S11304C0C89FE0011124C050DF4FE8818E2F881FA0
S11304D08827881FE981E770EE0FE82BF0E0EF5BD7
S11304E0FD4F90818A81892B80838D810E94300702
S11304F09B819F3FC1F0A1E4B2E013962C91139726
S1130500F801EE0FFF1FEE0FFF1FEE0FFF1FE01BA2
S1130510F10BEC5FFE4F80818170819582278923E6
S1130520822713968C9380E48F1540F4E1E4F2E083
S113053080858160808784E10E9430075D9AEEE6C1
S1130540F0E080818260808385B5856085BDE1EEC1
S1130550F2E08081877F8083DF91CF911F910F919B
S1130560FF900895CF93DF93CDB7DEB72A970FB6E8
S1130570F894DEBF0FBECDBF8AE0E9E1F2E0DE0110
S1130580119601900D928A95E1F78091CB05982FF1
S11305909295969597708091CC058170880F880FFD
S11305A0880F892B21E030E0A90102C0440F551FB8
S11305B08A95E2F7CA01E091F904E695E695E770B9
S11305C0F0E03197EE0FFF1F2C0F3D1FE20FF31FDA
S11305D02081318182239323892BD9F0A091D005E6
S11305E037E0A39FD0011124A050BF4FEC918E2F70
S11305F0881F8827881F1196EC911197E770EE0FDA
S1130600E82BF0E0EF5BFD4F908112968C91892BE3
S113061080832A960FB6F894DEBF0FBECDBFDF915C
S1130620CF9108953F924F925F926F927F928F92F3
S11306309F92AF92BF92CF92DF92EF92FF920F936D
S11306401F93CF93DF9300D000D0CDB7DEB75D9A70
S11306500E944102EEE6F0E080818260808385B5ED
S1130660856085BD8091F9048C7109F402C10E94F2
S1130670B202FFC0D4018C9181FB002700F910E085
S1130680F50190819295969597708170880F880FE7
S1130690880F892BD6019C91F801E295F295F07FA1
S11306A0FE27E07FFE2796959170399EE00DF11D9F
S11306B01124E80FF11DEE0FFF1FE750FB4F85815A
S11306C096810B8002C0969587950A94E2F780FF85
S11306D076C0F30180818F7190E02B813C81821779
S11306E0930709F42B9AD3018C91982F92959695A0
S11306F09770F20180818370880F880F880F892B8F
S113070090E02B813C818217930709F42C9AEB81AA
S1130710FC81EE0FFF1FEE0FFF1FEE0FFF1F4B813B
S11307205C81E41BF50BEA5FFE4F808180FD47C0CE
S1130730A7EFB4E08C9184FD04C0F70180810E948E
S11307403007AB81BC81AA0FBB1FAA0FBB1FAA0F26
S1130750BB1F2B813C81A21BB30BA050BF4FEC915C
S11307608E2F881F8827881F1196EC91E770EE0F53
S1130770E82BF0E0EF5BFD4FD70113979C9180814C
S1130780892B8083F701329780818F3FC1F02091BC
S11307904402EB81FC81EE0FFF1FEE0FFF1FEE0FF3
S11307A0FF1F4B815C81E41BF50BEC5FFE4F9081D6
S11307B091709195922789238227809344028B819B
S11307C09C8101969C838B8397E0E90EF11CAB819D
S11307D0BC81509709F04ECF9091C7058091CC050C
S11307E081FBBB27B0F9B9831A8296959170E98190
S11307F0FA8122E2929FE00DF11D1124EE0FFF1FFA
S1130800EB50FB4F9091CB05929596959770817024
S1130810880F880F880F892B25813681A90102C092
S1130820569547958A95E2F740FF4EC0E1E4F2E021
S11308308085816080878091D2058F71803109F431
S11308402B9A8091D205982F9295969597708091C6
S1130850D3058370880F880F880F892B803109F4A2
S11308602C9A8091F70484FD2FC084E10E94300704
S11308702BC00F2EF5E0EF2EF1E0FF2EF02D1C82A1
S11308801B820F2EFCEC8F2EF5E09F2EF02D0F2EE9
S1130890FBECAF2EF5E0BF2EF02D0F2EF7ECCF2E94
S11308A0F5E0DF2EF02D0F2EF2E23F2EF02D0F2E6D
S11308B0F2ED6F2EF5E07F2EF02D0F2EF3ED4F2E7F
S11308C0F5E05F2EF02DD6CE0F900F900F900F9085
S11308D0DF91CF911F910F91FF90EF90DF90CF9018
S11308E0BF90AF909F908F907F906F905F904F904C
S11308F03F9008958091070286FF08C0E7E0F2E088
S11309008F7B808360E080E00E944D02809108022A
S113091086FF08C0E8E0F2E08F7B808360E081E03E
S11309200E944D028091090286FF08C0E9E0F2E0CE
S11309308F7B808360E082E00E944D0280910A02F6
S113094086FF08C0EAE0F2E08F7B808360E083E00A
S11309500E944D0280910B0286FF08C0EBE0F2E09A
S11309608F7B808360E084E00E944D0280910C02C2
S113097086FF08C0ECE0F2E08F7B808360E085E0D6
S11309800E944D0280910D0286FF08C0EDE0F2E066
S11309908F7B808360E086E00E944D0280910E028E
S11309A086FF08C0EEE0F2E08F7B808360E087E0A2
S11309B00E944D0280910F0286FF08C0EFE0F2E032
S11309C08F7B808360E088E00E944D02809110025A
S11309D086FF08C0E0E1F2E08F7B808360E089E07D
S11309E00E944D028091110286FF08C0E1E1F2E00D
S11309F08F7B808360E08AE00E944D0208951F92FD
S1130A000F920FB60F9211242F933F934F935F933E
S1130A106F937F938F939F93AF93BF93EF93FF93C2
S1130A20E8EFF2E081818D5F81830E942E0C80913A
S1130A30E20283FF21C0EAEFF2E080818695869589
S1130A4086958F5F8770282F220F220F220F9081A7
S1130A50977C922B9083813079F4E2EEF2E08081EE
S1130A60877F80831092F902E1EEF2E08081816059
S1130A70808380818D7F8083FF91EF91BF91AF91BF
S1130A809F918F917F916F915F914F913F912F91A2
S1130A900F900FBE0F901F9018951F920F920FB6D4
S1130AA00F9211242F933F934F935F936F937F93F0
S1130AB08F939F93AF93BF93EF93FF93E8EFF2E08D
S1130AC08081815081830E942E0C329AFF91EF9194
S1130AD0BF91AF919F918F917F916F915F914F9152
S1130AE03F912F910F900FBE0F901F9018951F925A
S1130AF00F920FB60F9211242F933F934F935F934E
S1130B006F937F938F939F93AF93BF93EF93FF93D1
S1130B104C9B08C0E7EFF4E08081806280830E94F0
S1130B201A0D07C0E7EFF4E080818F7D80830E9477
S1130B307B0DFF91EF91BF91AF919F918F917F9129
S1130B406F915F914F913F912F910F900FBE0F9036
S1130B501F9018951F920F920FB60F9211242F9386
S1130B603F934F935F936F937F938F939F93AF9331
S1130B70BF93CF93DF93EF93FF9315BCEEE6F0E0C2
S1130B8080818D7F808385B1877E85B9E1EEF2E037
S1130B908081886080838091F60481112FC0A091A8
S1130BA0300287E0A89FD0011124A050BF4FEC91E0
S1130BB08E2F881F8827881F1196EC911197E77054
S1130BC0EE0FE82BF0E0C1E4D2E0EF5BFD4F1296AC
S1130BD08C91809590818923808384E10E944B07C6
S1130BE088858E7F8887E091300287E0E89FF00156
S1130BF01124E050FF4F85810E944B07FF91EF9134
S1130C00DF91CF91BF91AF919F918F917F916F9120
S1130C105F914F913F912F910F900FBE0F901F90B6
S1130C2018951F920F920FB60F9211248F93EF9382
S1130C30FF93E2EEF2E0808180648083FF91EF9184
S1130C408F910F900FBE0F901F9018951F920F92C7
S1130C500FB60F9211240F900FBE0F901F9018958E
S1130C601F920F920FB60F9211240F900FBE0F9088
S1130C701F9018951F920F920FB60F9211242F9365
S1130C803F934F935F936F937F938F939F93AF9310
S1130C90BF93EF93FF938091000381115CC00E9486
S1130CA02E0C8091F70485FF56C0EAEFF2E0208114
S1130CB0277081E0820F982F97708081887F892B1D
S1130CC08083233009F047C08081887F80838091AE
S1130CD0F604813031F481E093E00E943C1F329AA3
S1130CE03AC0E0EBF0E080818F7E8083A1EBB0E03E
S1130CF08C9180648C938081806380831092B20095
S1130D00329A8091E20283FF26C0EAEFF2E080810A
S1130D108695869586958F5F8770282F220F220FE0
S1130D20220F9081977C922B90838330A1F4E2EE82
S1130D30F2E08081877F80835C9A1092F902E1EE71
S1130D40F2E080818160808310928500109284009B
S1130D5080818D7F8083FF91EF91BF91AF919F91AF
S1130D608F917F916F915F914F913F912F910F9050
S1130D700FBE0F901F9018951F920F920FB60F92EF
S1130D8011242F933F934F935F936F937F938F938C
S1130D909F93AF93BF93EF93FF93CF93DF931F92F0
S1130DA0CDB7DEB78091C6008983AE014F5F5F4F38
S1130DB061E081E093E00E949D1F0F90DF91CF914D
S1130DC0FF91EF91BF91AF919F918F917F916F911F
S1130DD05F914F913F912F910F900FBE0F901F90F5
S1130DE018951F920F920FB60F9211242F933F93D1
S1130DF04F935F936F937F938F939F93AF93BF931F
S1130E00EF93FF938EEA94E00E94B71E882361F06B
S1130E1060E08EEA94E00E94CD1E8093C60061E0FB
S1130E208EEA94E00E94DF1E8EEA94E00E94B71ED0
S1130E30811105C0E1ECF0E080818F7D8083FF911A
S1130E40EF91BF91AF919F918F917F916F915F913E
S1130E504F913F912F910F900FBE0F901F901895B7
S1130E60CF93DF9390E0880F991FDC01AC57BE4FFE
S1130E702C91E22FEF70F0E0EF5BFD4FEC01CD57CA
S1130E80DE4F30818881832B8083822F80618C9315
S1130E90DF91CF910895CF93DF9390E0880F991F4E
S1130EA0DC01AC57BE4F2C91E22FEF70F0E0EF5B0A
S1130EB0FD4FEC01CD57DE4F8881809590818923C9
S1130EC08083822F8F7E8C93DF91CF910895E82FBA
S1130ED0F0E0EE0FFF1FEC57FE4F908194FF03C02C
S1130EE00E944B0708950E9430070895E1E4F2E060
S1130EF082818F70828387818072878383818F70E0
S1130F00838386818F7C868308950F931F93CF9369
S1130F10DF9305E011E0C0E0D0E0FE01EE0FFF1F1B
S1130F20EE0FFF1FEE0FFF1FEC1BFD0BEA5FFE4FE2
S1130F30808180FF05C0F80180810E94300704C0D1
S1130F40F80180810E944B072196095F1F4FC03131
S1130F50D10519F7DF91CF911F910F9108958091D9
S1130F60F504833009F447C038F0843009F456C0DE
S1130F70853009F46CC008958091F70484FF2FC074
S1130F80882354F50E9476078091C70582FD0DC021
S1130F90E091D205EF7187E0E89FF0011124E05061
S1130FA0FF4F85810E9430070895E091D2058E2F6E
S1130FB0829586958770E091D305E370EE0FEE0F6E
S1130FC0EE0FE82B87E0E89FF0011124E050FF4F7B
S1130FD085810E94300708950E9485070895E09155
S1130FE0D00587E0E89FF0011124E050FF4F858190
S1130FF00E94300708958091F70484FF03C00E9483
S113100085070895E091D00587E0E89FF001112459
S1131010E050FF4F85810E94300708958091F704C6
S113102084FF03C00E9485070895E091CE058E2FAA
S1131030881F8827881FE091CF05E770EE0FE82B03
S1131040F0E0E958FE4F80810E94300708958091B6
S1131050F70484FF03C00E9485070895E091CE053C
S11310608E2F881F8827881FE091CF05E770EE0F29
S1131070E82BF0E0E958FE4F80810E943007089584
S11310802F923F924F925F926F927F928F929F9294
S1131090AF92BF92CF92DF92EF92FF920F931F9382
S11310A0CF93DF9324E4E3E8F5E0DF011D922A9572
S11310B0E9F72091CC0522FB882780F990E000E035
S11310C010E06C01CC0CDD1CCC0CDD1CCC0CDD1C4C
S11310D0CC0CDD1CEE24E394F12C9C01220F331F75
S11310E02B503B4F5901B5E0AB0EB11C0F2EF3EA68
S11310F08F2EF5E09F2EF02D3C01E2E26E0E711C66
S11311009301220F331FA90146505B4F3A010F2E62
S1131110F5EC4F2EF5E05F2EF02D8B509B4F1C010C
S113112054ED250E311C52C09E01082E02C0369586
S113113027950A94E2F720FF06C020813181242BF1
S1131140352B318320839B01082E02C036952795C9
S11311500A94E2F720FF08C02D913C911197242BAB
S1131160352B11963C932E9301961296329680312C
S11311709105D1F6D5018D919C91002E02C09695D2
S113118087950A94E2F780FF07C0F401808191817A
S1131190842B952B91838083D3018D919C91002E78
S11311A002C0969587950A94E2F780FF07C0F20182
S11311B080819181482B592B518340830F5F1F4FAE
S11311C0D1018C9190E080179107FCF0C601800F4B
S11311D0911FFC01EE0FFF1FE750FB4FC581D68125
S11311E0A701002E02C0440F551F0A94E2F7880F8E
S11311F0991FFC01E35CFA4F65817681A5EAB5E0AD
S1131200E3E8F5E080E090E08FCFDF91CF911F918C
S11312100F91FF90EF90DF90CF90BF90AF909F9091
S11312208F907F906F905F904F903F902F90089594
S1131230E1E4F2E08091CC058695869586958370ED
S11312408E5F21E030E0A90102C0440F551F8A954A
S1131250E2F7CA019581937C892B85830895E1E4A3
S1131260F2E011821082089580910003811102C07E
S11312700E94FB0B0E94FA180E9481180E94D51844
S11312808091F504833029F48091F70484FF0E944F
S11312907A040E949A0A0E94280B0E945C190E94F8
S11312A0251A0E942E190E94140E0E94E41B0E940B
S11312B0AF070E9408150E9416120E945D185D98DF
S11312C00895559A8DB18F608DB9399A209A739883
S11312D041982898719A80E58093AC00EDEAF0E09B
S11312E08081816080836A9A3A9A239A249AE9E6F3
S11312F0F0E080818E608083EDE6F0E080818061A3
S11313008083CBECD5E08A8199819F719983807E1B
S11313108A8380E00E9430078DE10E94300782E2D8
S11313200E9430070E945D1884B5826084BD80E10C
S113133087BD81E093E00E946C1F6DE57AE081E057
S113134093E00E94601F67E77AE081E093E00E94E7
S1131350641F68E77AE081E093E00E94681F0E94BE
S1131360460A0F2EF2EDEF2EF5E0FF2EF02DF701D9
S11313708181837C81830E941F02E8EFF2E088E18F
S11313808083DD24D394D18210860E94FC01E1EE97
S1131390F2E080818860808380818F77808307EF8B
S11313A014E0F80180818F7D80830F2EF5EFAF2E3E
S11313B0F4E0BF2EF02D1092C80584E20E9430079D
S11313C0E7ECF5E080818B7F80838EE20E9430071A
S11313D0F501D082D18289818D7F8B7F89838AE2D6
S11313E00E94300787E20E9430078A818F718068EB
S11313F08A838B8181608B83F8018081807F8083E5
S1131400E2E8F5E08081807F8083F8018281837E39
S113141082830E944A01789460E080E00E94710E09
S1131420F8018181887F818385EEF7018083818142
S11314308C7F8160818381E093E00E949A210E94E5
S11314403409F9CF0F931F93CF93DF93EB01122F3E
S1131450642F8EEA94E00E94811EC230D10528F0E8
S1131460612F8EEA94E00E94811E239729F4602F55
S11314708EEA94E00E94811EE1ECF0E080818062BB
S11314808083DF91CF911F910F9108958FE1809315
S1131490C4001092C50088E98093C100519A40ECC1
S11314A06EEE73E08EEA94E00E947A1E62E27AE0C5
S11314B081E093E00E94BF1F0895E091D305E69573
S11314C0E695EF70F0E06F7070E0E617F70771F4DF
S11314D08091F60481110AC08091F70485FD06C04D
S11314E0403120F4622F842F0E944D020895089504
S11314F0809100038823E9F06A3F61F06C3F91F02A
S1131500683FB9F4E8EFF2E081818D5F81830E9446
S11315102E0C0895E7EFF4E08081806280830E94BE
S11315201A0D0895E7EFF4E080818F7D80830E9497
S11315307B0D0895CF93DF9300D000D000D0CDB7BA
S1131540DEB786E0E3E2F2E0DE01119601900D924F
S11315508A95E1F78091160286FF71C0E6E1F2E018
S11315608F7B80838091F70484FF0CC08091F1010C
S1131570882321F081508093F1010EC085E080938F
S1131580F1010AC08091F1018F5F863019F08093D8
S1131590F10102C01092F1013091F101FE01E30F5B
S11315A0F11D21812093F504E1E4F2E081E090E073
S11315B002C0880F991F3A95E2F79481907C892B99
S11315C084838FEF820F8230E8F4E1E0213009F464
S11315D0E0E0ABECB5E011968C911197E0FB82F959
S11315E011968C931197F0E0EB50FB4FEC52FF4FA8
S11315F08081982F9F718C91807E892B8C930E947F
S113160040081DC02330D9F48091CC05982F9295C1
S1131610969597708091CD058170880F880F880FFB
S1131620892B90E00C975CF0EBECF5E08281817EF5
S113163086618283E1EEF2E0808180628083269677
S11316400FB6F894DEBF0FBECDBFDF91CF910895E2
S1131650CF93DF93CDB7DEB72A970FB6F894DEBFEA
S11316600FBECDBF86E0E9E2F2E0DE011196019003
S11316700D928A95E1F781E08F83188683E089874C
S113168082E08A87E1E4F2E024812F73248382815B
S1131690807F82839091F70494FF62C08091170247
S11316A086FF4FC0E7E1F2E08F7B808380913102B7
S11316B08F5F843019F08093310202C0109231029E
S11316C080913102FE01E80FF11D87818093F604B9
S11316D01092B1001DBA10926800813031F050F0C0
S11316E0823001F1833059F02CC0109200034298EB
S11316F0729827C081E080930003729A22C01092EE
S113170000035A9A8AB1886D8AB9E0EBF0E08081CF
S113171082608083E1EBF0E08081876080831092B7
S1131720B2000FC081E08093000372988AB187727F
S11317308AB98DB383608DBBE8E6F0E08081846074
S11317408083E1E4F2E081E090E00090310202C0A5
S1131750880F991F0A94E2F79281892B828342C0F1
S11317609091170296FF22C0E7E1F2E09F7B9083FD
S1131770909132029F5F963019F09093320202C02A
S11317801092320290913202DE01A90FB11DE7EFEF
S1131790F4E011969C91392F3F709081907F932BA8
S11317A09083EBECF5E093819178938390913202EE
S11317B0923068F49A5F41E050E0BA0102C0660FCB
S11317C0771F9A95E2F7262B209345020BC092507F
S11317D021E030E002C0220F331F9A95E2F7822BFA
S11317E0809343022A960FB6F894DEBF0FBECDBF96
S11317F0DF91CF9108950E94120290933602809354
S113180035022091330230913402821B930B95955B
S1131810879595958795820F931F909334028093B3
S113182033022BE834E0A901481B590BE8EFF2E03E
S11318305483438323813481858196812817390712
S113184031F08091FB029091FC020E943002E8EF9B
S1131850F2E0838194819683858308958091E202E6
S113186084FF33C08091F804982F929596959695AD
S113187093708091F9048370880F880F892B8F5F90
S11318808F70E7EFF4E0982F9295990F990F907C61
S113189021812F73292B2183382F369536959281F8
S11318A09C7F932B928390E0277030E0220F331FAC
S11318B08217930751F4E1EEF2E080818160808326
S11318C0E2EEF2E080818F7E80839091CB05929549
S11318D0969597708091CC058170880F880F880F3A
S11318E0892B382F3170E8EFF2E091819F5F91836B
S11318F0208192137EC09091E102992364F4E091D7
S1131900CC05E695E695E695E370F0E0EE50FE4FE3
S113191090819093F8029091E20295FF12C0909109
S1131920F804969596959695292F2770E7EFF4E09D
S11319309181987F922B9183E2EEF2E090819F7DDA
S113194090839091F804977099F0311111C090919F
S1131950E20295FD0DC0E7EFF4E091819F7391835E
S113196092819C7F9283E2EEF2E090819061908379
S11319709091E20294FD05C0E1EEF2E09081916065
S1131980908321E0280FEBECF5E0322F3295330FF2
S1131990307E90819F71932B908323FB992790F93C
S11319A021812E7F292B218390E021FB442740F9BC
S11319B050E04B505B4FFA01EC52FF4F208130E076
S11319C08217930749F48091F70485FF05C0E1EE7F
S11319D0F2E0808180648083EAEFF2E08081807CA1
S11319E090E4980F80818F73892B80831092F90281
S11319F00895E8EFF2E0918180818695981303C001
S1131A00332391F002C03323A1F0E8EFF2E0218107
S1131A10408130E046958091F804877090E0840F0F
S1131A20911D2817390729F4E1EEF2E080818260E4
S1131A3080830895EBECF5E080818F718083818150
S1131A408E7F81831092F902EAEFF2E08081887F31
S1131A508083E1EEF2E080818B7F80838091C805F2
S1131A608D7F31F4E7ECF5E080818D7F808305C0C4
S1131A70E7ECF5E08081826080838091F6049EEF3C
S1131A80980F923058F4E2EEF2E08081886080830F
S1131A90EAEFF2E08081877C80830FC0E1EEF2E020
S1131AA0908191609083813041F481E093E00E94C1
S1131AB0481F81E093E00E943C1F8091F50483302D
S1131AC0B9F48091E20281FF13C0E2EEF2E080817A
S1131AD08D7F8083E7ECF5E0808182FB992790F984
S1131AE090FB81F98083E1EEF2E080818062808363
S1131AF08BEE87BD08958091CC0581FF0BC0EBEC84
S1131B00F5E081818D7F81838BE20E944B078AE21D
S1131B100E9430070E947607E091D00587E0E89F95
S1131B20F0011124E050FF4F85810E94300780911D
S1131B30CD0586958F70EBECF5E0282F2295220FCA
S1131B40207E91819F71922B9183282F2695269533
S1131B50269592819E7F922B928393819178938391
S1131B60E1EEF2E090819F7D9083E2EEF2E09081DD
S1131B709B7F9083E1E4F2E0118210820E9430079F
S1131B808091F504833071F49091CD0592959695EA
S1131B9097708091CE058170880F880F880F892BEC
S1131BA00E9430078091000381110CC08091F604DB
S1131BB0813039F44298729881E093E00E94541F76
S1131BC001C05C9880E187BD0895863080F4E7EF1A
S1131BD0F4E08770880F880F880F9181977C892B98
S1131BE08183E2EEF2E08081806280830CC08850C1
S1131BF0863048F4E7EFF4E08770880F880F92810D
S1131C00937E892B82838091F804869586958695A8
S1131C1087700E9430078091F904869586958770B5
S1131C20885F0E94300708958091180286FF2CC0B7
S1131C308091F70484FF28C0E8E1F2E080818F7B83
S1131C4080838091CC05869586958695837069F00E
S1131C508D5F8370EBECF5E0982F990F990F990F36
S1131C608181877E892B818305C0EBECF5E081813E
S1131C7088618183E1EEF2E08081806180838081EC
S1131C80806880830E94180908958091E10282FF90
S1131C9018C0E1EEF2E080818B7F80838091C805DB
S1131CA0813049F010F08230D9F4E7ECF5E080811E
S1131CB08D7F80830895E7ECF5E0808182608083E6
S1131CC008958091C805823059F4E7ECF5E08081ED
S1131CD081FB222720F991E0922790FB81F98083F0
S1131CE00895EF92FF920F931F93CF93DF93CDB795
S1131CF0DEB7CB58D1090FB6F894DEBF0FBECDBF07
S1131D00462F60E0782FCE0101960E947A0184E488
S1131D10FE013196AAEFB4E001900D928A95E1F7A5
S1131D2084E4FE01EB5BFF4FAEE3B5E001900D925E
S1131D308A95E1F7C657DF4F8881CA58D04080930F
S1131D40C905C557DF4F8881CB58D0408093CA0559
S1131D50C757DF4FE881C958D040E3700F2EFBEC22
S1131D60EF2EF5E0FF2EF02D9E2F990F990F990F6E
S1131D70D70111968C911197877E892B11968C939C
S1131D80F0E0EE50FE4F80818093F8020E944008FC
S1131D900E9418098091CC0582FB002700F910E00D
S1131DA00B501B4FF801EC52FF4F8081982F9F710D
S1131DB0F7018081807E892B8083C557DF4F0FB662
S1131DC0F894DEBF0FBECDBFDF91CF911F910F916D
S1131DD0FF90EF900895CF92DF92EF92FF920F93CE
S1131DE01F93CF93DF938091F7048F70B9F08091A4
S1131DF0CE0586958F5F8F73EBECF5E0282F220FCD
S1131E0093819178922B93839091F7049F70891317
S1131E1005C0E2EEF2E08081846080838091E2027A
S1131E2082FF6EC0CBECD5E08B8181788B83E2EEB0
S1131E30F2E080818B7F808301EE12E0F8018081E3
S1131E4080688083609182056F700F2EFDECCF2E29
S1131E50F5E0DF2EF02DF60190819295969597701E
S1131E600F2EFEECEF2EF5E0FF2EF02DF701808112
S1131E708170880F880F880F892B0E94710E8981C9
S1131E808D7F89838BE20E944B078AE20E94300790
S1131E908091CC05282F229526952770F601808104
S1131EA08170880F880F880F822B982F990F8A8151
S1131EB0817E892B282F229526952770F701908102
S1131EC09170990F990F990F922B392F3295330FE7
S1131ED0307E29812F71232B29839695969596958B
S1131EE08E7F892B8A83E7ECF5E0808182FB99273A
S1131EF090F990FB81F98083F8018081806280836E
S1131F00DF91CF911F910F91FF90EF90DF90CF90D1
S1131F1008950F931F93CF93DF938091E20280FF84
S1131F2022C1E2EEF2E080818E7F80838091F5040D
S1131F309FEF980F923008F09BC06091D0056031FC
S1131F4071F59091C7058091CC0582FBAA27A0F971
S1131F50B0E096959170FD0122E2929FE00DF11D93
S1131F601124EE0FFF1FEB50FB4F9091CB05929580
S1131F70969597708170880F880F880F892B21E0C0
S1131F8030E0D90102C0AA0FBB1F8A95E2F7CD0148
S1131F9025813681822B932B9683858335C070915E
S1131FA0C7058091CC0582FB222720F930E090916F
S1131FB0CB059295969597708170880F880F880F3E
S1131FC0892BF901E295F295F07FFE27E07FFE2749
S1131FD071FB992790F9B2E29B9FE00DF11D11244A
S1131FE0E80FF11DEE0FFF1FE750FB4F81E090E07B
S1131FF0062E02C0880F991F0A94E2F725813681C4
S1132000822B932B968385838091C70581FB44277C
S113201040F950E081E1849FF001859FF00D112487
S1132020E60FF11DEE0FFF1FED57FA4F8091CB0520
S1132030982F9295969597708091CC058170880F12
S1132040880F880F892B21E030E0A90102C0440FDA
S1132050551F8A95E2F7CA0120813181822B932B87
S113206091838083E1EEF2E08081806180837BC094
S1132070833009F078C08091F70485FF09C08F7020
S113208009F071C0E2EEF2E08081846080836BC06D
S1132090E2EEF2E0808181FB992790F981E08927C3
S11320A0908180FB91F99083808181FF41C0609190
S11320B082056F700DEC15E0D8019C919295969570
S11320C09770CEECD5E088818170880F880F880FD7
S11320D0892B0E94710E8091CC05282F229526957C
S11320E02770F80180818170880F880F880FEBECCE
S11320F0F5E0822B982F990F8281817E892B282FDE
S113210022952695277098819170990F990F990FB0
S1132110922B392F3295330F307E21812F71232B4F
S113212021839695969596958E7F892B82831BC0E5
S11321308091CD0586958F70EBECF5E0282F2295E4
S1132140220F207E91819F71922B9183282F2695B7
S11321502695269592819E7F922B9283609182058B
S11321606F700E94710EDF91CF911F910F910895AE
S1132170CF93DF93CDB7DEB7CB58D1090FB6F89420
S1132180DEBF0FBECDBF982F24E4EAEFF4E0DE01FA
S1132190119601900D922A95E1F724E4EEE3F5E01F
S11321A0DE01AB5BBF4F01900D922A95E1F7809160
S11321B0C905C657DF4F8883CA58D0408091CA05E5
S11321C0C557DF4F8883CB58D0402091CC05269546
S11321D0269526952370C757DF4F2883C958D040CA
S11321E0AE014F5F5F4F80E00E94AB01C557DF4FE8
S11321F00FB6F894DEBF0FBECDBFDF91CF91089527
S1132200CF93DF93EBECF5E080818F718083818144
S11322108E7F81838091E10284FF16C0E1EEF2E0BB
S113222080818F7E8083609182056F709091CC0550
S11322309295969597708091CD058170880F880F3F
S1132240880F892B0E94B8108091CA05803109F447
S113225072C08091CC0581FF5AC081FB992790F907
S113226081E08927EBECF5E0918180FB91F9918382
S11322708BE20E944B078AE20E9430070E94450EBF
S11322808091E10285FF3BC0E1EEF2E080818F7D29
S113229080838081806880838091CD0586958F704E
S11322A0EBECF5E0282F2295220F207E91819F717F
S11322B0922B9183282F26952695269592819E7F91
S11322C0922B9283609182056F700E94710EE7ECED
S11322D0F5E080818D7F80838091C805813019F479
S11322E0808182608083EBECF5E081818D7F818346
S11322F08BE20E944B078AE20E94300763C0809100
S1132300F504833009F05EC00E94EB0E5BC08AE2E4
S11323100E944B078BE20E9430078091CC0581FB21
S1132320992790F981E08927EBECF5E0918180FB16
S113233091F9918347C00E94450E8091E10285FF87
S11323403BC0E1EEF2E080818F7D808380818068F4
S113235080838091CD0586958F70EBECF5E0282F76
S11323602295220F207E91819F71922B9183282F99
S113237026952695269592819E7F922B9283609135
S113238082056F700E94710EE7ECF5E080818D7F0D
S113239080838091C805813019F4808182608083B4
S11323A0EBECF5E081818D7F81838BE20E944B070A
S11323B08AE20E94300706C08091F504833011F44C
S11323C00E94EB0E8091F5048150823090F480914C
S11323D0CC0582FB882780F9C82F80E0D82FCB500A
S11323E0DB4FCC52DF4F8091CB058F7188830E94E5
S11323F040088091E1028823B4F4E1EEF2E08081A8
S11324008F778083E7EFF4E08181887F8183E09197
S1132410CC05E695E695E695E370F0E0EE50FE4FC8
S113242080818093F802DF91CF910895CF92DF925B
S1132430EF92FF920F931F93CF93DF938091E1026A
S113244080FFE4C0E1EEF2E080818E7F80838091A2
S1132450F70485FFCDC28091E10286FF05C080812B
S11324608F7B80830E9400118091F504833009F4EE
S11324704EC020F0863008F0C6C093C00E94890F79
S11324808091F70484FDBFC08091CC0582FB99271D
S113249090F9869581709813B6C08091CB05982FDA
S11324A09295969597708091CC058170880F880FCE
S11324B0880F892B21E030E002C0220F331F8A9558
S11324C0E2F78091C70586958170C82F40E0D42F2C
S11324D08091D00591E19C9FF0019D9FF00D112406
S11324E0E80FF11DEE0FFF1FED57FA4F9081818128
S11324F0E1E4F2E0492F42234095922B9423918307
S1132500982F93239095832B892380837CC00E94EA
S1132510890F8091F70484FD76C02091CB05822F2A
S11325208295869587702091CC052170220F220F09
S1132530220F282B81E090E0AC0102C0440F551F0C
S11325402A95E2F72091CD05322F36953F70BC01D4
S113255002C0660F771F3A95E2F7E1E4F2E0362F06
S113256034233095462B34233183229526952770C6
S11325703091CE053170330F330F330F232B02C04C
S1132580880F991F2A95E2F79C01262B372B832F5E
S11325908523282F2095872F852B892B82238083C1
S11325A032C08091F70484FD2EC02091CB05822F88
S11325B08295869587702091CC052170220F220F79
S11325C0220F282B81E090E0AC0102C0440F551F7C
S11325D02A95E2F72091CD0526952F7002C0880F29
S11325E0991F2A95E2F7E1E4F2E0382F342330957D
S11325F0282F242B832F82238183892F8523809561
S1132600952B892380830E941203F2C18091E102F9
S113261081FFC9C1E1EEF2E080818D7F80830E9459
S113262076073091CB012091CD01E1E4F2E0822FD5
S1132630832B80959581892385838091F70485FF79
S113264029C1118210828091F9048C71843129F49A
S113265060E08091D0050E944D028091F5048330A2
S113266009F443C020F0863008F09CC07EC08091FD
S1132670F70484FF14C088230CF494C08091F804F8
S113268086958695869587700E9430078091F90417
S1132690869586958770885F0E94300783C0C0ED59
S11326A0D5E0E88157E0E59FF0011124E050FF4FA9
S11326B085810E9430078091C70581FBCC24C0F836
S11326C0D12C888191E19C9DF0019D9DF00D1124F8
S11326D0E80FF11DEE0FFF1FED57FA4F9081818136
S11326E0E1E4F2E0918380835DC08091F70484FF8C
S11326F019C0882334F4809182058F700E943007BA
S113270051C08091F80486958695869587700E94BD
S113271030078091F904869586958770885F0E94BA
S1132720300740C08091CD05982F96959F7021E089
S113273030E0A90102C0440F551F9A95E2F7E1E485
S1132740F2E041838295869587709091CE059170D1
S1132750990F990F990F892B02C0220F331F8A9565
S1132760E2F7852F832B80831DC08091F70484FFBB
S113277008C08823BCF4809182058F700E943007C2
S113278011C08091CD0586958F7021E030E0A901BC
S113279002C0440F551F8A95E2F7CA01E1E4F2E052
S11327A0418390838091CB018093D1058091C705AB
S11327B081FB002700F910E08091C80590E008171C
S11327C0190769F48091C70581FF11C08091E10266
S11327D082FD0DC08091CD018093D10508C0809108
S11327E0C70581FF04C08091CD018093D1058091FC
S11327F0FA02829586958695837090E002970CF094
S1132800F7C08091F5048330A8F48091F70484FF25
S113281011C088233CF48091CD0586958F700E9469
S1132820300708C08091F804869586958695877050
S11328300E9430078091C70581FBEE24E0F8F12C5B
S11328408091C80590E0E816F906A1F08091C705CB
S113285081FD08C0E1EDF5E09091CD018081892BE7
S11328608083C6C0E1EDF5E09091CB018081892B96
S11328708083BEC08091C70581FDBAC08091E1020A
S113288082FFB6C0E1EDF5E09091CD018081892B06
S11328908083AEC0E1E4F2E0118210829091C80519
S11328A0913031F010F0923029F43093D10502C008
S11328B02093D1059091F504933029F040F196309E
S11328C008F03FC036C084FF08C08823D4F5809147
S11328D082058F700E94300734C08091E20281FF2C
S11328E007C08091CD0586958F700E94300729C05E
S11328F09091CD059295969597708091CE058170B3
S1132900880F880F880F892B0E9430071AC084FF14
S113291018C0882344F48091D305869586958F70DA
S11329200E9430070EC0809182058F700E9430078C
S113293008C08079803929F4809182058F700E94C3
S113294030078091FA02829586958695837090E08F
S113295002970CF04DC08091F70484FD49C080912A
S1132960C805823039F4E1EDF5E09091CD01808124
S1132970892B80838091CD0586958F700E943007C6
S11329808091F5048330A1F59091CD0592959695AB
S113299097708091CE058170880F880F880F892BDE
S11329A00E94300725C080910003813009F5809191
S11329B0F70485FD1DC03091CB012091CD01922FEC
S11329C0932BE1E4F2E0492F4095858184238583AC
S11329D08091C805813039F018F0823039F008C090
S11329E03093D10505C02093D10502C09093D10541
S11329F0E1E4F2E09091D1058581892B8583DF9113
S1132A00CF911F910F91FF90EF90DF90CF90089599
S1132A106F927F928F929F92AF92BF92CF92DF92EA
S1132A20EF92FF920F931F93CF93DF938091F7045C
S1132A3085FFAEC10E94091A182F8F3F09F424C3E1
S1132A408091F504833009F40DC118F4813028F421
S1132A501BC3853009F45DC117C38091F70484FF5B
S1132A6037C00E942F098091F70488236CF5809168
S1132A70CC05982F9295969597708091CD0581708D
S1132A80880F880F880F892B482F50E0212F30E0C2
S1132A904217530709F4F8C2E1EEF2E09081906224
S1132AA09083EBECF5E0912F9F70792E770C928157
S1132AB0917E972992830E944B078091CD0586953C
S1132AC08F700E943007E0C2812F0E94E50DDCC2A6
S1132AD086FF0FC0E8E1F2E080818F7B8083EBEC1E
S1132AE0F5E0812F8F719081907E792E782A708203
S1132AF0CBC28091D005803109F052C08091CC05C1
S1132B0082FB662460F8712CC3018B509B4FFC013F
S1132B10EC52FF4F8081811708F4B6C2812F0E94C6
S1132B2067078091C70581FBAA24A0F8B12C809186
S1132B30CC0582FB882480F8912C81E090E002C0CF
S1132B40880F991F1A95E2F722E22A9DF0012B9D26
S1132B50F00D1124E80DF91DEE0FFF1FEB50FB4F94
S1132B602581368128273927368325832091D0056E
S1132B7031E13A9DF0013B9DF00D1124E20FF11D6E
S1132B80EE0FFF1FED57FA4F2081318182279327E3
S1132B9091838083E1EEF2E080818061808374C25E
S1132BA08091CC0582FB882780F9C82F80E0D82F3C
S1132BB0CB50DB4FCC52DF4F8881811708F464C2BD
S1132BC0812F0E9467078091C70581FBCC24C0F840
S1132BD0D12C8091CC0582FBEE24E0F8F12C4091BD
S1132BE0D005F701E295F295F07FFE27E07FFE27FE
S1132BF022E22C9DC0012D9D900D1124E80FF91F98
S1132C00E10FF11DEE0FFF1FE750FB4F81E090E055
S1132C109C01042E02C0220F331F0A94E2F765813F
S1132C207681262737273683258321E12C9DF001E1
S1132C302D9DF00D1124E40FF11DEE0FFF1FED5734
S1132C40FA4F02C0880F991F1A95E2F7208131814B
S1132C508227932791838083E1EEF2E08081806173
S1132C60808312C28091F70484FF21C08823DCF49E
S1132C701C3008F009C2809182058F70811709F415
S1132C8003C20E944B07E2E8F5E0812F8F70908128
S1132C90907F982B90830E943007E1EEF2E08081D0
S1132CA080628083F1C1812F0E94E50DEDC11C304B
S1132CB0E8F4812F8F70EBECF5E0282F220F92813E
S1132CC0917E922B92832091CC0522952695277094
S1132CD09170990F990F990F922B891709F4D4C108
S1132CE0E1EEF2E0808180628083CEC1EBECF5E01E
S1132CF0912F9295990F907E82818F71892B828377
S1132D0013FB882780F993819E7F792E782A73821A
S1132D10BBC18091F70484FF1EC088230CF0B4C1AA
S1132D201C3008F0B1C1809182058F70811709F4BD
S1132D30ABC10E944B07E2E8F5E0812F8F709081D0
S1132D40907F982B90830E943007E1EEF2E080811F
S1132D508062808399C1812F8F70EBECF5E0282F7E
S1132D60220F9281917E922B92832091CC05229501
S1132D70269527709170990F990F990F922B8917A7
S1132D8009F482C1E1EEF2E08081806280837CC13B
S1132D908091F504833011F40E94890F0E94091A6E
S1132DA0C82F8F3F09F470C18091F504833009F472
S1132DB0A4C020F0853009F40EC166C18091F704E7
S1132DC084FF56C08823ACF48091D30586958695FC
S1132DD08F700E944B07E2EDF5E08C2F8F70282F47
S1132DE0220F220F9181937C922B91830E943007B2
S1132DF04BC1CC3008F048C18091E10284FF16C079
S1132E00E1EEF2E080818F7E8083609182056F70B5
S1132E109091CC059295969597708091CD0581708F
S1132E20880F880F880F892B0E94B81002E815E0DC
S1132E30F80180818F700E944B078C2F8F70F801EE
S1132E409081907F982B90830E943007F8016081D5
S1132E506F709091CC059295969597708091CD0561
S1132E608170880F880F880F892B0E94710E0CC106
S1132E7086FF1AC08091CC05982F929596959770ED
S1132E808091CD058170880F880F880F892B90E081
S1132E902C2F30E08217930769F0609182056F70E0
S1132EA08C2F0E94B81006C0609182056F708C2F21
S1132EB00E94710E9C2F9F70EBECF5E0392F330FBD
S1132EC04281407E8C2F8295880F807EC181292F7C
S1132ED0269526952695942F932B922B9283CC712D
S1132EE090819F719083C82BC1831092F902EAEFFD
S1132EF0F2E080818F738083C7C08091F70484FFE0
S1132F002BC088230CF0C0C0CC3008F0BDC0809129
S1132F1082058F708C1709F4B7C00E944B0702E832
S1132F2015E08C2F8F70F8019081907F982B9083FF
S1132F300E943007F80160816F709091CC059295E2
S1132F40969597708091CD058170880F880F880FB2
S1132F50892B0E94710E98C0CC3058F58C2F8F703D
S1132F600BEC15E0382F330FF8019281907EC29557
S1132F70CC0FC07E21812F71C22BC183282F2695AF
S1132F8026952695932B922B9283609182056F70E0
S1132F900E94710EF801818190819F7190838C7FD2
S1132FA081831092F902EAEFF2E080818F738083CB
S1132FB06BC0EBECF5E09C2F9295990F907E82818B
S1132FC08F71892B8283C3FB882780F9C381CE7FCD
S1132FD0C82BC38359C08091F70484FF2BC0882376
S1132FE00CF052C0CC3008F04FC0809182058F7035
S1132FF08C1709F449C00E944B0702E815E08C2F96
S11330008F70F8019081907F982B90830E943007F5
S1133010F80160816F709091CC05929596959770A8
S11330208091CD058170880F880F880F892B0E94AD
S1133030710E2AC08C2F8F700BEC15E0382F330FD4
S1133040F8019281907EC295CC0FC07E21812F71B0
S1133050C22BC183282F269526952695932B922B38
S11330609283609182056F700E94710EF8018181D4
S113307090819F7190838C7F81831092F902EAEF93
S1133080F2E080818F738083DF91CF911F910F9144
S1133090FF90EF90DF90CF90BF90AF909F908F9074
S11330A07F906F9008958093AE00EDEAF0E0808108
S11330B08823ECF78091AE000895CF93DF93C1E4A9
S11330C0D2E088810E94531889810E9453188A8112
S11330D00E9453188B810E9453188C810E945318AC
S11330E08D810E9453188E810E9453188F810E94F3
S11330F0531888850E9453187198719ADF91CF9163
S11331000895CF93DF93709A80E00E945318CCE324
S1133110D2E0888380E00E945318898380E00E9473
S113312053188A8380E00E9453188B8380E00E94A6
S113313053188C8370989881392F3695E7EFF4E013
S1133140208130FB24F9392F3695369530FB27F949
S11331503A81432F42954F7040FB26F92083E7E3E1
S1133160F2E02081922729272083922398832181CA
S11331709981922729272183922399832281922F4F
S113318093272927228392239A8323819B81922741
S11331902927238392239B839481892798279483C7
S11331A089238C83DF91CF91089540E050E0DA01C8
S11331B0AA50BE4F8C91E82FE695E695E695E77008
S11331C0F0E0E45CFD4F208130E0982F977002C05E
S11331D0359527959A95E2F7217086FB992790F902
S11331E0292720FB86F98C934F5F5F4F43325105AB
S11331F0F1F6089593B180914A0298278927809324
S11332004A02892382FD03C080934B0209C094E0E3
S1133210892780934B02E2EEF2E080818160808313
S1133220809100038130C9F0E7EFF4E0808185FBF1
S1133230222720F990914B029695922790FB85F9CD
S1133240808385FF08C0211108C00E941A0D0895CB
S11332500E947B0D08952130D9F3089580911402C2
S113326086FF29C09091F70494FD25C0E4E1F2E0C3
S11332708F7B8083E8ECF5E080818F5F80838330EF
S113328029F41092C80595FF0BC002C095FF06C033
S1133290E1EEF2E080818460808308958D7F31F4D3
S11332A0E7ECF5E080818D7F80830895E7ECF5E01D
S11332B08081826080830895CF92DF92EF92FF92A3
S11332C00F931F93CF93DF938091F70484FD98C0ED
S11332D086FF85C0E8E1F2E080818F7B8083809166
S11332E0F50481118DC0E1EBF0E08081876080837B
S11332F0A0EBB0E08C918C9320E730E0E901888169
S1133300826088838C9181608C93808188608083C3
S11333108CE88093B3008091E20286FF08C0E2EE5D
S1133320F2E080818F7B80838CE10E946707E7EC69
S1133330F5E0808181FBEE24E0F8F12C84E48E9D9D
S1133340D0018F9DB00D1124A250BB4F90E4ED012C
S113335019929A95E9F7908191FB002700F910E002
S113336092E2909FD001919FB00D1124AD57BA4FB6
S1133370ED0119929A95E9F7908191FBCC24C0F85C
S1133380D12C8C9DF0018D9DF00D1124EB50FB4F41
S113339016821582108617828FE08093C90580E11A
S11333A08093CA05EBECF5E08181877E8860818398
S11333B088E18093F8020E941809609182056F7079
S11333C09091CC059295969597708091CD058170DA
S11333D0880F880F880F892B0E94B81011C0809124
S11333E0F50481110DC01092B000E0E7F0E0808197
S11333F08D7F808386E48093B3008CE10E94300744
S1133400DF91CF911F910F91FF90EF90DF90CF90BC
S113341008958091F60186FD09C081E090E0FC01E9
S1133420EA50FE4F208126FF0AC002C080E090E0EF
S1133430FC01EA50FE4F90819F7B90830895019692
S11334408031910561F78FEF08958091130286FF13
S113345019C0E3E1F2E08F7B80838091F70484FD5F
S113346011C08EE20E9467078FE20E946707E7ECB3
S1133470F5E0808182FB222720F991E0922790FBDE
S113348082F9808308959091C70592FD39C0482F31
S113349050E097E0899FF0011124E050FF4F9381A1
S11334A09F3FC1F02091D2052F7130E0421753079E
S11334B049F4875FE2EDF5E08F719081907E892B6E
S11334C080830895E2EDF5E08F719081907E892BE1
S11334D0808308959091D2059F71963049F4863087
S11334E039F4E2EDF5E08081807E8F608083089579
S11334F0E2EDF5E08F719081907E892B80830895B1
S1133500482F50E097E0899FF0011124E050FF4FCD
S113351093819F3FC1F12091D205922F9295969568
S113352097702091D3052370220F220F220F292B8D
S113353030E042175307A1F4875FE2EDF5E0282F4E
S11335402295220F207E90819F71922B90838695E5
S113355086958695837091819C7F892B81830895BC
S1133560E2EDF5E0282F2295220F207E90819F71B5
S1133570922B9083869586958695837091819C7F06
S1133580892B818308959091D205292F2295269520
S113359027709091D3059370990F990F990F922BDF
S11335A0963061F4863051F4E2EDF5E08081806E6E
S11335B0808381818C7F816081830895E2EDF5E0D1
S11335C0282F2295220F207E90819F71922B908329
S11335D0869586958695837091819C7F892B8183BE
S11335E00895482F50E097E0899FF0011124E0509E
S11335F0FF4F93819F3F19F4863009F09EC0CA01A2
S11336000996FC01EE0FFF1FEE0FFF1FEE0FFF1FC9
S1133610E81BF90BEA5FFE4F6081262F217030E032
S1133620220F331FFA01EE0FFF1FEE0FFF1FEE0FE5
S1133630FF1FE41BF50BEA5FFE4F30813170232B33
S1133640213021F130F02230F1F1233009F458C057
S11336500895FA01EE0FFF1FEE0FFF1FEE0FFF1F7D
S1133660E41BF50BEA5FFE4F208121602083FC01FF
S1133670EE0FFF1FEE0FFF1FEE0FFF1FE81BF90BEE
S1133680EA5FFE4F80818E7F80830895FA01EE0FFA
S1133690FF1FEE0FFF1FEE0FFF1FE41BF50BEA5F8A
S11336A0FE4F20812E7F2083FC01EE0FFF1FEE0FC3
S11336B0FF1FEE0FFF1FE81BF90BEA5FFE4F80812F
S11336C0816080830895FA01EE0FFF1FEE0FFF1F44
S11336D0EE0FFF1FE41BF50BEA5FFE4F2081216014
S11336E02083FC01EE0FFF1FEE0FFF1FEE0FFF1FE5
S11336F0E81BF90BEA5FFE4F8081816080830895A7
S1133700FA01EE0FFF1FEE0FFF1FEE0FFF1FE41B6A
S1133710F50BEA5FFE4F20812E7F2083FC01EE0F24
S1133720FF1FEE0FFF1FEE0FFF1FE81BF90BEA5FF1
S1133730FE4F80818E7F80830895FA01EE0FFF1F74
S1133740EE0FFF1FEE0FFF1FE41BF50BEA5FFE4FAA
S11337508081982F909590FB80F980830895CF9372
S1133760C82F9091F70494FD23C00E94760787E048
S1133770C89FF0011124E050FF4F83818F3F59F01F
S11337808091D0058C1304C0875F8093D0051AC044
S1133790C093D00517C08091D005863031F4C6306F
S11337A021F48FE08093D0050DC0C093D0050AC0EA
S11337B0992334F40E9476078C2F0E94431A02C086
S11337C00E94F11ACF910895CF93DF93809106025E
S11337D086FD07C08091070286FD52C022E130E0D9
S11337E046C0E6E0F2E080818F7B80838091F5041F
S11337F0813008F491C0833020F08450823058F135
S11338008BC08091F70484FD09C00E94760784E18F
S11338100E94300780E18093D0057EC088230CF09D
S11338207BC00E94760784E10E9430078091C7051F
S113383082FD07C0E2EDF5E08081807E80618083B7
S11338406BC0E2EDF5E080818F71808381818C7F94
S11338508260818361C0EBECF5E083818F778383A1
S11338608481887F848384E10E94300755C0F901F4
S1133870EA50FE4F808186FF49C0E901619704C088
S1133880C0E0D0E021E130E0F901EA50FE4F808150
S11338908F7B80839091F5049130F0F1933018F090
S11338A0963028F039C08C2F0E94AF1B35C0809110
S11338B0F70484FF04C08C2F0E94F11A2DC0E091FC
S11338C0CE058E2F881F8827881FE091CF05E770CB
S11338D0EE0FE82BF0E0E958FE4F80810E944B0781
S11338E0CF5FCF70EBECF5E08381C0FB87F9838376
S11338F09C2F96958481887F892B8483EC2FF0E01C
S1133900E958FE4F80810E94300706C02F5F3F4F69
S11339102C31310509F0ABCFDF91CF910895CF92CF
S1133920DF92EF92FF920F931F93D092E902C0921D
S1133930E8021093E4020093E302F0925102E09251
S113394050020E94E521BA01A901405151096109BF
S11339507109DB01CA011AF40196A11DB11DB595C7
S1133960A795979587958093B8001092B900109207
S1133970EC021F910F91FF90EF90DF90CF9008958C
S113398091E09093EC02209150023091510226175D
S1133990370748F4209150023091510230934D0280
S11339A020934C0204C070934D0260934C0291E04A
S11339B09093ED029093DF028093EA0285EA80936C
S11339C0BC00089591E09093EC0220915002309154
S11339D051022617370748F42091500230915102C2
S11339E030934D0220934C0204C070934D026093B7
S11339F04C0220915002309151022417350748F4AB
S1133A0020915002309151023093E7022093E60254
S1133A1004C05093E7024093E60293E09093ED02D2
S1133A2091E09093DF028093EA0285EA8093BC00E0
S1133A3008951F920F920FB60F9211242F933F9364
S1133A404F935F936F937F938F939F93AF93BF93A2
S1133A50EF93FF938091B900887F8093E002E09117
S1133A60E0028E2F90E0FC013897E13CF10508F06C
S1133A7025C1E65AFF4F0C9404228091DF02813065
S1133A8019F0823059F014C01092F5021092F40229
S1133A908091EA02880F8093BB000AC01092F5025D
S1133AA01092F4028091EA02880F81608093BB0037
S1133AB085EC8093BC000DC12091F4023091F50295
S1133AC080914C0290914D0228173907F1F48091AE
S1133AD0ED02833039F482E08093DF0285EA80933B
S1133AE0BC00F7C0E091E802F091E902309711F0D0
S1133AF080E0099585E98093BC00ECEBF0E08081DF
S1133B0084FDFDCF1092EC02E4C02091E3023091D9
S1133B10E4028091F4029091F502AC014F5F5F4F93
S1133B205093F5024093F402F901E80FF91F8081E4
S1133B308093BB0085E88093BC00CBC02091E30256
S1133B403091E4028091F4029091F502AC014F5F50
S1133B505F4F5093F5024093F402F901E80FF91F07
S1133B602091BB0020838091E6029091E70220918E
S1133B70F4023091F50201978217930721F485E846
S1133B808093BC00A6C085EC8093BC00A2C02091A9
S1133B90E3023091E4028091F4029091F502AC01C9
S1133BA04F5F5F4F5093F5024093F402F901E80F21
S1133BB0F91F2091BB002083E091E802F091E90213
S1133BC0309711F080E0099585E98093BC00ECEB17
S1133BD0F0E0808184FDFDCF1092EC027AC0109257
S1133BE0F5021092F40285EC8093BC0072C020911F
S1133BF0F4023091F50280915002909151022817FD
S1133C003907A8F42091E3023091E4028091F40290
S1133C109091F502AC014F5F5F4F5093F5024093D2
S1133C20F402F901E80FF91F2091BB00208385EC11
S1133C308093BC004EC08091F4029091F502809371
S1133C40EB02E091E802F091E902309711F080E094
S1133C50099585EC8093BC003CC01092F50210924B
S1133C60F4022091F4023091F50280915002909177
S1133C70510228173907A8F42091E3023091E40295
S1133C808091F4029091F502AC014F5F5F4F509325
S1133C90F5024093F402F901E80FF91F8081809343
S1133CA0BB0085EC8093BC0014C0E091E802F09165
S1133CB0E902309719F08091E002099585E9809333
S1133CC0BC00ECEBF0E0808184FDFDCF85EA8093BD
S1133CD0BC00FF91EF91BF91AF919F918F917F9124
S1133CE06F915F914F913F912F910F900FBE0F9065
S1133CF01F901895FC0142837483638311821082A0
S1133D000895FF920F931F93CF93DF93EC01062F37
S1133D100E94FA1E182FF9804F2D50E0CA01019617
S1133D202A81622F70E00E94D121288130E082171D
S1133D30930729F4812F0E94FD1E80E012C0EB81BD
S1133D40FC81EF0DF11D0083298130E0C90101964A
S1133D506A8170E00E94D1218983812F0E94FD1E17
S1133D6081E0DF91CF911F910F91FF900895CF9340
S1133D70DF93EC010E94FA1E39812881321718F072
S1133D80C32FC21B04C09A81C32FC90FC21B0E9438
S1133D90FD1E8C2FDF91CF910895FC01808170E08E
S1133DA09B01280F311DC901628170E00E94D1215D
S1133DB00380F481E02DE80FF91F808108951F939B
S1133DC0CF93DF93EC01162F0E94FA1E482F8881AF
S1133DD0212F30E0B901680F711DCB016A8170E0B9
S1133DE00E94D1218883842F0E94FD1EDF91CF91F0
S1133DF01F9108958FB7F89408958FBF0895881F71
S1133E008827881F089591E0883F08F490E0892F5F
S1133E100895982F907F903CB1F058F4903941F177
S1133E2018F4903819F524C0903A11F1903BF1F44C
S1133E301FC0903EE9F018F4903D29F017C0903F60
S1133E4021F0933F99F482E0089590E0FC01E15F52
S1133E50F109EF30F10540F4E55EFE4F0C940422C5
S1133E6083E0089582E0089580E0089580E0089555
S1133E7083E0089581E008950F93DC01ED91FC91B6
S1133E8000E020E048EF61E070E009950F910895AB
S1133E900F93DC01ED91FC9100E020E04AEF61E03A
S1133EA070E009950F9108950F93DC01ED91FC9159
S1133EB000E020E04CEF61E070E009950F91089577
S1133EC0FC01758364830895FC01778366830895F8
S1133ED0FC01778B668B0895CF93DF93EC011DA2D1
S1133EE01FA21EA2BC01685D7F4F40EC88519F4F0A
S1133EF00E947A1E1B821A821D821C821F821E82CD
S1133F00198618861B861A861D861C861F861E86A1
S1133F10198A188A1B8A1A8A1D8A1C8A1F8A1E8A71
S1133F20198E188E1B8E1A8E1D8E1C8E1F8E1E8E41
S1133F3019A218A2DF91CF910895EF92FF920F93E7
S1133F401F93CF93DF93662399F0EA016150062F04
S1133F5010E00F5F1F4F040F151F7C0128EEE20EC7
S1133F60F11C6991C7010E94811EC017D107C9F7CE
S1133F70DF91CF911F910F91FF90EF900895FC0175
S1133F80718360830895AF92BF92CF92DF92EF92D4
S1133F90FF920F931F93CF93DF9300D01F92CDB75F
S1133FA0DEB77C016B01142FB22EA02EDC01959696
S1133FB08C919597843011F55A96ED91FC915B970D
S1133FC0309709F4CCC09B0121503109ABEABAEA1D
S1133FD00E940A22969587959C01220F331F820F17
S1133FE0931F4983BA820B834C2D481B9E012F5F7C
S1133FF03F4F682F792FC7010995BEC06230710504
S113400009F455C06330710529F06130710509F078
S1134010A1C088C0842F807F803AF1F028F48038D2
S1134020A9F0803969F02FC0803EE1F0803F01F1B2
S1134030803B49F5D7011296ED91FC91139725C069
S1134040D7011496ED91FC9115971FC0D7011696D0
S1134050ED91FC91179719C0D7011896ED91FC9139
S1134060199713C0D7011A96ED91FC911B970DC0B7
S1134070423F09F074C0D7011C96ED91FC911D9745
S1134080309741F46CC0E0E0F0E0309709F467C089
S1134090123F31F42A2D4B2D62EFC70109956CC0F4
S11340A02A2D4B2D612F6F70C701099565C0842F90
S11340B0807F803D51F0803F71F0803C01F5D70155
S11340C01E96ED91FC911F971CC0D7015096ED915F
S11340D0FC91519716C0433F41F4D7015296ED919C
S11340E0FC915397309799F43AC0413FC1F5D701F9
S11340F05496ED91FC915597309749F430C0E0E027
S1134100F0E0309761F1812F8D7F813F29F44B2DB1
S1134110612FC701099530C04B2D612F6F70C70106
S113412009952AC0842F0E94031F882331F0D701E8
S11341305696ED91FC91579707C0163F81F4D7012D
S11341405896ED91FC915997309749F0612FC7012A
S1134150099512C06430710510F0C12CD12CD7011F
S11341605C96ED91FC915D97309731F00A2D2B2DE3
S1134170412FB601C7010995D7015E96ED91FC91D7
S11341805F97309731F00A2D2B2D412FB601C701CF
S113419009950F900F900F90DF91CF911F910F9180
S11341A0FF90EF90DF90CF90BF90AF900895FF9273
S11341B00F931F93CF93DF93EC01162F862F0E944A
S11341C0031F882369F0FDA081E08DA300E020E0B7
S11341D0412F61E070E0CE010E94C31FFDA2A4C084
S11341E0812F0E94FF1E882309F45DC08DA18430B5
S11341F029F01AA381E090E09FA38EA3812F0E944F
S1134200091F813031F0B8F0823079F0833081F0C9
S113421046C081E08DA300E020E0412F61E070E022
S1134220CE010E94C31F1DA27FC082E08DA37CC06B
S113423083E08DA379C0103F19F0173F51F02BC0D4
S113424084E08DA380EF8AA381E090E09FA38EA3F6
S11342506BC04EA15FA19A01ABEABAEA0E940A229E
S1134260969587959C01220F331F820F931FFA01A5
S1134270E81BF90BEC0FFD1F87EF82A3BA016F5FF8
S11342807F4F7FA36EA30CA12BA14AA1CE010E9454
S1134290C31F1DA249C01DA21FA21EA245C01DA26C
S11342A01FA21EA241C0EDA1EE23F1F14EA15FA118
S11342B09A01ABEABAEA0E940A22969587959C0174
S11342C0220F331F820F931F9A01281B390BDE0123
S11342D0A20FB31F92961C93BA016F5F7F4F7FA307
S11342E06EA32130310589F022303105E9F40CA1A7
S11342F02BA14AA1CE010E94C31F8DA18430A1F03D
S113430081E090E09FA38EA30FC0E23069F400E047
S11343102BA14AA1CE010E94C31F8DA1843021F09C
S113432081E090E09FA38EA3DF91CF911F910F9125
S1134330FF900895CF92DF92EF92FF920F931F9315
S1134340CF93DF936C01DC019096ED91FC919197F2
S1134350309709F00995860108511F4FC8010E9442
S1134360B71EE82EF12CE114F10491F0C0E0D0E086
S113437060E0C8010E94CD1E682FC6010E94D720AC
S113438061E0C8010E94DF1E2196CE15DF0581F78A
S1134390DF91CF911F910F91FF90EF90DF90CF901D
S11343A0089597FB072E16F4009407D077FD09D0E3
S11343B00E94192207FC05D03EF4909581959F4FE9
S11343C00895709561957F4F0895052E97FB1EF40F
S11343D000940E94FC2157FD07D00E942D2207FC67
S11343E003D04EF40C94FC215095409530952195C2
S11343F03F4F4F4F5F4F089590958095709561950D
S11344007F4F8F4F9F4F0895EE0FFF1F0590F4913C
S1134410E02D0994A29FB001B39FC001A39F700D2A
S1134420811D1124911DB29F700D811D1124911DB8
S11344300895AA1BBB1B51E107C0AA1FBB1FA617E7
S1134440B70710F0A61BB70B881F991F5A95A9F739
S113445080959095BC01CD010895A1E21A2EAA1B66
S1134460BB1BFD010DC0AA1FBB1FEE1FFF1FA21720
S1134470B307E407F50720F0A21BB30BE40BF50B1D
S1134480661F771F881F991F1A9469F760957095A6
S1134490809590959B01AC01BD01CF010895F894DE
S10544A0FFCF48
S11344A2000402FF001500010404FF0016000204C8
S11344B2080101170003041002013000040420045F
S11344C201310005044008003200060480FF003375
S11344D200070301FF003500080302FF003600094C
S11344E20304FF002C000A0308FF002D000B04083C
S11344F2010018000C0410020019000D042004002D
S11345021A000E044008011B008F0320FF00340030
S1134512100401FF0014001415161730313233351C
S1134522362C2D0101020104010801100120014071
S11345320180010100020004000800100020004074
S1134542008000010202020402080210022002405A
S113455202800210032003400380030104020404C6
S11345620408041004200440048004010502050424
S113457205080510052005400580051006200640A3
S11345820680060107020704070807100740078090
S113459207010C181020202122232425262718196C
S11345A21A1B1C1D1E1F15161708090A0B0C0D0ECB
S11345B20F0001021011121314010111115555FFBC
S11345C2FFFFFF000102030405000F0B07030100B4
S9030000FC
